{
  "address": "0xC2C046BC1C5EedBB50837C2f06e2d6b88a244C86",
  "abi": [
    {
      "inputs": [
        {
          "internalType": "contract ITokenGovernance",
          "name": "initBNTGovernance",
          "type": "address"
        },
        {
          "internalType": "contract ITokenGovernance",
          "name": "initVBNTGovernance",
          "type": "address"
        },
        {
          "internalType": "contract INetworkSettings",
          "name": "initNetworkSettings",
          "type": "address"
        },
        {
          "internalType": "contract IMasterVault",
          "name": "initMasterVault",
          "type": "address"
        },
        {
          "internalType": "contract IExternalProtectionVault",
          "name": "initExternalProtectionVault",
          "type": "address"
        },
        {
          "internalType": "contract IPoolToken",
          "name": "initBNTPoolToken",
          "type": "address"
        }
      ],
      "stateMutability": "nonpayable",
      "type": "constructor"
    },
    {
      "inputs": [],
      "name": "AccessDenied",
      "type": "error"
    },
    {
      "inputs": [],
      "name": "AlreadyExists",
      "type": "error"
    },
    {
      "inputs": [],
      "name": "DeadlineExpired",
      "type": "error"
    },
    {
      "inputs": [],
      "name": "DoesNotExist",
      "type": "error"
    },
    {
      "inputs": [],
      "name": "EthAmountMismatch",
      "type": "error"
    },
    {
      "inputs": [],
      "name": "InsufficientFlashLoanReturn",
      "type": "error"
    },
    {
      "inputs": [],
      "name": "InvalidAddress",
      "type": "error"
    },
    {
      "inputs": [],
      "name": "InvalidToken",
      "type": "error"
    },
    {
      "inputs": [],
      "name": "InvalidTokens",
      "type": "error"
    },
    {
      "inputs": [],
      "name": "InvalidType",
      "type": "error"
    },
    {
      "inputs": [],
      "name": "NotEmpty",
      "type": "error"
    },
    {
      "inputs": [],
      "name": "NotWhitelisted",
      "type": "error"
    },
    {
      "inputs": [],
      "name": "Overflow",
      "type": "error"
    },
    {
      "inputs": [],
      "name": "PermitUnsupported",
      "type": "error"
    },
    {
      "inputs": [],
      "name": "ZeroValue",
      "type": "error"
    },
    {
      "anonymous": false,
      "inputs": [
        {
          "indexed": true,
          "internalType": "contract Token",
          "name": "token",
          "type": "address"
        },
        {
          "indexed": true,
          "internalType": "address",
          "name": "borrower",
          "type": "address"
        },
        {
          "indexed": false,
          "internalType": "uint256",
          "name": "amount",
          "type": "uint256"
        },
        {
          "indexed": false,
          "internalType": "uint256",
          "name": "feeAmount",
          "type": "uint256"
        }
      ],
      "name": "FlashLoanCompleted",
      "type": "event"
    },
    {
      "anonymous": false,
      "inputs": [
        {
          "indexed": true,
          "internalType": "bytes32",
          "name": "contextId",
          "type": "bytes32"
        },
        {
          "indexed": true,
          "internalType": "contract Token",
          "name": "token",
          "type": "address"
        },
        {
          "indexed": true,
          "internalType": "address",
          "name": "provider",
          "type": "address"
        },
        {
          "indexed": false,
          "internalType": "uint256",
          "name": "amount",
          "type": "uint256"
        },
        {
          "indexed": false,
          "internalType": "uint256",
          "name": "availableAmount",
          "type": "uint256"
        }
      ],
      "name": "FundsMigrated",
      "type": "event"
    },
    {
      "anonymous": false,
      "inputs": [
        {
          "indexed": true,
          "internalType": "uint16",
          "name": "poolType",
          "type": "uint16"
        },
        {
          "indexed": true,
          "internalType": "contract IPoolCollection",
          "name": "prevPoolCollection",
          "type": "address"
        },
        {
          "indexed": true,
          "internalType": "contract IPoolCollection",
          "name": "newPoolCollection",
          "type": "address"
        }
      ],
      "name": "LatestPoolCollectionReplaced",
      "type": "event"
    },
    {
      "anonymous": false,
      "inputs": [
        {
          "indexed": true,
          "internalType": "address",
          "name": "caller",
          "type": "address"
        },
        {
          "indexed": true,
          "internalType": "address",
          "name": "recipient",
          "type": "address"
        },
        {
          "indexed": false,
          "internalType": "uint256",
          "name": "amount",
          "type": "uint256"
        }
      ],
      "name": "NetworkFeesWithdrawn",
      "type": "event"
    },
    {
      "anonymous": false,
      "inputs": [
        {
          "indexed": false,
          "internalType": "address",
          "name": "account",
          "type": "address"
        }
      ],
      "name": "Paused",
      "type": "event"
    },
    {
      "anonymous": false,
      "inputs": [
        {
          "indexed": true,
          "internalType": "contract Token",
          "name": "pool",
          "type": "address"
        },
        {
          "indexed": true,
          "internalType": "contract IPoolCollection",
          "name": "poolCollection",
          "type": "address"
        }
      ],
      "name": "PoolAdded",
      "type": "event"
    },
    {
      "anonymous": false,
      "inputs": [
        {
          "indexed": true,
          "internalType": "uint16",
          "name": "poolType",
          "type": "uint16"
        },
        {
          "indexed": true,
          "internalType": "contract IPoolCollection",
          "name": "poolCollection",
          "type": "address"
        }
      ],
      "name": "PoolCollectionAdded",
      "type": "event"
    },
    {
      "anonymous": false,
      "inputs": [
        {
          "indexed": true,
          "internalType": "uint16",
          "name": "poolType",
          "type": "uint16"
        },
        {
          "indexed": true,
          "internalType": "contract IPoolCollection",
          "name": "poolCollection",
          "type": "address"
        }
      ],
      "name": "PoolCollectionRemoved",
      "type": "event"
    },
    {
      "anonymous": false,
      "inputs": [
        {
          "indexed": true,
          "internalType": "bytes32",
          "name": "role",
          "type": "bytes32"
        },
        {
          "indexed": true,
          "internalType": "bytes32",
          "name": "previousAdminRole",
          "type": "bytes32"
        },
        {
          "indexed": true,
          "internalType": "bytes32",
          "name": "newAdminRole",
          "type": "bytes32"
        }
      ],
      "name": "RoleAdminChanged",
      "type": "event"
    },
    {
      "anonymous": false,
      "inputs": [
        {
          "indexed": true,
          "internalType": "bytes32",
          "name": "role",
          "type": "bytes32"
        },
        {
          "indexed": true,
          "internalType": "address",
          "name": "account",
          "type": "address"
        },
        {
          "indexed": true,
          "internalType": "address",
          "name": "sender",
          "type": "address"
        }
      ],
      "name": "RoleGranted",
      "type": "event"
    },
    {
      "anonymous": false,
      "inputs": [
        {
          "indexed": true,
          "internalType": "bytes32",
          "name": "role",
          "type": "bytes32"
        },
        {
          "indexed": true,
          "internalType": "address",
          "name": "account",
          "type": "address"
        },
        {
          "indexed": true,
          "internalType": "address",
          "name": "sender",
          "type": "address"
        }
      ],
      "name": "RoleRevoked",
      "type": "event"
    },
    {
      "anonymous": false,
      "inputs": [
        {
          "indexed": true,
          "internalType": "bytes32",
          "name": "contextId",
          "type": "bytes32"
        },
        {
          "indexed": true,
          "internalType": "contract Token",
          "name": "sourceToken",
          "type": "address"
        },
        {
          "indexed": true,
          "internalType": "contract Token",
          "name": "targetToken",
          "type": "address"
        },
        {
          "indexed": false,
          "internalType": "uint256",
          "name": "sourceAmount",
          "type": "uint256"
        },
        {
          "indexed": false,
          "internalType": "uint256",
          "name": "targetAmount",
          "type": "uint256"
        },
        {
          "indexed": false,
          "internalType": "uint256",
          "name": "bntAmount",
          "type": "uint256"
        },
        {
          "indexed": false,
          "internalType": "uint256",
          "name": "targetFeeAmount",
          "type": "uint256"
        },
        {
          "indexed": false,
          "internalType": "uint256",
          "name": "bntFeeAmount",
          "type": "uint256"
        },
        {
          "indexed": false,
          "internalType": "address",
          "name": "trader",
          "type": "address"
        }
      ],
      "name": "TokensTraded",
      "type": "event"
    },
    {
      "anonymous": false,
      "inputs": [
        {
          "indexed": false,
          "internalType": "address",
          "name": "account",
          "type": "address"
        }
      ],
      "name": "Unpaused",
      "type": "event"
    },
    {
      "inputs": [],
      "name": "DEFAULT_ADMIN_ROLE",
      "outputs": [
        {
          "internalType": "bytes32",
          "name": "",
          "type": "bytes32"
        }
      ],
      "stateMutability": "view",
      "type": "function"
    },
    {
      "inputs": [
        {
          "internalType": "contract IPoolCollection",
          "name": "poolCollection",
          "type": "address"
        }
      ],
      "name": "addPoolCollection",
      "outputs": [],
      "stateMutability": "nonpayable",
      "type": "function"
    },
    {
      "inputs": [
        {
          "internalType": "uint256",
          "name": "id",
          "type": "uint256"
        }
      ],
      "name": "cancelWithdrawal",
      "outputs": [],
      "stateMutability": "nonpayable",
      "type": "function"
    },
    {
      "inputs": [
        {
          "internalType": "contract Token",
          "name": "pool",
          "type": "address"
        }
      ],
      "name": "collectionByPool",
      "outputs": [
        {
          "internalType": "contract IPoolCollection",
          "name": "",
          "type": "address"
        }
      ],
      "stateMutability": "view",
      "type": "function"
    },
    {
      "inputs": [
        {
          "internalType": "uint16",
          "name": "poolType",
          "type": "uint16"
        },
        {
          "internalType": "contract Token",
          "name": "token",
          "type": "address"
        }
      ],
      "name": "createPool",
      "outputs": [],
      "stateMutability": "nonpayable",
      "type": "function"
    },
    {
      "inputs": [
        {
          "internalType": "contract Token",
          "name": "pool",
          "type": "address"
        },
        {
          "internalType": "uint256",
          "name": "tokenAmount",
          "type": "uint256"
        }
      ],
      "name": "deposit",
      "outputs": [
        {
          "internalType": "uint256",
          "name": "",
          "type": "uint256"
        }
      ],
      "stateMutability": "payable",
      "type": "function"
    },
    {
      "inputs": [
        {
          "internalType": "address",
          "name": "provider",
          "type": "address"
        },
        {
          "internalType": "contract Token",
          "name": "pool",
          "type": "address"
        },
        {
          "internalType": "uint256",
          "name": "tokenAmount",
          "type": "uint256"
        }
      ],
      "name": "depositFor",
      "outputs": [
        {
          "internalType": "uint256",
          "name": "",
          "type": "uint256"
        }
      ],
      "stateMutability": "payable",
      "type": "function"
    },
    {
      "inputs": [
        {
          "internalType": "address",
          "name": "provider",
          "type": "address"
        },
        {
          "internalType": "contract Token",
          "name": "pool",
          "type": "address"
        },
        {
          "internalType": "uint256",
          "name": "tokenAmount",
          "type": "uint256"
        },
        {
          "internalType": "uint256",
          "name": "deadline",
          "type": "uint256"
        },
        {
          "internalType": "uint8",
          "name": "v",
          "type": "uint8"
        },
        {
          "internalType": "bytes32",
          "name": "r",
          "type": "bytes32"
        },
        {
          "internalType": "bytes32",
          "name": "s",
          "type": "bytes32"
        }
      ],
      "name": "depositForPermitted",
      "outputs": [
        {
          "internalType": "uint256",
          "name": "",
          "type": "uint256"
        }
      ],
      "stateMutability": "nonpayable",
      "type": "function"
    },
    {
      "inputs": [
        {
          "internalType": "contract Token",
          "name": "pool",
          "type": "address"
        },
        {
          "internalType": "uint256",
          "name": "tokenAmount",
          "type": "uint256"
        },
        {
          "internalType": "uint256",
          "name": "deadline",
          "type": "uint256"
        },
        {
          "internalType": "uint8",
          "name": "v",
          "type": "uint8"
        },
        {
          "internalType": "bytes32",
          "name": "r",
          "type": "bytes32"
        },
        {
          "internalType": "bytes32",
          "name": "s",
          "type": "bytes32"
        }
      ],
      "name": "depositPermitted",
      "outputs": [
        {
          "internalType": "uint256",
          "name": "",
          "type": "uint256"
        }
      ],
      "stateMutability": "nonpayable",
      "type": "function"
    },
    {
      "inputs": [
        {
          "internalType": "contract Token",
          "name": "token",
          "type": "address"
        },
        {
          "internalType": "uint256",
          "name": "amount",
          "type": "uint256"
        },
        {
          "internalType": "contract IFlashLoanRecipient",
          "name": "recipient",
          "type": "address"
        },
        {
          "internalType": "bytes",
          "name": "data",
          "type": "bytes"
        }
      ],
      "name": "flashLoan",
      "outputs": [],
      "stateMutability": "nonpayable",
      "type": "function"
    },
    {
      "inputs": [
        {
          "internalType": "bytes32",
          "name": "role",
          "type": "bytes32"
        }
      ],
      "name": "getRoleAdmin",
      "outputs": [
        {
          "internalType": "bytes32",
          "name": "",
          "type": "bytes32"
        }
      ],
      "stateMutability": "view",
      "type": "function"
    },
    {
      "inputs": [
        {
          "internalType": "bytes32",
          "name": "role",
          "type": "bytes32"
        },
        {
          "internalType": "uint256",
          "name": "index",
          "type": "uint256"
        }
      ],
      "name": "getRoleMember",
      "outputs": [
        {
          "internalType": "address",
          "name": "",
          "type": "address"
        }
      ],
      "stateMutability": "view",
      "type": "function"
    },
    {
      "inputs": [
        {
          "internalType": "bytes32",
          "name": "role",
          "type": "bytes32"
        }
      ],
      "name": "getRoleMemberCount",
      "outputs": [
        {
          "internalType": "uint256",
          "name": "",
          "type": "uint256"
        }
      ],
      "stateMutability": "view",
      "type": "function"
    },
    {
      "inputs": [
        {
          "internalType": "bytes32",
          "name": "role",
          "type": "bytes32"
        },
        {
          "internalType": "address",
          "name": "account",
          "type": "address"
        }
      ],
      "name": "grantRole",
      "outputs": [],
      "stateMutability": "nonpayable",
      "type": "function"
    },
    {
      "inputs": [
        {
          "internalType": "bytes32",
          "name": "role",
          "type": "bytes32"
        },
        {
          "internalType": "address",
          "name": "account",
          "type": "address"
        }
      ],
      "name": "hasRole",
      "outputs": [
        {
          "internalType": "bool",
          "name": "",
          "type": "bool"
        }
      ],
      "stateMutability": "view",
      "type": "function"
    },
    {
      "inputs": [
        {
          "internalType": "contract IPoolToken",
          "name": "poolToken",
          "type": "address"
        },
        {
          "internalType": "uint256",
          "name": "poolTokenAmount",
          "type": "uint256"
        }
      ],
      "name": "initWithdrawal",
      "outputs": [
        {
          "internalType": "uint256",
          "name": "",
          "type": "uint256"
        }
      ],
      "stateMutability": "nonpayable",
      "type": "function"
    },
    {
      "inputs": [
        {
          "internalType": "contract IPoolToken",
          "name": "poolToken",
          "type": "address"
        },
        {
          "internalType": "uint256",
          "name": "poolTokenAmount",
          "type": "uint256"
        },
        {
          "internalType": "uint256",
          "name": "deadline",
          "type": "uint256"
        },
        {
          "internalType": "uint8",
          "name": "v",
          "type": "uint8"
        },
        {
          "internalType": "bytes32",
          "name": "r",
          "type": "bytes32"
        },
        {
          "internalType": "bytes32",
          "name": "s",
          "type": "bytes32"
        }
      ],
      "name": "initWithdrawalPermitted",
      "outputs": [
        {
          "internalType": "uint256",
          "name": "",
          "type": "uint256"
        }
      ],
      "stateMutability": "nonpayable",
      "type": "function"
    },
    {
      "inputs": [
        {
          "internalType": "contract IBNTPool",
          "name": "initBNTPool",
          "type": "address"
        },
        {
          "internalType": "contract IPendingWithdrawals",
          "name": "initPendingWithdrawals",
          "type": "address"
        },
        {
          "internalType": "contract IPoolCollectionUpgrader",
          "name": "initPoolCollectionUpgrader",
          "type": "address"
        }
      ],
      "name": "initialize",
      "outputs": [],
      "stateMutability": "nonpayable",
      "type": "function"
    },
    {
      "inputs": [],
      "name": "isPaused",
      "outputs": [
        {
          "internalType": "bool",
          "name": "",
          "type": "bool"
        }
      ],
      "stateMutability": "view",
      "type": "function"
    },
    {
      "inputs": [
        {
          "internalType": "contract Token",
          "name": "pool",
          "type": "address"
        }
      ],
      "name": "isPoolValid",
      "outputs": [
        {
          "internalType": "bool",
          "name": "",
          "type": "bool"
        }
      ],
      "stateMutability": "view",
      "type": "function"
    },
    {
      "inputs": [
        {
          "internalType": "uint16",
          "name": "poolType",
          "type": "uint16"
        }
      ],
      "name": "latestPoolCollection",
      "outputs": [
        {
          "internalType": "contract IPoolCollection",
          "name": "",
          "type": "address"
        }
      ],
      "stateMutability": "view",
      "type": "function"
    },
    {
      "inputs": [],
      "name": "liquidityPools",
      "outputs": [
        {
          "internalType": "contract Token[]",
          "name": "",
          "type": "address[]"
        }
      ],
      "stateMutability": "view",
      "type": "function"
    },
    {
      "inputs": [
        {
          "internalType": "contract Token",
          "name": "token",
          "type": "address"
        },
        {
          "internalType": "address",
          "name": "provider",
          "type": "address"
        },
        {
          "internalType": "uint256",
          "name": "amount",
          "type": "uint256"
        },
        {
          "internalType": "uint256",
          "name": "availableAmount",
          "type": "uint256"
        },
        {
          "internalType": "uint256",
          "name": "originalAmount",
          "type": "uint256"
        }
      ],
      "name": "migrateLiquidity",
      "outputs": [],
      "stateMutability": "payable",
      "type": "function"
    },
    {
      "inputs": [],
      "name": "pause",
      "outputs": [],
      "stateMutability": "nonpayable",
      "type": "function"
    },
    {
      "inputs": [],
      "name": "paused",
      "outputs": [
        {
          "internalType": "bool",
          "name": "",
          "type": "bool"
        }
      ],
      "stateMutability": "view",
      "type": "function"
    },
    {
      "inputs": [],
      "name": "poolCollections",
      "outputs": [
        {
          "internalType": "contract IPoolCollection[]",
          "name": "",
          "type": "address[]"
        }
      ],
      "stateMutability": "view",
      "type": "function"
    },
    {
      "inputs": [
        {
          "internalType": "contract IPoolCollection",
          "name": "poolCollection",
          "type": "address"
        },
        {
          "internalType": "contract IPoolCollection",
          "name": "newLatestPoolCollection",
          "type": "address"
        }
      ],
      "name": "removePoolCollection",
      "outputs": [],
      "stateMutability": "nonpayable",
      "type": "function"
    },
    {
      "inputs": [
        {
          "internalType": "bytes32",
          "name": "role",
          "type": "bytes32"
        },
        {
          "internalType": "address",
          "name": "account",
          "type": "address"
        }
      ],
      "name": "renounceRole",
      "outputs": [],
      "stateMutability": "nonpayable",
      "type": "function"
    },
    {
      "inputs": [],
      "name": "resume",
      "outputs": [],
      "stateMutability": "nonpayable",
      "type": "function"
    },
    {
      "inputs": [
        {
          "internalType": "bytes32",
          "name": "role",
          "type": "bytes32"
        },
        {
          "internalType": "address",
          "name": "account",
          "type": "address"
        }
      ],
      "name": "revokeRole",
      "outputs": [],
      "stateMutability": "nonpayable",
      "type": "function"
    },
    {
      "inputs": [],
      "name": "roleAdmin",
      "outputs": [
        {
          "internalType": "bytes32",
          "name": "",
          "type": "bytes32"
        }
      ],
      "stateMutability": "pure",
      "type": "function"
    },
    {
      "inputs": [],
      "name": "roleEmergencyStopper",
      "outputs": [
        {
          "internalType": "bytes32",
          "name": "",
          "type": "bytes32"
        }
      ],
      "stateMutability": "pure",
      "type": "function"
    },
    {
      "inputs": [],
      "name": "roleMigrationManager",
      "outputs": [
        {
          "internalType": "bytes32",
          "name": "",
          "type": "bytes32"
        }
      ],
      "stateMutability": "pure",
      "type": "function"
    },
    {
      "inputs": [],
      "name": "roleNetworkFeeManager",
      "outputs": [
        {
          "internalType": "bytes32",
          "name": "",
          "type": "bytes32"
        }
      ],
      "stateMutability": "pure",
      "type": "function"
    },
    {
      "inputs": [
        {
          "internalType": "contract IPoolCollection",
          "name": "poolCollection",
          "type": "address"
        }
      ],
      "name": "setLatestPoolCollection",
      "outputs": [],
      "stateMutability": "nonpayable",
      "type": "function"
    },
    {
      "inputs": [
        {
          "internalType": "bytes4",
          "name": "interfaceId",
          "type": "bytes4"
        }
      ],
      "name": "supportsInterface",
      "outputs": [
        {
          "internalType": "bool",
          "name": "",
          "type": "bool"
        }
      ],
      "stateMutability": "view",
      "type": "function"
    },
    {
      "inputs": [
        {
          "internalType": "contract Token",
          "name": "sourceToken",
          "type": "address"
        },
        {
          "internalType": "contract Token",
          "name": "targetToken",
          "type": "address"
        },
        {
          "internalType": "uint256",
          "name": "sourceAmount",
          "type": "uint256"
        },
        {
          "internalType": "uint256",
          "name": "minReturnAmount",
          "type": "uint256"
        },
        {
          "internalType": "uint256",
          "name": "deadline",
          "type": "uint256"
        },
        {
          "internalType": "address",
          "name": "beneficiary",
          "type": "address"
        }
      ],
      "name": "tradeBySourceAmount",
      "outputs": [],
      "stateMutability": "payable",
      "type": "function"
    },
    {
      "inputs": [
        {
          "internalType": "contract Token",
          "name": "sourceToken",
          "type": "address"
        },
        {
          "internalType": "contract Token",
          "name": "targetToken",
          "type": "address"
        },
        {
          "internalType": "uint256",
          "name": "sourceAmount",
          "type": "uint256"
        },
        {
          "internalType": "uint256",
          "name": "minReturnAmount",
          "type": "uint256"
        },
        {
          "internalType": "uint256",
          "name": "deadline",
          "type": "uint256"
        },
        {
          "internalType": "address",
          "name": "beneficiary",
          "type": "address"
        },
        {
          "internalType": "uint8",
          "name": "v",
          "type": "uint8"
        },
        {
          "internalType": "bytes32",
          "name": "r",
          "type": "bytes32"
        },
        {
          "internalType": "bytes32",
          "name": "s",
          "type": "bytes32"
        }
      ],
      "name": "tradeBySourceAmountPermitted",
      "outputs": [],
      "stateMutability": "nonpayable",
      "type": "function"
    },
    {
      "inputs": [
        {
          "internalType": "contract Token",
          "name": "sourceToken",
          "type": "address"
        },
        {
          "internalType": "contract Token",
          "name": "targetToken",
          "type": "address"
        },
        {
          "internalType": "uint256",
          "name": "targetAmount",
          "type": "uint256"
        },
        {
          "internalType": "uint256",
          "name": "maxSourceAmount",
          "type": "uint256"
        },
        {
          "internalType": "uint256",
          "name": "deadline",
          "type": "uint256"
        },
        {
          "internalType": "address",
          "name": "beneficiary",
          "type": "address"
        }
      ],
      "name": "tradeByTargetAmount",
      "outputs": [],
      "stateMutability": "payable",
      "type": "function"
    },
    {
      "inputs": [
        {
          "internalType": "contract Token",
          "name": "sourceToken",
          "type": "address"
        },
        {
          "internalType": "contract Token",
          "name": "targetToken",
          "type": "address"
        },
        {
          "internalType": "uint256",
          "name": "targetAmount",
          "type": "uint256"
        },
        {
          "internalType": "uint256",
          "name": "maxSourceAmount",
          "type": "uint256"
        },
        {
          "internalType": "uint256",
          "name": "deadline",
          "type": "uint256"
        },
        {
          "internalType": "address",
          "name": "beneficiary",
          "type": "address"
        },
        {
          "internalType": "uint8",
          "name": "v",
          "type": "uint8"
        },
        {
          "internalType": "bytes32",
          "name": "r",
          "type": "bytes32"
        },
        {
          "internalType": "bytes32",
          "name": "s",
          "type": "bytes32"
        }
      ],
      "name": "tradeByTargetAmountPermitted",
      "outputs": [],
      "stateMutability": "nonpayable",
      "type": "function"
    },
    {
      "inputs": [
        {
          "internalType": "contract Token[]",
          "name": "pools",
          "type": "address[]"
        }
      ],
      "name": "upgradePools",
      "outputs": [],
      "stateMutability": "nonpayable",
      "type": "function"
    },
    {
      "inputs": [],
      "name": "version",
      "outputs": [
        {
          "internalType": "uint16",
          "name": "",
          "type": "uint16"
        }
      ],
      "stateMutability": "pure",
      "type": "function"
    },
    {
      "inputs": [
        {
          "internalType": "uint256",
          "name": "id",
          "type": "uint256"
        }
      ],
      "name": "withdraw",
      "outputs": [
        {
          "internalType": "uint256",
          "name": "",
          "type": "uint256"
        }
      ],
      "stateMutability": "nonpayable",
      "type": "function"
    },
    {
      "inputs": [
        {
          "internalType": "address",
          "name": "recipient",
          "type": "address"
        }
      ],
      "name": "withdrawNetworkFees",
      "outputs": [],
      "stateMutability": "nonpayable",
      "type": "function"
    },
    {
      "stateMutability": "payable",
      "type": "receive"
    }
  ],
  "transactionHash": "0x6f9a36569dc44a204ee5479425bd39ef156af06e1036c382ba96f77513b79758",
  "args": [
    "0xa489C2b5b36835A327851Ab917A80562B5AFC244",
    "0x0887ae1251E180d7D453aeDEBee26e1639f20113",
    "0x302979c8f478279Ab3F46Ce3Dc96c98d9c28fb0c",
    "0xCc039b94a38Eb7039556De6c95aC7a48AAE86cE0",
    "0xbab75527ccEefC7f7678140a0f932655D050D759",
    "0x6fFa9Fc84e355624a1c986F54A95e926BC527A2D"
  ],
  "numDeployments": 1,
  "solcInputHash": "dcea142469df7f75d330e08f80ea8523",
  "bytecode": "0x6101806040523480156200001257600080fd5b5060405162005931380380620059318339810160408190526200003591620001df565b8562000041816200019e565b856200004d816200019e565b8562000059816200019e565b8562000065816200019e565b8562000071816200019e565b856200007d816200019e565b6001600160a01b038c1660a081905260408051637e062a3560e11b8152905163fc0c546a916004808201926020929091908290030181865afa158015620000c8573d6000803e3d6000fd5b505050506040513d601f19601f82011682018060405250810190620000ee919062000273565b6001600160a01b039081166080528b1660e081905260408051637e062a3560e11b8152905163fc0c546a916004808201926020929091908290030181865afa1580156200013f573d6000803e3d6000fd5b505050506040513d601f19601f8201168201806040525081019062000165919062000273565b6001600160a01b0390811660c052998a16610100525050505093851661012052509083166101405290911661016052506200029a915050565b6001600160a01b038116620001c65760405163e6c4247b60e01b815260040160405180910390fd5b50565b6001600160a01b0381168114620001c657600080fd5b60008060008060008060c08789031215620001f957600080fd5b86516200020681620001c9565b60208801519096506200021981620001c9565b60408801519095506200022c81620001c9565b60608801519094506200023f81620001c9565b60808801519093506200025281620001c9565b60a08801519092506200026581620001c9565b809150509295509295509295565b6000602082840312156200028657600080fd5b81516200029381620001c9565b9392505050565b60805160a05160c05160e051610100516101205161014051610160516155ce620003636000396000610a5c01526000818161338c0152613639015260008181610df501528181611a2901528181611b8401528181611bbe01528181612c51015281816132fd015281816135aa015281816141dd01526142570152600081816118d6015261196901526000505060006126db01526000505060008181610e220152818161247101528181612de501528181612e3a01528181613cd40152613d1101526155ce6000f3fe60806040526004361061026b5760003560e01c8063673cea6911610144578063c0c53b8b116100b6578063d3a4acd31161007a578063d3a4acd314610764578063d547741f14610777578063d6efd7c314610797578063e597e12d146107ac578063e6aac07e146107cc578063f6c57861146107ff57600080fd5b8063c0c53b8b146106b1578063c8447487146106d1578063c997e47e14610704578063ca15c87314610724578063cfcb9e3b1461074457600080fd5b80639bca0e70116101085780639bca0e70146105fa578063a217fddf14610634578063a7fb8f1b14610649578063adf51de114610669578063b187bd2614610689578063b3db428b1461069e57600080fd5b8063673cea69146105315780638456cb59146105845780639010d07c1461059957806391d14854146105b957806393867fb5146105d957600080fd5b80633d1c24e7116101dd57806345d6602c116101a157806345d6602c1461049757806345f2d040146104aa57806347e7ef24146104ca57806354fd4d50146104dd5780635c975abb146104f957806363f80c151461051157600080fd5b80633d1c24e7146104035780633efcfda41461041657806340aee0411461043657806340fbd5fb1461045657806341f435b31461047657600080fd5b80632f2ff15d1161022f5780632f2ff15d1461034157806333a801aa14610361578063357a03331461038157806336568abe146103a157806339fadf98146103c15780633cd11924146103e357600080fd5b806301ffc9a714610277578063046f7da2146102ac5780631fb6376b146102c3578063248a9ca3146102f15780632e1a7d4d1461032157600080fd5b3661027257005b600080fd5b34801561028357600080fd5b50610297610292366004614b50565b61081f565b60405190151581526020015b60405180910390f35b3480156102b857600080fd5b506102c161084a565b005b3480156102cf57600080fd5b506102e36102de366004614ba5565b61086e565b6040519081526020016102a3565b3480156102fd57600080fd5b506102e361030c366004614c13565b60009081526065602052604090206001015490565b34801561032d57600080fd5b506102e361033c366004614c13565b610923565b34801561034d57600080fd5b506102c161035c366004614c2c565b610ac8565b34801561036d57600080fd5b506102c161037c366004614c5c565b610af3565b34801561038d57600080fd5b506102e361039c366004614ce7565b610bc7565b3480156103ad57600080fd5b506102c16103bc366004614c2c565b610c41565b3480156103cd57600080fd5b506103d6610cbf565b6040516102a39190614d13565b3480156103ef57600080fd5b506102c16103fe366004614d60565b610d71565b6102c1610411366004614d7d565b610ec6565b34801561042257600080fd5b506102c1610431366004614c13565b61104a565b34801561044257600080fd5b506102c1610451366004614dce565b611102565b34801561046257600080fd5b506102c1610471366004614d60565b611238565b34801561048257600080fd5b506000805160206155628339815191526102e3565b6102c16104a5366004614e43565b6112ff565b3480156104b657600080fd5b506102e36104c5366004614eaa565b61138f565b6102e36104d8366004614ce7565b611446565b3480156104e957600080fd5b50604051600181526020016102a3565b34801561050557600080fd5b5060fb5460ff16610297565b34801561051d57600080fd5b506102c161052c366004614c5c565b6114b3565b34801561053d57600080fd5b5061056c61054c366004614f14565b61ffff16600090815261013260205260409020546001600160a01b031690565b6040516001600160a01b0390911681526020016102a3565b34801561059057600080fd5b506102c1611577565b3480156105a557600080fd5b5061056c6105b4366004614f31565b611598565b3480156105c557600080fd5b506102976105d4366004614c2c565b6115b7565b3480156105e557600080fd5b506000805160206155a28339815191526102e3565b34801561060657600080fd5b5061056c610615366004614d60565b6001600160a01b03908116600090815261013560205260409020541690565b34801561064057600080fd5b506102e3600081565b34801561065557600080fd5b506102c1610664366004614f53565b6115e2565b34801561067557600080fd5b506102c1610684366004614f81565b61183d565b34801561069557600080fd5b50610297611d32565b6102e36106ac366004615020565b611d45565b3480156106bd57600080fd5b506102c16106cc366004615061565b611dcc565b3480156106dd57600080fd5b507f657d38169ed9612cb2d9de7040b7b6a1adebf7a8433a66ccb49c08554ac9b8a56102e3565b34801561071057600080fd5b506102c161071f366004614d60565b611eb4565b34801561073057600080fd5b506102e361073f366004614c13565b6120fc565b34801561075057600080fd5b506102e361075f366004614eaa565b612113565b6102c1610772366004614e43565b6121a1565b34801561078357600080fd5b506102c1610792366004614c2c565b612224565b3480156107a357600080fd5b506103d661224a565b3480156107b857600080fd5b506102c16107c73660046150ac565b6122f5565b3480156107d857600080fd5b507fdf8c9529ea4b244b569bac557a549516f317e7b5cf82dc5e0d8b6d874930a3f56102e3565b34801561080b57600080fd5b5061029761081a366004614d60565b61246d565b60006001600160e01b03198216635a05180f60e01b14806108445750610844826124b6565b92915050565b60008051602061556283398151915261086381336124eb565b61086b612512565b50565b60008761087a816125a5565b87610884816125a5565b8761088e816125cc565b60fb5460ff16156108ba5760405162461bcd60e51b81526004016108b1906150ca565b60405180910390fd5b600260c95414156108dd5760405162461bcd60e51b81526004016108b1906150f4565b600260c98190555061090f8b8b8b8b60405180606001604052808d60ff1681526020018c81526020018b8152506125ea565b600160c9559b9a5050505050505050505050565b600061093160fb5460ff1690565b1561094e5760405162461bcd60e51b81526004016108b1906150ca565b600260c95414156109715760405162461bcd60e51b81526004016108b1906150f4565b600260c9553360006109d484836000814260405160609290921b6001600160601b031916602083015260e01b6001600160e01b03191660348201526038810184905260580160405160208183030381529060405280519060200120905092915050565b61012e5460405163158591ab60e11b8152600481018390526001600160a01b0385811660248301526044820188905292935060009290911690632b0b23569060640160408051808303816000875af1158015610a34573d6000803e3d6000fd5b505050506040513d601f19601f82011682018060405250810190610a589190615141565b90507f00000000000000000000000000000000000000000000000000000000000000006001600160a01b031681600001516001600160a01b03161415610aad57610aa382848361262a565b9350505050610abe565b610ab88284836127d8565b93505050505b600160c955919050565b600082815260656020526040902060010154610ae4813361295f565b610aee83836129c3565b505050565b60fb5460ff1615610b165760405162461bcd60e51b81526004016108b1906150ca565b600260c9541415610b395760405162461bcd60e51b81526004016108b1906150f4565b600260c955610b4b89898989896129e5565b610b8c3330888860405180606001604052808960ff168152602001888152602001878152508e6001600160a01b0316612a6a9095949392919063ffffffff16565b610bb7898960405180606001604052808b81526020018a81526020016000151581525033888a612b2e565b5050600160c95550505050505050565b600082610bd3816125a5565b82610bdd816125cc565b60fb5460ff1615610c005760405162461bcd60e51b81526004016108b1906150ca565b600260c9541415610c235760405162461bcd60e51b81526004016108b1906150f4565b600260c955610c33338686612d09565b600160c95595945050505050565b6001600160a01b0381163314610cb15760405162461bcd60e51b815260206004820152602f60248201527f416363657373436f6e74726f6c3a2063616e206f6e6c792072656e6f756e636560448201526e103937b632b9903337b91039b2b63360891b60648201526084016108b1565b610cbb8282612da9565b5050565b60606000610cce610130612dcb565b905060008167ffffffffffffffff811115610ceb57610ceb61512b565b604051908082528060200260200182016040528015610d14578160200160208202803683370190505b50905060005b82811015610d6a57610d2e61013082612dd5565b828281518110610d4057610d406151a7565b6001600160a01b039092166020928302919091019091015280610d62816151d3565b915050610d1a565b5092915050565b60fb5460ff1615610d945760405162461bcd60e51b81526004016108b1906150ca565b7f657d38169ed9612cb2d9de7040b7b6a1adebf7a8433a66ccb49c08554ac9b8a5610dbf81336124eb565b81610dc9816125a5565b6101365480610dd85750505050565b600061013655604051631c20fadd60e01b81526001600160a01b037f00000000000000000000000000000000000000000000000000000000000000001690631c20fadd90610e4e907f000000000000000000000000000000000000000000000000000000000000000090889086906004016151ee565b600060405180830381600087803b158015610e6857600080fd5b505af1158015610e7c573d6000803e3d6000fd5b50506040518381526001600160a01b03871692503391507f328c9cc28e75030423307e732b07659ae452a620281f3e54e838000a7f4675389060200160405180910390a350505050565b60fb5460ff1615610ee95760405162461bcd60e51b81526004016108b1906150ca565b7fdf8c9529ea4b244b569bac557a549516f317e7b5cf82dc5e0d8b6d874930a3f5610f1481336124eb565b600260c9541415610f375760405162461bcd60e51b81526004016108b1906150f4565b600260c95560003342604051606092831b6001600160601b0319908116602083015260e09290921b6001600160e01b031916603482015289831b8216603882015288831b909116604c8201529081018690526080810185905260a0810184905260c001604051602081830303815290604052805190602001209050610fbb87612de1565b15610fd557610fcf81878733600188612e18565b50610fe5565b610fe3818789883389612f4f565b505b856001600160a01b0316876001600160a01b0316827f95f38143651b27d8d5d77100903398095a479e36d6637c6680246cb73c4bc69e8888604051611034929190918252602082015260400190565b60405180910390a45050600160c9555050505050565b60fb5460ff161561106d5760405162461bcd60e51b81526004016108b1906150ca565b600260c95414156110905760405162461bcd60e51b81526004016108b1906150f4565b600260c95561012e54604051635f23b6c560e11b8152336004820152602481018390526001600160a01b039091169063be476d8a90604401600060405180830381600087803b1580156110e257600080fd5b505af11580156110f6573d6000803e3d6000fd5b5050600160c955505050565b600260c95414156111255760405162461bcd60e51b81526004016108b1906150f4565b600260c9558060005b8181101561122d57600084848381811061114a5761114a6151a7565b905060200201602081019061115f9190614d60565b61012f5460405163a2ff484f60e01b81526001600160a01b0380841660048301529293506000929091169063a2ff484f906024016020604051808303816000875af11580156111b2573d6000803e3d6000fd5b505050506040513d601f19601f820116820180604052508101906111d69190615212565b90506001600160a01b0381166111ed57505061121b565b6001600160a01b0391821660009081526101356020526040902080546001600160a01b031916919092161790555b80611225816151d3565b91505061112e565b5050600160c9555050565b600260c954141561125b5760405162461bcd60e51b81526004016108b1906150f4565b600260c9558061126a816125a5565b6112826000805160206155a2833981519152336124eb565b61128b82612faf565b6112f6826001600160a01b031663b1dd61b66040518163ffffffff1660e01b8152600401602060405180830381865afa1580156112cc573d6000803e3d6000fd5b505050506040513d601f19601f820116820180604052508101906112f0919061522f565b83612fee565b5050600160c955565b60fb5460ff16156113225760405162461bcd60e51b81526004016108b1906150ca565b600260c95414156113455760405162461bcd60e51b81526004016108b1906150f4565b600260c95561135786868686866129e5565b6113828686604051806060016040528088815260200187815260200160001515815250338587612b2e565b5050600160c95550505050565b60008661139b816125a5565b866113a5816125cc565b60fb5460ff16156113c85760405162461bcd60e51b81526004016108b1906150ca565b600260c95414156113eb5760405162461bcd60e51b81526004016108b1906150f4565b600260c9556040805160608101825260ff8816815260208101879052908101859052611429906001600160a01b038b1690339030908c908c90612a6a565b611434338a8a612d09565b600160c9559998505050505050505050565b600082611452816125a5565b8261145c816125cc565b60fb5460ff161561147f5760405162461bcd60e51b81526004016108b1906150ca565b600260c95414156114a25760405162461bcd60e51b81526004016108b1906150f4565b600260c955610c3333868682613082565b60fb5460ff16156114d65760405162461bcd60e51b81526004016108b1906150ca565b600260c95414156114f95760405162461bcd60e51b81526004016108b1906150f4565b600260c95561150b89898989896129e5565b61154c3330898860405180606001604052808960ff168152602001888152602001878152508e6001600160a01b0316612a6a9095949392919063ffffffff16565b610bb7898960405180606001604052808b81526020018a81526020016001151581525033888a612b2e565b60008051602061556283398151915261159081336124eb565b61086b6130c6565b60008281526097602052604081206115b09083612dd5565b9392505050565b60009182526065602090815260408084206001600160a01b0393909316845291905290205460ff1690565b816115ec816125a5565b6116046000805160206155a2833981519152336124eb565b600260c95414156116275760405162461bcd60e51b81526004016108b1906150f4565b600260c95561163582612faf565b826001600160a01b031663f525cb686040518163ffffffff1660e01b8152600401602060405180830381865afa158015611673573d6000803e3d6000fd5b505050506040513d601f19601f82011682018060405250810190611697919061524c565b156116b5576040516332e7879360e01b815260040160405180910390fd5b6116c16101308461311e565b6116de5760405163b0ce759160e01b815260040160405180910390fd5b6000836001600160a01b031663b1dd61b66040518163ffffffff1660e01b8152600401602060405180830381865afa15801561171e573d6000803e3d6000fd5b505050506040513d601f19601f82011682018060405250810190611742919061522f565b90506001600160a01b038316156117e3576000836001600160a01b031663b1dd61b66040518163ffffffff1660e01b8152600401602060405180830381865afa158015611793573d6000803e3d6000fd5b505050506040513d601f19601f820116820180604052508101906117b7919061522f565b90508061ffff168261ffff16146117e15760405163b968846160e01b815260040160405180910390fd5b505b6117ed8184612fee565b6117f8846000613133565b6040516001600160a01b0385169061ffff8316907fa0c1e3924f995e5ba38f53b4effb6d4b3eeb84176a2951c589115140f638ac0990600090a35050600160c9555050565b84611847816125a5565b84611851816125cc565b8461185b816125a5565b60fb5460ff161561187e5760405162461bcd60e51b81526004016108b1906150ca565b600260c95414156118a15760405162461bcd60e51b81526004016108b1906150f4565b600260c9556118af88612de1565b158015611943575060405163b5af090f60e01b81526001600160a01b0389811660048301527f0000000000000000000000000000000000000000000000000000000000000000169063b5af090f90602401602060405180830381865afa15801561191d573d6000803e3d6000fd5b505050506040513d601f19601f820116820180604052508101906119419190615265565b155b1561196157604051630b094f2760e31b815260040160405180910390fd5b60006119f8887f00000000000000000000000000000000000000000000000000000000000000006001600160a01b03166347b13e7c6040518163ffffffff1660e01b8152600401602060405180830381865afa1580156119c5573d6000803e3d6000fd5b505050506040513d601f19601f820116820180604052508101906119e99190615287565b63ffffffff16620f424061366a565b90506000611a0f6001600160a01b038b1630613730565b604051631c20fadd60e01b81529091506001600160a01b037f00000000000000000000000000000000000000000000000000000000000000001690631c20fadd90611a62908d908c908e906004016151ee565b600060405180830381600087803b158015611a7c57600080fd5b505af1158015611a90573d6000803e3d6000fd5b50505050876001600160a01b03166323e30c8b33611ab48d6001600160a01b031690565b8c868c8c6040518763ffffffff1660e01b8152600401611ad9969594939291906152ad565b600060405180830381600087803b158015611af357600080fd5b505af1158015611b07573d6000803e3d6000fd5b50505050600081611b2a308d6001600160a01b031661373090919063ffffffff16565b611b349190615309565b9050611b40838b615320565b811015611b605760405163b7ed78bf60e01b815260040160405180910390fd5b611b728b6001600160a01b03166137be565b15611baf57611baa6001600160a01b037f000000000000000000000000000000000000000000000000000000000000000016826137e0565b611be3565b611be36001600160a01b038c167f0000000000000000000000000000000000000000000000000000000000000000836138f9565b611bec8b612de1565b15611c675761012d54604051637c8f622d60e01b81526001600160a01b038d811660048301526024820186905260006044830152909116908190637c8f622d90606401600060405180830381600087803b158015611c4957600080fd5b505af1158015611c5d573d6000803e3d6000fd5b5050505050611cda565b6000611c728c613961565b604051631510748b60e01b81526001600160a01b038e811660048301526024820187905291925090821690631510748b90604401600060405180830381600087803b158015611cc057600080fd5b505af1158015611cd4573d6000803e3d6000fd5b50505050505b604080518b81526020810185905233916001600160a01b038e16917f0da3485ef1bb570df7bb888887eae5aa01d81b83cd8ccc80c0ea0922a677ecef910160405180910390a35050600160c955505050505050505050565b6000611d4060fb5460ff1690565b905090565b600083611d51816125a5565b83611d5b816125a5565b83611d65816125cc565b60fb5460ff1615611d885760405162461bcd60e51b81526004016108b1906150ca565b600260c9541415611dab5760405162461bcd60e51b81526004016108b1906150f4565b600260c955611dbc87878733613082565b600160c955979650505050505050565b82611dd6816125a5565b82611de0816125a5565b82611dea816125a5565b600054610100900460ff16611e055760005460ff1615611e09565b303b155b611e6c5760405162461bcd60e51b815260206004820152602e60248201527f496e697469616c697a61626c653a20636f6e747261637420697320616c72656160448201526d191e481a5b9a5d1a585b1a5e995960921b60648201526084016108b1565b600054610100900460ff16158015611e8e576000805461ffff19166101011790555b611e9987878761399d565b8015611eab576000805461ff00191690555b50505050505050565b80611ebe816125a5565b600260c9541415611ee15760405162461bcd60e51b81526004016108b1906150f4565b600260c955611efe6000805160206155a2833981519152336124eb565b611f0a610130836139df565b611f275760405163119b4fd360e11b815260040160405180910390fd5b6000826001600160a01b031663b1dd61b66040518163ffffffff1660e01b8152600401602060405180830381865afa158015611f67573d6000803e3d6000fd5b505050506040513d601f19601f82011682018060405250810190611f8b919061522f565b61ffff8116600090815261013260205260409020549091506001600160a01b031680158015906120845750836001600160a01b03166354fd4d506040518163ffffffff1660e01b8152600401602060405180830381865afa158015611ff4573d6000803e3d6000fd5b505050506040513d601f19601f82011682018060405250810190612018919061522f565b61ffff16816001600160a01b03166354fd4d506040518163ffffffff1660e01b8152600401602060405180830381865afa15801561205a573d6000803e3d6000fd5b505050506040513d601f19601f8201168201806040525081019061207e919061522f565b61ffff16145b156120a25760405163119b4fd360e11b815260040160405180910390fd5b6120ac8285612fee565b6120b7846001613133565b6040516001600160a01b0385169061ffff8416907f5ae87719d73cb0fabb219f0e4b6e0a614ed7506f8a08bdb20bebf313573151b790600090a35050600160c9555050565b600081815260976020526040812061084490612dcb565b60008661211f816125a5565b86612129816125cc565b60fb5460ff161561214c5760405162461bcd60e51b81526004016108b1906150ca565b600260c954141561216f5760405162461bcd60e51b81526004016108b1906150f4565b600260c981905550611434338a8a8a60405180606001604052808c60ff1681526020018b81526020018a8152506125ea565b60fb5460ff16156121c45760405162461bcd60e51b81526004016108b1906150ca565b600260c95414156121e75760405162461bcd60e51b81526004016108b1906150f4565b600260c9556121f986868686866129e5565b6113828686604051806060016040528088815260200187815260200160011515815250338587612b2e565b600082815260656020526040902060010154612240813361295f565b610aee8383612da9565b60606000612259610133612dcb565b905060008167ffffffffffffffff8111156122765761227661512b565b60405190808252806020026020018201604052801561229f578160200160208202803683370190505b50905060005b82811015610d6a576122b961013382612dd5565b8282815181106122cb576122cb6151a7565b6001600160a01b0390921660209283029190910190910152806122ed816151d3565b9150506122a5565b600260c95414156123185760405162461bcd60e51b81526004016108b1906150f4565b600260c95580612327816125a5565b61233082612de1565b1561234e5760405163c1ab6dc160e01b815260040160405180910390fd5b61235a610133836139df565b6123775760405163119b4fd360e11b815260040160405180910390fd5b61ffff8316600090815261013260205260409020546001600160a01b0316806123b35760405163b968846160e01b815260040160405180910390fd5b604051634824fce960e11b81526001600160a01b038481166004830152821690639049f9d290602401600060405180830381600087803b1580156123f657600080fd5b505af115801561240a573d6000803e3d6000fd5b505050506001600160a01b038381166000818152610135602052604080822080546001600160a01b0319169486169485179055517f95f865c2808f8b2a85eea2611db7843150ee7835ef1403f9755918a97d76933c9190a35050600160c9555050565b60007f00000000000000000000000000000000000000000000000000000000000000006001600160a01b0316826001600160a01b031614806108445750610844610133836139f4565b60006001600160e01b03198216637965db0b60e01b148061084457506301ffc9a760e01b6001600160e01b0319831614610844565b6124f582826115b7565b610cbb57604051634ca8886760e01b815260040160405180910390fd5b60fb5460ff1661255b5760405162461bcd60e51b815260206004820152601460248201527314185d5cd8589b194e881b9bdd081c185d5cd95960621b60448201526064016108b1565b60fb805460ff191690557f5db9ee0a495bf2e6ff9c91a7834c1ba4fdd244a5e8aa4e537bd38aeae4b073aa335b6040516001600160a01b03909116815260200160405180910390a1565b6001600160a01b03811661086b5760405163e6c4247b60e01b815260040160405180910390fd5b8061086b57604051637c946ed760e01b815260040160405180910390fd5b6000336126046001600160a01b0387168230888888612a6a565b61261d61261388888885613a16565b888888858a612f4f565b9150505b95945050505050565b61012d548151602083015160405163095ea7b360e01b81526000936001600160a01b0390811693169163095ea7b39161267b9185916004016001600160a01b03929092168252602082015260400190565b6020604051808303816000875af115801561269a573d6000803e3d6000fd5b505050506040513d601f19601f820116820180604052508101906126be9190615265565b5060208301516040516323b872dd60e01b81526001600160a01b037f000000000000000000000000000000000000000000000000000000000000000016916323b872dd916127139188918691906004016151ee565b6020604051808303816000875af1158015612732573d6000803e3d6000fd5b505050506040513d601f19601f820116820180604052508101906127569190615265565b50602083015160405163a6fb97d160e01b8152600481018790526001600160a01b03868116602483015260448201929092529082169063a6fb97d1906064016020604051808303816000875af11580156127b4573d6000803e3d6000fd5b505050506040513d601f19601f82011682018060405250810190612621919061524c565b60008082600001516001600160a01b031663f4325d676040518163ffffffff1660e01b8152600401602060405180830381865afa15801561281d573d6000803e3d6000fd5b505050506040513d601f19601f820116820180604052508101906128419190615212565b9050600061284e82613961565b8451602086015160405163095ea7b360e01b81526001600160a01b0380851660048301526024820192909252929350169063095ea7b3906044016020604051808303816000875af11580156128a7573d6000803e3d6000fd5b505050506040513d601f19601f820116820180604052508101906128cb9190615265565b50602084015160405163470660bb60e11b8152600481018890526001600160a01b0387811660248301528481166044830152606482019290925290821690638e0cc176906084016020604051808303816000875af1158015612931573d6000803e3d6000fd5b505050506040513d601f19601f82011682018060405250810190612955919061524c565b9695505050505050565b61296982826115b7565b610cbb57612981816001600160a01b03166014613a7b565b61298c836020613a7b565b60405160200161299d929190615364565b60408051601f198184030181529082905262461bcd60e51b82526108b1916004016153d9565b6129cd8282613c17565b6000828152609760205260409020610aee90826139df565b6129ee856125a5565b6129f7846125a5565b836001600160a01b0316856001600160a01b03161415612a2a576040516333910aef60e11b815260040160405180910390fd5b612a33836125cc565b612a3c826125cc565b4263ffffffff16811015612a6357604051631ab7da6b60e01b815260040160405180910390fd5b5050505050565b612a73866137be565b15612a9157604051631a4ecdbb60e11b815260040160405180910390fd5b80516020820151604080840151905163d505accf60e01b81526001600160a01b0389811660048301528881166024830152604482018890526064820187905260ff909416608482015260a481019290925260c48201529087169063d505accf9060e401600060405180830381600087803b158015612b0e57600080fd5b505af1158015612b22573d6000803e3d6000fd5b50505050505050505050565b6001600160a01b038216612b40578291505b83516020808601516040808801518151606089811b6001600160601b0319908116838801524260e01b6001600160e01b03191660348401528d821b811660388401528c821b8116604c84015281830197909752608082019490945290151560f81b60a082015260a181018690529186901b90931660c1820152825180820360b501815260d58201808552815191909301206101158201909352600080835260f590910152612bed88612de1565b15612c0757612c00828860018989613c9d565b9050612c33565b612c1087612de1565b15612c2357612c00828960008989613c9d565b612c308289898989614047565b90505b612c4f88868860400151612c48578351614198565b8851614198565b7f00000000000000000000000000000000000000000000000000000000000000006001600160a01b0316631c20fadd88868960400151612c90578951612c93565b84515b6040518463ffffffff1660e01b8152600401612cb1939291906151ee565b600060405180830381600087803b158015612ccb57600080fd5b505af1158015612cdf573d6000803e3d6000fd5b5050505080602001516101366000828254612cfa9190615320565b90915550505050505050505050565b61012e54600090612d29906001600160a01b03858116918791168561427c565b61012e546040516313e7e7d160e11b81526001600160a01b03909116906327cfcfa290612d5e908790879087906004016151ee565b6020604051808303816000875af1158015612d7d573d6000803e3d6000fd5b505050506040513d601f19601f82011682018060405250810190612da1919061524c565b949350505050565b612db382826142d4565b6000828152609760205260409020610aee908261311e565b6000610844825490565b60006115b0838361433b565b60007f00000000000000000000000000000000000000000000000000000000000000006001600160a01b0390811690831614610844565b61012d546040516323b872dd60e01b81526000916001600160a01b03908116917f0000000000000000000000000000000000000000000000000000000000000000909116906323b872dd90612e7590889085908b906004016151ee565b6020604051808303816000875af1158015612e94573d6000803e3d6000fd5b505050506040513d601f19601f82011682018060405250810190612eb89190615265565b5060405163e06bf20d60e01b8152600481018990526001600160a01b0388811660248301526044820188905285151560648301526084820185905282169063e06bf20d9060a4015b6020604051808303816000875af1158015612f1f573d6000803e3d6000fd5b505050506040513d601f19601f82011682018060405250810190612f43919061524c565b98975050505050505050565b6000612f5c858484614198565b6000612f6786613961565b604051639f5c734b60e01b8152600481018a90526001600160a01b03898116602483015288811660448301526064820188905291925090821690639f5c734b90608401612f00565b6001600160a01b03811615801590612fd05750612fce610130826139f4565b155b1561086b5760405163b0ce759160e01b815260040160405180910390fd5b61ffff8216600090815261013260205260409020546001600160a01b0390811690821681141561301d57505050565b61ffff83166000818152610132602052604080822080546001600160a01b0319166001600160a01b03878116918217909255915191939085169290917f1c34d22e7a908d21c83b9601fc8e1f2ba435b2e9e15ba4104e882ed826b1cc329190a4505050565b60008061309186868686613a16565b905061309c85612de1565b156130b8576130b081878686600080612e18565b915050612da1565b612955818787878789612f4f565b60fb5460ff16156130e95760405162461bcd60e51b81526004016108b1906150ca565b60fb805460ff191660011790557f62e78cea01bee320cd4e420270b5ea74000d11b0c9f74754ebdbfc544b05a2586125883390565b60006115b0836001600160a01b038416614365565b8181156133e75761012d54604051632f2ff15d60e01b81527f4cbb5676e6e25e1a3b8a36de10472bcac96f97bd8dd87af6f330881b84739eb860048201526001600160a01b03838116602483015290911690632f2ff15d90604401600060405180830381600087803b1580156131a857600080fd5b505af11580156131bc573d6000803e3d6000fd5b505061012d54604051632f2ff15d60e01b81527f0d0d17bf5382c809d9a3899d6a94e57386dfb2036f0401b94ef3cf6c1a9ab73f60048201526001600160a01b0385811660248301529091169250632f2ff15d9150604401600060405180830381600087803b15801561322e57600080fd5b505af1158015613242573d6000803e3d6000fd5b505061012d54604051632f2ff15d60e01b81527fca51b9188e78415f30da725e0d94567b4d65bc6777d4e5d573191e9f55b88a3260048201526001600160a01b0385811660248301529091169250632f2ff15d9150604401600060405180830381600087803b1580156132b457600080fd5b505af11580156132c8573d6000803e3d6000fd5b5050604051632f2ff15d60e01b815260008051602061558283398151915260048201526001600160a01b0384811660248301527f0000000000000000000000000000000000000000000000000000000000000000169250632f2ff15d9150604401600060405180830381600087803b15801561334357600080fd5b505af1158015613357573d6000803e3d6000fd5b5050604051632f2ff15d60e01b815260008051602061558283398151915260048201526001600160a01b0384811660248301527f0000000000000000000000000000000000000000000000000000000000000000169250632f2ff15d91506044015b600060405180830381600087803b1580156133d357600080fd5b505af1158015611eab573d6000803e3d6000fd5b61012d5460405163d547741f60e01b81527f4cbb5676e6e25e1a3b8a36de10472bcac96f97bd8dd87af6f330881b84739eb860048201526001600160a01b0383811660248301529091169063d547741f90604401600060405180830381600087803b15801561345557600080fd5b505af1158015613469573d6000803e3d6000fd5b505061012d5460405163d547741f60e01b81527f0d0d17bf5382c809d9a3899d6a94e57386dfb2036f0401b94ef3cf6c1a9ab73f60048201526001600160a01b038581166024830152909116925063d547741f9150604401600060405180830381600087803b1580156134db57600080fd5b505af11580156134ef573d6000803e3d6000fd5b505061012d5460405163d547741f60e01b81527fca51b9188e78415f30da725e0d94567b4d65bc6777d4e5d573191e9f55b88a3260048201526001600160a01b038581166024830152909116925063d547741f9150604401600060405180830381600087803b15801561356157600080fd5b505af1158015613575573d6000803e3d6000fd5b505060405163d547741f60e01b815260008051602061558283398151915260048201526001600160a01b0384811660248301527f000000000000000000000000000000000000000000000000000000000000000016925063d547741f9150604401600060405180830381600087803b1580156135f057600080fd5b505af1158015613604573d6000803e3d6000fd5b505060405163d547741f60e01b815260008051602061558283398151915260048201526001600160a01b0384811660248301527f000000000000000000000000000000000000000000000000000000000000000016925063d547741f91506044016133b9565b6000806136778585614458565b8051909150613698578281602001516136909190615422565b9150506115b0565b805183116136b957604051631a93c68960e11b815260040160405180910390fd5b60006136c68686866144df565b905060006136d483836144fa565b80519091506136f7578481602001516136ed9190615422565b93505050506115b0565b6000858103861690613709838361457f565b9050600061371f61371a848a615422565b6145b6565b919091029998505050505050505050565b600061373b836137be565b1561375157506001600160a01b03811631610844565b826040516370a0823160e01b81526001600160a01b03848116600483015291909116906370a0823190602401602060405180830381865afa15801561379a573d6000803e3d6000fd5b505050506040513d601f19601f820116820180604052508101906115b0919061524c565b6001600160a01b031673eeeeeeeeeeeeeeeeeeeeeeeeeeeeeeeeeeeeeeee1490565b804710156138305760405162461bcd60e51b815260206004820152601d60248201527f416464726573733a20696e73756666696369656e742062616c616e636500000060448201526064016108b1565b6000826001600160a01b03168260405160006040518083038185875af1925050503d806000811461387d576040519150601f19603f3d011682016040523d82523d6000602084013e613882565b606091505b5050905080610aee5760405162461bcd60e51b815260206004820152603a60248201527f416464726573733a20756e61626c6520746f2073656e642076616c75652c207260448201527f6563697069656e74206d6179206861766520726576657274656400000000000060648201526084016108b1565b8061390357505050565b61390c836137be565b1561394d576040516001600160a01b0383169082156108fc029083906000818181858888f19350505050158015613947573d6000803e3d6000fd5b50505050565b610aee6001600160a01b03841683836145e1565b6001600160a01b0380821660009081526101356020526040812054909116806108445760405163c1ab6dc160e01b815260040160405180910390fd5b600054610100900460ff166139c45760405162461bcd60e51b81526004016108b190615444565b6139cc614611565b6139d461464a565b610aee838383614679565b60006115b0836001600160a01b038416614776565b6001600160a01b038116600090815260018301602052604081205415156115b0565b604080516001600160601b0319606093841b81166020808401919091526001600160e01b03194260e01b16603484015296841b8116603883015294831b909416604c850152818401929092528151808403909101815260809092019052805191012090565b60606000613a8a83600261548f565b613a95906002615320565b67ffffffffffffffff811115613aad57613aad61512b565b6040519080825280601f01601f191660200182016040528015613ad7576020820181803683370190505b509050600360fc1b81600081518110613af257613af26151a7565b60200101906001600160f81b031916908160001a905350600f60fb1b81600181518110613b2157613b216151a7565b60200101906001600160f81b031916908160001a9053506000613b4584600261548f565b613b50906001615320565b90505b6001811115613bc8576f181899199a1a9b1b9c1cb0b131b232b360811b85600f1660108110613b8457613b846151a7565b1a60f81b828281518110613b9a57613b9a6151a7565b60200101906001600160f81b031916908160001a90535060049490941c93613bc1816154ae565b9050613b53565b5083156115b05760405162461bcd60e51b815260206004820181905260248201527f537472696e67733a20686578206c656e67746820696e73756666696369656e7460448201526064016108b1565b613c2182826115b7565b610cbb5760008281526065602090815260408083206001600160a01b03851684529091529020805460ff19166001179055613c593390565b6001600160a01b0316816001600160a01b0316837f2f8788117e7eff1d82e926ec794901d17c78024a50270940304540a733656f0d60405160405180910390a45050565b6040805180820190915260008082526020820152600084613d04576040518060400160405280876001600160a01b031681526020017f00000000000000000000000000000000000000000000000000000000000000006001600160a01b0316815250613d4c565b60405180604001604052807f00000000000000000000000000000000000000000000000000000000000000006001600160a01b03168152602001876001600160a01b03168152505b905060008460400151613e0057613d6287613961565b8251602080850151885191890151604051635bfd7dbd60e11b8152600481018e90526001600160a01b03948516602482015291841660448301526064820192909252608481019190915291169063b7fafb7a9060a4016060604051808303816000875af1158015613dd7573d6000803e3d6000fd5b505050506040513d601f19601f82011682018060405250810190613dfb91906154c5565b613ea2565b613e0987613961565b825160208085015188519189015160405163052c8f9960e41b8152600481018e90526001600160a01b0394851660248201529184166044830152606482019290925260848101919091529116906352c8f9909060a4016060604051808303816000875af1158015613e7e573d6000803e3d6000fd5b505050506040513d601f19601f82011682018060405250810190613ea291906154c5565b905085613f3b5761012d54604082015160208301516001600160a01b0390921691637c8f622d918a91613ed59190615309565b6040516001600160e01b031960e085901b1681526001600160a01b039092166004830152602482015260016044820152606401600060405180830381600087803b158015613f2257600080fd5b505af1158015613f36573d6000803e3d6000fd5b505050505b60008560400151613f6057604080518082019091528251815286516020820152613f76565b6040805180820190915286518152825160208201525b905082602001516001600160a01b031683600001516001600160a01b03168a7f5c02c2bb2d1d082317eb23916ca27b3e7c294398b60061a2ad54f1c3c018c318846000015185602001518c613fcf578660200151613fd2565b86515b88602001518e613fe6578960200151613fec565b89604001515b60408051958652602086019490945292840191909152606083015260808201526001600160a01b038a1660a082015260c00160405180910390a450604080518082018252825181529101516020820152979650505050505050565b6040805180820182526000808252602082015290830151156140fc5760008360000151905060008460200151905060006140a3898960006040518060600160405280888152602001600181526020016001151581525089613c9d565b905060006140d68a896001604051806060016040528087600001518152602001888152602001600115158152508a613c9d565b90508160200151816020018181516140ee9190615320565b905250935061262192505050565b600083600001519050600084602001519050600061413d89886001604051806060016040528088815260200160001981526020016000151581525089613c9d565b905060006141708a8a6000604051806060016040528087600001518152602001888152602001600015158152508a613c9d565b90508160200151816020018181516141889190615320565b9052509998505050505050505050565b6141aa836001600160a01b03166137be565b1561422857803410156141d057604051630768122960e11b815260040160405180910390fd5b6142036001600160a01b037f000000000000000000000000000000000000000000000000000000000000000016826137e0565b80341115610aee57610aee6142188234615309565b6001600160a01b038416906137e0565b341561424757604051630768122960e11b815260040160405180910390fd5b610aee6001600160a01b038416837f0000000000000000000000000000000000000000000000000000000000000000846147c5565b613947846323b872dd60e01b85858560405160240161429d939291906151ee565b60408051601f198184030181529190526020810180516001600160e01b03166001600160e01b0319909316929092179091526147f5565b6142de82826115b7565b15610cbb5760008281526065602090815260408083206001600160a01b0385168085529252808320805460ff1916905551339285917ff6391f5c32d9c69d2a47ea670b442974b53935d1edc7fd64eb21e047a839171b9190a45050565b6000826000018281548110614352576143526151a7565b9060005260206000200154905092915050565b6000818152600183016020526040812054801561444e576000614389600183615309565b855490915060009061439d90600190615309565b90508181146144025760008660000182815481106143bd576143bd6151a7565b90600052602060002001549050808760000184815481106143e0576143e06151a7565b6000918252602080832090910192909255918252600188019052604090208390555b85548690806144135761441361552f565b600190038181906000526020600020016000905590558560010160008681526020019081526020016000206000905560019350505050610844565b6000915050610844565b6040805180820190915260008082526020820152600061447884846148c7565b90508383028082106144ad576040518060400160405280828461449b9190615309565b81526020018281525092505050610844565b604051806040016040528060016144c48585900390565b6144ce9190615309565b815260200191909152949350505050565b600081806144ef576144ef61540c565b838509949350505050565b6040805180820190915260008082526020820152818360200151106145475760405180604001604052808460000151815260200183856020015161453e9190615309565b90529050610844565b6040518060400160405280600185600001516145639190615309565b8152602001614576856020015185900390565b90529392505050565b60008061459761459184808403615422565b60010190565b90508284602001516145a99190615422565b8451820217949350505050565b60006001815b6008811015610d6a5783820260020382029150806145d9816151d3565b9150506145bc565b6040516001600160a01b038316602482015260448101829052610aee90849063a9059cbb60e01b9060640161429d565b600054610100900460ff166146385760405162461bcd60e51b81526004016108b190615444565b6146406148d6565b6146486148fd565b565b600054610100900460ff166146715760405162461bcd60e51b81526004016108b190615444565b614648614954565b600054610100900460ff166146a05760405162461bcd60e51b81526004016108b190615444565b61012d80546001600160a01b038086166001600160a01b03199283161790925561012e805485841690831617905561012f8054928416929091169190911790556147187fdf8c9529ea4b244b569bac557a549516f317e7b5cf82dc5e0d8b6d874930a3f56000805160206155a2833981519152614982565b61473e6000805160206155628339815191526000805160206155a2833981519152614982565b610aee7f657d38169ed9612cb2d9de7040b7b6a1adebf7a8433a66ccb49c08554ac9b8a56000805160206155a2833981519152614982565b60008181526001830160205260408120546147bd57508154600181810184556000848152602080822090930184905584548482528286019093526040902091909155610844565b506000610844565b8015806147d657506147d6846137be565b156147e057613947565b6139476001600160a01b03851684848461427c565b600061484a826040518060400160405280602081526020017f5361666545524332303a206c6f772d6c6576656c2063616c6c206661696c6564815250856001600160a01b03166149cd9092919063ffffffff16565b805190915015610aee57808060200190518101906148689190615265565b610aee5760405162461bcd60e51b815260206004820152602a60248201527f5361666545524332303a204552433230206f7065726174696f6e20646964206e6044820152691bdd081cdd58d8d9595960b21b60648201526084016108b1565b60006000198284099392505050565b600054610100900460ff166146485760405162461bcd60e51b81526004016108b190615444565b600054610100900460ff166149245760405162461bcd60e51b81526004016108b190615444565b61493c6000805160206155a283398151915280614982565b6146486000805160206155a2833981519152336149dc565b600054610100900460ff1661497b5760405162461bcd60e51b81526004016108b190615444565b600160c955565b600082815260656020526040808220600101805490849055905190918391839186917fbd79b86ffe0ab8e8776151514217cd7cacd52c909f66475c3af44e129f0b00ff9190a4505050565b6060612da184846000856149e6565b610cbb82826129c3565b606082471015614a475760405162461bcd60e51b815260206004820152602660248201527f416464726573733a20696e73756666696369656e742062616c616e636520666f6044820152651c8818d85b1b60d21b60648201526084016108b1565b6001600160a01b0385163b614a9e5760405162461bcd60e51b815260206004820152601d60248201527f416464726573733a2063616c6c20746f206e6f6e2d636f6e747261637400000060448201526064016108b1565b600080866001600160a01b03168587604051614aba9190615545565b60006040518083038185875af1925050503d8060008114614af7576040519150601f19603f3d011682016040523d82523d6000602084013e614afc565b606091505b5091509150614b0c828286614b17565b979650505050505050565b60608315614b265750816115b0565b825115614b365782518084602001fd5b8160405162461bcd60e51b81526004016108b191906153d9565b600060208284031215614b6257600080fd5b81356001600160e01b0319811681146115b057600080fd5b6001600160a01b038116811461086b57600080fd5b803560ff81168114614ba057600080fd5b919050565b600080600080600080600060e0888a031215614bc057600080fd5b8735614bcb81614b7a565b96506020880135614bdb81614b7a565b95506040880135945060608801359350614bf760808901614b8f565b925060a0880135915060c0880135905092959891949750929550565b600060208284031215614c2557600080fd5b5035919050565b60008060408385031215614c3f57600080fd5b823591506020830135614c5181614b7a565b809150509250929050565b60008060008060008060008060006101208a8c031215614c7b57600080fd5b8935614c8681614b7a565b985060208a0135614c9681614b7a565b975060408a0135965060608a0135955060808a0135945060a08a0135614cbb81614b7a565b9350614cc960c08b01614b8f565b925060e08a013591506101008a013590509295985092959850929598565b60008060408385031215614cfa57600080fd5b8235614d0581614b7a565b946020939093013593505050565b6020808252825182820181905260009190848201906040850190845b81811015614d545783516001600160a01b031683529284019291840191600101614d2f565b50909695505050505050565b600060208284031215614d7257600080fd5b81356115b081614b7a565b600080600080600060a08688031215614d9557600080fd5b8535614da081614b7a565b94506020860135614db081614b7a565b94979496505050506040830135926060810135926080909101359150565b60008060208385031215614de157600080fd5b823567ffffffffffffffff80821115614df957600080fd5b818501915085601f830112614e0d57600080fd5b813581811115614e1c57600080fd5b8660208260051b8501011115614e3157600080fd5b60209290920196919550909350505050565b60008060008060008060c08789031215614e5c57600080fd5b8635614e6781614b7a565b95506020870135614e7781614b7a565b945060408701359350606087013592506080870135915060a0870135614e9c81614b7a565b809150509295509295509295565b60008060008060008060c08789031215614ec357600080fd5b8635614ece81614b7a565b95506020870135945060408701359350614eea60608801614b8f565b92506080870135915060a087013590509295509295509295565b61ffff8116811461086b57600080fd5b600060208284031215614f2657600080fd5b81356115b081614f04565b60008060408385031215614f4457600080fd5b50508035926020909101359150565b60008060408385031215614f6657600080fd5b8235614f7181614b7a565b91506020830135614c5181614b7a565b600080600080600060808688031215614f9957600080fd5b8535614fa481614b7a565b9450602086013593506040860135614fbb81614b7a565b9250606086013567ffffffffffffffff80821115614fd857600080fd5b818801915088601f830112614fec57600080fd5b813581811115614ffb57600080fd5b89602082850101111561500d57600080fd5b9699959850939650602001949392505050565b60008060006060848603121561503557600080fd5b833561504081614b7a565b9250602084013561505081614b7a565b929592945050506040919091013590565b60008060006060848603121561507657600080fd5b833561508181614b7a565b9250602084013561509181614b7a565b915060408401356150a181614b7a565b809150509250925092565b600080604083850312156150bf57600080fd5b8235614f7181614f04565b60208082526010908201526f14185d5cd8589b194e881c185d5cd95960821b604082015260600190565b6020808252601f908201527f5265656e7472616e637947756172643a207265656e7472616e742063616c6c00604082015260600190565b634e487b7160e01b600052604160045260246000fd5b60006040828403121561515357600080fd5b6040516040810181811067ffffffffffffffff8211171561518457634e487b7160e01b600052604160045260246000fd5b604052825161519281614b7a565b81526020928301519281019290925250919050565b634e487b7160e01b600052603260045260246000fd5b634e487b7160e01b600052601160045260246000fd5b60006000198214156151e7576151e76151bd565b5060010190565b6001600160a01b039384168152919092166020820152604081019190915260600190565b60006020828403121561522457600080fd5b81516115b081614b7a565b60006020828403121561524157600080fd5b81516115b081614f04565b60006020828403121561525e57600080fd5b5051919050565b60006020828403121561527757600080fd5b815180151581146115b057600080fd5b60006020828403121561529957600080fd5b815163ffffffff811681146115b057600080fd5b6001600160a01b03878116825286166020820152604081018590526060810184905260a06080820181905281018290526000828460c0840137600060c0848401015260c0601f19601f8501168301019050979650505050505050565b60008282101561531b5761531b6151bd565b500390565b60008219821115615333576153336151bd565b500190565b60005b8381101561535357818101518382015260200161533b565b838111156139475750506000910152565b7f416363657373436f6e74726f6c3a206163636f756e742000000000000000000081526000835161539c816017850160208801615338565b7001034b99036b4b9b9b4b733903937b6329607d1b60179184019182015283516153cd816028840160208801615338565b01602801949350505050565b60208152600082518060208401526153f8816040850160208701615338565b601f01601f19169190910160400192915050565b634e487b7160e01b600052601260045260246000fd5b60008261543f57634e487b7160e01b600052601260045260246000fd5b500490565b6020808252602b908201527f496e697469616c697a61626c653a20636f6e7472616374206973206e6f74206960408201526a6e697469616c697a696e6760a81b606082015260800190565b60008160001904831182151516156154a9576154a96151bd565b500290565b6000816154bd576154bd6151bd565b506000190190565b6000606082840312156154d757600080fd5b6040516060810181811067ffffffffffffffff8211171561550857634e487b7160e01b600052604160045260246000fd5b80604052508251815260208301516020820152604083015160408201528091505092915050565b634e487b7160e01b600052603160045260246000fd5b60008251615557818460208701615338565b919091019291505056fef28f409b8cbe6b50c7ca45afe893f01f69626f8a4e33cb480bc1bc2d618c084589ce14d20697a788f57260f7690044299bde7ea88cfb7e43d120a0c031f1ffc12172861495e7b85edac73e3cd5fbb42dd675baadf627720e687bcfdaca025096a164736f6c634300080c000a",
  "devdoc": {
    "details": "Bancor Network contract",
    "events": {
      "FlashLoanCompleted(address,address,uint256,uint256)": {
        "details": "triggered when a flash-loan is completed"
      },
      "FundsMigrated(bytes32,address,address,uint256,uint256)": {
        "details": "triggered when funds are migrated"
      },
      "LatestPoolCollectionReplaced(uint16,address,address)": {
        "details": "triggered when the latest pool collection, for a specific type, is replaced"
      },
      "NetworkFeesWithdrawn(address,address,uint256)": {
        "details": "triggered when network fees are withdrawn"
      },
      "PoolAdded(address,address)": {
        "details": "triggered when a new pool is added"
      },
      "PoolCollectionAdded(uint16,address)": {
        "details": "triggered when a new pool collection is added"
      },
      "PoolCollectionRemoved(uint16,address)": {
        "details": "triggered when an existing pool collection is removed"
      },
      "TokensTraded(bytes32,address,address,uint256,uint256,uint256,uint256,uint256,address)": {
        "details": "triggered on a successful trade"
      }
    },
    "kind": "dev",
    "methods": {
      "addPoolCollection(address)": {
        "details": "adds new pool collection to the network requirements: - the caller must be the admin of the contract"
      },
      "cancelWithdrawal(uint256)": {
        "details": "cancels a withdrawal request requirements: - the caller must have already initiated a withdrawal and received the specified id"
      },
      "collectionByPool(address)": {
        "details": "returns the respective pool collection for the provided pool"
      },
      "constructor": {
        "details": "a \"virtual\" constructor that is only used to set immutable state variables"
      },
      "createPool(uint16,address)": {
        "details": "creates a new pool requirements: - the pool doesn't exist"
      },
      "deposit(address,uint256)": {
        "details": "deposits liquidity for the current provider and returns the respective pool token amount requirements: - the caller must have approved the network to transfer the tokens on its behalf (ETH is handled separately)"
      },
      "depositFor(address,address,uint256)": {
        "details": "deposits liquidity for the specified provider and returns the respective pool token amount requirements: - the caller must have approved the network to transfer the tokens on its behalf (ETH is handled separately)"
      },
      "depositForPermitted(address,address,uint256,uint256,uint8,bytes32,bytes32)": {
        "details": "deposits liquidity for the specified provider by providing an EIP712 typed signature for an EIP2612 permit request and returns the respective pool token amount requirements: - the caller must have provided a valid and unused EIP712 typed signature"
      },
      "depositPermitted(address,uint256,uint256,uint8,bytes32,bytes32)": {
        "details": "deposits liquidity by providing an EIP712 typed signature for an EIP2612 permit request and returns the respective pool token amount requirements: - the caller must have provided a valid and unused EIP712 typed signature"
      },
      "flashLoan(address,uint256,address,bytes)": {
        "details": "provides a flash-loan requirements: - the recipient's callback must return *at least* the borrowed amount and fee back to the specified return address"
      },
      "getRoleAdmin(bytes32)": {
        "details": "Returns the admin role that controls `role`. See {grantRole} and {revokeRole}. To change a role's admin, use {_setRoleAdmin}."
      },
      "getRoleMember(bytes32,uint256)": {
        "details": "Returns one of the accounts that have `role`. `index` must be a value between 0 and {getRoleMemberCount}, non-inclusive. Role bearers are not sorted in any particular way, and their ordering may change at any point. WARNING: When using {getRoleMember} and {getRoleMemberCount}, make sure you perform all queries on the same block. See the following https://forum.openzeppelin.com/t/iterating-over-elements-on-enumerableset-in-openzeppelin-contracts/2296[forum post] for more information."
      },
      "getRoleMemberCount(bytes32)": {
        "details": "Returns the number of accounts that have `role`. Can be used together with {getRoleMember} to enumerate all bearers of a role."
      },
      "grantRole(bytes32,address)": {
        "details": "Grants `role` to `account`. If `account` had not been already granted `role`, emits a {RoleGranted} event. Requirements: - the caller must have ``role``'s admin role."
      },
      "hasRole(bytes32,address)": {
        "details": "Returns `true` if `account` has been granted `role`."
      },
      "initWithdrawal(address,uint256)": {
        "details": "initiates liquidity withdrawal requirements: - the caller must have approved the contract to transfer the pool token amount on its behalf"
      },
      "initWithdrawalPermitted(address,uint256,uint256,uint8,bytes32,bytes32)": {
        "details": "initiates liquidity withdrawal by providing an EIP712 typed signature for an EIP2612 permit request requirements: - the caller must have provided a valid and unused EIP712 typed signature"
      },
      "initialize(address,address,address)": {
        "details": "fully initializes the contract and its parents"
      },
      "isPaused()": {
        "details": "returns whether the network is currently paused"
      },
      "isPoolValid(address)": {
        "details": "returns whether the pool is valid"
      },
      "latestPoolCollection(uint16)": {
        "details": "returns the most recent collection that was added to the pool collections set for a specific type"
      },
      "liquidityPools()": {
        "details": "returns the set of all liquidity pools"
      },
      "migrateLiquidity(address,address,uint256,uint256,uint256)": {
        "details": "deposits liquidity during a migration"
      },
      "pause()": {
        "details": "pauses the network requirements: - the caller must have the ROLE_EMERGENCY_STOPPER privilege"
      },
      "paused()": {
        "details": "Returns true if the contract is paused, and false otherwise."
      },
      "poolCollections()": {
        "details": "returns the set of all valid pool collections"
      },
      "removePoolCollection(address,address)": {
        "details": "removes an existing pool collection from the pool requirements: - the caller must be the admin of the contract"
      },
      "renounceRole(bytes32,address)": {
        "details": "Revokes `role` from the calling account. Roles are often managed via {grantRole} and {revokeRole}: this function's purpose is to provide a mechanism for accounts to lose their privileges if they are compromised (such as when a trusted device is misplaced). If the calling account had been revoked `role`, emits a {RoleRevoked} event. Requirements: - the caller must be `account`."
      },
      "resume()": {
        "details": "resumes the network requirements: - the caller must have the ROLE_EMERGENCY_STOPPER privilege"
      },
      "revokeRole(bytes32,address)": {
        "details": "Revokes `role` from `account`. If `account` had been granted `role`, emits a {RoleRevoked} event. Requirements: - the caller must have ``role``'s admin role."
      },
      "roleAdmin()": {
        "details": "returns the admin role"
      },
      "roleEmergencyStopper()": {
        "details": "returns the emergency stopper role"
      },
      "roleMigrationManager()": {
        "details": "returns the migration manager role"
      },
      "roleNetworkFeeManager()": {
        "details": "returns the network fee manager role"
      },
      "setLatestPoolCollection(address)": {
        "details": "sets the new latest pool collection for the given type requirements: - the caller must be the admin of the contract"
      },
      "supportsInterface(bytes4)": {
        "details": "See {IERC165-supportsInterface}."
      },
      "tradeBySourceAmount(address,address,uint256,uint256,uint256,address)": {
        "details": "performs a trade by providing the input source amount requirements: - the caller must have approved the network to transfer the source tokens on its behalf, in the non-ETH case"
      },
      "tradeBySourceAmountPermitted(address,address,uint256,uint256,uint256,address,uint8,bytes32,bytes32)": {
        "details": "performs a trade by providing the input source amount and providing an EIP712 typed signature for an EIP2612 permit request requirements: - the caller must have provided a valid and unused EIP712 typed signature"
      },
      "tradeByTargetAmount(address,address,uint256,uint256,uint256,address)": {
        "details": "performs a trade by providing the output target amount requirements: - the caller must have approved the network to transfer the source tokens on its behalf, in the non-ETH case"
      },
      "tradeByTargetAmountPermitted(address,address,uint256,uint256,uint256,address,uint8,bytes32,bytes32)": {
        "details": "performs a trade by providing the output target amount and providing an EIP712 typed signature for an EIP2612 permit request and returns the target amount and fee requirements: - the caller must have provided a valid and unused EIP712 typed signature"
      },
      "upgradePools(address[])": {
        "details": "upgrades a list of pools notes: - invalid or incompatible pools will be skipped gracefully"
      },
      "withdraw(uint256)": {
        "details": "withdraws liquidity and returns the withdrawn amount requirements: - the provider must have already initiated a withdrawal and received the specified id - the specified withdrawal request is eligible for completion - the provider must have approved the network to transfer VBNT amount on its behalf, when withdrawing BNT liquidity"
      },
      "withdrawNetworkFees(address)": {
        "details": "withdraws pending network fees requirements: - * - the caller must have the ROLE_NETWORK_FEE_MANAGER privilege"
      }
    },
    "version": 1
  },
  "userdoc": {
    "kind": "user",
    "methods": {},
    "version": 1
  },
  "storageLayout": {
    "storage": [
      {
        "astId": 644,
        "contract": "contracts/network/BancorNetwork.sol:BancorNetwork",
        "label": "_initialized",
        "offset": 0,
        "slot": "0",
        "type": "t_bool"
      },
      {
        "astId": 647,
        "contract": "contracts/network/BancorNetwork.sol:BancorNetwork",
        "label": "_initializing",
        "offset": 1,
        "slot": "0",
        "type": "t_bool"
      },
      {
        "astId": 1165,
        "contract": "contracts/network/BancorNetwork.sol:BancorNetwork",
        "label": "__gap",
        "offset": 0,
        "slot": "1",
        "type": "t_array(t_uint256)50_storage"
      },
      {
        "astId": 1412,
        "contract": "contracts/network/BancorNetwork.sol:BancorNetwork",
        "label": "__gap",
        "offset": 0,
        "slot": "51",
        "type": "t_array(t_uint256)50_storage"
      },
      {
        "astId": 250,
        "contract": "contracts/network/BancorNetwork.sol:BancorNetwork",
        "label": "_roles",
        "offset": 0,
        "slot": "101",
        "type": "t_mapping(t_bytes32,t_struct(RoleData)245_storage)"
      },
      {
        "astId": 538,
        "contract": "contracts/network/BancorNetwork.sol:BancorNetwork",
        "label": "__gap",
        "offset": 0,
        "slot": "102",
        "type": "t_array(t_uint256)49_storage"
      },
      {
        "astId": 99,
        "contract": "contracts/network/BancorNetwork.sol:BancorNetwork",
        "label": "_roleMembers",
        "offset": 0,
        "slot": "151",
        "type": "t_mapping(t_bytes32,t_struct(AddressSet)1737_storage)"
      },
      {
        "astId": 209,
        "contract": "contracts/network/BancorNetwork.sol:BancorNetwork",
        "label": "__gap",
        "offset": 0,
        "slot": "152",
        "type": "t_array(t_uint256)49_storage"
      },
      {
        "astId": 836,
        "contract": "contracts/network/BancorNetwork.sol:BancorNetwork",
        "label": "_status",
        "offset": 0,
        "slot": "201",
        "type": "t_uint256"
      },
      {
        "astId": 880,
        "contract": "contracts/network/BancorNetwork.sol:BancorNetwork",
        "label": "__gap",
        "offset": 0,
        "slot": "202",
        "type": "t_array(t_uint256)49_storage"
      },
      {
        "astId": 732,
        "contract": "contracts/network/BancorNetwork.sol:BancorNetwork",
        "label": "_paused",
        "offset": 0,
        "slot": "251",
        "type": "t_bool"
      },
      {
        "astId": 821,
        "contract": "contracts/network/BancorNetwork.sol:BancorNetwork",
        "label": "__gap",
        "offset": 0,
        "slot": "252",
        "type": "t_array(t_uint256)49_storage"
      },
      {
        "astId": 11241,
        "contract": "contracts/network/BancorNetwork.sol:BancorNetwork",
        "label": "_bntPool",
        "offset": 0,
        "slot": "301",
        "type": "t_contract(IBNTPool)23995"
      },
      {
        "astId": 11244,
        "contract": "contracts/network/BancorNetwork.sol:BancorNetwork",
        "label": "_pendingWithdrawals",
        "offset": 0,
        "slot": "302",
        "type": "t_contract(IPendingWithdrawals)17471"
      },
      {
        "astId": 11247,
        "contract": "contracts/network/BancorNetwork.sol:BancorNetwork",
        "label": "_poolCollectionUpgrader",
        "offset": 0,
        "slot": "303",
        "type": "t_contract(IPoolCollectionUpgrader)24345"
      },
      {
        "astId": 11250,
        "contract": "contracts/network/BancorNetwork.sol:BancorNetwork",
        "label": "_poolCollections",
        "offset": 0,
        "slot": "304",
        "type": "t_struct(AddressSet)1737_storage"
      },
      {
        "astId": 11255,
        "contract": "contracts/network/BancorNetwork.sol:BancorNetwork",
        "label": "_latestPoolCollections",
        "offset": 0,
        "slot": "306",
        "type": "t_mapping(t_uint16,t_contract(IPoolCollection)24321)"
      },
      {
        "astId": 11258,
        "contract": "contracts/network/BancorNetwork.sol:BancorNetwork",
        "label": "_liquidityPools",
        "offset": 0,
        "slot": "307",
        "type": "t_struct(AddressSet)1737_storage"
      },
      {
        "astId": 11264,
        "contract": "contracts/network/BancorNetwork.sol:BancorNetwork",
        "label": "_collectionByPool",
        "offset": 0,
        "slot": "309",
        "type": "t_mapping(t_contract(Token)28365,t_contract(IPoolCollection)24321)"
      },
      {
        "astId": 11266,
        "contract": "contracts/network/BancorNetwork.sol:BancorNetwork",
        "label": "_pendingNetworkFeeAmount",
        "offset": 0,
        "slot": "310",
        "type": "t_uint256"
      },
      {
        "astId": 11272,
        "contract": "contracts/network/BancorNetwork.sol:BancorNetwork",
        "label": "__gap",
        "offset": 0,
        "slot": "311",
        "type": "t_array(t_uint256)40_storage"
      }
    ],
    "types": {
      "t_address": {
        "encoding": "inplace",
        "label": "address",
        "numberOfBytes": "20"
      },
      "t_array(t_bytes32)dyn_storage": {
        "base": "t_bytes32",
        "encoding": "dynamic_array",
        "label": "bytes32[]",
        "numberOfBytes": "32"
      },
      "t_array(t_uint256)40_storage": {
        "base": "t_uint256",
        "encoding": "inplace",
        "label": "uint256[40]",
        "numberOfBytes": "1280"
      },
      "t_array(t_uint256)49_storage": {
        "base": "t_uint256",
        "encoding": "inplace",
        "label": "uint256[49]",
        "numberOfBytes": "1568"
      },
      "t_array(t_uint256)50_storage": {
        "base": "t_uint256",
        "encoding": "inplace",
        "label": "uint256[50]",
        "numberOfBytes": "1600"
      },
      "t_bool": {
        "encoding": "inplace",
        "label": "bool",
        "numberOfBytes": "1"
      },
      "t_bytes32": {
        "encoding": "inplace",
        "label": "bytes32",
        "numberOfBytes": "32"
      },
      "t_contract(IBNTPool)23995": {
        "encoding": "inplace",
        "label": "contract IBNTPool",
        "numberOfBytes": "20"
      },
      "t_contract(IPendingWithdrawals)17471": {
        "encoding": "inplace",
        "label": "contract IPendingWithdrawals",
        "numberOfBytes": "20"
      },
      "t_contract(IPoolCollection)24321": {
        "encoding": "inplace",
        "label": "contract IPoolCollection",
        "numberOfBytes": "20"
      },
      "t_contract(IPoolCollectionUpgrader)24345": {
        "encoding": "inplace",
        "label": "contract IPoolCollectionUpgrader",
        "numberOfBytes": "20"
      },
      "t_contract(Token)28365": {
        "encoding": "inplace",
        "label": "contract Token",
        "numberOfBytes": "20"
      },
      "t_mapping(t_address,t_bool)": {
        "encoding": "mapping",
        "key": "t_address",
        "label": "mapping(address => bool)",
        "numberOfBytes": "32",
        "value": "t_bool"
      },
      "t_mapping(t_bytes32,t_struct(AddressSet)1737_storage)": {
        "encoding": "mapping",
        "key": "t_bytes32",
        "label": "mapping(bytes32 => struct EnumerableSetUpgradeable.AddressSet)",
        "numberOfBytes": "32",
        "value": "t_struct(AddressSet)1737_storage"
      },
      "t_mapping(t_bytes32,t_struct(RoleData)245_storage)": {
        "encoding": "mapping",
        "key": "t_bytes32",
        "label": "mapping(bytes32 => struct AccessControlUpgradeable.RoleData)",
        "numberOfBytes": "32",
        "value": "t_struct(RoleData)245_storage"
      },
      "t_mapping(t_bytes32,t_uint256)": {
        "encoding": "mapping",
        "key": "t_bytes32",
        "label": "mapping(bytes32 => uint256)",
        "numberOfBytes": "32",
        "value": "t_uint256"
      },
      "t_mapping(t_contract(Token)28365,t_contract(IPoolCollection)24321)": {
        "encoding": "mapping",
        "key": "t_contract(Token)28365",
        "label": "mapping(contract Token => contract IPoolCollection)",
        "numberOfBytes": "32",
        "value": "t_contract(IPoolCollection)24321"
      },
      "t_mapping(t_uint16,t_contract(IPoolCollection)24321)": {
        "encoding": "mapping",
        "key": "t_uint16",
        "label": "mapping(uint16 => contract IPoolCollection)",
        "numberOfBytes": "32",
        "value": "t_contract(IPoolCollection)24321"
      },
      "t_struct(AddressSet)1737_storage": {
        "encoding": "inplace",
        "label": "struct EnumerableSetUpgradeable.AddressSet",
        "members": [
          {
            "astId": 1736,
            "contract": "contracts/network/BancorNetwork.sol:BancorNetwork",
            "label": "_inner",
            "offset": 0,
            "slot": "0",
            "type": "t_struct(Set)1436_storage"
          }
        ],
        "numberOfBytes": "64"
      },
      "t_struct(RoleData)245_storage": {
        "encoding": "inplace",
        "label": "struct AccessControlUpgradeable.RoleData",
        "members": [
          {
            "astId": 242,
            "contract": "contracts/network/BancorNetwork.sol:BancorNetwork",
            "label": "members",
            "offset": 0,
            "slot": "0",
            "type": "t_mapping(t_address,t_bool)"
          },
          {
            "astId": 244,
            "contract": "contracts/network/BancorNetwork.sol:BancorNetwork",
            "label": "adminRole",
            "offset": 0,
            "slot": "1",
            "type": "t_bytes32"
          }
        ],
        "numberOfBytes": "64"
      },
      "t_struct(Set)1436_storage": {
        "encoding": "inplace",
        "label": "struct EnumerableSetUpgradeable.Set",
        "members": [
          {
            "astId": 1431,
            "contract": "contracts/network/BancorNetwork.sol:BancorNetwork",
            "label": "_values",
            "offset": 0,
            "slot": "0",
            "type": "t_array(t_bytes32)dyn_storage"
          },
          {
            "astId": 1435,
            "contract": "contracts/network/BancorNetwork.sol:BancorNetwork",
            "label": "_indexes",
            "offset": 0,
            "slot": "1",
            "type": "t_mapping(t_bytes32,t_uint256)"
          }
        ],
        "numberOfBytes": "64"
      },
      "t_uint16": {
        "encoding": "inplace",
        "label": "uint16",
        "numberOfBytes": "2"
      },
      "t_uint256": {
        "encoding": "inplace",
        "label": "uint256",
        "numberOfBytes": "32"
      }
    }
  }
}