{
  "address": "0xEd58678227223EfA8065baae23090812B9b85590",
  "abi": [
    {
      "inputs": [
        {
          "internalType": "contract IBancorNetwork",
          "name": "initNetwork",
          "type": "address"
        },
        {
          "internalType": "contract ITokenGovernance",
          "name": "initBNTGovernance",
          "type": "address"
        },
        {
          "internalType": "contract ITokenGovernance",
          "name": "initVBNTGovernance",
          "type": "address"
        },
        {
          "internalType": "contract INetworkSettings",
          "name": "initNetworkSettings",
          "type": "address"
        },
        {
          "internalType": "contract IMasterVault",
          "name": "initMasterVault",
          "type": "address"
        },
        {
          "internalType": "contract IPoolToken",
          "name": "initBNTPoolToken",
          "type": "address"
        }
      ],
      "stateMutability": "nonpayable",
      "type": "constructor"
    },
    {
      "inputs": [],
      "name": "AccessDenied",
      "type": "error"
    },
    {
      "inputs": [],
      "name": "FundingLimitExceeded",
      "type": "error"
    },
    {
      "inputs": [],
      "name": "InvalidAddress",
      "type": "error"
    },
    {
      "inputs": [],
      "name": "InvalidStakedBalance",
      "type": "error"
    },
    {
      "inputs": [],
      "name": "InvalidToken",
      "type": "error"
    },
    {
      "inputs": [],
      "name": "NotPayable",
      "type": "error"
    },
    {
      "inputs": [],
      "name": "NotWhitelisted",
      "type": "error"
    },
    {
      "inputs": [],
      "name": "Overflow",
      "type": "error"
    },
    {
      "inputs": [],
      "name": "ZeroValue",
      "type": "error"
    },
    {
      "anonymous": false,
      "inputs": [
        {
          "indexed": true,
          "internalType": "bytes32",
          "name": "contextId",
          "type": "bytes32"
        },
        {
          "indexed": true,
          "internalType": "contract Token",
          "name": "pool",
          "type": "address"
        },
        {
          "indexed": false,
          "internalType": "uint256",
          "name": "bntAmount",
          "type": "uint256"
        },
        {
          "indexed": false,
          "internalType": "uint256",
          "name": "poolTokenAmount",
          "type": "uint256"
        }
      ],
      "name": "FundingRenounced",
      "type": "event"
    },
    {
      "anonymous": false,
      "inputs": [
        {
          "indexed": true,
          "internalType": "bytes32",
          "name": "contextId",
          "type": "bytes32"
        },
        {
          "indexed": true,
          "internalType": "contract Token",
          "name": "pool",
          "type": "address"
        },
        {
          "indexed": false,
          "internalType": "uint256",
          "name": "bntAmount",
          "type": "uint256"
        },
        {
          "indexed": false,
          "internalType": "uint256",
          "name": "poolTokenAmount",
          "type": "uint256"
        }
      ],
      "name": "FundingRequested",
      "type": "event"
    },
    {
      "anonymous": false,
      "inputs": [
        {
          "indexed": true,
          "internalType": "contract Token",
          "name": "token",
          "type": "address"
        },
        {
          "indexed": true,
          "internalType": "address",
          "name": "caller",
          "type": "address"
        },
        {
          "indexed": false,
          "internalType": "uint256",
          "name": "amount",
          "type": "uint256"
        }
      ],
      "name": "FundsBurned",
      "type": "event"
    },
    {
      "anonymous": false,
      "inputs": [
        {
          "indexed": true,
          "internalType": "contract Token",
          "name": "token",
          "type": "address"
        },
        {
          "indexed": true,
          "internalType": "address",
          "name": "caller",
          "type": "address"
        },
        {
          "indexed": true,
          "internalType": "address",
          "name": "target",
          "type": "address"
        },
        {
          "indexed": false,
          "internalType": "uint256",
          "name": "amount",
          "type": "uint256"
        }
      ],
      "name": "FundsWithdrawn",
      "type": "event"
    },
    {
      "anonymous": false,
      "inputs": [
        {
          "indexed": false,
          "internalType": "address",
          "name": "account",
          "type": "address"
        }
      ],
      "name": "Paused",
      "type": "event"
    },
    {
      "anonymous": false,
      "inputs": [
        {
          "indexed": true,
          "internalType": "bytes32",
          "name": "role",
          "type": "bytes32"
        },
        {
          "indexed": true,
          "internalType": "bytes32",
          "name": "previousAdminRole",
          "type": "bytes32"
        },
        {
          "indexed": true,
          "internalType": "bytes32",
          "name": "newAdminRole",
          "type": "bytes32"
        }
      ],
      "name": "RoleAdminChanged",
      "type": "event"
    },
    {
      "anonymous": false,
      "inputs": [
        {
          "indexed": true,
          "internalType": "bytes32",
          "name": "role",
          "type": "bytes32"
        },
        {
          "indexed": true,
          "internalType": "address",
          "name": "account",
          "type": "address"
        },
        {
          "indexed": true,
          "internalType": "address",
          "name": "sender",
          "type": "address"
        }
      ],
      "name": "RoleGranted",
      "type": "event"
    },
    {
      "anonymous": false,
      "inputs": [
        {
          "indexed": true,
          "internalType": "bytes32",
          "name": "role",
          "type": "bytes32"
        },
        {
          "indexed": true,
          "internalType": "address",
          "name": "account",
          "type": "address"
        },
        {
          "indexed": true,
          "internalType": "address",
          "name": "sender",
          "type": "address"
        }
      ],
      "name": "RoleRevoked",
      "type": "event"
    },
    {
      "anonymous": false,
      "inputs": [
        {
          "indexed": true,
          "internalType": "bytes32",
          "name": "contextId",
          "type": "bytes32"
        },
        {
          "indexed": true,
          "internalType": "address",
          "name": "provider",
          "type": "address"
        },
        {
          "indexed": false,
          "internalType": "uint256",
          "name": "bntAmount",
          "type": "uint256"
        },
        {
          "indexed": false,
          "internalType": "uint256",
          "name": "poolTokenAmount",
          "type": "uint256"
        },
        {
          "indexed": false,
          "internalType": "uint256",
          "name": "vbntAmount",
          "type": "uint256"
        }
      ],
      "name": "TokenDeposited",
      "type": "event"
    },
    {
      "anonymous": false,
      "inputs": [
        {
          "indexed": true,
          "internalType": "bytes32",
          "name": "contextId",
          "type": "bytes32"
        },
        {
          "indexed": true,
          "internalType": "address",
          "name": "provider",
          "type": "address"
        },
        {
          "indexed": false,
          "internalType": "uint256",
          "name": "bntAmount",
          "type": "uint256"
        },
        {
          "indexed": false,
          "internalType": "uint256",
          "name": "poolTokenAmount",
          "type": "uint256"
        },
        {
          "indexed": false,
          "internalType": "uint256",
          "name": "vbntAmount",
          "type": "uint256"
        },
        {
          "indexed": false,
          "internalType": "uint256",
          "name": "withdrawalFeeAmount",
          "type": "uint256"
        }
      ],
      "name": "TokenWithdrawn",
      "type": "event"
    },
    {
      "anonymous": false,
      "inputs": [
        {
          "indexed": true,
          "internalType": "bytes32",
          "name": "contextId",
          "type": "bytes32"
        },
        {
          "indexed": false,
          "internalType": "uint256",
          "name": "stakedBalance",
          "type": "uint256"
        },
        {
          "indexed": false,
          "internalType": "uint256",
          "name": "poolTokenSupply",
          "type": "uint256"
        },
        {
          "indexed": false,
          "internalType": "uint256",
          "name": "actualBalance",
          "type": "uint256"
        }
      ],
      "name": "TotalLiquidityUpdated",
      "type": "event"
    },
    {
      "anonymous": false,
      "inputs": [
        {
          "indexed": false,
          "internalType": "address",
          "name": "account",
          "type": "address"
        }
      ],
      "name": "Unpaused",
      "type": "event"
    },
    {
      "inputs": [],
      "name": "DEFAULT_ADMIN_ROLE",
      "outputs": [
        {
          "internalType": "bytes32",
          "name": "",
          "type": "bytes32"
        }
      ],
      "stateMutability": "view",
      "type": "function"
    },
    {
      "inputs": [
        {
          "internalType": "contract Token",
          "name": "pool",
          "type": "address"
        }
      ],
      "name": "availableFunding",
      "outputs": [
        {
          "internalType": "uint256",
          "name": "",
          "type": "uint256"
        }
      ],
      "stateMutability": "view",
      "type": "function"
    },
    {
      "inputs": [
        {
          "internalType": "contract Token",
          "name": "token",
          "type": "address"
        },
        {
          "internalType": "uint256",
          "name": "amount",
          "type": "uint256"
        }
      ],
      "name": "burn",
      "outputs": [],
      "stateMutability": "nonpayable",
      "type": "function"
    },
    {
      "inputs": [
        {
          "internalType": "uint256",
          "name": "bntAmount",
          "type": "uint256"
        }
      ],
      "name": "burnFromVault",
      "outputs": [],
      "stateMutability": "nonpayable",
      "type": "function"
    },
    {
      "inputs": [
        {
          "internalType": "contract Token",
          "name": "pool",
          "type": "address"
        }
      ],
      "name": "currentPoolFunding",
      "outputs": [
        {
          "internalType": "uint256",
          "name": "",
          "type": "uint256"
        }
      ],
      "stateMutability": "view",
      "type": "function"
    },
    {
      "inputs": [
        {
          "internalType": "bytes32",
          "name": "contextId",
          "type": "bytes32"
        },
        {
          "internalType": "address",
          "name": "provider",
          "type": "address"
        },
        {
          "internalType": "uint256",
          "name": "bntAmount",
          "type": "uint256"
        },
        {
          "internalType": "bool",
          "name": "isMigrating",
          "type": "bool"
        },
        {
          "internalType": "uint256",
          "name": "originalVBNTAmount",
          "type": "uint256"
        }
      ],
      "name": "depositFor",
      "outputs": [
        {
          "internalType": "uint256",
          "name": "",
          "type": "uint256"
        }
      ],
      "stateMutability": "nonpayable",
      "type": "function"
    },
    {
      "inputs": [
        {
          "internalType": "bytes32",
          "name": "role",
          "type": "bytes32"
        }
      ],
      "name": "getRoleAdmin",
      "outputs": [
        {
          "internalType": "bytes32",
          "name": "",
          "type": "bytes32"
        }
      ],
      "stateMutability": "view",
      "type": "function"
    },
    {
      "inputs": [
        {
          "internalType": "bytes32",
          "name": "role",
          "type": "bytes32"
        },
        {
          "internalType": "uint256",
          "name": "index",
          "type": "uint256"
        }
      ],
      "name": "getRoleMember",
      "outputs": [
        {
          "internalType": "address",
          "name": "",
          "type": "address"
        }
      ],
      "stateMutability": "view",
      "type": "function"
    },
    {
      "inputs": [
        {
          "internalType": "bytes32",
          "name": "role",
          "type": "bytes32"
        }
      ],
      "name": "getRoleMemberCount",
      "outputs": [
        {
          "internalType": "uint256",
          "name": "",
          "type": "uint256"
        }
      ],
      "stateMutability": "view",
      "type": "function"
    },
    {
      "inputs": [
        {
          "internalType": "bytes32",
          "name": "role",
          "type": "bytes32"
        },
        {
          "internalType": "address",
          "name": "account",
          "type": "address"
        }
      ],
      "name": "grantRole",
      "outputs": [],
      "stateMutability": "nonpayable",
      "type": "function"
    },
    {
      "inputs": [
        {
          "internalType": "bytes32",
          "name": "role",
          "type": "bytes32"
        },
        {
          "internalType": "address",
          "name": "account",
          "type": "address"
        }
      ],
      "name": "hasRole",
      "outputs": [
        {
          "internalType": "bool",
          "name": "",
          "type": "bool"
        }
      ],
      "stateMutability": "view",
      "type": "function"
    },
    {
      "inputs": [],
      "name": "initialize",
      "outputs": [],
      "stateMutability": "nonpayable",
      "type": "function"
    },
    {
      "inputs": [],
      "name": "isPaused",
      "outputs": [
        {
          "internalType": "bool",
          "name": "",
          "type": "bool"
        }
      ],
      "stateMutability": "view",
      "type": "function"
    },
    {
      "inputs": [],
      "name": "isPayable",
      "outputs": [
        {
          "internalType": "bool",
          "name": "",
          "type": "bool"
        }
      ],
      "stateMutability": "pure",
      "type": "function"
    },
    {
      "inputs": [
        {
          "internalType": "address",
          "name": "recipient",
          "type": "address"
        },
        {
          "internalType": "uint256",
          "name": "bntAmount",
          "type": "uint256"
        }
      ],
      "name": "mint",
      "outputs": [],
      "stateMutability": "nonpayable",
      "type": "function"
    },
    {
      "inputs": [
        {
          "internalType": "contract Token",
          "name": "pool",
          "type": "address"
        },
        {
          "internalType": "uint256",
          "name": "feeAmount",
          "type": "uint256"
        },
        {
          "internalType": "bool",
          "name": "isTradeFee",
          "type": "bool"
        }
      ],
      "name": "onFeesCollected",
      "outputs": [],
      "stateMutability": "nonpayable",
      "type": "function"
    },
    {
      "inputs": [],
      "name": "pause",
      "outputs": [],
      "stateMutability": "nonpayable",
      "type": "function"
    },
    {
      "inputs": [],
      "name": "paused",
      "outputs": [
        {
          "internalType": "bool",
          "name": "",
          "type": "bool"
        }
      ],
      "stateMutability": "view",
      "type": "function"
    },
    {
      "inputs": [],
      "name": "poolToken",
      "outputs": [
        {
          "internalType": "contract IPoolToken",
          "name": "",
          "type": "address"
        }
      ],
      "stateMutability": "view",
      "type": "function"
    },
    {
      "inputs": [
        {
          "internalType": "uint256",
          "name": "bntAmountToDistribute",
          "type": "uint256"
        }
      ],
      "name": "poolTokenAmountToBurn",
      "outputs": [
        {
          "internalType": "uint256",
          "name": "",
          "type": "uint256"
        }
      ],
      "stateMutability": "view",
      "type": "function"
    },
    {
      "inputs": [
        {
          "internalType": "uint256",
          "name": "poolTokenAmount",
          "type": "uint256"
        }
      ],
      "name": "poolTokenToUnderlying",
      "outputs": [
        {
          "internalType": "uint256",
          "name": "",
          "type": "uint256"
        }
      ],
      "stateMutability": "view",
      "type": "function"
    },
    {
      "inputs": [
        {
          "internalType": "bytes32",
          "name": "contextId",
          "type": "bytes32"
        },
        {
          "internalType": "contract Token",
          "name": "pool",
          "type": "address"
        },
        {
          "internalType": "uint256",
          "name": "bntAmount",
          "type": "uint256"
        }
      ],
      "name": "renounceFunding",
      "outputs": [],
      "stateMutability": "nonpayable",
      "type": "function"
    },
    {
      "inputs": [
        {
          "internalType": "bytes32",
          "name": "role",
          "type": "bytes32"
        },
        {
          "internalType": "address",
          "name": "account",
          "type": "address"
        }
      ],
      "name": "renounceRole",
      "outputs": [],
      "stateMutability": "nonpayable",
      "type": "function"
    },
    {
      "inputs": [
        {
          "internalType": "bytes32",
          "name": "contextId",
          "type": "bytes32"
        },
        {
          "internalType": "contract Token",
          "name": "pool",
          "type": "address"
        },
        {
          "internalType": "uint256",
          "name": "bntAmount",
          "type": "uint256"
        }
      ],
      "name": "requestFunding",
      "outputs": [],
      "stateMutability": "nonpayable",
      "type": "function"
    },
    {
      "inputs": [
        {
          "internalType": "bytes32",
          "name": "role",
          "type": "bytes32"
        },
        {
          "internalType": "address",
          "name": "account",
          "type": "address"
        }
      ],
      "name": "revokeRole",
      "outputs": [],
      "stateMutability": "nonpayable",
      "type": "function"
    },
    {
      "inputs": [],
      "name": "roleAdmin",
      "outputs": [
        {
          "internalType": "bytes32",
          "name": "",
          "type": "bytes32"
        }
      ],
      "stateMutability": "pure",
      "type": "function"
    },
    {
      "inputs": [],
      "name": "roleAssetManager",
      "outputs": [
        {
          "internalType": "bytes32",
          "name": "",
          "type": "bytes32"
        }
      ],
      "stateMutability": "pure",
      "type": "function"
    },
    {
      "inputs": [],
      "name": "roleBNTManager",
      "outputs": [
        {
          "internalType": "bytes32",
          "name": "",
          "type": "bytes32"
        }
      ],
      "stateMutability": "pure",
      "type": "function"
    },
    {
      "inputs": [],
      "name": "roleBNTPoolTokenManager",
      "outputs": [
        {
          "internalType": "bytes32",
          "name": "",
          "type": "bytes32"
        }
      ],
      "stateMutability": "pure",
      "type": "function"
    },
    {
      "inputs": [],
      "name": "roleFundingManager",
      "outputs": [
        {
          "internalType": "bytes32",
          "name": "",
          "type": "bytes32"
        }
      ],
      "stateMutability": "pure",
      "type": "function"
    },
    {
      "inputs": [],
      "name": "roleVaultManager",
      "outputs": [
        {
          "internalType": "bytes32",
          "name": "",
          "type": "bytes32"
        }
      ],
      "stateMutability": "pure",
      "type": "function"
    },
    {
      "inputs": [],
      "name": "stakedBalance",
      "outputs": [
        {
          "internalType": "uint256",
          "name": "",
          "type": "uint256"
        }
      ],
      "stateMutability": "view",
      "type": "function"
    },
    {
      "inputs": [
        {
          "internalType": "bytes4",
          "name": "interfaceId",
          "type": "bytes4"
        }
      ],
      "name": "supportsInterface",
      "outputs": [
        {
          "internalType": "bool",
          "name": "",
          "type": "bool"
        }
      ],
      "stateMutability": "view",
      "type": "function"
    },
    {
      "inputs": [
        {
          "internalType": "uint256",
          "name": "bntAmount",
          "type": "uint256"
        }
      ],
      "name": "underlyingToPoolToken",
      "outputs": [
        {
          "internalType": "uint256",
          "name": "",
          "type": "uint256"
        }
      ],
      "stateMutability": "view",
      "type": "function"
    },
    {
      "inputs": [],
      "name": "unpause",
      "outputs": [],
      "stateMutability": "nonpayable",
      "type": "function"
    },
    {
      "inputs": [],
      "name": "version",
      "outputs": [
        {
          "internalType": "uint16",
          "name": "",
          "type": "uint16"
        }
      ],
      "stateMutability": "pure",
      "type": "function"
    },
    {
      "inputs": [
        {
          "internalType": "bytes32",
          "name": "contextId",
          "type": "bytes32"
        },
        {
          "internalType": "address",
          "name": "provider",
          "type": "address"
        },
        {
          "internalType": "uint256",
          "name": "poolTokenAmount",
          "type": "uint256"
        }
      ],
      "name": "withdraw",
      "outputs": [
        {
          "internalType": "uint256",
          "name": "",
          "type": "uint256"
        }
      ],
      "stateMutability": "nonpayable",
      "type": "function"
    },
    {
      "inputs": [
        {
          "internalType": "contract Token",
          "name": "token",
          "type": "address"
        },
        {
          "internalType": "address payable",
          "name": "target",
          "type": "address"
        },
        {
          "internalType": "uint256",
          "name": "amount",
          "type": "uint256"
        }
      ],
      "name": "withdrawFunds",
      "outputs": [],
      "stateMutability": "nonpayable",
      "type": "function"
    },
    {
      "inputs": [
        {
          "internalType": "uint256",
          "name": "poolTokenAmount",
          "type": "uint256"
        }
      ],
      "name": "withdrawalAmount",
      "outputs": [
        {
          "internalType": "uint256",
          "name": "",
          "type": "uint256"
        }
      ],
      "stateMutability": "view",
      "type": "function"
    },
    {
      "stateMutability": "payable",
      "type": "receive"
    }
  ],
  "transactionHash": "0xc71e47999b61b7ee37ded0251093eba1aea97c1dcb7706fad3ab1dce6d25a7d4",
  "args": [
    "0x093C761bd5B8f71d72cBC74A72cc9c6aEDC8EE49",
    "0xa489C2b5b36835A327851Ab917A80562B5AFC244",
    "0x0887ae1251E180d7D453aeDEBee26e1639f20113",
    "0x302979c8f478279Ab3F46Ce3Dc96c98d9c28fb0c",
    "0xCc039b94a38Eb7039556De6c95aC7a48AAE86cE0",
    "0x6fFa9Fc84e355624a1c986F54A95e926BC527A2D"
  ],
  "numDeployments": 1,
  "solcInputHash": "dcea142469df7f75d330e08f80ea8523",
  "bytecode": "0x6101806040523480156200001257600080fd5b5060405162003c9b38038062003c9b8339810160408190526200003591620001eb565b8484816200004381620001aa565b816200004f81620001aa565b6001600160a01b03841660a081905260408051637e062a3560e11b8152905163fc0c546a916004808201926020929091908290030181865afa1580156200009a573d6000803e3d6000fd5b505050506040513d601f19601f82011682018060405250810190620000c091906200027f565b6001600160a01b03908116608052831660e081905260408051637e062a3560e11b8152905163fc0c546a916004808201926020929091908290030181865afa15801562000111573d6000803e3d6000fd5b505050506040513d601f19601f820116820180604052508101906200013791906200027f565b6001600160a01b031660c05250889250620001569150829050620001aa565b836200016281620001aa565b836200016e81620001aa565b836200017a81620001aa565b5050506001600160a01b039687166101005250918516610120528416610140529092166101605250620002a69050565b6001600160a01b038116620001d25760405163e6c4247b60e01b815260040160405180910390fd5b50565b6001600160a01b0381168114620001d257600080fd5b60008060008060008060c087890312156200020557600080fd5b86516200021281620001d5565b60208801519096506200022581620001d5565b60408801519095506200023881620001d5565b60608801519094506200024b81620001d5565b60808801519093506200025e81620001d5565b60a08801519092506200027181620001d5565b809150509295509295509295565b6000602082840312156200029257600080fd5b81516200029f81620001d5565b9392505050565b60805160a05160c05160e051610100516101205161014051610160516138b6620003e560003960008181610681015281816109ce01528181610aaf01528181610f9e015281816110a8015281816118a501528181611c2b01528181611e2301528181611ed9015281816120b20152818161215d015281816126790152612b3d015260008181610b5701528181610c3f01528181611119015281816112370152611afb015260008181610ef30152818161149001528181611fef01526123a30152600081816112f9015281816118390152611bbb015260008181611755015281816119310152611d570152600061170c015260008181610e2e01528181611148015281816116a0015281816119bc0152611cb1015260008181610b2801528181610c670152818161125f015281816116570152611acc01526138b66000f3fe6080604052600436106102345760003560e01c80639010d07c1161012e578063c878ab33116100ab578063d7882fdf1161006f578063d7882fdf146106d9578063e06bf20d146106f9578063e80e8a7d14610719578063e8ddecba14610739578063fd4d4ad21461076c57600080fd5b8063c878ab331461061f578063ca15c87314610652578063cbdf382c14610672578063ce46e046146106a5578063d547741f146106b957600080fd5b8063a217fddf116100f2578063a217fddf14610582578063a6fb97d114610597578063a9c63258146105b7578063b187bd26146105d7578063b89bd433146105ec57600080fd5b80639010d07c146104b657806391d14854146104ee57806392bd95ea1461050e57806393867fb5146105415780639dc29fac1461056257600080fd5b806340c10f19116101bc57806371c0feb71161018057806371c0feb71461042c5780637c8f622d1461044c5780638129fc1c1461046c5780638456cb59146104815780638d0c78271461049657600080fd5b806340c10f19146103a157806354fd4d50146103c15780635b9f0016146103dd5780635c975abb146103f3578063639c35741461040b57600080fd5b80631ebda06d116102035780631ebda06d146102fc578063248a9ca31461031c5780632f2ff15d1461034c57806336568abe1461036c5780633f4ba83a1461038c57600080fd5b806301ffc9a71461025957806308fc33851461028e5780630f1544c4146102bc5780631c20fadd146102dc57600080fd5b3661025457604051631574f9f360e01b815260040160405180910390fd5b005b600080fd5b34801561026557600080fd5b5061027961027436600461339b565b6107a3565b60405190151581526020015b60405180910390f35b34801561029a57600080fd5b506102ae6102a93660046133c5565b6107ce565b604051908152602001610285565b3480156102c857600080fd5b506102ae6102d73660046133c5565b6107ee565b3480156102e857600080fd5b506102526102f73660046133f3565b6107f9565b34801561030857600080fd5b50610252610317366004613434565b610972565b34801561032857600080fd5b506102ae6103373660046133c5565b60009081526065602052604090206001015490565b34801561035857600080fd5b5061025261036736600461345b565b610cfe565b34801561037857600080fd5b5061025261038736600461345b565b610d29565b34801561039857600080fd5b50610252610da7565b3480156103ad57600080fd5b506102526103bc36600461348b565b610dc9565b3480156103cd57600080fd5b5060405160018152602001610285565b3480156103e957600080fd5b5061012d546102ae565b3480156103ff57600080fd5b5060c95460ff16610279565b34801561041757600080fd5b5060008051602061386a8339815191526102ae565b34801561043857600080fd5b50610252610447366004613434565b610e91565b34801561045857600080fd5b506102526104673660046134c5565b6112f7565b34801561047857600080fd5b50610252611389565b34801561048d57600080fd5b5061025261144a565b3480156104a257600080fd5b506102ae6104b1366004613507565b61146a565b3480156104c257600080fd5b506104d66104d1366004613524565b61151a565b6040516001600160a01b039091168152602001610285565b3480156104fa57600080fd5b5061027961050936600461345b565b611539565b34801561051a57600080fd5b507f89ce14d20697a788f57260f7690044299bde7ea88cfb7e43d120a0c031f1ffc16102ae565b34801561054d57600080fd5b5060008051602061388a8339815191526102ae565b34801561056e57600080fd5b5061025261057d36600461348b565b611564565b34801561058e57600080fd5b506102ae600081565b3480156105a357600080fd5b506102ae6105b2366004613434565b611835565b3480156105c357600080fd5b506102526105d23660046133c5565b611a80565b3480156105e357600080fd5b50610279611b5c565b3480156105f857600080fd5b507f473e02917e58ac16ae36b64246942eb4bb4dcf262bc3c3c50359aa9af6bb44f96102ae565b34801561062b57600080fd5b507f4cbb5676e6e25e1a3b8a36de10472bcac96f97bd8dd87af6f330881b84739eb86102ae565b34801561065e57600080fd5b506102ae61066d3660046133c5565b611b6f565b34801561067e57600080fd5b507f00000000000000000000000000000000000000000000000000000000000000006104d6565b3480156106b157600080fd5b506000610279565b3480156106c557600080fd5b506102526106d436600461345b565b611b86565b3480156106e557600080fd5b506102ae6106f43660046133c5565b611bac565b34801561070557600080fd5b506102ae610714366004613546565b611bb7565b34801561072557600080fd5b506102ae6107343660046133c5565b611e10565b34801561074557600080fd5b507f0d0d17bf5382c809d9a3899d6a94e57386dfb2036f0401b94ef3cf6c1a9ab73f6102ae565b34801561077857600080fd5b506102ae610787366004613507565b6001600160a01b0316600090815261012e602052604090205490565b60006001600160e01b03198216635a05180f60e01b14806107c857506107c882611f73565b92915050565b6000816107da81611fa8565b60006107e584611fc6565b51949350505050565b60006107c8826120a6565b8161080381612132565b600260fb54141561085b5760405162461bcd60e51b815260206004820152601f60248201527f5265656e7472616e637947756172643a207265656e7472616e742063616c6c0060448201526064015b60405180910390fd5b600260fb5560c95460ff16156108835760405162461bcd60e51b815260040161085290613598565b3384848461089384848484612159565b6108b057604051634ca8886760e01b815260040160405180910390fd5b856108ba57610963565b73eeeeeeeeeeeeeeeeeeeeeeeeeeeeeeeeeeeeeeee6001600160a01b03891614156108f7576108f26001600160a01b038816876121c5565b61090b565b61090b6001600160a01b03891688886122de565b866001600160a01b0316336001600160a01b0316896001600160a01b03167fc322efa58c9cb2c39cfffdac61d35c8643f5cbf13c6a7d0034de2cf18923aff38960405161095a91815260200190565b60405180910390a45b5050600160fb55505050505050565b60008051602061386a83398151915261098b813361235d565b8261099581612384565b8261099f81611fa8565b61012d546001600160a01b038616600090815261012e6020526040812054906109c8828861242b565b905060007f00000000000000000000000000000000000000000000000000000000000000006001600160a01b03166318160ddd6040518163ffffffff1660e01b8152600401602060405180830381865afa158015610a2a573d6000803e3d6000fd5b505050506040513d601f19601f82011682018060405250810190610a4e91906135c2565b90506000610a5d838387612441565b9050610a6983856135f1565b6001600160a01b038b16600090815261012e6020526040812091909155610a9084876135f1565b61012d819055604051630852cd8d60e31b8152600481018490529091507f00000000000000000000000000000000000000000000000000000000000000006001600160a01b0316906342966c6890602401600060405180830381600087803b158015610afb57600080fd5b505af1158015610b0f573d6000803e3d6000fd5b5050604051632770a7eb60e21b81526001600160a01b037f000000000000000000000000000000000000000000000000000000000000000081166004830152602482018e90527f0000000000000000000000000000000000000000000000000000000000000000169250639dc29fac9150604401600060405180830381600087803b158015610b9d57600080fd5b505af1158015610bb1573d6000803e3d6000fd5b5050604080518d8152602081018690526001600160a01b038f1693508f92507f343b2618f119491ea746148809f6073b9cbf1ebf15155ad4661dba2f6dd0f451910160405180910390a38b7f78892d9576143a8e05c38de593d7fe77e75be9a9f2047dc5de22e6cec00076bf82610c2885876135f1565b6040516370a0823160e01b81526001600160a01b037f0000000000000000000000000000000000000000000000000000000000000000811660048301527f000000000000000000000000000000000000000000000000000000000000000016906370a0823190602401602060405180830381865afa158015610cae573d6000803e3d6000fd5b505050506040513d601f19601f82011682018060405250810190610cd291906135c2565b6040805193845260208401929092529082015260600160405180910390a2505050505050505050505050565b600082815260656020526040902060010154610d1a813361244e565b610d2483836124b2565b505050565b6001600160a01b0381163314610d995760405162461bcd60e51b815260206004820152602f60248201527f416363657373436f6e74726f6c3a2063616e206f6e6c792072656e6f756e636560448201526e103937b632b9903337b91039b2b63360891b6064820152608401610852565b610da382826124d4565b5050565b610dbf60008051602061388a8339815191523361235d565b610dc76124f6565b565b7f4cbb5676e6e25e1a3b8a36de10472bcac96f97bd8dd87af6f330881b84739eb8610df4813361235d565b82610dfe81612132565b82610e0881611fa8565b6040516340c10f1960e01b81526001600160a01b038681166004830152602482018690527f000000000000000000000000000000000000000000000000000000000000000016906340c10f1990604401600060405180830381600087803b158015610e7257600080fd5b505af1158015610e86573d6000803e3d6000fd5b505050505050505050565b60008051602061386a833981519152610eaa813361235d565b82610eb481612384565b82610ebe81611fa8565b6001600160a01b03858116600081815261012e602052604080822054905163467e55df60e01b815260048101939093529290917f00000000000000000000000000000000000000000000000000000000000000009091169063467e55df90602401602060405180830381865afa158015610f3c573d6000803e3d6000fd5b505050506040513d601f19601f82011682018060405250810190610f6091906135c2565b90506000610f6e8784613608565b905081811115610f9157604051632dae22ef60e21b815260040160405180910390fd5b600061012d5490506000807f00000000000000000000000000000000000000000000000000000000000000006001600160a01b03166318160ddd6040518163ffffffff1660e01b8152600401602060405180830381865afa158015610ffa573d6000803e3d6000fd5b505050506040513d601f19601f8201168201806040525081019061101e91906135c2565b90508061104c57821561104457604051636a9c61e160e01b815260040160405180910390fd5b89915061105a565b6110578a8285612441565b91505b60006110668b85613608565b61012d8190556001600160a01b038d8116600090815261012e602052604090819020889055516340c10f1960e01b8152306004820152602481018690529192507f000000000000000000000000000000000000000000000000000000000000000016906340c10f1990604401600060405180830381600087803b1580156110ec57600080fd5b505af1158015611100573d6000803e3d6000fd5b50506040516340c10f1960e01b81526001600160a01b037f000000000000000000000000000000000000000000000000000000000000000081166004830152602482018f90527f00000000000000000000000000000000000000000000000000000000000000001692506340c10f199150604401600060405180830381600087803b15801561118e57600080fd5b505af11580156111a2573d6000803e3d6000fd5b505050508b6001600160a01b03168d7ffd8684b04dc22a1ff327e3387f1b4a1f6bb6ac801505a61ca0c295a823c6de838d866040516111eb929190918252602082015260400190565b60405180910390a38c7f78892d9576143a8e05c38de593d7fe77e75be9a9f2047dc5de22e6cec00076bf826112208686613608565b6040516370a0823160e01b81526001600160a01b037f0000000000000000000000000000000000000000000000000000000000000000811660048301527f000000000000000000000000000000000000000000000000000000000000000016906370a0823190602401602060405180830381865afa1580156112a6573d6000803e3d6000fd5b505050506040513d601f19601f820116820180604052508101906112ca91906135c2565b6040805193845260208401929092529082015260600160405180910390a250505050505050505050505050565b7f000000000000000000000000000000000000000000000000000000000000000061132181612589565b8361132b81612132565b8361133557611382565b8361012d60008282546113489190613608565b90915550508215611382576001600160a01b038516600090815261012e60205260408120805486929061137c908490613608565b90915550505b5050505050565b600054610100900460ff166113a45760005460ff16156113a8565b303b155b61140b5760405162461bcd60e51b815260206004820152602e60248201527f496e697469616c697a61626c653a20636f6e747261637420697320616c72656160448201526d191e481a5b9a5d1a585b1a5e995960921b6064820152608401610852565b600054610100900460ff1615801561142d576000805461ffff19166101011790555b6114356125b2565b8015611447576000805461ff00191690555b50565b61146260008051602061388a8339815191523361235d565b610dc76125e9565b60405163467e55df60e01b81526001600160a01b0382811660048301526000916107c8917f0000000000000000000000000000000000000000000000000000000000000000169063467e55df90602401602060405180830381865afa1580156114d7573d6000803e3d6000fd5b505050506040513d601f19601f820116820180604052508101906114fb91906135c2565b6001600160a01b038416600090815261012e6020526040902054612641565b6000828152609760205260408120611532908361265b565b9392505050565b60009182526065602090815260408084206001600160a01b0393909316845291905290205460ff1690565b600260fb5414156115b75760405162461bcd60e51b815260206004820152601f60248201527f5265656e7472616e637947756172643a207265656e7472616e742063616c6c006044820152606401610852565b600260fb5560c95460ff16156115df5760405162461bcd60e51b815260040161085290613598565b33826000836115f084848484612159565b61160d57604051634ca8886760e01b815260040160405180910390fd5b8461161757611828565b73eeeeeeeeeeeeeeeeeeeeeeeeeeeeeeeeeeeeeeee6001600160a01b03871614156116555760405163c1ab6dc160e01b815260040160405180910390fd5b7f00000000000000000000000000000000000000000000000000000000000000006001600160a01b03908116908716141561170a57604051630852cd8d60e31b8152600481018690527f00000000000000000000000000000000000000000000000000000000000000006001600160a01b0316906342966c68906024015b600060405180830381600087803b1580156116ed57600080fd5b505af1158015611701573d6000803e3d6000fd5b505050506117e7565b7f00000000000000000000000000000000000000000000000000000000000000006001600160a01b03908116908716141561178c57604051630852cd8d60e31b8152600481018690527f00000000000000000000000000000000000000000000000000000000000000006001600160a01b0316906342966c68906024016116d3565b604051630852cd8d60e31b8152600481018690526001600160a01b038716906342966c6890602401600060405180830381600087803b1580156117ce57600080fd5b505af11580156117e2573d6000803e3d6000fd5b505050505b60405185815233906001600160a01b038816907fd3fda22e13f8cb743a9ceaca6e14022b6677188d20f3c3047f5c9033e07a4e879060200160405180910390a35b5050600160fb5550505050565b60007f000000000000000000000000000000000000000000000000000000000000000061186181612589565b8361186b81612132565b8361187581611fa8565b600061188086611fc6565b6040516323b872dd60e01b8152336004820152306024820152604481018890529091507f00000000000000000000000000000000000000000000000000000000000000006001600160a01b0316906323b872dd906064016020604051808303816000875af11580156118f6573d6000803e3d6000fd5b505050506040513d601f19601f8201168201806040525081019061191a9190613620565b50604051630852cd8d60e31b8152600481018790527f00000000000000000000000000000000000000000000000000000000000000006001600160a01b0316906342966c6890602401600060405180830381600087803b15801561197d57600080fd5b505af1158015611991573d6000803e3d6000fd5b505082516040516340c10f1960e01b81526001600160a01b038b8116600483015260248201929092527f000000000000000000000000000000000000000000000000000000000000000090911692506340c10f199150604401600060405180830381600087803b158015611a0457600080fd5b505af1158015611a18573d6000803e3d6000fd5b50508251602080850151604080519384529183018b90528282018b90526060830152516001600160a01b038b1693508b92507fe75bdd79620d10bfcacb7215b5a84bd66d826883f4f13c1e9e0da6f2f0785a239181900360800190a351979650505050505050565b7f0d0d17bf5382c809d9a3899d6a94e57386dfb2036f0401b94ef3cf6c1a9ab73f611aab813361235d565b81611ab581611fa8565b604051632770a7eb60e21b81526001600160a01b037f000000000000000000000000000000000000000000000000000000000000000081166004830152602482018590527f00000000000000000000000000000000000000000000000000000000000000001690639dc29fac90604401600060405180830381600087803b158015611b3f57600080fd5b505af1158015611b53573d6000803e3d6000fd5b50505050505050565b6000611b6a60c95460ff1690565b905090565b60008181526097602052604081206107c890612667565b600082815260656020526040902060010154611ba2813361244e565b610d2483836124d4565b60006107c882612671565b60007f0000000000000000000000000000000000000000000000000000000000000000611be381612589565b85611bed81612132565b85611bf781611fa8565b6000611c0288612671565b60405163a9059cbb60e01b81526001600160a01b038b81166004830152602482018390529192507f00000000000000000000000000000000000000000000000000000000000000009091169063a9059cbb906044016020604051808303816000875af1158015611c76573d6000803e3d6000fd5b505050506040513d601f19601f82011682018060405250810190611c9a9190613620565b50604051630852cd8d60e31b8152600481018990527f00000000000000000000000000000000000000000000000000000000000000006001600160a01b0316906342966c6890602401600060405180830381600087803b158015611cfd57600080fd5b505af1158015611d11573d6000803e3d6000fd5b508392505088159050611d2b57611d288188612641565b90505b8015611db4576040516340c10f1960e01b81526001600160a01b038b81166004830152602482018390527f000000000000000000000000000000000000000000000000000000000000000016906340c10f1990604401600060405180830381600087803b158015611d9b57600080fd5b505af1158015611daf573d6000803e3d6000fd5b505050505b604080518a8152602081018490529081018290526001600160a01b038b16908c907f5e04695c99a5a7ffb392c9dbe56f8914b09f648044ce92970c7ca888787020909060600160405180910390a3509998505050505050505050565b600081611e1f57506000919050565b60007f00000000000000000000000000000000000000000000000000000000000000006001600160a01b03166318160ddd6040518163ffffffff1660e01b8152600401602060405180830381865afa158015611e7f573d6000803e3d6000fd5b505050506040513d601f19601f82011682018060405250810190611ea391906135c2565b90506000611eb1828561363d565b6040516370a0823160e01b8152306004820152909150611f6b90829084906001600160a01b037f000000000000000000000000000000000000000000000000000000000000000016906370a0823190602401602060405180830381865afa158015611f20573d6000803e3d6000fd5b505050506040513d601f19601f82011682018060405250810190611f4491906135c2565b611f4e90866135f1565b61012d54611f5c919061363d565b611f669085613608565b612702565b949350505050565b60006001600160e01b03198216637965db0b60e01b14806107c857506301ffc9a760e01b6001600160e01b03198316146107c8565b8061144757604051637c946ed760e01b815260040160405180910390fd5b60408051808201909152600080825260208201526000611fe5836120a6565b9050600061207e827f00000000000000000000000000000000000000000000000000000000000000006001600160a01b0316632aac012c6040518163ffffffff1660e01b8152600401602060405180830381865afa15801561204b573d6000803e3d6000fd5b505050506040513d601f19601f8201168201806040525081019061206f919061365c565b63ffffffff16620f4240612702565b905061208a81836135f1565b6040805180820190915290815260208101919091529392505050565b60006107c88261012d547f00000000000000000000000000000000000000000000000000000000000000006001600160a01b03166318160ddd6040518163ffffffff1660e01b8152600401602060405180830381865afa15801561210e573d6000803e3d6000fd5b505050506040513d601f19601f82011682018060405250810190611f6691906135c2565b6001600160a01b0381166114475760405163e6c4247b60e01b815260040160405180910390fd5b60007f00000000000000000000000000000000000000000000000000000000000000006001600160a01b039081169085161480156121bc57506121bc7f473e02917e58ac16ae36b64246942eb4bb4dcf262bc3c3c50359aa9af6bb44f986611539565b95945050505050565b804710156122155760405162461bcd60e51b815260206004820152601d60248201527f416464726573733a20696e73756666696369656e742062616c616e63650000006044820152606401610852565b6000826001600160a01b03168260405160006040518083038185875af1925050503d8060008114612262576040519150601f19603f3d011682016040523d82523d6000602084013e612267565b606091505b5050905080610d245760405162461bcd60e51b815260206004820152603a60248201527f416464726573733a20756e61626c6520746f2073656e642076616c75652c207260448201527f6563697069656e74206d617920686176652072657665727465640000000000006064820152608401610852565b806122e857505050565b73eeeeeeeeeeeeeeeeeeeeeeeeeeeeeeeeeeeeeeee6001600160a01b0384161415612349576040516001600160a01b0383169082156108fc029083906000818181858888f19350505050158015612343573d6000803e3d6000fd5b50505050565b610d246001600160a01b03841683836127c8565b6123678282611539565b610da357604051634ca8886760e01b815260040160405180910390fd5b60405163b5af090f60e01b81526001600160a01b0382811660048301527f0000000000000000000000000000000000000000000000000000000000000000169063b5af090f90602401602060405180830381865afa1580156123ea573d6000803e3d6000fd5b505050506040513d601f19601f8201168201806040525081019061240e9190613620565b61144757604051630b094f2760e31b815260040160405180910390fd5b600081831061243a5781611532565b5090919050565b6000611f6b848484612702565b6124588282611539565b610da357612470816001600160a01b0316601461281a565b61247b83602061281a565b60405160200161248c9291906136ae565b60408051601f198184030181529082905262461bcd60e51b825261085291600401613723565b6124bc82826129b6565b6000828152609760205260409020610d249082612a3c565b6124de8282612a51565b6000828152609760205260409020610d249082612ab8565b60c95460ff1661253f5760405162461bcd60e51b815260206004820152601460248201527314185d5cd8589b194e881b9bdd081c185d5cd95960621b6044820152606401610852565b60c9805460ff191690557f5db9ee0a495bf2e6ff9c91a7834c1ba4fdd244a5e8aa4e537bd38aeae4b073aa335b6040516001600160a01b03909116815260200160405180910390a1565b336001600160a01b0382161461144757604051634ca8886760e01b815260040160405180910390fd5b600054610100900460ff166125d95760405162461bcd60e51b815260040161085290613756565b6125e1612acd565b610dc7612b14565b60c95460ff161561260c5760405162461bcd60e51b815260040161085290613598565b60c9805460ff191660011790557f62e78cea01bee320cd4e420270b5ea74000d11b0c9f74754ebdbfc544b05a25861256c3390565b6000818311612651576000611532565b61153282846135f1565b60006115328383612c7c565b60006107c8825490565b60006107c8827f00000000000000000000000000000000000000000000000000000000000000006001600160a01b03166318160ddd6040518163ffffffff1660e01b8152600401602060405180830381865afa1580156126d5573d6000803e3d6000fd5b505050506040513d601f19601f820116820180604052508101906126f991906135c2565b61012d54612441565b60008061270f8585612ca6565b80519091506127305782816020015161272891906137b7565b915050611532565b8051831161275157604051631a93c68960e11b815260040160405180910390fd5b600061275e868686612d2d565b9050600061276c8383612d48565b805190915061278f5784816020015161278591906137b7565b9350505050611532565b60008581038616906127a18383612dcd565b905060006127b76127b2848a6137b7565b612e04565b919091029998505050505050505050565b604080516001600160a01b038416602482015260448082018490528251808303909101815260649091019091526020810180516001600160e01b031663a9059cbb60e01b179052610d24908490612e36565b6060600061282983600261363d565b612834906002613608565b67ffffffffffffffff81111561284c5761284c6137d9565b6040519080825280601f01601f191660200182016040528015612876576020820181803683370190505b509050600360fc1b81600081518110612891576128916137ef565b60200101906001600160f81b031916908160001a905350600f60fb1b816001815181106128c0576128c06137ef565b60200101906001600160f81b031916908160001a90535060006128e484600261363d565b6128ef906001613608565b90505b6001811115612967576f181899199a1a9b1b9c1cb0b131b232b360811b85600f1660108110612923576129236137ef565b1a60f81b828281518110612939576129396137ef565b60200101906001600160f81b031916908160001a90535060049490941c9361296081613805565b90506128f2565b5083156115325760405162461bcd60e51b815260206004820181905260248201527f537472696e67733a20686578206c656e67746820696e73756666696369656e746044820152606401610852565b6129c08282611539565b610da35760008281526065602090815260408083206001600160a01b03851684529091529020805460ff191660011790556129f83390565b6001600160a01b0316816001600160a01b0316837f2f8788117e7eff1d82e926ec794901d17c78024a50270940304540a733656f0d60405160405180910390a45050565b6000611532836001600160a01b038416612f08565b612a5b8282611539565b15610da35760008281526065602090815260408083206001600160a01b0385168085529252808320805460ff1916905551339285917ff6391f5c32d9c69d2a47ea670b442974b53935d1edc7fd64eb21e047a839171b9190a45050565b6000611532836001600160a01b038416612f57565b600054610100900460ff16612af45760405162461bcd60e51b815260040161085290613756565b612afc61304a565b612b04613081565b612b0c6130b0565b610dc76130df565b600054610100900460ff16612b3b5760405162461bcd60e51b815260040161085290613756565b7f00000000000000000000000000000000000000000000000000000000000000006001600160a01b03166379ba50976040518163ffffffff1660e01b8152600401600060405180830381600087803b158015612b9657600080fd5b505af1158015612baa573d6000803e3d6000fd5b50505050612be67f473e02917e58ac16ae36b64246942eb4bb4dcf262bc3c3c50359aa9af6bb44f960008051602061388a833981519152613106565b612c1e7f4cbb5676e6e25e1a3b8a36de10472bcac96f97bd8dd87af6f330881b84739eb860008051602061388a833981519152613106565b612c567f0d0d17bf5382c809d9a3899d6a94e57386dfb2036f0401b94ef3cf6c1a9ab73f60008051602061388a833981519152613106565b610dc760008051602061386a83398151915260008051602061388a833981519152613106565b6000826000018281548110612c9357612c936137ef565b9060005260206000200154905092915050565b60408051808201909152600080825260208201526000612cc68484613151565b9050838302808210612cfb5760405180604001604052808284612ce991906135f1565b815260200182815250925050506107c8565b60405180604001604052806001612d128585900390565b612d1c91906135f1565b815260200191909152949350505050565b60008180612d3d57612d3d6137a1565b838509949350505050565b604080518082019091526000808252602082015281836020015110612d9557604051806040016040528084600001518152602001838560200151612d8c91906135f1565b905290506107c8565b604051806040016040528060018560000151612db191906135f1565b8152602001612dc4856020015185900390565b90529392505050565b600080612de5612ddf848084036137b7565b60010190565b9050828460200151612df791906137b7565b8451820217949350505050565b60006001815b6008811015612e2f578382026002038202915080612e278161381c565b915050612e0a565b5092915050565b6000612e8b826040518060400160405280602081526020017f5361666545524332303a206c6f772d6c6576656c2063616c6c206661696c6564815250856001600160a01b03166131609092919063ffffffff16565b805190915015610d245780806020019051810190612ea99190613620565b610d245760405162461bcd60e51b815260206004820152602a60248201527f5361666545524332303a204552433230206f7065726174696f6e20646964206e6044820152691bdd081cdd58d8d9595960b21b6064820152608401610852565b6000818152600183016020526040812054612f4f575081546001818101845560008481526020808220909301849055845484825282860190935260409020919091556107c8565b5060006107c8565b60008181526001830160205260408120548015613040576000612f7b6001836135f1565b8554909150600090612f8f906001906135f1565b9050818114612ff4576000866000018281548110612faf57612faf6137ef565b9060005260206000200154905080876000018481548110612fd257612fd26137ef565b6000918252602080832090910192909255918252600188019052604090208390555b855486908061300557613005613837565b6001900381819060005260206000200160009055905585600101600086815260200190815260200160002060009055600193505050506107c8565b60009150506107c8565b600054610100900460ff166130715760405162461bcd60e51b815260040161085290613756565b6130796130df565b610dc761316f565b600054610100900460ff166130a85760405162461bcd60e51b815260040161085290613756565b610dc76131c6565b600054610100900460ff166130d75760405162461bcd60e51b815260040161085290613756565b610dc76131f9565b600054610100900460ff16610dc75760405162461bcd60e51b815260040161085290613756565b600082815260656020526040808220600101805490849055905190918391839186917fbd79b86ffe0ab8e8776151514217cd7cacd52c909f66475c3af44e129f0b00ff9190a4505050565b60006000198284099392505050565b6060611f6b8484600085613227565b600054610100900460ff166131965760405162461bcd60e51b815260040161085290613756565b6131ae60008051602061388a83398151915280613106565b610dc760008051602061388a83398151915233613358565b600054610100900460ff166131ed5760405162461bcd60e51b815260040161085290613756565b60c9805460ff19169055565b600054610100900460ff166132205760405162461bcd60e51b815260040161085290613756565b600160fb55565b6060824710156132885760405162461bcd60e51b815260206004820152602660248201527f416464726573733a20696e73756666696369656e742062616c616e636520666f6044820152651c8818d85b1b60d21b6064820152608401610852565b6001600160a01b0385163b6132df5760405162461bcd60e51b815260206004820152601d60248201527f416464726573733a2063616c6c20746f206e6f6e2d636f6e74726163740000006044820152606401610852565b600080866001600160a01b031685876040516132fb919061384d565b60006040518083038185875af1925050503d8060008114613338576040519150601f19603f3d011682016040523d82523d6000602084013e61333d565b606091505b509150915061334d828286613362565b979650505050505050565b610da382826124b2565b60608315613371575081611532565b8251156133815782518084602001fd5b8160405162461bcd60e51b81526004016108529190613723565b6000602082840312156133ad57600080fd5b81356001600160e01b03198116811461153257600080fd5b6000602082840312156133d757600080fd5b5035919050565b6001600160a01b038116811461144757600080fd5b60008060006060848603121561340857600080fd5b8335613413816133de565b92506020840135613423816133de565b929592945050506040919091013590565b60008060006060848603121561344957600080fd5b833592506020840135613423816133de565b6000806040838503121561346e57600080fd5b823591506020830135613480816133de565b809150509250929050565b6000806040838503121561349e57600080fd5b82356134a9816133de565b946020939093013593505050565b801515811461144757600080fd5b6000806000606084860312156134da57600080fd5b83356134e5816133de565b92506020840135915060408401356134fc816134b7565b809150509250925092565b60006020828403121561351957600080fd5b8135611532816133de565b6000806040838503121561353757600080fd5b50508035926020909101359150565b600080600080600060a0868803121561355e57600080fd5b853594506020860135613570816133de565b9350604086013592506060860135613587816134b7565b949793965091946080013592915050565b60208082526010908201526f14185d5cd8589b194e881c185d5cd95960821b604082015260600190565b6000602082840312156135d457600080fd5b5051919050565b634e487b7160e01b600052601160045260246000fd5b600082821015613603576136036135db565b500390565b6000821982111561361b5761361b6135db565b500190565b60006020828403121561363257600080fd5b8151611532816134b7565b6000816000190483118215151615613657576136576135db565b500290565b60006020828403121561366e57600080fd5b815163ffffffff8116811461153257600080fd5b60005b8381101561369d578181015183820152602001613685565b838111156123435750506000910152565b7f416363657373436f6e74726f6c3a206163636f756e74200000000000000000008152600083516136e6816017850160208801613682565b7001034b99036b4b9b9b4b733903937b6329607d1b6017918401918201528351613717816028840160208801613682565b01602801949350505050565b6020815260008251806020840152613742816040850160208701613682565b601f01601f19169190910160400192915050565b6020808252602b908201527f496e697469616c697a61626c653a20636f6e7472616374206973206e6f74206960408201526a6e697469616c697a696e6760a81b606082015260800190565b634e487b7160e01b600052601260045260246000fd5b6000826137d457634e487b7160e01b600052601260045260246000fd5b500490565b634e487b7160e01b600052604160045260246000fd5b634e487b7160e01b600052603260045260246000fd5b600081613814576138146135db565b506000190190565b6000600019821415613830576138306135db565b5060010190565b634e487b7160e01b600052603160045260246000fd5b6000825161385f818460208701613682565b919091019291505056feca51b9188e78415f30da725e0d94567b4d65bc6777d4e5d573191e9f55b88a322172861495e7b85edac73e3cd5fbb42dd675baadf627720e687bcfdaca025096a164736f6c634300080c000a",
  "devdoc": {
    "details": "BNT Pool contract",
    "events": {
      "FundingRenounced(bytes32,address,uint256,uint256)": {
        "details": "triggered when funding is renounced"
      },
      "FundingRequested(bytes32,address,uint256,uint256)": {
        "details": "triggered when funding is requested"
      },
      "TokenDeposited(bytes32,address,uint256,uint256,uint256)": {
        "details": "triggered when liquidity is deposited"
      },
      "TokenWithdrawn(bytes32,address,uint256,uint256,uint256,uint256)": {
        "details": "triggered when liquidity is withdrawn"
      },
      "TotalLiquidityUpdated(bytes32,uint256,uint256,uint256)": {
        "details": "triggered when the total liquidity in the BNT pool is updated"
      }
    },
    "kind": "dev",
    "methods": {
      "availableFunding(address)": {
        "details": "returns the available BNT funding for a given pool"
      },
      "burn(address,uint256)": {
        "details": "burns funds held by the contract"
      },
      "burnFromVault(uint256)": {
        "details": "burns BNT from the vault requirements: - the caller must have the ROLE_VAULT_MANAGER role"
      },
      "constructor": {
        "details": "a \"virtual\" constructor that is only used to set immutable state variables"
      },
      "currentPoolFunding(address)": {
        "details": "returns the current funding of given pool"
      },
      "depositFor(bytes32,address,uint256,bool,uint256)": {
        "details": "deposits BNT liquidity on behalf of a specific provider and returns the respective pool token amount requirements: - the caller must be the network contract - BNT tokens must have been already deposited into the contract"
      },
      "getRoleAdmin(bytes32)": {
        "details": "Returns the admin role that controls `role`. See {grantRole} and {revokeRole}. To change a role's admin, use {_setRoleAdmin}."
      },
      "getRoleMember(bytes32,uint256)": {
        "details": "Returns one of the accounts that have `role`. `index` must be a value between 0 and {getRoleMemberCount}, non-inclusive. Role bearers are not sorted in any particular way, and their ordering may change at any point. WARNING: When using {getRoleMember} and {getRoleMemberCount}, make sure you perform all queries on the same block. See the following https://forum.openzeppelin.com/t/iterating-over-elements-on-enumerableset-in-openzeppelin-contracts/2296[forum post] for more information."
      },
      "getRoleMemberCount(bytes32)": {
        "details": "Returns the number of accounts that have `role`. Can be used together with {getRoleMember} to enumerate all bearers of a role."
      },
      "grantRole(bytes32,address)": {
        "details": "Grants `role` to `account`. If `account` had not been already granted `role`, emits a {RoleGranted} event. Requirements: - the caller must have ``role``'s admin role."
      },
      "hasRole(bytes32,address)": {
        "details": "Returns `true` if `account` has been granted `role`."
      },
      "initialize()": {
        "details": "fully initializes the contract and its parents"
      },
      "isPaused()": {
        "details": "returns whether withdrawals are currently paused"
      },
      "isPayable()": {
        "details": "tells if the contracts accepts ETH deposits"
      },
      "mint(address,uint256)": {
        "details": "mints BNT to the recipient requirements: - the caller must have the ROLE_BNT_MANAGER role"
      },
      "onFeesCollected(address,uint256,bool)": {
        "details": "notifies the pool of accrued fees requirements: - the caller must be the network contract"
      },
      "pause()": {
        "details": "pauses withdrawals requirements: - the caller must have the ROLE_ADMIN privileges"
      },
      "paused()": {
        "details": "Returns true if the contract is paused, and false otherwise."
      },
      "poolToken()": {
        "details": "returns the BNT pool token contract"
      },
      "poolTokenAmountToBurn(uint256)": {
        "details": "returns the number of pool token to burn in order to increase everyone's underlying value by the specified amount"
      },
      "poolTokenToUnderlying(uint256)": {
        "details": "converts the specified pool token amount to the underlying BNT amount"
      },
      "renounceFunding(bytes32,address,uint256)": {
        "details": "renounces BNT funding requirements: - the caller must have the ROLE_FUNDING_MANAGER role - the token must have been whitelisted - the average rate of the pool must not deviate too much from its spot rate"
      },
      "renounceRole(bytes32,address)": {
        "details": "Revokes `role` from the calling account. Roles are often managed via {grantRole} and {revokeRole}: this function's purpose is to provide a mechanism for accounts to lose their privileges if they are compromised (such as when a trusted device is misplaced). If the calling account had been revoked `role`, emits a {RoleRevoked} event. Requirements: - the caller must be `account`."
      },
      "requestFunding(bytes32,address,uint256)": {
        "details": "requests BNT funding requirements: - the caller must have the ROLE_FUNDING_MANAGER role - the token must have been whitelisted - the request amount should be below the funding limit for a given pool - the average rate of the pool must not deviate too much from its spot rate"
      },
      "revokeRole(bytes32,address)": {
        "details": "Revokes `role` from `account`. If `account` had been granted `role`, emits a {RoleRevoked} event. Requirements: - the caller must have ``role``'s admin role."
      },
      "roleAdmin()": {
        "details": "returns the admin role"
      },
      "roleAssetManager()": {
        "details": "returns the asset manager role"
      },
      "roleBNTManager()": {
        "details": "returns the BNT manager role"
      },
      "roleBNTPoolTokenManager()": {
        "details": "returns the BNT pool token manager role"
      },
      "roleFundingManager()": {
        "details": "returns the funding manager role"
      },
      "roleVaultManager()": {
        "details": "returns the vault manager role"
      },
      "stakedBalance()": {
        "details": "returns the total staked BNT balance in the network"
      },
      "supportsInterface(bytes4)": {
        "details": "See {IERC165-supportsInterface}."
      },
      "underlyingToPoolToken(uint256)": {
        "details": "converts the specified underlying BNT amount to pool token amount"
      },
      "unpause()": {
        "details": "unpauses withdrawals requirements: - the caller must have the ROLE_ADMIN privileges"
      },
      "withdraw(bytes32,address,uint256)": {
        "details": "withdraws BNT liquidity on behalf of a specific provider and returns the withdrawn BNT amount requirements: - the caller must be the network contract - VBNT token must have been already deposited into the contract"
      },
      "withdrawFunds(address,address,uint256)": {
        "details": "withdraws funds held by the contract and sends them to an account"
      },
      "withdrawalAmount(uint256)": {
        "details": "returns the withdrawn BNT amount"
      }
    },
    "version": 1
  },
  "userdoc": {
    "kind": "user",
    "methods": {},
    "version": 1
  },
  "storageLayout": {
    "storage": [
      {
        "astId": 644,
        "contract": "contracts/pools/BNTPool.sol:BNTPool",
        "label": "_initialized",
        "offset": 0,
        "slot": "0",
        "type": "t_bool"
      },
      {
        "astId": 647,
        "contract": "contracts/pools/BNTPool.sol:BNTPool",
        "label": "_initializing",
        "offset": 1,
        "slot": "0",
        "type": "t_bool"
      },
      {
        "astId": 1165,
        "contract": "contracts/pools/BNTPool.sol:BNTPool",
        "label": "__gap",
        "offset": 0,
        "slot": "1",
        "type": "t_array(t_uint256)50_storage"
      },
      {
        "astId": 1412,
        "contract": "contracts/pools/BNTPool.sol:BNTPool",
        "label": "__gap",
        "offset": 0,
        "slot": "51",
        "type": "t_array(t_uint256)50_storage"
      },
      {
        "astId": 250,
        "contract": "contracts/pools/BNTPool.sol:BNTPool",
        "label": "_roles",
        "offset": 0,
        "slot": "101",
        "type": "t_mapping(t_bytes32,t_struct(RoleData)245_storage)"
      },
      {
        "astId": 538,
        "contract": "contracts/pools/BNTPool.sol:BNTPool",
        "label": "__gap",
        "offset": 0,
        "slot": "102",
        "type": "t_array(t_uint256)49_storage"
      },
      {
        "astId": 99,
        "contract": "contracts/pools/BNTPool.sol:BNTPool",
        "label": "_roleMembers",
        "offset": 0,
        "slot": "151",
        "type": "t_mapping(t_bytes32,t_struct(AddressSet)1737_storage)"
      },
      {
        "astId": 209,
        "contract": "contracts/pools/BNTPool.sol:BNTPool",
        "label": "__gap",
        "offset": 0,
        "slot": "152",
        "type": "t_array(t_uint256)49_storage"
      },
      {
        "astId": 732,
        "contract": "contracts/pools/BNTPool.sol:BNTPool",
        "label": "_paused",
        "offset": 0,
        "slot": "201",
        "type": "t_bool"
      },
      {
        "astId": 821,
        "contract": "contracts/pools/BNTPool.sol:BNTPool",
        "label": "__gap",
        "offset": 0,
        "slot": "202",
        "type": "t_array(t_uint256)49_storage"
      },
      {
        "astId": 836,
        "contract": "contracts/pools/BNTPool.sol:BNTPool",
        "label": "_status",
        "offset": 0,
        "slot": "251",
        "type": "t_uint256"
      },
      {
        "astId": 880,
        "contract": "contracts/pools/BNTPool.sol:BNTPool",
        "label": "__gap",
        "offset": 0,
        "slot": "252",
        "type": "t_array(t_uint256)49_storage"
      },
      {
        "astId": 17552,
        "contract": "contracts/pools/BNTPool.sol:BNTPool",
        "label": "_stakedBalance",
        "offset": 0,
        "slot": "301",
        "type": "t_uint256"
      },
      {
        "astId": 17557,
        "contract": "contracts/pools/BNTPool.sol:BNTPool",
        "label": "_currentPoolFunding",
        "offset": 0,
        "slot": "302",
        "type": "t_mapping(t_contract(Token)28365,t_uint256)"
      },
      {
        "astId": 17563,
        "contract": "contracts/pools/BNTPool.sol:BNTPool",
        "label": "__gap",
        "offset": 0,
        "slot": "303",
        "type": "t_array(t_uint256)48_storage"
      }
    ],
    "types": {
      "t_address": {
        "encoding": "inplace",
        "label": "address",
        "numberOfBytes": "20"
      },
      "t_array(t_bytes32)dyn_storage": {
        "base": "t_bytes32",
        "encoding": "dynamic_array",
        "label": "bytes32[]",
        "numberOfBytes": "32"
      },
      "t_array(t_uint256)48_storage": {
        "base": "t_uint256",
        "encoding": "inplace",
        "label": "uint256[48]",
        "numberOfBytes": "1536"
      },
      "t_array(t_uint256)49_storage": {
        "base": "t_uint256",
        "encoding": "inplace",
        "label": "uint256[49]",
        "numberOfBytes": "1568"
      },
      "t_array(t_uint256)50_storage": {
        "base": "t_uint256",
        "encoding": "inplace",
        "label": "uint256[50]",
        "numberOfBytes": "1600"
      },
      "t_bool": {
        "encoding": "inplace",
        "label": "bool",
        "numberOfBytes": "1"
      },
      "t_bytes32": {
        "encoding": "inplace",
        "label": "bytes32",
        "numberOfBytes": "32"
      },
      "t_contract(Token)28365": {
        "encoding": "inplace",
        "label": "contract Token",
        "numberOfBytes": "20"
      },
      "t_mapping(t_address,t_bool)": {
        "encoding": "mapping",
        "key": "t_address",
        "label": "mapping(address => bool)",
        "numberOfBytes": "32",
        "value": "t_bool"
      },
      "t_mapping(t_bytes32,t_struct(AddressSet)1737_storage)": {
        "encoding": "mapping",
        "key": "t_bytes32",
        "label": "mapping(bytes32 => struct EnumerableSetUpgradeable.AddressSet)",
        "numberOfBytes": "32",
        "value": "t_struct(AddressSet)1737_storage"
      },
      "t_mapping(t_bytes32,t_struct(RoleData)245_storage)": {
        "encoding": "mapping",
        "key": "t_bytes32",
        "label": "mapping(bytes32 => struct AccessControlUpgradeable.RoleData)",
        "numberOfBytes": "32",
        "value": "t_struct(RoleData)245_storage"
      },
      "t_mapping(t_bytes32,t_uint256)": {
        "encoding": "mapping",
        "key": "t_bytes32",
        "label": "mapping(bytes32 => uint256)",
        "numberOfBytes": "32",
        "value": "t_uint256"
      },
      "t_mapping(t_contract(Token)28365,t_uint256)": {
        "encoding": "mapping",
        "key": "t_contract(Token)28365",
        "label": "mapping(contract Token => uint256)",
        "numberOfBytes": "32",
        "value": "t_uint256"
      },
      "t_struct(AddressSet)1737_storage": {
        "encoding": "inplace",
        "label": "struct EnumerableSetUpgradeable.AddressSet",
        "members": [
          {
            "astId": 1736,
            "contract": "contracts/pools/BNTPool.sol:BNTPool",
            "label": "_inner",
            "offset": 0,
            "slot": "0",
            "type": "t_struct(Set)1436_storage"
          }
        ],
        "numberOfBytes": "64"
      },
      "t_struct(RoleData)245_storage": {
        "encoding": "inplace",
        "label": "struct AccessControlUpgradeable.RoleData",
        "members": [
          {
            "astId": 242,
            "contract": "contracts/pools/BNTPool.sol:BNTPool",
            "label": "members",
            "offset": 0,
            "slot": "0",
            "type": "t_mapping(t_address,t_bool)"
          },
          {
            "astId": 244,
            "contract": "contracts/pools/BNTPool.sol:BNTPool",
            "label": "adminRole",
            "offset": 0,
            "slot": "1",
            "type": "t_bytes32"
          }
        ],
        "numberOfBytes": "64"
      },
      "t_struct(Set)1436_storage": {
        "encoding": "inplace",
        "label": "struct EnumerableSetUpgradeable.Set",
        "members": [
          {
            "astId": 1431,
            "contract": "contracts/pools/BNTPool.sol:BNTPool",
            "label": "_values",
            "offset": 0,
            "slot": "0",
            "type": "t_array(t_bytes32)dyn_storage"
          },
          {
            "astId": 1435,
            "contract": "contracts/pools/BNTPool.sol:BNTPool",
            "label": "_indexes",
            "offset": 0,
            "slot": "1",
            "type": "t_mapping(t_bytes32,t_uint256)"
          }
        ],
        "numberOfBytes": "64"
      },
      "t_uint256": {
        "encoding": "inplace",
        "label": "uint256",
        "numberOfBytes": "32"
      }
    }
  }
}