{
  "address": "0x7414DaC49481dbF525F9C28296f0d4Ca8aB36e45",
  "abi": [
    {
      "inputs": [
        {
          "internalType": "contract ITokenGovernance",
          "name": "initBNTGovernance",
          "type": "address"
        },
        {
          "internalType": "contract ITokenGovernance",
          "name": "initVBNTGovernance",
          "type": "address"
        }
      ],
      "stateMutability": "nonpayable",
      "type": "constructor"
    },
    {
      "inputs": [],
      "name": "AccessDenied",
      "type": "error"
    },
    {
      "inputs": [],
      "name": "InvalidAddress",
      "type": "error"
    },
    {
      "inputs": [],
      "name": "InvalidToken",
      "type": "error"
    },
    {
      "inputs": [],
      "name": "NotPayable",
      "type": "error"
    },
    {
      "anonymous": false,
      "inputs": [
        {
          "indexed": true,
          "internalType": "contract Token",
          "name": "token",
          "type": "address"
        },
        {
          "indexed": true,
          "internalType": "address",
          "name": "caller",
          "type": "address"
        },
        {
          "indexed": false,
          "internalType": "uint256",
          "name": "amount",
          "type": "uint256"
        }
      ],
      "name": "FundsBurned",
      "type": "event"
    },
    {
      "anonymous": false,
      "inputs": [
        {
          "indexed": true,
          "internalType": "contract Token",
          "name": "token",
          "type": "address"
        },
        {
          "indexed": true,
          "internalType": "address",
          "name": "caller",
          "type": "address"
        },
        {
          "indexed": true,
          "internalType": "address",
          "name": "target",
          "type": "address"
        },
        {
          "indexed": false,
          "internalType": "uint256",
          "name": "amount",
          "type": "uint256"
        }
      ],
      "name": "FundsWithdrawn",
      "type": "event"
    },
    {
      "anonymous": false,
      "inputs": [
        {
          "indexed": false,
          "internalType": "address",
          "name": "account",
          "type": "address"
        }
      ],
      "name": "Paused",
      "type": "event"
    },
    {
      "anonymous": false,
      "inputs": [
        {
          "indexed": true,
          "internalType": "bytes32",
          "name": "role",
          "type": "bytes32"
        },
        {
          "indexed": true,
          "internalType": "bytes32",
          "name": "previousAdminRole",
          "type": "bytes32"
        },
        {
          "indexed": true,
          "internalType": "bytes32",
          "name": "newAdminRole",
          "type": "bytes32"
        }
      ],
      "name": "RoleAdminChanged",
      "type": "event"
    },
    {
      "anonymous": false,
      "inputs": [
        {
          "indexed": true,
          "internalType": "bytes32",
          "name": "role",
          "type": "bytes32"
        },
        {
          "indexed": true,
          "internalType": "address",
          "name": "account",
          "type": "address"
        },
        {
          "indexed": true,
          "internalType": "address",
          "name": "sender",
          "type": "address"
        }
      ],
      "name": "RoleGranted",
      "type": "event"
    },
    {
      "anonymous": false,
      "inputs": [
        {
          "indexed": true,
          "internalType": "bytes32",
          "name": "role",
          "type": "bytes32"
        },
        {
          "indexed": true,
          "internalType": "address",
          "name": "account",
          "type": "address"
        },
        {
          "indexed": true,
          "internalType": "address",
          "name": "sender",
          "type": "address"
        }
      ],
      "name": "RoleRevoked",
      "type": "event"
    },
    {
      "anonymous": false,
      "inputs": [
        {
          "indexed": false,
          "internalType": "address",
          "name": "account",
          "type": "address"
        }
      ],
      "name": "Unpaused",
      "type": "event"
    },
    {
      "inputs": [],
      "name": "DEFAULT_ADMIN_ROLE",
      "outputs": [
        {
          "internalType": "bytes32",
          "name": "",
          "type": "bytes32"
        }
      ],
      "stateMutability": "view",
      "type": "function"
    },
    {
      "inputs": [
        {
          "internalType": "contract Token",
          "name": "token",
          "type": "address"
        },
        {
          "internalType": "uint256",
          "name": "amount",
          "type": "uint256"
        }
      ],
      "name": "burn",
      "outputs": [],
      "stateMutability": "nonpayable",
      "type": "function"
    },
    {
      "inputs": [
        {
          "internalType": "bytes32",
          "name": "role",
          "type": "bytes32"
        }
      ],
      "name": "getRoleAdmin",
      "outputs": [
        {
          "internalType": "bytes32",
          "name": "",
          "type": "bytes32"
        }
      ],
      "stateMutability": "view",
      "type": "function"
    },
    {
      "inputs": [
        {
          "internalType": "bytes32",
          "name": "role",
          "type": "bytes32"
        },
        {
          "internalType": "uint256",
          "name": "index",
          "type": "uint256"
        }
      ],
      "name": "getRoleMember",
      "outputs": [
        {
          "internalType": "address",
          "name": "",
          "type": "address"
        }
      ],
      "stateMutability": "view",
      "type": "function"
    },
    {
      "inputs": [
        {
          "internalType": "bytes32",
          "name": "role",
          "type": "bytes32"
        }
      ],
      "name": "getRoleMemberCount",
      "outputs": [
        {
          "internalType": "uint256",
          "name": "",
          "type": "uint256"
        }
      ],
      "stateMutability": "view",
      "type": "function"
    },
    {
      "inputs": [
        {
          "internalType": "bytes32",
          "name": "role",
          "type": "bytes32"
        },
        {
          "internalType": "address",
          "name": "account",
          "type": "address"
        }
      ],
      "name": "grantRole",
      "outputs": [],
      "stateMutability": "nonpayable",
      "type": "function"
    },
    {
      "inputs": [
        {
          "internalType": "bytes32",
          "name": "role",
          "type": "bytes32"
        },
        {
          "internalType": "address",
          "name": "account",
          "type": "address"
        }
      ],
      "name": "hasRole",
      "outputs": [
        {
          "internalType": "bool",
          "name": "",
          "type": "bool"
        }
      ],
      "stateMutability": "view",
      "type": "function"
    },
    {
      "inputs": [],
      "name": "initialize",
      "outputs": [],
      "stateMutability": "nonpayable",
      "type": "function"
    },
    {
      "inputs": [],
      "name": "isPaused",
      "outputs": [
        {
          "internalType": "bool",
          "name": "",
          "type": "bool"
        }
      ],
      "stateMutability": "view",
      "type": "function"
    },
    {
      "inputs": [],
      "name": "isPayable",
      "outputs": [
        {
          "internalType": "bool",
          "name": "",
          "type": "bool"
        }
      ],
      "stateMutability": "pure",
      "type": "function"
    },
    {
      "inputs": [],
      "name": "pause",
      "outputs": [],
      "stateMutability": "nonpayable",
      "type": "function"
    },
    {
      "inputs": [],
      "name": "paused",
      "outputs": [
        {
          "internalType": "bool",
          "name": "",
          "type": "bool"
        }
      ],
      "stateMutability": "view",
      "type": "function"
    },
    {
      "inputs": [
        {
          "internalType": "bytes32",
          "name": "role",
          "type": "bytes32"
        },
        {
          "internalType": "address",
          "name": "account",
          "type": "address"
        }
      ],
      "name": "renounceRole",
      "outputs": [],
      "stateMutability": "nonpayable",
      "type": "function"
    },
    {
      "inputs": [
        {
          "internalType": "bytes32",
          "name": "role",
          "type": "bytes32"
        },
        {
          "internalType": "address",
          "name": "account",
          "type": "address"
        }
      ],
      "name": "revokeRole",
      "outputs": [],
      "stateMutability": "nonpayable",
      "type": "function"
    },
    {
      "inputs": [],
      "name": "roleAdmin",
      "outputs": [
        {
          "internalType": "bytes32",
          "name": "",
          "type": "bytes32"
        }
      ],
      "stateMutability": "pure",
      "type": "function"
    },
    {
      "inputs": [],
      "name": "roleAssetManager",
      "outputs": [
        {
          "internalType": "bytes32",
          "name": "",
          "type": "bytes32"
        }
      ],
      "stateMutability": "pure",
      "type": "function"
    },
    {
      "inputs": [
        {
          "internalType": "bytes4",
          "name": "interfaceId",
          "type": "bytes4"
        }
      ],
      "name": "supportsInterface",
      "outputs": [
        {
          "internalType": "bool",
          "name": "",
          "type": "bool"
        }
      ],
      "stateMutability": "view",
      "type": "function"
    },
    {
      "inputs": [],
      "name": "unpause",
      "outputs": [],
      "stateMutability": "nonpayable",
      "type": "function"
    },
    {
      "inputs": [],
      "name": "version",
      "outputs": [
        {
          "internalType": "uint16",
          "name": "",
          "type": "uint16"
        }
      ],
      "stateMutability": "pure",
      "type": "function"
    },
    {
      "inputs": [
        {
          "internalType": "contract Token",
          "name": "token",
          "type": "address"
        },
        {
          "internalType": "address payable",
          "name": "target",
          "type": "address"
        },
        {
          "internalType": "uint256",
          "name": "amount",
          "type": "uint256"
        }
      ],
      "name": "withdrawFunds",
      "outputs": [],
      "stateMutability": "nonpayable",
      "type": "function"
    },
    {
      "stateMutability": "payable",
      "type": "receive"
    }
  ],
  "transactionHash": "0x3f30eef2d8b9d3307ae91521748a11008342f049e04ec2398e178f4d22bfb441",
  "args": [
    "0xa489C2b5b36835A327851Ab917A80562B5AFC244",
    "0x0887ae1251E180d7D453aeDEBee26e1639f20113"
  ],
  "numDeployments": 1,
  "solcInputHash": "dcea142469df7f75d330e08f80ea8523",
  "bytecode": "0x6101006040523480156200001257600080fd5b5060405162001d9838038062001d98833981016040819052620000359162000191565b818181620000438162000150565b816200004f8162000150565b6001600160a01b03841660a081905260408051637e062a3560e11b8152905163fc0c546a916004808201926020929091908290030181865afa1580156200009a573d6000803e3d6000fd5b505050506040513d601f19601f82011682018060405250810190620000c09190620001d0565b6001600160a01b03908116608052831660e081905260408051637e062a3560e11b8152905163fc0c546a916004808201926020929091908290030181865afa15801562000111573d6000803e3d6000fd5b505050506040513d601f19601f82011682018060405250810190620001379190620001d0565b6001600160a01b031660c05250620001f7945050505050565b6001600160a01b038116620001785760405163e6c4247b60e01b815260040160405180910390fd5b50565b6001600160a01b03811681146200017857600080fd5b60008060408385031215620001a557600080fd5b8251620001b2816200017b565b6020840151909250620001c5816200017b565b809150509250929050565b600060208284031215620001e357600080fd5b8151620001f0816200017b565b9392505050565b60805160a05160c05160e051611b6762000231600039600061094c01526000610903015260006108970152600061084e0152611b676000f3fe6080604052600436106101235760003560e01c80639010d07c116100a0578063a217fddf11610064578063a217fddf14610343578063b187bd2614610358578063ca15c8731461036d578063ce46e0461461038d578063d547741f146103a157600080fd5b80639010d07c1461027757806391d14854146102af57806392bd95ea146102cf57806393867fb5146103025780639dc29fac1461032357600080fd5b80633f4ba83a116100e75780633f4ba83a1461020457806354fd4d50146102195780635c975abb146102355780638129fc1c1461024d5780638456cb591461026257600080fd5b806301ffc9a7146101315780631c20fadd14610166578063248a9ca3146101865780632f2ff15d146101c457806336568abe146101e457600080fd5b3661012c57005b005b600080fd5b34801561013d57600080fd5b5061015161014c3660046117df565b6103c1565b60405190151581526020015b60405180910390f35b34801561017257600080fd5b5061012a61018136600461181e565b6103ec565b34801561019257600080fd5b506101b66101a136600461185f565b60009081526065602052604090206001015490565b60405190815260200161015d565b3480156101d057600080fd5b5061012a6101df366004611878565b610565565b3480156101f057600080fd5b5061012a6101ff366004611878565b610590565b34801561021057600080fd5b5061012a61060e565b34801561022557600080fd5b506040516001815260200161015d565b34801561024157600080fd5b5060c95460ff16610151565b34801561025957600080fd5b5061012a610630565b34801561026e57600080fd5b5061012a6106f1565b34801561028357600080fd5b506102976102923660046118a8565b610711565b6040516001600160a01b03909116815260200161015d565b3480156102bb57600080fd5b506101516102ca366004611878565b610730565b3480156102db57600080fd5b507f89ce14d20697a788f57260f7690044299bde7ea88cfb7e43d120a0c031f1ffc16101b6565b34801561030e57600080fd5b50600080516020611b3b8339815191526101b6565b34801561032f57600080fd5b5061012a61033e3660046118ca565b61075b565b34801561034f57600080fd5b506101b6600081565b34801561036457600080fd5b50610151610a2c565b34801561037957600080fd5b506101b661038836600461185f565b610a3f565b34801561039957600080fd5b506001610151565b3480156103ad57600080fd5b5061012a6103bc366004611878565b610a56565b60006001600160e01b03198216635a05180f60e01b14806103e657506103e682610a7c565b92915050565b816103f681610ab1565b600260fb54141561044e5760405162461bcd60e51b815260206004820152601f60248201527f5265656e7472616e637947756172643a207265656e7472616e742063616c6c0060448201526064015b60405180910390fd5b600260fb5560c95460ff16156104765760405162461bcd60e51b8152600401610445906118f6565b3384848461048684848484610ad8565b6104a357604051634ca8886760e01b815260040160405180910390fd5b856104ad57610556565b73eeeeeeeeeeeeeeeeeeeeeeeeeeeeeeeeeeeeeeee6001600160a01b03891614156104ea576104e56001600160a01b03881687610b0d565b6104fe565b6104fe6001600160a01b0389168888610c26565b866001600160a01b0316336001600160a01b0316896001600160a01b03167fc322efa58c9cb2c39cfffdac61d35c8643f5cbf13c6a7d0034de2cf18923aff38960405161054d91815260200190565b60405180910390a45b5050600160fb55505050505050565b6000828152606560205260409020600101546105818133610ca5565b61058b8383610d09565b505050565b6001600160a01b03811633146106005760405162461bcd60e51b815260206004820152602f60248201527f416363657373436f6e74726f6c3a2063616e206f6e6c792072656e6f756e636560448201526e103937b632b9903337b91039b2b63360891b6064820152608401610445565b61060a8282610d2b565b5050565b610626600080516020611b3b83398151915233610d4d565b61062e610d74565b565b600054610100900460ff1661064b5760005460ff161561064f565b303b155b6106b25760405162461bcd60e51b815260206004820152602e60248201527f496e697469616c697a61626c653a20636f6e747261637420697320616c72656160448201526d191e481a5b9a5d1a585b1a5e995960921b6064820152608401610445565b600054610100900460ff161580156106d4576000805461ffff19166101011790555b6106dc610e07565b80156106ee576000805461ff00191690555b50565b610709600080516020611b3b83398151915233610d4d565b61062e610e3e565b60008281526097602052604081206107299083610e96565b9392505050565b60009182526065602090815260408084206001600160a01b0393909316845291905290205460ff1690565b600260fb5414156107ae5760405162461bcd60e51b815260206004820152601f60248201527f5265656e7472616e637947756172643a207265656e7472616e742063616c6c006044820152606401610445565b600260fb5560c95460ff16156107d65760405162461bcd60e51b8152600401610445906118f6565b33826000836107e784848484610ad8565b61080457604051634ca8886760e01b815260040160405180910390fd5b8461080e57610a1f565b73eeeeeeeeeeeeeeeeeeeeeeeeeeeeeeeeeeeeeeee6001600160a01b038716141561084c5760405163c1ab6dc160e01b815260040160405180910390fd5b7f00000000000000000000000000000000000000000000000000000000000000006001600160a01b03908116908716141561090157604051630852cd8d60e31b8152600481018690527f00000000000000000000000000000000000000000000000000000000000000006001600160a01b0316906342966c68906024015b600060405180830381600087803b1580156108e457600080fd5b505af11580156108f8573d6000803e3d6000fd5b505050506109de565b7f00000000000000000000000000000000000000000000000000000000000000006001600160a01b03908116908716141561098357604051630852cd8d60e31b8152600481018690527f00000000000000000000000000000000000000000000000000000000000000006001600160a01b0316906342966c68906024016108ca565b604051630852cd8d60e31b8152600481018690526001600160a01b038716906342966c6890602401600060405180830381600087803b1580156109c557600080fd5b505af11580156109d9573d6000803e3d6000fd5b505050505b60405185815233906001600160a01b038816907fd3fda22e13f8cb743a9ceaca6e14022b6677188d20f3c3047f5c9033e07a4e879060200160405180910390a35b5050600160fb5550505050565b6000610a3a60c95460ff1690565b905090565b60008181526097602052604081206103e690610ea2565b600082815260656020526040902060010154610a728133610ca5565b61058b8383610d2b565b60006001600160e01b03198216637965db0b60e01b14806103e657506301ffc9a760e01b6001600160e01b03198316146103e6565b6001600160a01b0381166106ee5760405163e6c4247b60e01b815260040160405180910390fd5b6000610b047f89ce14d20697a788f57260f7690044299bde7ea88cfb7e43d120a0c031f1ffc186610730565b95945050505050565b80471015610b5d5760405162461bcd60e51b815260206004820152601d60248201527f416464726573733a20696e73756666696369656e742062616c616e63650000006044820152606401610445565b6000826001600160a01b03168260405160006040518083038185875af1925050503d8060008114610baa576040519150601f19603f3d011682016040523d82523d6000602084013e610baf565b606091505b505090508061058b5760405162461bcd60e51b815260206004820152603a60248201527f416464726573733a20756e61626c6520746f2073656e642076616c75652c207260448201527f6563697069656e74206d617920686176652072657665727465640000000000006064820152608401610445565b80610c3057505050565b73eeeeeeeeeeeeeeeeeeeeeeeeeeeeeeeeeeeeeeee6001600160a01b0384161415610c91576040516001600160a01b0383169082156108fc029083906000818181858888f19350505050158015610c8b573d6000803e3d6000fd5b50505050565b61058b6001600160a01b0384168383610eac565b610caf8282610730565b61060a57610cc7816001600160a01b03166014610efe565b610cd2836020610efe565b604051602001610ce392919061194c565b60408051601f198184030181529082905262461bcd60e51b8252610445916004016119c1565b610d13828261109a565b600082815260976020526040902061058b9082611120565b610d358282611135565b600082815260976020526040902061058b908261119c565b610d578282610730565b61060a57604051634ca8886760e01b815260040160405180910390fd5b60c95460ff16610dbd5760405162461bcd60e51b815260206004820152601460248201527314185d5cd8589b194e881b9bdd081c185d5cd95960621b6044820152606401610445565b60c9805460ff191690557f5db9ee0a495bf2e6ff9c91a7834c1ba4fdd244a5e8aa4e537bd38aeae4b073aa335b6040516001600160a01b03909116815260200160405180910390a1565b600054610100900460ff16610e2e5760405162461bcd60e51b8152600401610445906119f4565b610e366111b1565b61062e6111f8565b60c95460ff1615610e615760405162461bcd60e51b8152600401610445906118f6565b60c9805460ff191660011790557f62e78cea01bee320cd4e420270b5ea74000d11b0c9f74754ebdbfc544b05a258610dea3390565b60006107298383611257565b60006103e6825490565b604080516001600160a01b038416602482015260448082018490528251808303909101815260649091019091526020810180516001600160e01b031663a9059cbb60e01b17905261058b908490611281565b60606000610f0d836002611a55565b610f18906002611a74565b67ffffffffffffffff811115610f3057610f30611a8c565b6040519080825280601f01601f191660200182016040528015610f5a576020820181803683370190505b509050600360fc1b81600081518110610f7557610f75611aa2565b60200101906001600160f81b031916908160001a905350600f60fb1b81600181518110610fa457610fa4611aa2565b60200101906001600160f81b031916908160001a9053506000610fc8846002611a55565b610fd3906001611a74565b90505b600181111561104b576f181899199a1a9b1b9c1cb0b131b232b360811b85600f166010811061100757611007611aa2565b1a60f81b82828151811061101d5761101d611aa2565b60200101906001600160f81b031916908160001a90535060049490941c9361104481611ab8565b9050610fd6565b5083156107295760405162461bcd60e51b815260206004820181905260248201527f537472696e67733a20686578206c656e67746820696e73756666696369656e746044820152606401610445565b6110a48282610730565b61060a5760008281526065602090815260408083206001600160a01b03851684529091529020805460ff191660011790556110dc3390565b6001600160a01b0316816001600160a01b0316837f2f8788117e7eff1d82e926ec794901d17c78024a50270940304540a733656f0d60405160405180910390a45050565b6000610729836001600160a01b038416611353565b61113f8282610730565b1561060a5760008281526065602090815260408083206001600160a01b0385168085529252808320805460ff1916905551339285917ff6391f5c32d9c69d2a47ea670b442974b53935d1edc7fd64eb21e047a839171b9190a45050565b6000610729836001600160a01b0384166113a2565b600054610100900460ff166111d85760405162461bcd60e51b8152600401610445906119f4565b6111e0611495565b6111e86114cc565b6111f06114fb565b61062e61152a565b600054610100900460ff1661121f5760405162461bcd60e51b8152600401610445906119f4565b61062e7f89ce14d20697a788f57260f7690044299bde7ea88cfb7e43d120a0c031f1ffc1600080516020611b3b833981519152611551565b600082600001828154811061126e5761126e611aa2565b9060005260206000200154905092915050565b60006112d6826040518060400160405280602081526020017f5361666545524332303a206c6f772d6c6576656c2063616c6c206661696c6564815250856001600160a01b031661159c9092919063ffffffff16565b80519091501561058b57808060200190518101906112f49190611acf565b61058b5760405162461bcd60e51b815260206004820152602a60248201527f5361666545524332303a204552433230206f7065726174696f6e20646964206e6044820152691bdd081cdd58d8d9595960b21b6064820152608401610445565b600081815260018301602052604081205461139a575081546001818101845560008481526020808220909301849055845484825282860190935260409020919091556103e6565b5060006103e6565b6000818152600183016020526040812054801561148b5760006113c6600183611af1565b85549091506000906113da90600190611af1565b905081811461143f5760008660000182815481106113fa576113fa611aa2565b906000526020600020015490508087600001848154811061141d5761141d611aa2565b6000918252602080832090910192909255918252600188019052604090208390555b855486908061145057611450611b08565b6001900381819060005260206000200160009055905585600101600086815260200190815260200160002060009055600193505050506103e6565b60009150506103e6565b600054610100900460ff166114bc5760405162461bcd60e51b8152600401610445906119f4565b6114c461152a565b61062e6115b3565b600054610100900460ff166114f35760405162461bcd60e51b8152600401610445906119f4565b61062e61160a565b600054610100900460ff166115225760405162461bcd60e51b8152600401610445906119f4565b61062e61163d565b600054610100900460ff1661062e5760405162461bcd60e51b8152600401610445906119f4565b600082815260656020526040808220600101805490849055905190918391839186917fbd79b86ffe0ab8e8776151514217cd7cacd52c909f66475c3af44e129f0b00ff9190a4505050565b60606115ab848460008561166b565b949350505050565b600054610100900460ff166115da5760405162461bcd60e51b8152600401610445906119f4565b6115f2600080516020611b3b83398151915280611551565b61062e600080516020611b3b8339815191523361179c565b600054610100900460ff166116315760405162461bcd60e51b8152600401610445906119f4565b60c9805460ff19169055565b600054610100900460ff166116645760405162461bcd60e51b8152600401610445906119f4565b600160fb55565b6060824710156116cc5760405162461bcd60e51b815260206004820152602660248201527f416464726573733a20696e73756666696369656e742062616c616e636520666f6044820152651c8818d85b1b60d21b6064820152608401610445565b6001600160a01b0385163b6117235760405162461bcd60e51b815260206004820152601d60248201527f416464726573733a2063616c6c20746f206e6f6e2d636f6e74726163740000006044820152606401610445565b600080866001600160a01b0316858760405161173f9190611b1e565b60006040518083038185875af1925050503d806000811461177c576040519150601f19603f3d011682016040523d82523d6000602084013e611781565b606091505b50915091506117918282866117a6565b979650505050505050565b61060a8282610d09565b606083156117b5575081610729565b8251156117c55782518084602001fd5b8160405162461bcd60e51b815260040161044591906119c1565b6000602082840312156117f157600080fd5b81356001600160e01b03198116811461072957600080fd5b6001600160a01b03811681146106ee57600080fd5b60008060006060848603121561183357600080fd5b833561183e81611809565b9250602084013561184e81611809565b929592945050506040919091013590565b60006020828403121561187157600080fd5b5035919050565b6000806040838503121561188b57600080fd5b82359150602083013561189d81611809565b809150509250929050565b600080604083850312156118bb57600080fd5b50508035926020909101359150565b600080604083850312156118dd57600080fd5b82356118e881611809565b946020939093013593505050565b60208082526010908201526f14185d5cd8589b194e881c185d5cd95960821b604082015260600190565b60005b8381101561193b578181015183820152602001611923565b83811115610c8b5750506000910152565b7f416363657373436f6e74726f6c3a206163636f756e7420000000000000000000815260008351611984816017850160208801611920565b7001034b99036b4b9b9b4b733903937b6329607d1b60179184019182015283516119b5816028840160208801611920565b01602801949350505050565b60208152600082518060208401526119e0816040850160208701611920565b601f01601f19169190910160400192915050565b6020808252602b908201527f496e697469616c697a61626c653a20636f6e7472616374206973206e6f74206960408201526a6e697469616c697a696e6760a81b606082015260800190565b634e487b7160e01b600052601160045260246000fd5b6000816000190483118215151615611a6f57611a6f611a3f565b500290565b60008219821115611a8757611a87611a3f565b500190565b634e487b7160e01b600052604160045260246000fd5b634e487b7160e01b600052603260045260246000fd5b600081611ac757611ac7611a3f565b506000190190565b600060208284031215611ae157600080fd5b8151801515811461072957600080fd5b600082821015611b0357611b03611a3f565b500390565b634e487b7160e01b600052603160045260246000fd5b60008251611b30818460208701611920565b919091019291505056fe2172861495e7b85edac73e3cd5fbb42dd675baadf627720e687bcfdaca025096a164736f6c634300080c000a",
  "devdoc": {
    "details": "External Rewards Vault contract",
    "kind": "dev",
    "methods": {
      "burn(address,uint256)": {
        "details": "burns funds held by the contract"
      },
      "constructor": {
        "details": "a \"virtual\" constructor that is only used to set immutable state variables"
      },
      "getRoleAdmin(bytes32)": {
        "details": "Returns the admin role that controls `role`. See {grantRole} and {revokeRole}. To change a role's admin, use {_setRoleAdmin}."
      },
      "getRoleMember(bytes32,uint256)": {
        "details": "Returns one of the accounts that have `role`. `index` must be a value between 0 and {getRoleMemberCount}, non-inclusive. Role bearers are not sorted in any particular way, and their ordering may change at any point. WARNING: When using {getRoleMember} and {getRoleMemberCount}, make sure you perform all queries on the same block. See the following https://forum.openzeppelin.com/t/iterating-over-elements-on-enumerableset-in-openzeppelin-contracts/2296[forum post] for more information."
      },
      "getRoleMemberCount(bytes32)": {
        "details": "Returns the number of accounts that have `role`. Can be used together with {getRoleMember} to enumerate all bearers of a role."
      },
      "grantRole(bytes32,address)": {
        "details": "Grants `role` to `account`. If `account` had not been already granted `role`, emits a {RoleGranted} event. Requirements: - the caller must have ``role``'s admin role."
      },
      "hasRole(bytes32,address)": {
        "details": "Returns `true` if `account` has been granted `role`."
      },
      "initialize()": {
        "details": "fully initializes the contract and its parents"
      },
      "isPaused()": {
        "details": "returns whether withdrawals are currently paused"
      },
      "isPayable()": {
        "details": "tells if the contracts accepts ETH deposits"
      },
      "pause()": {
        "details": "pauses withdrawals requirements: - the caller must have the ROLE_ADMIN privileges"
      },
      "paused()": {
        "details": "Returns true if the contract is paused, and false otherwise."
      },
      "renounceRole(bytes32,address)": {
        "details": "Revokes `role` from the calling account. Roles are often managed via {grantRole} and {revokeRole}: this function's purpose is to provide a mechanism for accounts to lose their privileges if they are compromised (such as when a trusted device is misplaced). If the calling account had been revoked `role`, emits a {RoleRevoked} event. Requirements: - the caller must be `account`."
      },
      "revokeRole(bytes32,address)": {
        "details": "Revokes `role` from `account`. If `account` had been granted `role`, emits a {RoleRevoked} event. Requirements: - the caller must have ``role``'s admin role."
      },
      "roleAdmin()": {
        "details": "returns the admin role"
      },
      "roleAssetManager()": {
        "details": "returns the asset manager role"
      },
      "supportsInterface(bytes4)": {
        "details": "See {IERC165-supportsInterface}."
      },
      "unpause()": {
        "details": "unpauses withdrawals requirements: - the caller must have the ROLE_ADMIN privileges"
      },
      "withdrawFunds(address,address,uint256)": {
        "details": "withdraws funds held by the contract and sends them to an account"
      }
    },
    "version": 1
  },
  "userdoc": {
    "kind": "user",
    "methods": {},
    "version": 1
  },
  "storageLayout": {
    "storage": [
      {
        "astId": 644,
        "contract": "contracts/vaults/ExternalRewardsVault.sol:ExternalRewardsVault",
        "label": "_initialized",
        "offset": 0,
        "slot": "0",
        "type": "t_bool"
      },
      {
        "astId": 647,
        "contract": "contracts/vaults/ExternalRewardsVault.sol:ExternalRewardsVault",
        "label": "_initializing",
        "offset": 1,
        "slot": "0",
        "type": "t_bool"
      },
      {
        "astId": 1165,
        "contract": "contracts/vaults/ExternalRewardsVault.sol:ExternalRewardsVault",
        "label": "__gap",
        "offset": 0,
        "slot": "1",
        "type": "t_array(t_uint256)50_storage"
      },
      {
        "astId": 1412,
        "contract": "contracts/vaults/ExternalRewardsVault.sol:ExternalRewardsVault",
        "label": "__gap",
        "offset": 0,
        "slot": "51",
        "type": "t_array(t_uint256)50_storage"
      },
      {
        "astId": 250,
        "contract": "contracts/vaults/ExternalRewardsVault.sol:ExternalRewardsVault",
        "label": "_roles",
        "offset": 0,
        "slot": "101",
        "type": "t_mapping(t_bytes32,t_struct(RoleData)245_storage)"
      },
      {
        "astId": 538,
        "contract": "contracts/vaults/ExternalRewardsVault.sol:ExternalRewardsVault",
        "label": "__gap",
        "offset": 0,
        "slot": "102",
        "type": "t_array(t_uint256)49_storage"
      },
      {
        "astId": 99,
        "contract": "contracts/vaults/ExternalRewardsVault.sol:ExternalRewardsVault",
        "label": "_roleMembers",
        "offset": 0,
        "slot": "151",
        "type": "t_mapping(t_bytes32,t_struct(AddressSet)1737_storage)"
      },
      {
        "astId": 209,
        "contract": "contracts/vaults/ExternalRewardsVault.sol:ExternalRewardsVault",
        "label": "__gap",
        "offset": 0,
        "slot": "152",
        "type": "t_array(t_uint256)49_storage"
      },
      {
        "astId": 732,
        "contract": "contracts/vaults/ExternalRewardsVault.sol:ExternalRewardsVault",
        "label": "_paused",
        "offset": 0,
        "slot": "201",
        "type": "t_bool"
      },
      {
        "astId": 821,
        "contract": "contracts/vaults/ExternalRewardsVault.sol:ExternalRewardsVault",
        "label": "__gap",
        "offset": 0,
        "slot": "202",
        "type": "t_array(t_uint256)49_storage"
      },
      {
        "astId": 836,
        "contract": "contracts/vaults/ExternalRewardsVault.sol:ExternalRewardsVault",
        "label": "_status",
        "offset": 0,
        "slot": "251",
        "type": "t_uint256"
      },
      {
        "astId": 880,
        "contract": "contracts/vaults/ExternalRewardsVault.sol:ExternalRewardsVault",
        "label": "__gap",
        "offset": 0,
        "slot": "252",
        "type": "t_array(t_uint256)49_storage"
      },
      {
        "astId": 30922,
        "contract": "contracts/vaults/ExternalRewardsVault.sol:ExternalRewardsVault",
        "label": "__gap",
        "offset": 0,
        "slot": "301",
        "type": "t_array(t_uint256)50_storage"
      }
    ],
    "types": {
      "t_address": {
        "encoding": "inplace",
        "label": "address",
        "numberOfBytes": "20"
      },
      "t_array(t_bytes32)dyn_storage": {
        "base": "t_bytes32",
        "encoding": "dynamic_array",
        "label": "bytes32[]",
        "numberOfBytes": "32"
      },
      "t_array(t_uint256)49_storage": {
        "base": "t_uint256",
        "encoding": "inplace",
        "label": "uint256[49]",
        "numberOfBytes": "1568"
      },
      "t_array(t_uint256)50_storage": {
        "base": "t_uint256",
        "encoding": "inplace",
        "label": "uint256[50]",
        "numberOfBytes": "1600"
      },
      "t_bool": {
        "encoding": "inplace",
        "label": "bool",
        "numberOfBytes": "1"
      },
      "t_bytes32": {
        "encoding": "inplace",
        "label": "bytes32",
        "numberOfBytes": "32"
      },
      "t_mapping(t_address,t_bool)": {
        "encoding": "mapping",
        "key": "t_address",
        "label": "mapping(address => bool)",
        "numberOfBytes": "32",
        "value": "t_bool"
      },
      "t_mapping(t_bytes32,t_struct(AddressSet)1737_storage)": {
        "encoding": "mapping",
        "key": "t_bytes32",
        "label": "mapping(bytes32 => struct EnumerableSetUpgradeable.AddressSet)",
        "numberOfBytes": "32",
        "value": "t_struct(AddressSet)1737_storage"
      },
      "t_mapping(t_bytes32,t_struct(RoleData)245_storage)": {
        "encoding": "mapping",
        "key": "t_bytes32",
        "label": "mapping(bytes32 => struct AccessControlUpgradeable.RoleData)",
        "numberOfBytes": "32",
        "value": "t_struct(RoleData)245_storage"
      },
      "t_mapping(t_bytes32,t_uint256)": {
        "encoding": "mapping",
        "key": "t_bytes32",
        "label": "mapping(bytes32 => uint256)",
        "numberOfBytes": "32",
        "value": "t_uint256"
      },
      "t_struct(AddressSet)1737_storage": {
        "encoding": "inplace",
        "label": "struct EnumerableSetUpgradeable.AddressSet",
        "members": [
          {
            "astId": 1736,
            "contract": "contracts/vaults/ExternalRewardsVault.sol:ExternalRewardsVault",
            "label": "_inner",
            "offset": 0,
            "slot": "0",
            "type": "t_struct(Set)1436_storage"
          }
        ],
        "numberOfBytes": "64"
      },
      "t_struct(RoleData)245_storage": {
        "encoding": "inplace",
        "label": "struct AccessControlUpgradeable.RoleData",
        "members": [
          {
            "astId": 242,
            "contract": "contracts/vaults/ExternalRewardsVault.sol:ExternalRewardsVault",
            "label": "members",
            "offset": 0,
            "slot": "0",
            "type": "t_mapping(t_address,t_bool)"
          },
          {
            "astId": 244,
            "contract": "contracts/vaults/ExternalRewardsVault.sol:ExternalRewardsVault",
            "label": "adminRole",
            "offset": 0,
            "slot": "1",
            "type": "t_bytes32"
          }
        ],
        "numberOfBytes": "64"
      },
      "t_struct(Set)1436_storage": {
        "encoding": "inplace",
        "label": "struct EnumerableSetUpgradeable.Set",
        "members": [
          {
            "astId": 1431,
            "contract": "contracts/vaults/ExternalRewardsVault.sol:ExternalRewardsVault",
            "label": "_values",
            "offset": 0,
            "slot": "0",
            "type": "t_array(t_bytes32)dyn_storage"
          },
          {
            "astId": 1435,
            "contract": "contracts/vaults/ExternalRewardsVault.sol:ExternalRewardsVault",
            "label": "_indexes",
            "offset": 0,
            "slot": "1",
            "type": "t_mapping(t_bytes32,t_uint256)"
          }
        ],
        "numberOfBytes": "64"
      },
      "t_uint256": {
        "encoding": "inplace",
        "label": "uint256",
        "numberOfBytes": "32"
      }
    }
  }
}