{
  "address": "0xa923f378d58D10251C29d3a06cb8A6995816AD50",
  "abi": [
    {
      "inputs": [],
      "name": "AccessDenied",
      "type": "error"
    },
    {
      "inputs": [],
      "name": "AlreadyExists",
      "type": "error"
    },
    {
      "inputs": [],
      "name": "DoesNotExist",
      "type": "error"
    },
    {
      "inputs": [],
      "name": "InvalidAddress",
      "type": "error"
    },
    {
      "inputs": [],
      "name": "InvalidExternalAddress",
      "type": "error"
    },
    {
      "inputs": [],
      "name": "InvalidFee",
      "type": "error"
    },
    {
      "inputs": [],
      "name": "NotWhitelisted",
      "type": "error"
    },
    {
      "inputs": [],
      "name": "ZeroValue",
      "type": "error"
    },
    {
      "anonymous": false,
      "inputs": [
        {
          "indexed": false,
          "internalType": "uint32",
          "name": "prevFeePPM",
          "type": "uint32"
        },
        {
          "indexed": false,
          "internalType": "uint32",
          "name": "newFeePPM",
          "type": "uint32"
        }
      ],
      "name": "FlashLoanFeePPMUpdated",
      "type": "event"
    },
    {
      "anonymous": false,
      "inputs": [
        {
          "indexed": true,
          "internalType": "contract Token",
          "name": "pool",
          "type": "address"
        },
        {
          "indexed": false,
          "internalType": "uint256",
          "name": "prevLimit",
          "type": "uint256"
        },
        {
          "indexed": false,
          "internalType": "uint256",
          "name": "newLimit",
          "type": "uint256"
        }
      ],
      "name": "FundingLimitUpdated",
      "type": "event"
    },
    {
      "anonymous": false,
      "inputs": [
        {
          "indexed": false,
          "internalType": "uint256",
          "name": "prevLiquidity",
          "type": "uint256"
        },
        {
          "indexed": false,
          "internalType": "uint256",
          "name": "newLiquidity",
          "type": "uint256"
        }
      ],
      "name": "MinLiquidityForTradingUpdated",
      "type": "event"
    },
    {
      "anonymous": false,
      "inputs": [
        {
          "indexed": false,
          "internalType": "uint32",
          "name": "prevFeePPM",
          "type": "uint32"
        },
        {
          "indexed": false,
          "internalType": "uint32",
          "name": "newFeePPM",
          "type": "uint32"
        }
      ],
      "name": "NetworkFeePPMUpdated",
      "type": "event"
    },
    {
      "anonymous": false,
      "inputs": [
        {
          "indexed": true,
          "internalType": "bytes32",
          "name": "role",
          "type": "bytes32"
        },
        {
          "indexed": true,
          "internalType": "bytes32",
          "name": "previousAdminRole",
          "type": "bytes32"
        },
        {
          "indexed": true,
          "internalType": "bytes32",
          "name": "newAdminRole",
          "type": "bytes32"
        }
      ],
      "name": "RoleAdminChanged",
      "type": "event"
    },
    {
      "anonymous": false,
      "inputs": [
        {
          "indexed": true,
          "internalType": "bytes32",
          "name": "role",
          "type": "bytes32"
        },
        {
          "indexed": true,
          "internalType": "address",
          "name": "account",
          "type": "address"
        },
        {
          "indexed": true,
          "internalType": "address",
          "name": "sender",
          "type": "address"
        }
      ],
      "name": "RoleGranted",
      "type": "event"
    },
    {
      "anonymous": false,
      "inputs": [
        {
          "indexed": true,
          "internalType": "bytes32",
          "name": "role",
          "type": "bytes32"
        },
        {
          "indexed": true,
          "internalType": "address",
          "name": "account",
          "type": "address"
        },
        {
          "indexed": true,
          "internalType": "address",
          "name": "sender",
          "type": "address"
        }
      ],
      "name": "RoleRevoked",
      "type": "event"
    },
    {
      "anonymous": false,
      "inputs": [
        {
          "indexed": true,
          "internalType": "contract Token",
          "name": "token",
          "type": "address"
        }
      ],
      "name": "TokenAddedToWhitelist",
      "type": "event"
    },
    {
      "anonymous": false,
      "inputs": [
        {
          "indexed": true,
          "internalType": "contract Token",
          "name": "token",
          "type": "address"
        }
      ],
      "name": "TokenRemovedFromWhitelist",
      "type": "event"
    },
    {
      "anonymous": false,
      "inputs": [
        {
          "indexed": false,
          "internalType": "uint32",
          "name": "prevBurnRewardPPM",
          "type": "uint32"
        },
        {
          "indexed": false,
          "internalType": "uint32",
          "name": "newBurnRewardPPM",
          "type": "uint32"
        },
        {
          "indexed": false,
          "internalType": "uint256",
          "name": "prevBurnRewardMaxAmount",
          "type": "uint256"
        },
        {
          "indexed": false,
          "internalType": "uint256",
          "name": "newBurnRewardMaxAmount",
          "type": "uint256"
        }
      ],
      "name": "VortexBurnRewardUpdated",
      "type": "event"
    },
    {
      "anonymous": false,
      "inputs": [
        {
          "indexed": false,
          "internalType": "uint32",
          "name": "prevFeePPM",
          "type": "uint32"
        },
        {
          "indexed": false,
          "internalType": "uint32",
          "name": "newFeePPM",
          "type": "uint32"
        }
      ],
      "name": "WithdrawalFeePPMUpdated",
      "type": "event"
    },
    {
      "inputs": [],
      "name": "DEFAULT_ADMIN_ROLE",
      "outputs": [
        {
          "internalType": "bytes32",
          "name": "",
          "type": "bytes32"
        }
      ],
      "stateMutability": "view",
      "type": "function"
    },
    {
      "inputs": [
        {
          "internalType": "contract Token",
          "name": "token",
          "type": "address"
        }
      ],
      "name": "addTokenToWhitelist",
      "outputs": [],
      "stateMutability": "nonpayable",
      "type": "function"
    },
    {
      "inputs": [],
      "name": "flashLoanFeePPM",
      "outputs": [
        {
          "internalType": "uint32",
          "name": "",
          "type": "uint32"
        }
      ],
      "stateMutability": "view",
      "type": "function"
    },
    {
      "inputs": [
        {
          "internalType": "bytes32",
          "name": "role",
          "type": "bytes32"
        }
      ],
      "name": "getRoleAdmin",
      "outputs": [
        {
          "internalType": "bytes32",
          "name": "",
          "type": "bytes32"
        }
      ],
      "stateMutability": "view",
      "type": "function"
    },
    {
      "inputs": [
        {
          "internalType": "bytes32",
          "name": "role",
          "type": "bytes32"
        },
        {
          "internalType": "uint256",
          "name": "index",
          "type": "uint256"
        }
      ],
      "name": "getRoleMember",
      "outputs": [
        {
          "internalType": "address",
          "name": "",
          "type": "address"
        }
      ],
      "stateMutability": "view",
      "type": "function"
    },
    {
      "inputs": [
        {
          "internalType": "bytes32",
          "name": "role",
          "type": "bytes32"
        }
      ],
      "name": "getRoleMemberCount",
      "outputs": [
        {
          "internalType": "uint256",
          "name": "",
          "type": "uint256"
        }
      ],
      "stateMutability": "view",
      "type": "function"
    },
    {
      "inputs": [
        {
          "internalType": "bytes32",
          "name": "role",
          "type": "bytes32"
        },
        {
          "internalType": "address",
          "name": "account",
          "type": "address"
        }
      ],
      "name": "grantRole",
      "outputs": [],
      "stateMutability": "nonpayable",
      "type": "function"
    },
    {
      "inputs": [
        {
          "internalType": "bytes32",
          "name": "role",
          "type": "bytes32"
        },
        {
          "internalType": "address",
          "name": "account",
          "type": "address"
        }
      ],
      "name": "hasRole",
      "outputs": [
        {
          "internalType": "bool",
          "name": "",
          "type": "bool"
        }
      ],
      "stateMutability": "view",
      "type": "function"
    },
    {
      "inputs": [],
      "name": "initialize",
      "outputs": [],
      "stateMutability": "nonpayable",
      "type": "function"
    },
    {
      "inputs": [
        {
          "internalType": "contract Token",
          "name": "token",
          "type": "address"
        }
      ],
      "name": "isTokenWhitelisted",
      "outputs": [
        {
          "internalType": "bool",
          "name": "",
          "type": "bool"
        }
      ],
      "stateMutability": "view",
      "type": "function"
    },
    {
      "inputs": [],
      "name": "minLiquidityForTrading",
      "outputs": [
        {
          "internalType": "uint256",
          "name": "",
          "type": "uint256"
        }
      ],
      "stateMutability": "view",
      "type": "function"
    },
    {
      "inputs": [],
      "name": "networkFeePPM",
      "outputs": [
        {
          "internalType": "uint32",
          "name": "",
          "type": "uint32"
        }
      ],
      "stateMutability": "view",
      "type": "function"
    },
    {
      "inputs": [
        {
          "internalType": "contract Token",
          "name": "pool",
          "type": "address"
        }
      ],
      "name": "poolFundingLimit",
      "outputs": [
        {
          "internalType": "uint256",
          "name": "",
          "type": "uint256"
        }
      ],
      "stateMutability": "view",
      "type": "function"
    },
    {
      "inputs": [],
      "name": "protectedTokenWhitelist",
      "outputs": [
        {
          "internalType": "contract Token[]",
          "name": "",
          "type": "address[]"
        }
      ],
      "stateMutability": "view",
      "type": "function"
    },
    {
      "inputs": [
        {
          "internalType": "contract Token",
          "name": "token",
          "type": "address"
        }
      ],
      "name": "removeTokenFromWhitelist",
      "outputs": [],
      "stateMutability": "nonpayable",
      "type": "function"
    },
    {
      "inputs": [
        {
          "internalType": "bytes32",
          "name": "role",
          "type": "bytes32"
        },
        {
          "internalType": "address",
          "name": "account",
          "type": "address"
        }
      ],
      "name": "renounceRole",
      "outputs": [],
      "stateMutability": "nonpayable",
      "type": "function"
    },
    {
      "inputs": [
        {
          "internalType": "bytes32",
          "name": "role",
          "type": "bytes32"
        },
        {
          "internalType": "address",
          "name": "account",
          "type": "address"
        }
      ],
      "name": "revokeRole",
      "outputs": [],
      "stateMutability": "nonpayable",
      "type": "function"
    },
    {
      "inputs": [],
      "name": "roleAdmin",
      "outputs": [
        {
          "internalType": "bytes32",
          "name": "",
          "type": "bytes32"
        }
      ],
      "stateMutability": "pure",
      "type": "function"
    },
    {
      "inputs": [
        {
          "internalType": "uint32",
          "name": "newFlashLoanFeePPM",
          "type": "uint32"
        }
      ],
      "name": "setFlashLoanFeePPM",
      "outputs": [],
      "stateMutability": "nonpayable",
      "type": "function"
    },
    {
      "inputs": [
        {
          "internalType": "contract Token",
          "name": "pool",
          "type": "address"
        },
        {
          "internalType": "uint256",
          "name": "amount",
          "type": "uint256"
        }
      ],
      "name": "setFundingLimit",
      "outputs": [],
      "stateMutability": "nonpayable",
      "type": "function"
    },
    {
      "inputs": [
        {
          "internalType": "uint256",
          "name": "amount",
          "type": "uint256"
        }
      ],
      "name": "setMinLiquidityForTrading",
      "outputs": [],
      "stateMutability": "nonpayable",
      "type": "function"
    },
    {
      "inputs": [
        {
          "internalType": "uint32",
          "name": "newNetworkFeePPM",
          "type": "uint32"
        }
      ],
      "name": "setNetworkFeePPM",
      "outputs": [],
      "stateMutability": "nonpayable",
      "type": "function"
    },
    {
      "inputs": [
        {
          "components": [
            {
              "internalType": "uint32",
              "name": "burnRewardPPM",
              "type": "uint32"
            },
            {
              "internalType": "uint256",
              "name": "burnRewardMaxAmount",
              "type": "uint256"
            }
          ],
          "internalType": "struct VortexRewards",
          "name": "rewards",
          "type": "tuple"
        }
      ],
      "name": "setVortexRewards",
      "outputs": [],
      "stateMutability": "nonpayable",
      "type": "function"
    },
    {
      "inputs": [
        {
          "internalType": "uint32",
          "name": "newWithdrawalFeePPM",
          "type": "uint32"
        }
      ],
      "name": "setWithdrawalFeePPM",
      "outputs": [],
      "stateMutability": "nonpayable",
      "type": "function"
    },
    {
      "inputs": [
        {
          "internalType": "bytes4",
          "name": "interfaceId",
          "type": "bytes4"
        }
      ],
      "name": "supportsInterface",
      "outputs": [
        {
          "internalType": "bool",
          "name": "",
          "type": "bool"
        }
      ],
      "stateMutability": "view",
      "type": "function"
    },
    {
      "inputs": [],
      "name": "version",
      "outputs": [
        {
          "internalType": "uint16",
          "name": "",
          "type": "uint16"
        }
      ],
      "stateMutability": "pure",
      "type": "function"
    },
    {
      "inputs": [],
      "name": "vortexRewards",
      "outputs": [
        {
          "components": [
            {
              "internalType": "uint32",
              "name": "burnRewardPPM",
              "type": "uint32"
            },
            {
              "internalType": "uint256",
              "name": "burnRewardMaxAmount",
              "type": "uint256"
            }
          ],
          "internalType": "struct VortexRewards",
          "name": "",
          "type": "tuple"
        }
      ],
      "stateMutability": "view",
      "type": "function"
    },
    {
      "inputs": [],
      "name": "withdrawalFeePPM",
      "outputs": [
        {
          "internalType": "uint32",
          "name": "",
          "type": "uint32"
        }
      ],
      "stateMutability": "view",
      "type": "function"
    }
  ],
  "transactionHash": "0xa45657fba9ddea3ef4d3f8e9ce7f8f88aae206781083a892d139d6f988e44d90",
  "args": [],
  "numDeployments": 1,
  "solcInputHash": "dcea142469df7f75d330e08f80ea8523",
  "bytecode": "0x608060405234801561001057600080fd5b50611773806100206000396000f3fe608060405234801561001057600080fd5b50600436106101c45760003560e01c80638129fc1c116100f9578063b5af090f11610097578063cd9d26a511610071578063cd9d26a514610412578063d547741f14610427578063d84c1b381461043a578063fa617bf31461044d57600080fd5b8063b5af090f146103d9578063c6f50d21146103ec578063ca15c873146103ff57600080fd5b806391d14854116100d357806391d148541461039757806393867fb5146103aa578063a217fddf146103be578063a83e3f0c146103c657600080fd5b80638129fc1c1461035c57806387ba006a146103645780639010d07c1461036c57600080fd5b806336568abe1161016657806347b13e7c1161014057806347b13e7c146103175780634f712cff1461032c57806354fd4d501461033f5780636161b6261461034e57600080fd5b806336568abe146102c85780633a1ec78d146102db578063467e55df146102ee57600080fd5b80632aac012c116101a25780632aac012c146102665780632f2ff15d1461028d578063306275be146102a25780633376af51146102b557600080fd5b806301ffc9a7146101c957806305a4c0f7146101f1578063248a9ca314610235575b600080fd5b6101dc6101d7366004611397565b610460565b60405190151581526020015b60405180910390f35b60408051808201825260008082526020918201528151808301835260ce5463ffffffff1680825260cf549183019182528351908152905191810191909152016101e8565b6102586102433660046113c1565b60009081526065602052604090206001015490565b6040519081526020016101e8565b60cd54640100000000900463ffffffff165b60405163ffffffff90911681526020016101e8565b6102a061029b3660046113ef565b61048b565b005b6102a06102b036600461141f565b6104b6565b6102a06102c336600461144e565b61052d565b6102a06102d63660046113ef565b6105c5565b6102a06102e936600461146b565b610644565b6102586102fc36600461141f565b6001600160a01b0316600090815260cb602052604090205490565b60cd54600160401b900463ffffffff16610278565b6102a061033a36600461144e565b61073f565b604051600181526020016101e8565b60cd5463ffffffff16610278565b6102a06107e3565b60cc54610258565b61037f61037a366004611483565b6108a4565b6040516001600160a01b0390911681526020016101e8565b6101dc6103a53660046113ef565b6108c3565b600080516020611747833981519152610258565b610258600081565b6102a06103d43660046114a5565b6108ee565b6101dc6103e736600461141f565b6109b8565b6102a06103fa36600461144e565b6109c3565b61025861040d3660046113c1565b610a69565b61041a610a80565b6040516101e891906114d1565b6102a06104353660046113ef565b610b30565b6102a061044836600461141f565b610b56565b6102a061045b3660046113c1565b610bd8565b60006001600160e01b03198216635a05180f60e01b1480610485575061048582610c41565b92915050565b6000828152606560205260409020600101546104a78133610c76565b6104b18383610cda565b505050565b6104ce60008051602061174783398151915233610cfc565b6104d960c982610d23565b6104f65760405163b0ce759160e01b815260040160405180910390fd5b6040516001600160a01b038216907fdd2e6d9f52cbe8f695939d018b7d4a216dc613a669876163ac548b916489d91790600090a250565b61054560008051602061174783398151915233610cfc565b8061054f81610d38565b60cd5463ffffffff90811690831681141561056957505050565b60cd805463ffffffff191663ffffffff85811691821790925560408051928416835260208301919091527f1f1f36475e04b1709caf649fc7f00350aa38c7f7f110f653e81f79011db0867c91015b60405180910390a1505b5050565b6001600160a01b038116331461063a5760405162461bcd60e51b815260206004820152602f60248201527f416363657373436f6e74726f6c3a2063616e206f6e6c792072656e6f756e636560448201526e103937b632b9903337b91039b2b63360891b60648201526084015b60405180910390fd5b6105c18282610d62565b61065c60008051602061174783398151915233610cfc565b610669602082018261144e565b61067281610d38565b816020013561068081610d84565b60ce5460cf5463ffffffff9091169061069c602086018661144e565b63ffffffff168263ffffffff161480156106b95750846020013581145b156106c5575050505050565b8460ce6106d2828261151e565b507fc0c001b93aede4379dd063acffffdf190292a31ccf86bbbf5399ab3480f3ebb1905082610704602088018861144e565b6040805163ffffffff938416815292909116602083810191909152908201849052870135606082015260800160405180910390a15050505050565b61075760008051602061174783398151915233610cfc565b8061076181610d38565b60cd5463ffffffff640100000000909104811690831681141561078357505050565b60cd805467ffffffff00000000191664010000000063ffffffff8681169182029290921790925560408051918416825260208201929092527f5694fc3b551ce2e4a457649f95500c545f27fce9ef7c3818cfb3c52134223dcb91016105b7565b600054610100900460ff166107fe5760005460ff1615610802565b303b155b6108655760405162461bcd60e51b815260206004820152602e60248201527f496e697469616c697a61626c653a20636f6e747261637420697320616c72656160448201526d191e481a5b9a5d1a585b1a5e995960921b6064820152608401610631565b600054610100900460ff16158015610887576000805461ffff19166101011790555b61088f610da2565b80156108a1576000805461ff00191690555b50565b60008281526097602052604081206108bc9083610ddb565b9392505050565b60009182526065602090815260408084206001600160a01b0393909316845291905290205460ff1690565b61090660008051602061174783398151915233610cfc565b8161091081610de7565b61091983610e0e565b61093657604051630b094f2760e31b815260040160405180910390fd5b6001600160a01b038316600090815260cb60205260409020548281141561095d5750505050565b6001600160a01b038416600081815260cb602090815260409182902086905581518481529081018690527f1a06df86f888ab7df8687a48f67c1ae98d193e315d76c842736d851adac8dda5910160405180910390a250505050565b600061048582610e0e565b6109db60008051602061174783398151915233610cfc565b806109e581610d38565b60cd5463ffffffff600160401b9091048116908316811415610a0657505050565b60cd80546bffffffff00000000000000001916600160401b63ffffffff8681169182029290921790925560408051918416825260208201929092527f578235b16045b1d8823ef0e323bafebb9748a6215f84d9a22c4d69bc43d96e2791016105b7565b600081815260976020526040812061048590610e1b565b60606000610a8e60c9610e1b565b905060008167ffffffffffffffff811115610aab57610aab61154b565b604051908082528060200260200182016040528015610ad4578160200160208202803683370190505b50905060005b82811015610b2957610aed60c982610ddb565b828281518110610aff57610aff611561565b6001600160a01b039092166020928302919091019091015280610b218161158d565b915050610ada565b5092915050565b600082815260656020526040902060010154610b4c8133610c76565b6104b18383610d62565b610b6e60008051602061174783398151915233610cfc565b80610b7881610e25565b610b8360c983610e61565b610ba05760405163119b4fd360e11b815260040160405180910390fd5b6040516001600160a01b038316907fa718ddb71589521cab00fa313e3bd14e75ca7204d57a12ff3a5aa40796f3427690600090a25050565b610bf060008051602061174783398151915233610cfc565b60cc5481811415610bff575050565b60cc82905560408051828152602081018490527fa331479cec90af3eef92e0ee6f6cd19f7912d7bb73f8d9885083d6ffa98b0772910160405180910390a15050565b60006001600160e01b03198216637965db0b60e01b148061048557506301ffc9a760e01b6001600160e01b0319831614610485565b610c8082826108c3565b6105c157610c98816001600160a01b03166014610e76565b610ca3836020610e76565b604051602001610cb49291906115d8565b60408051601f198184030181529082905262461bcd60e51b82526106319160040161164d565b610ce48282611012565b60008281526097602052604090206104b19082610e61565b610d0682826108c3565b6105c157604051634ca8886760e01b815260040160405180910390fd5b60006108bc836001600160a01b038416611098565b620f424063ffffffff821611156108a1576040516358d620b360e01b815260040160405180910390fd5b610d6c828261118b565b60008281526097602052604090206104b19082610d23565b806108a157604051637c946ed760e01b815260040160405180910390fd5b600054610100900460ff16610dc95760405162461bcd60e51b815260040161063190611680565b610dd16111f2565b610dd9611229565b565b60006108bc8383611250565b6001600160a01b0381166108a15760405163e6c4247b60e01b815260040160405180910390fd5b600061048560c98361127a565b6000610485825490565b6001600160a01b0381161580610e4357506001600160a01b03811630145b156108a157604051638e052b6760e01b815260040160405180910390fd5b60006108bc836001600160a01b03841661129c565b60606000610e858360026116cb565b610e909060026116ea565b67ffffffffffffffff811115610ea857610ea861154b565b6040519080825280601f01601f191660200182016040528015610ed2576020820181803683370190505b509050600360fc1b81600081518110610eed57610eed611561565b60200101906001600160f81b031916908160001a905350600f60fb1b81600181518110610f1c57610f1c611561565b60200101906001600160f81b031916908160001a9053506000610f408460026116cb565b610f4b9060016116ea565b90505b6001811115610fc3576f181899199a1a9b1b9c1cb0b131b232b360811b85600f1660108110610f7f57610f7f611561565b1a60f81b828281518110610f9557610f95611561565b60200101906001600160f81b031916908160001a90535060049490941c93610fbc81611702565b9050610f4e565b5083156108bc5760405162461bcd60e51b815260206004820181905260248201527f537472696e67733a20686578206c656e67746820696e73756666696369656e746044820152606401610631565b61101c82826108c3565b6105c15760008281526065602090815260408083206001600160a01b03851684529091529020805460ff191660011790556110543390565b6001600160a01b0316816001600160a01b0316837f2f8788117e7eff1d82e926ec794901d17c78024a50270940304540a733656f0d60405160405180910390a45050565b600081815260018301602052604081205480156111815760006110bc600183611719565b85549091506000906110d090600190611719565b90508181146111355760008660000182815481106110f0576110f0611561565b906000526020600020015490508087600001848154811061111357611113611561565b6000918252602080832090910192909255918252600188019052604090208390555b855486908061114657611146611730565b600190038181906000526020600020016000905590558560010160008681526020019081526020016000206000905560019350505050610485565b6000915050610485565b61119582826108c3565b156105c15760008281526065602090815260408083206001600160a01b0385168085529252808320805460ff1916905551339285917ff6391f5c32d9c69d2a47ea670b442974b53935d1edc7fd64eb21e047a839171b9190a45050565b600054610100900460ff166112195760405162461bcd60e51b815260040161063190611680565b611221611229565b610dd96112eb565b600054610100900460ff16610dd95760405162461bcd60e51b815260040161063190611680565b600082600001828154811061126757611267611561565b9060005260206000200154905092915050565b6001600160a01b038116600090815260018301602052604081205415156108bc565b60008181526001830160205260408120546112e357508154600181810184556000848152602080822090930184905584548482528286019093526040902091909155610485565b506000610485565b600054610100900460ff166113125760405162461bcd60e51b815260040161063190611680565b61132a60008051602061174783398151915280611342565b610dd96000805160206117478339815191523361138d565b600082815260656020526040808220600101805490849055905190918391839186917fbd79b86ffe0ab8e8776151514217cd7cacd52c909f66475c3af44e129f0b00ff9190a4505050565b6105c18282610cda565b6000602082840312156113a957600080fd5b81356001600160e01b0319811681146108bc57600080fd5b6000602082840312156113d357600080fd5b5035919050565b6001600160a01b03811681146108a157600080fd5b6000806040838503121561140257600080fd5b823591506020830135611414816113da565b809150509250929050565b60006020828403121561143157600080fd5b81356108bc816113da565b63ffffffff811681146108a157600080fd5b60006020828403121561146057600080fd5b81356108bc8161143c565b60006040828403121561147d57600080fd5b50919050565b6000806040838503121561149657600080fd5b50508035926020909101359150565b600080604083850312156114b857600080fd5b82356114c3816113da565b946020939093013593505050565b6020808252825182820181905260009190848201906040850190845b818110156115125783516001600160a01b0316835292840192918401916001016114ed565b50909695505050505050565b81356115298161143c565b63ffffffff811663ffffffff1983541617825550602082013560018201555050565b634e487b7160e01b600052604160045260246000fd5b634e487b7160e01b600052603260045260246000fd5b634e487b7160e01b600052601160045260246000fd5b60006000198214156115a1576115a1611577565b5060010190565b60005b838110156115c35781810151838201526020016115ab565b838111156115d2576000848401525b50505050565b7f416363657373436f6e74726f6c3a206163636f756e74200000000000000000008152600083516116108160178501602088016115a8565b7001034b99036b4b9b9b4b733903937b6329607d1b60179184019182015283516116418160288401602088016115a8565b01602801949350505050565b602081526000825180602084015261166c8160408501602087016115a8565b601f01601f19169190910160400192915050565b6020808252602b908201527f496e697469616c697a61626c653a20636f6e7472616374206973206e6f74206960408201526a6e697469616c697a696e6760a81b606082015260800190565b60008160001904831182151516156116e5576116e5611577565b500290565b600082198211156116fd576116fd611577565b500190565b60008161171157611711611577565b506000190190565b60008282101561172b5761172b611577565b500390565b634e487b7160e01b600052603160045260246000fdfe2172861495e7b85edac73e3cd5fbb42dd675baadf627720e687bcfdaca025096a164736f6c634300080c000a",
  "devdoc": {
    "details": "Network Settings contract",
    "events": {
      "FlashLoanFeePPMUpdated(uint32,uint32)": {
        "details": "triggered when the flash-loan fee is updated"
      },
      "FundingLimitUpdated(address,uint256,uint256)": {
        "details": "triggered when a per-pool funding limit is updated"
      },
      "MinLiquidityForTradingUpdated(uint256,uint256)": {
        "details": "triggered when the minimum liquidity for trading is updated"
      },
      "NetworkFeePPMUpdated(uint32,uint32)": {
        "details": "triggered when the network fee is updated"
      },
      "TokenAddedToWhitelist(address)": {
        "details": "triggered when a token is added to the protection whitelist"
      },
      "TokenRemovedFromWhitelist(address)": {
        "details": "triggered when a token is removed from the protection whitelist"
      },
      "VortexBurnRewardUpdated(uint32,uint32,uint256,uint256)": {
        "details": "triggered when the settings of the Vortex are updated"
      },
      "WithdrawalFeePPMUpdated(uint32,uint32)": {
        "details": "triggered when the withdrawal fee is updated"
      }
    },
    "kind": "dev",
    "methods": {
      "addTokenToWhitelist(address)": {
        "details": "adds a token to the protected tokens whitelist requirements: - the caller must be the admin of the contract"
      },
      "flashLoanFeePPM()": {
        "details": "returns the flash-loan fee (in units of PPM)"
      },
      "getRoleAdmin(bytes32)": {
        "details": "Returns the admin role that controls `role`. See {grantRole} and {revokeRole}. To change a role's admin, use {_setRoleAdmin}."
      },
      "getRoleMember(bytes32,uint256)": {
        "details": "Returns one of the accounts that have `role`. `index` must be a value between 0 and {getRoleMemberCount}, non-inclusive. Role bearers are not sorted in any particular way, and their ordering may change at any point. WARNING: When using {getRoleMember} and {getRoleMemberCount}, make sure you perform all queries on the same block. See the following https://forum.openzeppelin.com/t/iterating-over-elements-on-enumerableset-in-openzeppelin-contracts/2296[forum post] for more information."
      },
      "getRoleMemberCount(bytes32)": {
        "details": "Returns the number of accounts that have `role`. Can be used together with {getRoleMember} to enumerate all bearers of a role."
      },
      "grantRole(bytes32,address)": {
        "details": "Grants `role` to `account`. If `account` had not been already granted `role`, emits a {RoleGranted} event. Requirements: - the caller must have ``role``'s admin role."
      },
      "hasRole(bytes32,address)": {
        "details": "Returns `true` if `account` has been granted `role`."
      },
      "initialize()": {
        "details": "fully initializes the contract and its parents"
      },
      "isTokenWhitelisted(address)": {
        "details": "checks whether a given token is whitelisted"
      },
      "minLiquidityForTrading()": {
        "details": "returns the minimum BNT trading liquidity required before the system enables trading in the relevant pool"
      },
      "networkFeePPM()": {
        "details": "returns the global network fee (in units of PPM) notes: - the network fee is a portion of the total fees from each pool"
      },
      "poolFundingLimit(address)": {
        "details": "returns the BNT funding limit for a given pool"
      },
      "protectedTokenWhitelist()": {
        "details": "returns the protected tokens whitelist"
      },
      "removeTokenFromWhitelist(address)": {
        "details": "removes a token from the protected tokens whitelist requirements: - the caller must be the admin of the contract"
      },
      "renounceRole(bytes32,address)": {
        "details": "Revokes `role` from the calling account. Roles are often managed via {grantRole} and {revokeRole}: this function's purpose is to provide a mechanism for accounts to lose their privileges if they are compromised (such as when a trusted device is misplaced). If the calling account had been revoked `role`, emits a {RoleRevoked} event. Requirements: - the caller must be `account`."
      },
      "revokeRole(bytes32,address)": {
        "details": "Revokes `role` from `account`. If `account` had been granted `role`, emits a {RoleRevoked} event. Requirements: - the caller must have ``role``'s admin role."
      },
      "roleAdmin()": {
        "details": "returns the admin role"
      },
      "setFlashLoanFeePPM(uint32)": {
        "details": "sets the flash-loan fee (in units of PPM) requirements: - the caller must be the admin of the contract"
      },
      "setFundingLimit(address,uint256)": {
        "details": "updates the amount of BNT that the protocol can fund a specific pool requirements: - the caller must be the admin of the contract - the token must have been whitelisted"
      },
      "setMinLiquidityForTrading(uint256)": {
        "details": "updates the minimum liquidity for trading amount requirements: - the caller must be the admin of the contract"
      },
      "setNetworkFeePPM(uint32)": {
        "details": "sets the network fee (in units of PPM) requirements: - the caller must be the admin of the contract"
      },
      "setVortexRewards((uint32,uint256))": {
        "details": "sets the settings of the Vortex requirements: s - the caller must be the admin of the contract"
      },
      "setWithdrawalFeePPM(uint32)": {
        "details": "sets the withdrawal fee (in units of PPM) requirements: - the caller must be the admin of the contract"
      },
      "supportsInterface(bytes4)": {
        "details": "See {IERC165-supportsInterface}."
      },
      "vortexRewards()": {
        "details": "returns the vortex settings"
      },
      "withdrawalFeePPM()": {
        "details": "returns the withdrawal fee (in units of PPM)"
      }
    },
    "version": 1
  },
  "userdoc": {
    "kind": "user",
    "methods": {},
    "version": 1
  },
  "storageLayout": {
    "storage": [
      {
        "astId": 644,
        "contract": "contracts/network/NetworkSettings.sol:NetworkSettings",
        "label": "_initialized",
        "offset": 0,
        "slot": "0",
        "type": "t_bool"
      },
      {
        "astId": 647,
        "contract": "contracts/network/NetworkSettings.sol:NetworkSettings",
        "label": "_initializing",
        "offset": 1,
        "slot": "0",
        "type": "t_bool"
      },
      {
        "astId": 1165,
        "contract": "contracts/network/NetworkSettings.sol:NetworkSettings",
        "label": "__gap",
        "offset": 0,
        "slot": "1",
        "type": "t_array(t_uint256)50_storage"
      },
      {
        "astId": 1412,
        "contract": "contracts/network/NetworkSettings.sol:NetworkSettings",
        "label": "__gap",
        "offset": 0,
        "slot": "51",
        "type": "t_array(t_uint256)50_storage"
      },
      {
        "astId": 250,
        "contract": "contracts/network/NetworkSettings.sol:NetworkSettings",
        "label": "_roles",
        "offset": 0,
        "slot": "101",
        "type": "t_mapping(t_bytes32,t_struct(RoleData)245_storage)"
      },
      {
        "astId": 538,
        "contract": "contracts/network/NetworkSettings.sol:NetworkSettings",
        "label": "__gap",
        "offset": 0,
        "slot": "102",
        "type": "t_array(t_uint256)49_storage"
      },
      {
        "astId": 99,
        "contract": "contracts/network/NetworkSettings.sol:NetworkSettings",
        "label": "_roleMembers",
        "offset": 0,
        "slot": "151",
        "type": "t_mapping(t_bytes32,t_struct(AddressSet)1737_storage)"
      },
      {
        "astId": 209,
        "contract": "contracts/network/NetworkSettings.sol:NetworkSettings",
        "label": "__gap",
        "offset": 0,
        "slot": "152",
        "type": "t_array(t_uint256)49_storage"
      },
      {
        "astId": 15429,
        "contract": "contracts/network/NetworkSettings.sol:NetworkSettings",
        "label": "_protectedTokenWhitelist",
        "offset": 0,
        "slot": "201",
        "type": "t_struct(AddressSet)1737_storage"
      },
      {
        "astId": 15434,
        "contract": "contracts/network/NetworkSettings.sol:NetworkSettings",
        "label": "_poolFundingLimits",
        "offset": 0,
        "slot": "203",
        "type": "t_mapping(t_contract(Token)28365,t_uint256)"
      },
      {
        "astId": 15436,
        "contract": "contracts/network/NetworkSettings.sol:NetworkSettings",
        "label": "_minLiquidityForTrading",
        "offset": 0,
        "slot": "204",
        "type": "t_uint256"
      },
      {
        "astId": 15438,
        "contract": "contracts/network/NetworkSettings.sol:NetworkSettings",
        "label": "_networkFeePPM",
        "offset": 0,
        "slot": "205",
        "type": "t_uint32"
      },
      {
        "astId": 15440,
        "contract": "contracts/network/NetworkSettings.sol:NetworkSettings",
        "label": "_withdrawalFeePPM",
        "offset": 4,
        "slot": "205",
        "type": "t_uint32"
      },
      {
        "astId": 15442,
        "contract": "contracts/network/NetworkSettings.sol:NetworkSettings",
        "label": "_flashLoanFeePPM",
        "offset": 8,
        "slot": "205",
        "type": "t_uint32"
      },
      {
        "astId": 15445,
        "contract": "contracts/network/NetworkSettings.sol:NetworkSettings",
        "label": "_vortexRewards",
        "offset": 0,
        "slot": "206",
        "type": "t_struct(VortexRewards)17295_storage"
      },
      {
        "astId": 15451,
        "contract": "contracts/network/NetworkSettings.sol:NetworkSettings",
        "label": "__gap",
        "offset": 0,
        "slot": "208",
        "type": "t_array(t_uint256)43_storage"
      }
    ],
    "types": {
      "t_address": {
        "encoding": "inplace",
        "label": "address",
        "numberOfBytes": "20"
      },
      "t_array(t_bytes32)dyn_storage": {
        "base": "t_bytes32",
        "encoding": "dynamic_array",
        "label": "bytes32[]",
        "numberOfBytes": "32"
      },
      "t_array(t_uint256)43_storage": {
        "base": "t_uint256",
        "encoding": "inplace",
        "label": "uint256[43]",
        "numberOfBytes": "1376"
      },
      "t_array(t_uint256)49_storage": {
        "base": "t_uint256",
        "encoding": "inplace",
        "label": "uint256[49]",
        "numberOfBytes": "1568"
      },
      "t_array(t_uint256)50_storage": {
        "base": "t_uint256",
        "encoding": "inplace",
        "label": "uint256[50]",
        "numberOfBytes": "1600"
      },
      "t_bool": {
        "encoding": "inplace",
        "label": "bool",
        "numberOfBytes": "1"
      },
      "t_bytes32": {
        "encoding": "inplace",
        "label": "bytes32",
        "numberOfBytes": "32"
      },
      "t_contract(Token)28365": {
        "encoding": "inplace",
        "label": "contract Token",
        "numberOfBytes": "20"
      },
      "t_mapping(t_address,t_bool)": {
        "encoding": "mapping",
        "key": "t_address",
        "label": "mapping(address => bool)",
        "numberOfBytes": "32",
        "value": "t_bool"
      },
      "t_mapping(t_bytes32,t_struct(AddressSet)1737_storage)": {
        "encoding": "mapping",
        "key": "t_bytes32",
        "label": "mapping(bytes32 => struct EnumerableSetUpgradeable.AddressSet)",
        "numberOfBytes": "32",
        "value": "t_struct(AddressSet)1737_storage"
      },
      "t_mapping(t_bytes32,t_struct(RoleData)245_storage)": {
        "encoding": "mapping",
        "key": "t_bytes32",
        "label": "mapping(bytes32 => struct AccessControlUpgradeable.RoleData)",
        "numberOfBytes": "32",
        "value": "t_struct(RoleData)245_storage"
      },
      "t_mapping(t_bytes32,t_uint256)": {
        "encoding": "mapping",
        "key": "t_bytes32",
        "label": "mapping(bytes32 => uint256)",
        "numberOfBytes": "32",
        "value": "t_uint256"
      },
      "t_mapping(t_contract(Token)28365,t_uint256)": {
        "encoding": "mapping",
        "key": "t_contract(Token)28365",
        "label": "mapping(contract Token => uint256)",
        "numberOfBytes": "32",
        "value": "t_uint256"
      },
      "t_struct(AddressSet)1737_storage": {
        "encoding": "inplace",
        "label": "struct EnumerableSetUpgradeable.AddressSet",
        "members": [
          {
            "astId": 1736,
            "contract": "contracts/network/NetworkSettings.sol:NetworkSettings",
            "label": "_inner",
            "offset": 0,
            "slot": "0",
            "type": "t_struct(Set)1436_storage"
          }
        ],
        "numberOfBytes": "64"
      },
      "t_struct(RoleData)245_storage": {
        "encoding": "inplace",
        "label": "struct AccessControlUpgradeable.RoleData",
        "members": [
          {
            "astId": 242,
            "contract": "contracts/network/NetworkSettings.sol:NetworkSettings",
            "label": "members",
            "offset": 0,
            "slot": "0",
            "type": "t_mapping(t_address,t_bool)"
          },
          {
            "astId": 244,
            "contract": "contracts/network/NetworkSettings.sol:NetworkSettings",
            "label": "adminRole",
            "offset": 0,
            "slot": "1",
            "type": "t_bytes32"
          }
        ],
        "numberOfBytes": "64"
      },
      "t_struct(Set)1436_storage": {
        "encoding": "inplace",
        "label": "struct EnumerableSetUpgradeable.Set",
        "members": [
          {
            "astId": 1431,
            "contract": "contracts/network/NetworkSettings.sol:NetworkSettings",
            "label": "_values",
            "offset": 0,
            "slot": "0",
            "type": "t_array(t_bytes32)dyn_storage"
          },
          {
            "astId": 1435,
            "contract": "contracts/network/NetworkSettings.sol:NetworkSettings",
            "label": "_indexes",
            "offset": 0,
            "slot": "1",
            "type": "t_mapping(t_bytes32,t_uint256)"
          }
        ],
        "numberOfBytes": "64"
      },
      "t_struct(VortexRewards)17295_storage": {
        "encoding": "inplace",
        "label": "struct VortexRewards",
        "members": [
          {
            "astId": 17292,
            "contract": "contracts/network/NetworkSettings.sol:NetworkSettings",
            "label": "burnRewardPPM",
            "offset": 0,
            "slot": "0",
            "type": "t_uint32"
          },
          {
            "astId": 17294,
            "contract": "contracts/network/NetworkSettings.sol:NetworkSettings",
            "label": "burnRewardMaxAmount",
            "offset": 0,
            "slot": "1",
            "type": "t_uint256"
          }
        ],
        "numberOfBytes": "64"
      },
      "t_uint256": {
        "encoding": "inplace",
        "label": "uint256",
        "numberOfBytes": "32"
      },
      "t_uint32": {
        "encoding": "inplace",
        "label": "uint32",
        "numberOfBytes": "4"
      }
    }
  }
}