{
  "address": "0xEc0E2044A013d89685650A234D3c77456e0939CF",
  "abi": [
    {
      "inputs": [
        {
          "internalType": "contract IBancorNetwork",
          "name": "initNetwork",
          "type": "address"
        },
        {
          "internalType": "contract IERC20",
          "name": "initBNT",
          "type": "address"
        },
        {
          "internalType": "contract IBNTPool",
          "name": "initBNTPool",
          "type": "address"
        }
      ],
      "stateMutability": "nonpayable",
      "type": "constructor"
    },
    {
      "inputs": [],
      "name": "AccessDenied",
      "type": "error"
    },
    {
      "inputs": [],
      "name": "AlreadyExists",
      "type": "error"
    },
    {
      "inputs": [],
      "name": "DoesNotExist",
      "type": "error"
    },
    {
      "inputs": [],
      "name": "InvalidAddress",
      "type": "error"
    },
    {
      "inputs": [],
      "name": "InvalidPool",
      "type": "error"
    },
    {
      "inputs": [],
      "name": "Overflow",
      "type": "error"
    },
    {
      "inputs": [],
      "name": "WithdrawalNotAllowed",
      "type": "error"
    },
    {
      "inputs": [],
      "name": "ZeroValue",
      "type": "error"
    },
    {
      "anonymous": false,
      "inputs": [
        {
          "indexed": false,
          "internalType": "uint32",
          "name": "prevLockDuration",
          "type": "uint32"
        },
        {
          "indexed": false,
          "internalType": "uint32",
          "name": "newLockDuration",
          "type": "uint32"
        }
      ],
      "name": "LockDurationUpdated",
      "type": "event"
    },
    {
      "anonymous": false,
      "inputs": [
        {
          "indexed": true,
          "internalType": "bytes32",
          "name": "role",
          "type": "bytes32"
        },
        {
          "indexed": true,
          "internalType": "bytes32",
          "name": "previousAdminRole",
          "type": "bytes32"
        },
        {
          "indexed": true,
          "internalType": "bytes32",
          "name": "newAdminRole",
          "type": "bytes32"
        }
      ],
      "name": "RoleAdminChanged",
      "type": "event"
    },
    {
      "anonymous": false,
      "inputs": [
        {
          "indexed": true,
          "internalType": "bytes32",
          "name": "role",
          "type": "bytes32"
        },
        {
          "indexed": true,
          "internalType": "address",
          "name": "account",
          "type": "address"
        },
        {
          "indexed": true,
          "internalType": "address",
          "name": "sender",
          "type": "address"
        }
      ],
      "name": "RoleGranted",
      "type": "event"
    },
    {
      "anonymous": false,
      "inputs": [
        {
          "indexed": true,
          "internalType": "bytes32",
          "name": "role",
          "type": "bytes32"
        },
        {
          "indexed": true,
          "internalType": "address",
          "name": "account",
          "type": "address"
        },
        {
          "indexed": true,
          "internalType": "address",
          "name": "sender",
          "type": "address"
        }
      ],
      "name": "RoleRevoked",
      "type": "event"
    },
    {
      "anonymous": false,
      "inputs": [
        {
          "indexed": true,
          "internalType": "contract Token",
          "name": "pool",
          "type": "address"
        },
        {
          "indexed": true,
          "internalType": "address",
          "name": "provider",
          "type": "address"
        },
        {
          "indexed": true,
          "internalType": "uint256",
          "name": "requestId",
          "type": "uint256"
        },
        {
          "indexed": false,
          "internalType": "uint256",
          "name": "poolTokenAmount",
          "type": "uint256"
        },
        {
          "indexed": false,
          "internalType": "uint256",
          "name": "reserveTokenAmount",
          "type": "uint256"
        },
        {
          "indexed": false,
          "internalType": "uint32",
          "name": "timeElapsed",
          "type": "uint32"
        }
      ],
      "name": "WithdrawalCancelled",
      "type": "event"
    },
    {
      "anonymous": false,
      "inputs": [
        {
          "indexed": true,
          "internalType": "bytes32",
          "name": "contextId",
          "type": "bytes32"
        },
        {
          "indexed": true,
          "internalType": "contract Token",
          "name": "pool",
          "type": "address"
        },
        {
          "indexed": true,
          "internalType": "address",
          "name": "provider",
          "type": "address"
        },
        {
          "indexed": false,
          "internalType": "uint256",
          "name": "requestId",
          "type": "uint256"
        },
        {
          "indexed": false,
          "internalType": "uint256",
          "name": "poolTokenAmount",
          "type": "uint256"
        },
        {
          "indexed": false,
          "internalType": "uint256",
          "name": "reserveTokenAmount",
          "type": "uint256"
        },
        {
          "indexed": false,
          "internalType": "uint32",
          "name": "timeElapsed",
          "type": "uint32"
        }
      ],
      "name": "WithdrawalCompleted",
      "type": "event"
    },
    {
      "anonymous": false,
      "inputs": [
        {
          "indexed": true,
          "internalType": "contract Token",
          "name": "pool",
          "type": "address"
        },
        {
          "indexed": true,
          "internalType": "address",
          "name": "provider",
          "type": "address"
        },
        {
          "indexed": true,
          "internalType": "uint256",
          "name": "requestId",
          "type": "uint256"
        },
        {
          "indexed": false,
          "internalType": "uint256",
          "name": "poolTokenAmount",
          "type": "uint256"
        },
        {
          "indexed": false,
          "internalType": "uint256",
          "name": "reserveTokenAmount",
          "type": "uint256"
        }
      ],
      "name": "WithdrawalInitiated",
      "type": "event"
    },
    {
      "inputs": [],
      "name": "DEFAULT_ADMIN_ROLE",
      "outputs": [
        {
          "internalType": "bytes32",
          "name": "",
          "type": "bytes32"
        }
      ],
      "stateMutability": "view",
      "type": "function"
    },
    {
      "inputs": [
        {
          "internalType": "address",
          "name": "provider",
          "type": "address"
        },
        {
          "internalType": "uint256",
          "name": "id",
          "type": "uint256"
        }
      ],
      "name": "cancelWithdrawal",
      "outputs": [],
      "stateMutability": "nonpayable",
      "type": "function"
    },
    {
      "inputs": [
        {
          "internalType": "bytes32",
          "name": "contextId",
          "type": "bytes32"
        },
        {
          "internalType": "address",
          "name": "provider",
          "type": "address"
        },
        {
          "internalType": "uint256",
          "name": "id",
          "type": "uint256"
        }
      ],
      "name": "completeWithdrawal",
      "outputs": [
        {
          "components": [
            {
              "internalType": "contract IPoolToken",
              "name": "poolToken",
              "type": "address"
            },
            {
              "internalType": "uint256",
              "name": "poolTokenAmount",
              "type": "uint256"
            }
          ],
          "internalType": "struct CompletedWithdrawal",
          "name": "",
          "type": "tuple"
        }
      ],
      "stateMutability": "nonpayable",
      "type": "function"
    },
    {
      "inputs": [
        {
          "internalType": "bytes32",
          "name": "role",
          "type": "bytes32"
        }
      ],
      "name": "getRoleAdmin",
      "outputs": [
        {
          "internalType": "bytes32",
          "name": "",
          "type": "bytes32"
        }
      ],
      "stateMutability": "view",
      "type": "function"
    },
    {
      "inputs": [
        {
          "internalType": "bytes32",
          "name": "role",
          "type": "bytes32"
        },
        {
          "internalType": "uint256",
          "name": "index",
          "type": "uint256"
        }
      ],
      "name": "getRoleMember",
      "outputs": [
        {
          "internalType": "address",
          "name": "",
          "type": "address"
        }
      ],
      "stateMutability": "view",
      "type": "function"
    },
    {
      "inputs": [
        {
          "internalType": "bytes32",
          "name": "role",
          "type": "bytes32"
        }
      ],
      "name": "getRoleMemberCount",
      "outputs": [
        {
          "internalType": "uint256",
          "name": "",
          "type": "uint256"
        }
      ],
      "stateMutability": "view",
      "type": "function"
    },
    {
      "inputs": [
        {
          "internalType": "bytes32",
          "name": "role",
          "type": "bytes32"
        },
        {
          "internalType": "address",
          "name": "account",
          "type": "address"
        }
      ],
      "name": "grantRole",
      "outputs": [],
      "stateMutability": "nonpayable",
      "type": "function"
    },
    {
      "inputs": [
        {
          "internalType": "bytes32",
          "name": "role",
          "type": "bytes32"
        },
        {
          "internalType": "address",
          "name": "account",
          "type": "address"
        }
      ],
      "name": "hasRole",
      "outputs": [
        {
          "internalType": "bool",
          "name": "",
          "type": "bool"
        }
      ],
      "stateMutability": "view",
      "type": "function"
    },
    {
      "inputs": [
        {
          "internalType": "address",
          "name": "provider",
          "type": "address"
        },
        {
          "internalType": "contract IPoolToken",
          "name": "poolToken",
          "type": "address"
        },
        {
          "internalType": "uint256",
          "name": "poolTokenAmount",
          "type": "uint256"
        }
      ],
      "name": "initWithdrawal",
      "outputs": [
        {
          "internalType": "uint256",
          "name": "",
          "type": "uint256"
        }
      ],
      "stateMutability": "nonpayable",
      "type": "function"
    },
    {
      "inputs": [],
      "name": "initialize",
      "outputs": [],
      "stateMutability": "nonpayable",
      "type": "function"
    },
    {
      "inputs": [
        {
          "internalType": "uint256",
          "name": "id",
          "type": "uint256"
        }
      ],
      "name": "isReadyForWithdrawal",
      "outputs": [
        {
          "internalType": "bool",
          "name": "",
          "type": "bool"
        }
      ],
      "stateMutability": "view",
      "type": "function"
    },
    {
      "inputs": [],
      "name": "lockDuration",
      "outputs": [
        {
          "internalType": "uint32",
          "name": "",
          "type": "uint32"
        }
      ],
      "stateMutability": "view",
      "type": "function"
    },
    {
      "inputs": [
        {
          "internalType": "bytes32",
          "name": "role",
          "type": "bytes32"
        },
        {
          "internalType": "address",
          "name": "account",
          "type": "address"
        }
      ],
      "name": "renounceRole",
      "outputs": [],
      "stateMutability": "nonpayable",
      "type": "function"
    },
    {
      "inputs": [
        {
          "internalType": "bytes32",
          "name": "role",
          "type": "bytes32"
        },
        {
          "internalType": "address",
          "name": "account",
          "type": "address"
        }
      ],
      "name": "revokeRole",
      "outputs": [],
      "stateMutability": "nonpayable",
      "type": "function"
    },
    {
      "inputs": [],
      "name": "roleAdmin",
      "outputs": [
        {
          "internalType": "bytes32",
          "name": "",
          "type": "bytes32"
        }
      ],
      "stateMutability": "pure",
      "type": "function"
    },
    {
      "inputs": [
        {
          "internalType": "uint32",
          "name": "newLockDuration",
          "type": "uint32"
        }
      ],
      "name": "setLockDuration",
      "outputs": [],
      "stateMutability": "nonpayable",
      "type": "function"
    },
    {
      "inputs": [
        {
          "internalType": "bytes4",
          "name": "interfaceId",
          "type": "bytes4"
        }
      ],
      "name": "supportsInterface",
      "outputs": [
        {
          "internalType": "bool",
          "name": "",
          "type": "bool"
        }
      ],
      "stateMutability": "view",
      "type": "function"
    },
    {
      "inputs": [],
      "name": "version",
      "outputs": [
        {
          "internalType": "uint16",
          "name": "",
          "type": "uint16"
        }
      ],
      "stateMutability": "pure",
      "type": "function"
    },
    {
      "inputs": [
        {
          "internalType": "uint256",
          "name": "id",
          "type": "uint256"
        }
      ],
      "name": "withdrawalRequest",
      "outputs": [
        {
          "components": [
            {
              "internalType": "address",
              "name": "provider",
              "type": "address"
            },
            {
              "internalType": "contract IPoolToken",
              "name": "poolToken",
              "type": "address"
            },
            {
              "internalType": "contract Token",
              "name": "reserveToken",
              "type": "address"
            },
            {
              "internalType": "uint32",
              "name": "createdAt",
              "type": "uint32"
            },
            {
              "internalType": "uint256",
              "name": "poolTokenAmount",
              "type": "uint256"
            },
            {
              "internalType": "uint256",
              "name": "reserveTokenAmount",
              "type": "uint256"
            }
          ],
          "internalType": "struct WithdrawalRequest",
          "name": "",
          "type": "tuple"
        }
      ],
      "stateMutability": "view",
      "type": "function"
    },
    {
      "inputs": [
        {
          "internalType": "address",
          "name": "provider",
          "type": "address"
        }
      ],
      "name": "withdrawalRequestCount",
      "outputs": [
        {
          "internalType": "uint256",
          "name": "",
          "type": "uint256"
        }
      ],
      "stateMutability": "view",
      "type": "function"
    },
    {
      "inputs": [
        {
          "internalType": "address",
          "name": "provider",
          "type": "address"
        }
      ],
      "name": "withdrawalRequestIds",
      "outputs": [
        {
          "internalType": "uint256[]",
          "name": "",
          "type": "uint256[]"
        }
      ],
      "stateMutability": "view",
      "type": "function"
    }
  ],
  "transactionHash": "0x4026c77dccf5c29ebf00eb57d46ce85738a699735fd59cd19774a4ff25a2c623",
  "args": [
    "0x093C761bd5B8f71d72cBC74A72cc9c6aEDC8EE49",
    "0x1F573D6Fb3F13d689FF844B4cE37794d79a7FF1C",
    "0x6210cE7207537eE1ec219f4562e6d05bed208852"
  ],
  "numDeployments": 1,
  "solcInputHash": "dcea142469df7f75d330e08f80ea8523",
  "bytecode": "0x60e06040523480156200001157600080fd5b50604051620023d9380380620023d98339810160408190526200003491620000ba565b82620000408162000079565b826200004c8162000079565b82620000588162000079565b5050506001600160a01b0392831660805290821660a0521660c0526200010e565b6001600160a01b038116620000a15760405163e6c4247b60e01b815260040160405180910390fd5b50565b6001600160a01b0381168114620000a157600080fd5b600080600060608486031215620000d057600080fd5b8351620000dd81620000a4565b6020850151909350620000f081620000a4565b60408501519092506200010381620000a4565b809150509250925092565b60805160a05160c05161227f6200015a6000396000610efe01526000610eb5015260008181610493015281816104e70152818161096701528181610be00152610f97015261227f6000f3fe608060405234801561001057600080fd5b50600436106101375760003560e01c80638129fc1c116100b8578063ade3142f1161007c578063ade3142f146103ba578063b09233c8146103cd578063be476d8a146103e0578063ca15c873146103f3578063d547741f14610406578063ed249d051461041957600080fd5b80638129fc1c146103585780639010d07c1461036057806391d148541461038b57806393867fb51461039e578063a217fddf146103b257600080fd5b80632b0b2356116100ff5780632b0b2356146101e05780632f2ff15d1461021757806336568abe1461022c5780635209cb981461023f57806354fd4d501461034957600080fd5b806301ffc9a71461013c57806304554443146101645780630aa9e15c1461017c578063248a9ca31461019c57806327cfcfa2146101cd575b600080fd5b61014f61014a366004611d87565b61042c565b60405190151581526020015b60405180910390f35b60c95460405163ffffffff909116815260200161015b565b61018f61018a366004611dc6565b610457565b60405161015b9190611de3565b6101bf6101aa366004611e27565b60009081526065602052604090206001015490565b60405190815260200161015b565b6101bf6101db366004611e40565b61047b565b6101f36101ee366004611e81565b6104d1565b6040805182516001600160a01b03168152602092830151928101929092520161015b565b61022a610225366004611ea8565b61076a565b005b61022a61023a366004611ea8565b610795565b6102ef61024d366004611e27565b6040805160c081018252600080825260208201819052918101829052606081018290526080810182905260a081019190915250600090815260cc6020908152604091829020825160c08101845281546001600160a01b0390811682526001830154811693820193909352600282015492831693810193909352600160a01b90910463ffffffff166060830152600381015460808301526004015460a082015290565b6040805182516001600160a01b03908116825260208085015182169083015283830151169181019190915260608083015163ffffffff16908201526080808301519082015260a0918201519181019190915260c00161015b565b6040516001815260200161015b565b61022a610818565b61037361036e366004611ed8565b6108d9565b6040516001600160a01b03909116815260200161015b565b61014f610399366004611ea8565b6108f8565b6000805160206122538339815191526101bf565b6101bf600081565b6101bf6103c8366004611dc6565b610923565b61022a6103db366004611efa565b610944565b61022a6103ee366004611f20565b610965565b6101bf610401366004611e27565b610a2f565b61022a610414366004611ea8565b610a46565b61014f610427366004611e27565b610a6c565b60006001600160e01b03198216635a05180f60e01b1480610451575061045182610aa9565b92915050565b6001600160a01b038116600090815260cb6020526040902060609061045190610ade565b60008261048781610aeb565b8261049181610b12565b7f00000000000000000000000000000000000000000000000000000000000000006104bb81610b30565b6104c6878787610b59565b979650505050505050565b60408051808201909152600080825260208201527f000000000000000000000000000000000000000000000000000000000000000061050f81610b30565b600083815260cc6020908152604091829020825160c08101845281546001600160a01b039081168083526001840154821694830194909452600283015480821695830195909552600160a01b90940463ffffffff1660608201526003820154608082015260049091015460a08201529186161461059f57604051634ca8886760e01b815260040160405180910390fd5b60004290506105b2818360600151610e00565b6105cf5760405163209a769d60e11b815260040160405180910390fd5b6105d98686610e29565b60006105ed83604001518460800151610eb1565b90508260a0015181101561060357610603611f4c565b6000818460a00151146106285761062384608001518560a0015184611075565b61062e565b83608001515b905080846080015111156106b05783602001516001600160a01b03166342966c6882866080015161065f9190611f78565b6040518263ffffffff1660e01b815260040161067d91815260200190565b600060405180830381600087803b15801561069757600080fd5b505af11580156106ab573d6000803e3d6000fd5b505050505b60208401516106c9906001600160a01b0316338361113b565b876001600160a01b031684604001516001600160a01b03168a7f70a90e1e4f0e226199127e9bd05b3cbf9c2e5df8a2265903456eb0951727a4cc8a85878a606001518a6107169190611f8f565b6040805194855260208501939093529183015263ffffffff16606082015260800160405180910390a4604080518082019091526020948501516001600160a01b031681529384015250909695505050505050565b600082815260656020526040902060010154610786813361118d565b61079083836111f1565b505050565b6001600160a01b038116331461080a5760405162461bcd60e51b815260206004820152602f60248201527f416363657373436f6e74726f6c3a2063616e206f6e6c792072656e6f756e636560448201526e103937b632b9903337b91039b2b63360891b60648201526084015b60405180910390fd5b6108148282611213565b5050565b600054610100900460ff166108335760005460ff1615610837565b303b155b61089a5760405162461bcd60e51b815260206004820152602e60248201527f496e697469616c697a61626c653a20636f6e747261637420697320616c72656160448201526d191e481a5b9a5d1a585b1a5e995960921b6064820152608401610801565b600054610100900460ff161580156108bc576000805461ffff19166101011790555b6108c4611235565b80156108d6576000805461ff00191690555b50565b60008281526097602052604081206108f1908361126e565b9392505050565b60009182526065602090815260408084206001600160a01b0393909316845291905290205460ff1690565b6001600160a01b038116600090815260cb602052604081206104519061127a565b61095c60008051602061225383398151915233611284565b6108d6816112ab565b7f000000000000000000000000000000000000000000000000000000000000000061098f81610b30565b600082815260cc6020908152604091829020825160c08101845281546001600160a01b039081168083526001840154821694830194909452600283015480821695830195909552600160a01b90940463ffffffff1660608201526003820154608082015260049091015460a082015291851614610a1f57604051634ca8886760e01b815260040160405180910390fd5b610a29818461131d565b50505050565b60008181526097602052604081206104519061127a565b600082815260656020526040902060010154610a62813361118d565b6107908383611213565b600081815260cc6020526040812080546001600160a01b0316158015906108f157506108f1426002830154600160a01b900463ffffffff16610e00565b60006001600160e01b03198216637965db0b60e01b148061045157506301ffc9a760e01b6001600160e01b0319831614610451565b606060006108f1836113d0565b6001600160a01b0381166108d65760405163e6c4247b60e01b815260040160405180910390fd5b806108d657604051637c946ed760e01b815260040160405180910390fd5b336001600160a01b038216146108d657604051634ca8886760e01b815260040160405180910390fd5b600080836001600160a01b031663f4325d676040518163ffffffff1660e01b8152600401602060405180830381865afa158015610b9a573d6000803e3d6000fd5b505050506040513d601f19601f82011682018060405250810190610bbe9190611fb4565b60405163f6c5786160e01b81526001600160a01b0380831660048301529192507f00000000000000000000000000000000000000000000000000000000000000009091169063f6c5786190602401602060405180830381865afa158015610c29573d6000803e3d6000fd5b505050506040513d601f19601f82011682018060405250810190610c4d9190611fd1565b610c695760405162820f3560e61b815260040160405180910390fd5b60ca805460009182610c7a83611ff3565b9190505590506000610c8c8386610eb1565b90506040518060c00160405280886001600160a01b03168152602001876001600160a01b03168152602001846001600160a01b03168152602001610ccd4290565b63ffffffff908116825260208083018990526040928301859052600086815260cc8252838120855181546001600160a01b039182166001600160a01b031991821617835587850151600184018054918416919092161790558686015160028301805460608a01518816600160a01b026001600160c01b0319909116928416929092179190911790556080870151600383015560a090960151600490910155938b16845260cb90529120610d8291849061142c16565b610d9f5760405163119b4fd360e11b815260040160405180910390fd5b81876001600160a01b0316846001600160a01b03167fd9fbd8fe4451ae979e36c7923543e61b94e26b6f1510866805ee90023a61aa218885604051610dee929190918252602082015260400190565b60405180910390a45095945050505050565b60c95460009063ffffffff80851691610e1a91168461200e565b63ffffffff1611159392505050565b6001600160a01b038216600090815260cb60205260409020610e4b9082611438565b610e685760405163b0ce759160e01b815260040160405180910390fd5b600090815260cc6020526040812080546001600160a01b0319908116825560018201805490911690556002810180546001600160c01b0319169055600381018290556004015550565b60007f00000000000000000000000000000000000000000000000000000000000000006001600160a01b039081169084161415610f78576040516303c5513160e21b8152600481018390527f00000000000000000000000000000000000000000000000000000000000000006001600160a01b031690630f1544c490602401602060405180830381865afa158015610f4d573d6000803e3d6000fd5b505050506040513d601f19601f82011682018060405250810190610f719190612036565b9050610451565b6040516309bca0e760e41b81526001600160a01b0384811660048301527f00000000000000000000000000000000000000000000000000000000000000001690639bca0e7090602401602060405180830381865afa158015610fde573d6000803e3d6000fd5b505050506040513d601f19601f820116820180604052508101906110029190611fb4565b604051634ceea75360e01b81526001600160a01b038581166004830152602482018590529190911690634ceea75390604401602060405180830381865afa158015611051573d6000803e3d6000fd5b505050506040513d601f19601f820116820180604052508101906108f19190612036565b6000806110828585611444565b80519091506110a35782816020015161109b9190612065565b9150506108f1565b805183116110c457604051631a93c68960e11b815260040160405180910390fd5b60006110d18686866114cb565b905060006110df83836114e6565b8051909150611102578481602001516110f89190612065565b93505050506108f1565b6000858103861690611114838361156b565b9050600061112a611125848a612065565b6115a2565b919091029998505050505050505050565b604080516001600160a01b038416602482015260448082018490528251808303909101815260649091019091526020810180516001600160e01b031663a9059cbb60e01b1790526107909084906115d4565b61119782826108f8565b610814576111af816001600160a01b031660146116a6565b6111ba8360206116a6565b6040516020016111cb9291906120b3565b60408051601f198184030181529082905262461bcd60e51b825261080191600401612128565b6111fb8282611842565b600082815260976020526040902061079090826118c8565b61121d82826118dd565b60008281526097602052604090206107909082611944565b600054610100900460ff1661125c5760405162461bcd60e51b81526004016108019061215b565b611264611959565b61126c611990565b565b60006108f183836119c3565b6000610451825490565b61128e82826108f8565b61081457604051634ca8886760e01b815260040160405180910390fd5b60c95463ffffffff9081169082168114156112c4575050565b60c9805463ffffffff191663ffffffff84811691821790925560408051928416835260208301919091527f416ace8e54446e11e0fc1628f84d8eb835ff3dbf3cdf1dec29135a4d1cb73296910160405180910390a15050565b81516113299082610e29565b81516080830151602084015161134a926001600160a01b039091169161113b565b8082600001516001600160a01b031683604001516001600160a01b03167f09cf8000f644f8fe85b5fa4e034c4611d089888d0760698d80e34e5a44354aa185608001518660a00151876060015161139e4290565b6113a89190611f8f565b60408051938452602084019290925263ffffffff169082015260600160405180910390a45050565b60608160000180548060200260200160405190810160405280929190818152602001828054801561142057602002820191906000526020600020905b81548152602001906001019080831161140c575b50505050509050919050565b60006108f183836119ed565b60006108f18383611a3c565b604080518082019091526000808252602082015260006114648484611b2f565b905083830280821061149957604051806040016040528082846114879190611f78565b81526020018281525092505050610451565b604051806040016040528060016114b08585900390565b6114ba9190611f78565b815260200191909152949350505050565b600081806114db576114db61204f565b838509949350505050565b6040805180820190915260008082526020820152818360200151106115335760405180604001604052808460000151815260200183856020015161152a9190611f78565b90529050610451565b60405180604001604052806001856000015161154f9190611f78565b8152602001611562856020015185900390565b90529392505050565b60008061158361157d84808403612065565b60010190565b90508284602001516115959190612065565b8451820217949350505050565b60006001815b60088110156115cd5783820260020382029150806115c581611ff3565b9150506115a8565b5092915050565b6000611629826040518060400160405280602081526020017f5361666545524332303a206c6f772d6c6576656c2063616c6c206661696c6564815250856001600160a01b0316611b3e9092919063ffffffff16565b80519091501561079057808060200190518101906116479190611fd1565b6107905760405162461bcd60e51b815260206004820152602a60248201527f5361666545524332303a204552433230206f7065726174696f6e20646964206e6044820152691bdd081cdd58d8d9595960b21b6064820152608401610801565b606060006116b58360026121a6565b6116c09060026121c5565b67ffffffffffffffff8111156116d8576116d86121dd565b6040519080825280601f01601f191660200182016040528015611702576020820181803683370190505b509050600360fc1b8160008151811061171d5761171d6121f3565b60200101906001600160f81b031916908160001a905350600f60fb1b8160018151811061174c5761174c6121f3565b60200101906001600160f81b031916908160001a90535060006117708460026121a6565b61177b9060016121c5565b90505b60018111156117f3576f181899199a1a9b1b9c1cb0b131b232b360811b85600f16601081106117af576117af6121f3565b1a60f81b8282815181106117c5576117c56121f3565b60200101906001600160f81b031916908160001a90535060049490941c936117ec81612209565b905061177e565b5083156108f15760405162461bcd60e51b815260206004820181905260248201527f537472696e67733a20686578206c656e67746820696e73756666696369656e746044820152606401610801565b61184c82826108f8565b6108145760008281526065602090815260408083206001600160a01b03851684529091529020805460ff191660011790556118843390565b6001600160a01b0316816001600160a01b0316837f2f8788117e7eff1d82e926ec794901d17c78024a50270940304540a733656f0d60405160405180910390a45050565b60006108f1836001600160a01b0384166119ed565b6118e782826108f8565b156108145760008281526065602090815260408083206001600160a01b0385168085529252808320805460ff1916905551339285917ff6391f5c32d9c69d2a47ea670b442974b53935d1edc7fd64eb21e047a839171b9190a45050565b60006108f1836001600160a01b038416611a3c565b600054610100900460ff166119805760405162461bcd60e51b81526004016108019061215b565b611988611b55565b61126c611b7c565b600054610100900460ff166119b75760405162461bcd60e51b81526004016108019061215b565b61126c62093a806112ab565b60008260000182815481106119da576119da6121f3565b9060005260206000200154905092915050565b6000818152600183016020526040812054611a3457508154600181810184556000848152602080822090930184905584548482528286019093526040902091909155610451565b506000610451565b60008181526001830160205260408120548015611b25576000611a60600183611f78565b8554909150600090611a7490600190611f78565b9050818114611ad9576000866000018281548110611a9457611a946121f3565b9060005260206000200154905080876000018481548110611ab757611ab76121f3565b6000918252602080832090910192909255918252600188019052604090208390555b8554869080611aea57611aea612220565b600190038181906000526020600020016000905590558560010160008681526020019081526020016000206000905560019350505050610451565b6000915050610451565b60006000198284099392505050565b6060611b4d8484600085611bd3565b949350505050565b600054610100900460ff1661126c5760405162461bcd60e51b81526004016108019061215b565b600054610100900460ff16611ba35760405162461bcd60e51b81526004016108019061215b565b611bbb60008051602061225383398151915280611cf9565b61126c60008051602061225383398151915233611d44565b606082471015611c345760405162461bcd60e51b815260206004820152602660248201527f416464726573733a20696e73756666696369656e742062616c616e636520666f6044820152651c8818d85b1b60d21b6064820152608401610801565b6001600160a01b0385163b611c8b5760405162461bcd60e51b815260206004820152601d60248201527f416464726573733a2063616c6c20746f206e6f6e2d636f6e74726163740000006044820152606401610801565b600080866001600160a01b03168587604051611ca79190612236565b60006040518083038185875af1925050503d8060008114611ce4576040519150601f19603f3d011682016040523d82523d6000602084013e611ce9565b606091505b50915091506104c6828286611d4e565b600082815260656020526040808220600101805490849055905190918391839186917fbd79b86ffe0ab8e8776151514217cd7cacd52c909f66475c3af44e129f0b00ff9190a4505050565b61081482826111f1565b60608315611d5d5750816108f1565b825115611d6d5782518084602001fd5b8160405162461bcd60e51b81526004016108019190612128565b600060208284031215611d9957600080fd5b81356001600160e01b0319811681146108f157600080fd5b6001600160a01b03811681146108d657600080fd5b600060208284031215611dd857600080fd5b81356108f181611db1565b6020808252825182820181905260009190848201906040850190845b81811015611e1b57835183529284019291840191600101611dff565b50909695505050505050565b600060208284031215611e3957600080fd5b5035919050565b600080600060608486031215611e5557600080fd5b8335611e6081611db1565b92506020840135611e7081611db1565b929592945050506040919091013590565b600080600060608486031215611e9657600080fd5b833592506020840135611e7081611db1565b60008060408385031215611ebb57600080fd5b823591506020830135611ecd81611db1565b809150509250929050565b60008060408385031215611eeb57600080fd5b50508035926020909101359150565b600060208284031215611f0c57600080fd5b813563ffffffff811681146108f157600080fd5b60008060408385031215611f3357600080fd5b8235611f3e81611db1565b946020939093013593505050565b634e487b7160e01b600052600160045260246000fd5b634e487b7160e01b600052601160045260246000fd5b600082821015611f8a57611f8a611f62565b500390565b600063ffffffff83811690831681811015611fac57611fac611f62565b039392505050565b600060208284031215611fc657600080fd5b81516108f181611db1565b600060208284031215611fe357600080fd5b815180151581146108f157600080fd5b600060001982141561200757612007611f62565b5060010190565b600063ffffffff80831681851680830382111561202d5761202d611f62565b01949350505050565b60006020828403121561204857600080fd5b5051919050565b634e487b7160e01b600052601260045260246000fd5b60008261208257634e487b7160e01b600052601260045260246000fd5b500490565b60005b838110156120a257818101518382015260200161208a565b83811115610a295750506000910152565b7f416363657373436f6e74726f6c3a206163636f756e74200000000000000000008152600083516120eb816017850160208801612087565b7001034b99036b4b9b9b4b733903937b6329607d1b601791840191820152835161211c816028840160208801612087565b01602801949350505050565b6020815260008251806020840152612147816040850160208701612087565b601f01601f19169190910160400192915050565b6020808252602b908201527f496e697469616c697a61626c653a20636f6e7472616374206973206e6f74206960408201526a6e697469616c697a696e6760a81b606082015260800190565b60008160001904831182151516156121c0576121c0611f62565b500290565b600082198211156121d8576121d8611f62565b500190565b634e487b7160e01b600052604160045260246000fd5b634e487b7160e01b600052603260045260246000fd5b60008161221857612218611f62565b506000190190565b634e487b7160e01b600052603160045260246000fd5b60008251612248818460208701612087565b919091019291505056fe2172861495e7b85edac73e3cd5fbb42dd675baadf627720e687bcfdaca025096a164736f6c634300080c000a",
  "devdoc": {
    "details": "Pending Withdrawals contract",
    "events": {
      "LockDurationUpdated(uint32,uint32)": {
        "details": "triggered when the lock duration is updated"
      },
      "WithdrawalCancelled(address,address,uint256,uint256,uint256,uint32)": {
        "details": "triggered when a provider cancels a liquidity withdrawal request"
      },
      "WithdrawalCompleted(bytes32,address,address,uint256,uint256,uint256,uint32)": {
        "details": "triggered when a liquidity withdrawal request has been completed"
      },
      "WithdrawalInitiated(address,address,uint256,uint256,uint256)": {
        "details": "triggered when a provider requests to initiate a liquidity withdrawal"
      }
    },
    "kind": "dev",
    "methods": {
      "cancelWithdrawal(address,uint256)": {
        "details": "cancels a withdrawal request requirements: - the caller must be the network contract - the provider must have already initiated a withdrawal and received the specified id"
      },
      "completeWithdrawal(bytes32,address,uint256)": {
        "details": "completes a withdrawal request and returns the pool token and its transferred amount requirements: - the caller must be the network contract - the provider must have already initiated a withdrawal and received the specified id - the lock duration has ended"
      },
      "constructor": {
        "details": "a \"virtual\" constructor that is only used to set immutable state variables"
      },
      "getRoleAdmin(bytes32)": {
        "details": "Returns the admin role that controls `role`. See {grantRole} and {revokeRole}. To change a role's admin, use {_setRoleAdmin}."
      },
      "getRoleMember(bytes32,uint256)": {
        "details": "Returns one of the accounts that have `role`. `index` must be a value between 0 and {getRoleMemberCount}, non-inclusive. Role bearers are not sorted in any particular way, and their ordering may change at any point. WARNING: When using {getRoleMember} and {getRoleMemberCount}, make sure you perform all queries on the same block. See the following https://forum.openzeppelin.com/t/iterating-over-elements-on-enumerableset-in-openzeppelin-contracts/2296[forum post] for more information."
      },
      "getRoleMemberCount(bytes32)": {
        "details": "Returns the number of accounts that have `role`. Can be used together with {getRoleMember} to enumerate all bearers of a role."
      },
      "grantRole(bytes32,address)": {
        "details": "Grants `role` to `account`. If `account` had not been already granted `role`, emits a {RoleGranted} event. Requirements: - the caller must have ``role``'s admin role."
      },
      "hasRole(bytes32,address)": {
        "details": "Returns `true` if `account` has been granted `role`."
      },
      "initWithdrawal(address,address,uint256)": {
        "details": "initiates liquidity withdrawal requirements: - the caller must be the network contract"
      },
      "initialize()": {
        "details": "fully initializes the contract and its parents"
      },
      "isReadyForWithdrawal(uint256)": {
        "details": "returns whether the given request is ready for withdrawal"
      },
      "lockDuration()": {
        "details": "returns the lock duration"
      },
      "renounceRole(bytes32,address)": {
        "details": "Revokes `role` from the calling account. Roles are often managed via {grantRole} and {revokeRole}: this function's purpose is to provide a mechanism for accounts to lose their privileges if they are compromised (such as when a trusted device is misplaced). If the calling account had been revoked `role`, emits a {RoleRevoked} event. Requirements: - the caller must be `account`."
      },
      "revokeRole(bytes32,address)": {
        "details": "Revokes `role` from `account`. If `account` had been granted `role`, emits a {RoleRevoked} event. Requirements: - the caller must have ``role``'s admin role."
      },
      "roleAdmin()": {
        "details": "returns the admin role"
      },
      "setLockDuration(uint32)": {
        "details": "sets the lock duration notes: - updating it will affect existing locked positions retroactively requirements: - the caller must be the admin of the contract"
      },
      "supportsInterface(bytes4)": {
        "details": "See {IERC165-supportsInterface}."
      },
      "withdrawalRequest(uint256)": {
        "details": "returns the pending withdrawal request with the specified ID"
      },
      "withdrawalRequestCount(address)": {
        "details": "returns the pending withdrawal requests count for a specific provider"
      },
      "withdrawalRequestIds(address)": {
        "details": "returns the pending withdrawal requests IDs for a specific provider"
      }
    },
    "version": 1
  },
  "userdoc": {
    "kind": "user",
    "methods": {},
    "version": 1
  },
  "storageLayout": {
    "storage": [
      {
        "astId": 644,
        "contract": "contracts/network/PendingWithdrawals.sol:PendingWithdrawals",
        "label": "_initialized",
        "offset": 0,
        "slot": "0",
        "type": "t_bool"
      },
      {
        "astId": 647,
        "contract": "contracts/network/PendingWithdrawals.sol:PendingWithdrawals",
        "label": "_initializing",
        "offset": 1,
        "slot": "0",
        "type": "t_bool"
      },
      {
        "astId": 1165,
        "contract": "contracts/network/PendingWithdrawals.sol:PendingWithdrawals",
        "label": "__gap",
        "offset": 0,
        "slot": "1",
        "type": "t_array(t_uint256)50_storage"
      },
      {
        "astId": 1412,
        "contract": "contracts/network/PendingWithdrawals.sol:PendingWithdrawals",
        "label": "__gap",
        "offset": 0,
        "slot": "51",
        "type": "t_array(t_uint256)50_storage"
      },
      {
        "astId": 250,
        "contract": "contracts/network/PendingWithdrawals.sol:PendingWithdrawals",
        "label": "_roles",
        "offset": 0,
        "slot": "101",
        "type": "t_mapping(t_bytes32,t_struct(RoleData)245_storage)"
      },
      {
        "astId": 538,
        "contract": "contracts/network/PendingWithdrawals.sol:PendingWithdrawals",
        "label": "__gap",
        "offset": 0,
        "slot": "102",
        "type": "t_array(t_uint256)49_storage"
      },
      {
        "astId": 99,
        "contract": "contracts/network/PendingWithdrawals.sol:PendingWithdrawals",
        "label": "_roleMembers",
        "offset": 0,
        "slot": "151",
        "type": "t_mapping(t_bytes32,t_struct(AddressSet)1737_storage)"
      },
      {
        "astId": 209,
        "contract": "contracts/network/PendingWithdrawals.sol:PendingWithdrawals",
        "label": "__gap",
        "offset": 0,
        "slot": "152",
        "type": "t_array(t_uint256)49_storage"
      },
      {
        "astId": 16058,
        "contract": "contracts/network/PendingWithdrawals.sol:PendingWithdrawals",
        "label": "_lockDuration",
        "offset": 0,
        "slot": "201",
        "type": "t_uint32"
      },
      {
        "astId": 16060,
        "contract": "contracts/network/PendingWithdrawals.sol:PendingWithdrawals",
        "label": "_nextWithdrawalRequestId",
        "offset": 0,
        "slot": "202",
        "type": "t_uint256"
      },
      {
        "astId": 16065,
        "contract": "contracts/network/PendingWithdrawals.sol:PendingWithdrawals",
        "label": "_withdrawalRequestIdsByProvider",
        "offset": 0,
        "slot": "203",
        "type": "t_mapping(t_address,t_struct(UintSet)1894_storage)"
      },
      {
        "astId": 16070,
        "contract": "contracts/network/PendingWithdrawals.sol:PendingWithdrawals",
        "label": "_withdrawalRequests",
        "offset": 0,
        "slot": "204",
        "type": "t_mapping(t_uint256,t_struct(WithdrawalRequest)17387_storage)"
      },
      {
        "astId": 16076,
        "contract": "contracts/network/PendingWithdrawals.sol:PendingWithdrawals",
        "label": "__gap",
        "offset": 0,
        "slot": "205",
        "type": "t_array(t_uint256)46_storage"
      }
    ],
    "types": {
      "t_address": {
        "encoding": "inplace",
        "label": "address",
        "numberOfBytes": "20"
      },
      "t_array(t_bytes32)dyn_storage": {
        "base": "t_bytes32",
        "encoding": "dynamic_array",
        "label": "bytes32[]",
        "numberOfBytes": "32"
      },
      "t_array(t_uint256)46_storage": {
        "base": "t_uint256",
        "encoding": "inplace",
        "label": "uint256[46]",
        "numberOfBytes": "1472"
      },
      "t_array(t_uint256)49_storage": {
        "base": "t_uint256",
        "encoding": "inplace",
        "label": "uint256[49]",
        "numberOfBytes": "1568"
      },
      "t_array(t_uint256)50_storage": {
        "base": "t_uint256",
        "encoding": "inplace",
        "label": "uint256[50]",
        "numberOfBytes": "1600"
      },
      "t_bool": {
        "encoding": "inplace",
        "label": "bool",
        "numberOfBytes": "1"
      },
      "t_bytes32": {
        "encoding": "inplace",
        "label": "bytes32",
        "numberOfBytes": "32"
      },
      "t_contract(IPoolToken)24386": {
        "encoding": "inplace",
        "label": "contract IPoolToken",
        "numberOfBytes": "20"
      },
      "t_contract(Token)28365": {
        "encoding": "inplace",
        "label": "contract Token",
        "numberOfBytes": "20"
      },
      "t_mapping(t_address,t_bool)": {
        "encoding": "mapping",
        "key": "t_address",
        "label": "mapping(address => bool)",
        "numberOfBytes": "32",
        "value": "t_bool"
      },
      "t_mapping(t_address,t_struct(UintSet)1894_storage)": {
        "encoding": "mapping",
        "key": "t_address",
        "label": "mapping(address => struct EnumerableSetUpgradeable.UintSet)",
        "numberOfBytes": "32",
        "value": "t_struct(UintSet)1894_storage"
      },
      "t_mapping(t_bytes32,t_struct(AddressSet)1737_storage)": {
        "encoding": "mapping",
        "key": "t_bytes32",
        "label": "mapping(bytes32 => struct EnumerableSetUpgradeable.AddressSet)",
        "numberOfBytes": "32",
        "value": "t_struct(AddressSet)1737_storage"
      },
      "t_mapping(t_bytes32,t_struct(RoleData)245_storage)": {
        "encoding": "mapping",
        "key": "t_bytes32",
        "label": "mapping(bytes32 => struct AccessControlUpgradeable.RoleData)",
        "numberOfBytes": "32",
        "value": "t_struct(RoleData)245_storage"
      },
      "t_mapping(t_bytes32,t_uint256)": {
        "encoding": "mapping",
        "key": "t_bytes32",
        "label": "mapping(bytes32 => uint256)",
        "numberOfBytes": "32",
        "value": "t_uint256"
      },
      "t_mapping(t_uint256,t_struct(WithdrawalRequest)17387_storage)": {
        "encoding": "mapping",
        "key": "t_uint256",
        "label": "mapping(uint256 => struct WithdrawalRequest)",
        "numberOfBytes": "32",
        "value": "t_struct(WithdrawalRequest)17387_storage"
      },
      "t_struct(AddressSet)1737_storage": {
        "encoding": "inplace",
        "label": "struct EnumerableSetUpgradeable.AddressSet",
        "members": [
          {
            "astId": 1736,
            "contract": "contracts/network/PendingWithdrawals.sol:PendingWithdrawals",
            "label": "_inner",
            "offset": 0,
            "slot": "0",
            "type": "t_struct(Set)1436_storage"
          }
        ],
        "numberOfBytes": "64"
      },
      "t_struct(RoleData)245_storage": {
        "encoding": "inplace",
        "label": "struct AccessControlUpgradeable.RoleData",
        "members": [
          {
            "astId": 242,
            "contract": "contracts/network/PendingWithdrawals.sol:PendingWithdrawals",
            "label": "members",
            "offset": 0,
            "slot": "0",
            "type": "t_mapping(t_address,t_bool)"
          },
          {
            "astId": 244,
            "contract": "contracts/network/PendingWithdrawals.sol:PendingWithdrawals",
            "label": "adminRole",
            "offset": 0,
            "slot": "1",
            "type": "t_bytes32"
          }
        ],
        "numberOfBytes": "64"
      },
      "t_struct(Set)1436_storage": {
        "encoding": "inplace",
        "label": "struct EnumerableSetUpgradeable.Set",
        "members": [
          {
            "astId": 1431,
            "contract": "contracts/network/PendingWithdrawals.sol:PendingWithdrawals",
            "label": "_values",
            "offset": 0,
            "slot": "0",
            "type": "t_array(t_bytes32)dyn_storage"
          },
          {
            "astId": 1435,
            "contract": "contracts/network/PendingWithdrawals.sol:PendingWithdrawals",
            "label": "_indexes",
            "offset": 0,
            "slot": "1",
            "type": "t_mapping(t_bytes32,t_uint256)"
          }
        ],
        "numberOfBytes": "64"
      },
      "t_struct(UintSet)1894_storage": {
        "encoding": "inplace",
        "label": "struct EnumerableSetUpgradeable.UintSet",
        "members": [
          {
            "astId": 1893,
            "contract": "contracts/network/PendingWithdrawals.sol:PendingWithdrawals",
            "label": "_inner",
            "offset": 0,
            "slot": "0",
            "type": "t_struct(Set)1436_storage"
          }
        ],
        "numberOfBytes": "64"
      },
      "t_struct(WithdrawalRequest)17387_storage": {
        "encoding": "inplace",
        "label": "struct WithdrawalRequest",
        "members": [
          {
            "astId": 17374,
            "contract": "contracts/network/PendingWithdrawals.sol:PendingWithdrawals",
            "label": "provider",
            "offset": 0,
            "slot": "0",
            "type": "t_address"
          },
          {
            "astId": 17377,
            "contract": "contracts/network/PendingWithdrawals.sol:PendingWithdrawals",
            "label": "poolToken",
            "offset": 0,
            "slot": "1",
            "type": "t_contract(IPoolToken)24386"
          },
          {
            "astId": 17380,
            "contract": "contracts/network/PendingWithdrawals.sol:PendingWithdrawals",
            "label": "reserveToken",
            "offset": 0,
            "slot": "2",
            "type": "t_contract(Token)28365"
          },
          {
            "astId": 17382,
            "contract": "contracts/network/PendingWithdrawals.sol:PendingWithdrawals",
            "label": "createdAt",
            "offset": 20,
            "slot": "2",
            "type": "t_uint32"
          },
          {
            "astId": 17384,
            "contract": "contracts/network/PendingWithdrawals.sol:PendingWithdrawals",
            "label": "poolTokenAmount",
            "offset": 0,
            "slot": "3",
            "type": "t_uint256"
          },
          {
            "astId": 17386,
            "contract": "contracts/network/PendingWithdrawals.sol:PendingWithdrawals",
            "label": "reserveTokenAmount",
            "offset": 0,
            "slot": "4",
            "type": "t_uint256"
          }
        ],
        "numberOfBytes": "160"
      },
      "t_uint256": {
        "encoding": "inplace",
        "label": "uint256",
        "numberOfBytes": "32"
      },
      "t_uint32": {
        "encoding": "inplace",
        "label": "uint32",
        "numberOfBytes": "4"
      }
    }
  }
}