{
  "address": "0xE6C67aeEA87ef2aF3A161C26C7E1707eb11afB05",
  "abi": [
    {
      "inputs": [
        {
          "internalType": "contract IBancorNetwork",
          "name": "initNetwork",
          "type": "address"
        }
      ],
      "stateMutability": "nonpayable",
      "type": "constructor"
    },
    {
      "inputs": [],
      "name": "AccessDenied",
      "type": "error"
    },
    {
      "inputs": [],
      "name": "InvalidAddress",
      "type": "error"
    },
    {
      "inputs": [],
      "name": "InvalidPool",
      "type": "error"
    },
    {
      "inputs": [],
      "name": "InvalidPoolCollection",
      "type": "error"
    },
    {
      "inputs": [],
      "name": "UnsupportedVersion",
      "type": "error"
    },
    {
      "anonymous": false,
      "inputs": [
        {
          "indexed": true,
          "internalType": "contract Token",
          "name": "pool",
          "type": "address"
        },
        {
          "indexed": false,
          "internalType": "contract IPoolCollection",
          "name": "prevPoolCollection",
          "type": "address"
        },
        {
          "indexed": false,
          "internalType": "contract IPoolCollection",
          "name": "newPoolCollection",
          "type": "address"
        }
      ],
      "name": "PoolUpgraded",
      "type": "event"
    },
    {
      "anonymous": false,
      "inputs": [
        {
          "indexed": true,
          "internalType": "bytes32",
          "name": "role",
          "type": "bytes32"
        },
        {
          "indexed": true,
          "internalType": "bytes32",
          "name": "previousAdminRole",
          "type": "bytes32"
        },
        {
          "indexed": true,
          "internalType": "bytes32",
          "name": "newAdminRole",
          "type": "bytes32"
        }
      ],
      "name": "RoleAdminChanged",
      "type": "event"
    },
    {
      "anonymous": false,
      "inputs": [
        {
          "indexed": true,
          "internalType": "bytes32",
          "name": "role",
          "type": "bytes32"
        },
        {
          "indexed": true,
          "internalType": "address",
          "name": "account",
          "type": "address"
        },
        {
          "indexed": true,
          "internalType": "address",
          "name": "sender",
          "type": "address"
        }
      ],
      "name": "RoleGranted",
      "type": "event"
    },
    {
      "anonymous": false,
      "inputs": [
        {
          "indexed": true,
          "internalType": "bytes32",
          "name": "role",
          "type": "bytes32"
        },
        {
          "indexed": true,
          "internalType": "address",
          "name": "account",
          "type": "address"
        },
        {
          "indexed": true,
          "internalType": "address",
          "name": "sender",
          "type": "address"
        }
      ],
      "name": "RoleRevoked",
      "type": "event"
    },
    {
      "inputs": [],
      "name": "DEFAULT_ADMIN_ROLE",
      "outputs": [
        {
          "internalType": "bytes32",
          "name": "",
          "type": "bytes32"
        }
      ],
      "stateMutability": "view",
      "type": "function"
    },
    {
      "inputs": [
        {
          "internalType": "bytes32",
          "name": "role",
          "type": "bytes32"
        }
      ],
      "name": "getRoleAdmin",
      "outputs": [
        {
          "internalType": "bytes32",
          "name": "",
          "type": "bytes32"
        }
      ],
      "stateMutability": "view",
      "type": "function"
    },
    {
      "inputs": [
        {
          "internalType": "bytes32",
          "name": "role",
          "type": "bytes32"
        },
        {
          "internalType": "uint256",
          "name": "index",
          "type": "uint256"
        }
      ],
      "name": "getRoleMember",
      "outputs": [
        {
          "internalType": "address",
          "name": "",
          "type": "address"
        }
      ],
      "stateMutability": "view",
      "type": "function"
    },
    {
      "inputs": [
        {
          "internalType": "bytes32",
          "name": "role",
          "type": "bytes32"
        }
      ],
      "name": "getRoleMemberCount",
      "outputs": [
        {
          "internalType": "uint256",
          "name": "",
          "type": "uint256"
        }
      ],
      "stateMutability": "view",
      "type": "function"
    },
    {
      "inputs": [
        {
          "internalType": "bytes32",
          "name": "role",
          "type": "bytes32"
        },
        {
          "internalType": "address",
          "name": "account",
          "type": "address"
        }
      ],
      "name": "grantRole",
      "outputs": [],
      "stateMutability": "nonpayable",
      "type": "function"
    },
    {
      "inputs": [
        {
          "internalType": "bytes32",
          "name": "role",
          "type": "bytes32"
        },
        {
          "internalType": "address",
          "name": "account",
          "type": "address"
        }
      ],
      "name": "hasRole",
      "outputs": [
        {
          "internalType": "bool",
          "name": "",
          "type": "bool"
        }
      ],
      "stateMutability": "view",
      "type": "function"
    },
    {
      "inputs": [],
      "name": "initialize",
      "outputs": [],
      "stateMutability": "nonpayable",
      "type": "function"
    },
    {
      "inputs": [
        {
          "internalType": "bytes32",
          "name": "role",
          "type": "bytes32"
        },
        {
          "internalType": "address",
          "name": "account",
          "type": "address"
        }
      ],
      "name": "renounceRole",
      "outputs": [],
      "stateMutability": "nonpayable",
      "type": "function"
    },
    {
      "inputs": [
        {
          "internalType": "bytes32",
          "name": "role",
          "type": "bytes32"
        },
        {
          "internalType": "address",
          "name": "account",
          "type": "address"
        }
      ],
      "name": "revokeRole",
      "outputs": [],
      "stateMutability": "nonpayable",
      "type": "function"
    },
    {
      "inputs": [],
      "name": "roleAdmin",
      "outputs": [
        {
          "internalType": "bytes32",
          "name": "",
          "type": "bytes32"
        }
      ],
      "stateMutability": "pure",
      "type": "function"
    },
    {
      "inputs": [
        {
          "internalType": "bytes4",
          "name": "interfaceId",
          "type": "bytes4"
        }
      ],
      "name": "supportsInterface",
      "outputs": [
        {
          "internalType": "bool",
          "name": "",
          "type": "bool"
        }
      ],
      "stateMutability": "view",
      "type": "function"
    },
    {
      "inputs": [
        {
          "internalType": "contract Token",
          "name": "pool",
          "type": "address"
        }
      ],
      "name": "upgradePool",
      "outputs": [
        {
          "internalType": "contract IPoolCollection",
          "name": "",
          "type": "address"
        }
      ],
      "stateMutability": "nonpayable",
      "type": "function"
    },
    {
      "inputs": [],
      "name": "version",
      "outputs": [
        {
          "internalType": "uint16",
          "name": "",
          "type": "uint16"
        }
      ],
      "stateMutability": "pure",
      "type": "function"
    }
  ],
  "transactionHash": "0x537bc21e58d4c136c323e56d2295b36936d9eb66cb4d97a90ab31197194f8a20",
  "args": [
    "0x093C761bd5B8f71d72cBC74A72cc9c6aEDC8EE49"
  ],
  "numDeployments": 1,
  "solcInputHash": "dcea142469df7f75d330e08f80ea8523",
  "bytecode": "0x60a060405234801561001057600080fd5b5060405161161f38038061161f83398101604081905261002f91610075565b806100398161004b565b506001600160a01b03166080526100a5565b6001600160a01b0381166100725760405163e6c4247b60e01b815260040160405180910390fd5b50565b60006020828403121561008757600080fd5b81516001600160a01b038116811461009e57600080fd5b9392505050565b6080516115516100ce600039600081816103f901528181610469015261058901526115516000f3fe608060405234801561001057600080fd5b50600436106100cf5760003560e01c80639010d07c1161008c578063a217fddf11610066578063a217fddf146101d0578063a2ff484f146101d8578063ca15c873146101eb578063d547741f146101fe57600080fd5b80639010d07c1461016c57806391d148541461019757806393867fb5146101aa57600080fd5b806301ffc9a7146100d4578063248a9ca3146100fc5780632f2ff15d1461012d57806336568abe1461014257806354fd4d50146101555780638129fc1c14610164575b600080fd5b6100e76100e2366004610fa3565b610211565b60405190151581526020015b60405180910390f35b61011f61010a366004610fcd565b60009081526065602052604090206001015490565b6040519081526020016100f3565b61014061013b366004610ffb565b61023c565b005b610140610150366004610ffb565b610267565b604051600181526020016100f3565b6101406102ea565b61017f61017a36600461102b565b6103ab565b6040516001600160a01b0390911681526020016100f3565b6100e76101a5366004610ffb565b6103ca565b7f2172861495e7b85edac73e3cd5fbb42dd675baadf627720e687bcfdaca02509661011f565b61011f600081565b61017f6101e636600461104d565b6103f5565b61011f6101f9366004610fcd565b610712565b61014061020c366004610ffb565b610729565b60006001600160e01b03198216635a05180f60e01b148061023657506102368261074f565b92915050565b6000828152606560205260409020600101546102588133610784565b61026283836107e8565b505050565b6001600160a01b03811633146102dc5760405162461bcd60e51b815260206004820152602f60248201527f416363657373436f6e74726f6c3a2063616e206f6e6c792072656e6f756e636560448201526e103937b632b9903337b91039b2b63360891b60648201526084015b60405180910390fd5b6102e6828261080a565b5050565b600054610100900460ff166103055760005460ff1615610309565b303b155b61036c5760405162461bcd60e51b815260206004820152602e60248201527f496e697469616c697a61626c653a20636f6e747261637420697320616c72656160448201526d191e481a5b9a5d1a585b1a5e995960921b60648201526084016102d3565b600054610100900460ff1615801561038e576000805461ffff19166101011790555b61039661082c565b80156103a8576000805461ff00191690555b50565b60008281526097602052604081206103c39083610865565b9392505050565b60009182526065602090815260408084206001600160a01b0393909316845291905290205460ff1690565b60007f000000000000000000000000000000000000000000000000000000000000000061042181610871565b6001600160a01b0383166104475760405162820f3560e61b815260040160405180910390fd5b6040516309bca0e760e41b81526001600160a01b0384811660048301526000917f000000000000000000000000000000000000000000000000000000000000000090911690639bca0e7090602401602060405180830381865afa1580156104b2573d6000803e3d6000fd5b505050506040513d601f19601f820116820180604052508101906104d6919061106a565b90506001600160a01b0381166104fe5760405162820f3560e61b815260040160405180910390fd5b6000816001600160a01b031663b1dd61b66040518163ffffffff1660e01b8152600401602060405180830381865afa15801561053e573d6000803e3d6000fd5b505050506040513d601f19601f820116820180604052508101906105629190611087565b60405163673cea6960e01b815261ffff821660048201529091506000906001600160a01b037f0000000000000000000000000000000000000000000000000000000000000000169063673cea6990602401602060405180830381865afa1580156105d0573d6000803e3d6000fd5b505050506040513d601f19601f820116820180604052508101906105f4919061106a565b9050826001600160a01b0316816001600160a01b031614156106295760405163386c33d760e11b815260040160405180910390fd5b826001600160a01b03166354fd4d506040518163ffffffff1660e01b8152600401602060405180830381865afa158015610667573d6000803e3d6000fd5b505050506040513d601f19601f8201168201806040525081019061068b9190611087565b61ffff16600114156106f3576106a286848361089a565b604080516001600160a01b03858116825283811660208301528816917f5824452d039893fd42f7f924b3565565211750abd6066eb2e5cf290909d433d4910160405180910390a2935061070c915050565b60405163b01318a560e01b815260040160405180910390fd5b50919050565b600081815260976020526040812061023690610a4c565b6000828152606560205260409020600101546107458133610784565b610262838361080a565b60006001600160e01b03198216637965db0b60e01b148061023657506301ffc9a760e01b6001600160e01b0319831614610236565b61078e82826103ca565b6102e6576107a6816001600160a01b03166014610a56565b6107b1836020610a56565b6040516020016107c29291906110db565b60408051601f198184030181529082905262461bcd60e51b82526102d391600401611150565b6107f28282610bf2565b60008281526097602052604090206102629082610c78565b6108148282610c8d565b60008281526097602052604090206102629082610cf4565b600054610100900460ff166108535760405162461bcd60e51b81526004016102d390611183565b61085b610d09565b610863610d40565b565b60006103c38383610d67565b336001600160a01b038216146103a857604051634ca8886760e01b815260040160405180910390fd5b6040516309b77dbd60e11b81526001600160a01b0384811660048301526000919084169063136efb7a9060240161016060405180830381865afa1580156108e5573d6000803e3d6000fd5b505050506040513d601f19601f8201168201806040525081019061090991906112f6565b6040805160e08101825282516001600160a01b03908116825260208085015163ffffffff1681840152848401511515838501526060808601511515818501526080808701519085015260a080870151908501528451908101855260c080870180515183528051840151938301939093529151850151818601529083015291516334f7c90960e21b815287831660048201528583166024820152929350919085169063d3df242490604401600060405180830381600087803b1580156109cd57600080fd5b505af11580156109e1573d6000803e3d6000fd5b505060405163259c3da560e11b81526001600160a01b0386169250634b387b4a9150610a1390889085906004016113e7565b600060405180830381600087803b158015610a2d57600080fd5b505af1158015610a41573d6000803e3d6000fd5b505050505050505050565b6000610236825490565b60606000610a658360026114b3565b610a709060026114d2565b67ffffffffffffffff811115610a8857610a886111ce565b6040519080825280601f01601f191660200182016040528015610ab2576020820181803683370190505b509050600360fc1b81600081518110610acd57610acd6114ea565b60200101906001600160f81b031916908160001a905350600f60fb1b81600181518110610afc57610afc6114ea565b60200101906001600160f81b031916908160001a9053506000610b208460026114b3565b610b2b9060016114d2565b90505b6001811115610ba3576f181899199a1a9b1b9c1cb0b131b232b360811b85600f1660108110610b5f57610b5f6114ea565b1a60f81b828281518110610b7557610b756114ea565b60200101906001600160f81b031916908160001a90535060049490941c93610b9c81611500565b9050610b2e565b5083156103c35760405162461bcd60e51b815260206004820181905260248201527f537472696e67733a20686578206c656e67746820696e73756666696369656e7460448201526064016102d3565b610bfc82826103ca565b6102e65760008281526065602090815260408083206001600160a01b03851684529091529020805460ff19166001179055610c343390565b6001600160a01b0316816001600160a01b0316837f2f8788117e7eff1d82e926ec794901d17c78024a50270940304540a733656f0d60405160405180910390a45050565b60006103c3836001600160a01b038416610d91565b610c9782826103ca565b156102e65760008281526065602090815260408083206001600160a01b0385168085529252808320805460ff1916905551339285917ff6391f5c32d9c69d2a47ea670b442974b53935d1edc7fd64eb21e047a839171b9190a45050565b60006103c3836001600160a01b038416610de0565b600054610100900460ff16610d305760405162461bcd60e51b81526004016102d390611183565b610d38610d40565b610863610ed3565b600054610100900460ff166108635760405162461bcd60e51b81526004016102d390611183565b6000826000018281548110610d7e57610d7e6114ea565b9060005260206000200154905092915050565b6000818152600183016020526040812054610dd857508154600181810184556000848152602080822090930184905584548482528286019093526040902091909155610236565b506000610236565b60008181526001830160205260408120548015610ec9576000610e04600183611517565b8554909150600090610e1890600190611517565b9050818114610e7d576000866000018281548110610e3857610e386114ea565b9060005260206000200154905080876000018481548110610e5b57610e5b6114ea565b6000918252602080832090910192909255918252600188019052604090208390555b8554869080610e8e57610e8e61152e565b600190038181906000526020600020016000905590558560010160008681526020019081526020016000206000905560019350505050610236565b6000915050610236565b600054610100900460ff16610efa5760405162461bcd60e51b81526004016102d390611183565b610f247f2172861495e7b85edac73e3cd5fbb42dd675baadf627720e687bcfdaca02509680610f4e565b6108637f2172861495e7b85edac73e3cd5fbb42dd675baadf627720e687bcfdaca02509633610f99565b600082815260656020526040808220600101805490849055905190918391839186917fbd79b86ffe0ab8e8776151514217cd7cacd52c909f66475c3af44e129f0b00ff9190a4505050565b6102e682826107e8565b600060208284031215610fb557600080fd5b81356001600160e01b0319811681146103c357600080fd5b600060208284031215610fdf57600080fd5b5035919050565b6001600160a01b03811681146103a857600080fd5b6000806040838503121561100e57600080fd5b82359150602083013561102081610fe6565b809150509250929050565b6000806040838503121561103e57600080fd5b50508035926020909101359150565b60006020828403121561105f57600080fd5b81356103c381610fe6565b60006020828403121561107c57600080fd5b81516103c381610fe6565b60006020828403121561109957600080fd5b815161ffff811681146103c357600080fd5b60005b838110156110c65781810151838201526020016110ae565b838111156110d5576000848401525b50505050565b7f416363657373436f6e74726f6c3a206163636f756e74200000000000000000008152600083516111138160178501602088016110ab565b7001034b99036b4b9b9b4b733903937b6329607d1b60179184019182015283516111448160288401602088016110ab565b01602801949350505050565b602081526000825180602084015261116f8160408501602087016110ab565b601f01601f19169190910160400192915050565b6020808252602b908201527f496e697469616c697a61626c653a20636f6e7472616374206973206e6f74206960408201526a6e697469616c697a696e6760a81b606082015260800190565b634e487b7160e01b600052604160045260246000fd5b60405160e0810167ffffffffffffffff8111828210171561121557634e487b7160e01b600052604160045260246000fd5b60405290565b6040805190810167ffffffffffffffff8111828210171561121557634e487b7160e01b600052604160045260246000fd5b805163ffffffff8116811461126057600080fd5b919050565b8051801515811461126057600080fd5b80516001600160701b038116811461126057600080fd5b60006060828403121561129e57600080fd5b6040516060810181811067ffffffffffffffff821117156112cf57634e487b7160e01b600052604160045260246000fd5b80604052508091508251815260208301516020820152604083015160408201525092915050565b600081830361016081121561130a57600080fd5b6113126111e4565b835161131d81610fe6565b815261132b6020850161124c565b602082015261133c60408501611265565b604082015261134d60608501611265565b60608201526060607f198301121561136457600080fd5b61136c61121b565b6113786080860161124c565b81526040609f198401121561138c57600080fd5b61139461121b565b92506113a260a08601611275565b83526113b060c08601611275565b60208401528260208201528060808301525060e084015160a08201526113da85610100860161128c565b60c0820152949350505050565b60006101808201905060018060a01b0380851683528084511660208401525063ffffffff6020840151166040830152604083015115156060830152606083015115156080830152608083015161146860a0840182805163ffffffff16825260209081015180516001600160701b039081168385015291015116604090910152565b5060a083015161010083015260c090920151805161012083015260208101516101408301526040015161016090910152919050565b634e487b7160e01b600052601160045260246000fd5b60008160001904831182151516156114cd576114cd61149d565b500290565b600082198211156114e5576114e561149d565b500190565b634e487b7160e01b600052603260045260246000fd5b60008161150f5761150f61149d565b506000190190565b6000828210156115295761152961149d565b500390565b634e487b7160e01b600052603160045260246000fdfea164736f6c634300080c000a",
  "devdoc": {
    "details": "Pool Collection Upgrader contract",
    "events": {
      "PoolUpgraded(address,address,address)": {
        "details": "triggered when an existing pool is upgraded"
      }
    },
    "kind": "dev",
    "methods": {
      "constructor": {
        "details": "a \"virtual\" constructor that is only used to set immutable state variables"
      },
      "getRoleAdmin(bytes32)": {
        "details": "Returns the admin role that controls `role`. See {grantRole} and {revokeRole}. To change a role's admin, use {_setRoleAdmin}."
      },
      "getRoleMember(bytes32,uint256)": {
        "details": "Returns one of the accounts that have `role`. `index` must be a value between 0 and {getRoleMemberCount}, non-inclusive. Role bearers are not sorted in any particular way, and their ordering may change at any point. WARNING: When using {getRoleMember} and {getRoleMemberCount}, make sure you perform all queries on the same block. See the following https://forum.openzeppelin.com/t/iterating-over-elements-on-enumerableset-in-openzeppelin-contracts/2296[forum post] for more information."
      },
      "getRoleMemberCount(bytes32)": {
        "details": "Returns the number of accounts that have `role`. Can be used together with {getRoleMember} to enumerate all bearers of a role."
      },
      "grantRole(bytes32,address)": {
        "details": "Grants `role` to `account`. If `account` had not been already granted `role`, emits a {RoleGranted} event. Requirements: - the caller must have ``role``'s admin role."
      },
      "hasRole(bytes32,address)": {
        "details": "Returns `true` if `account` has been granted `role`."
      },
      "initialize()": {
        "details": "fully initializes the contract and its parents"
      },
      "renounceRole(bytes32,address)": {
        "details": "Revokes `role` from the calling account. Roles are often managed via {grantRole} and {revokeRole}: this function's purpose is to provide a mechanism for accounts to lose their privileges if they are compromised (such as when a trusted device is misplaced). If the calling account had been revoked `role`, emits a {RoleRevoked} event. Requirements: - the caller must be `account`."
      },
      "revokeRole(bytes32,address)": {
        "details": "Revokes `role` from `account`. If `account` had been granted `role`, emits a {RoleRevoked} event. Requirements: - the caller must have ``role``'s admin role."
      },
      "roleAdmin()": {
        "details": "returns the admin role"
      },
      "supportsInterface(bytes4)": {
        "details": "See {IERC165-supportsInterface}."
      },
      "upgradePool(address)": {
        "details": "upgrades a pool and returns the new pool collection it exists in notes: - invalid or incompatible pools will be skipped gracefully requirements: - the caller must be the network contract"
      }
    },
    "version": 1
  },
  "userdoc": {
    "kind": "user",
    "methods": {},
    "version": 1
  },
  "storageLayout": {
    "storage": [
      {
        "astId": 644,
        "contract": "contracts/pools/PoolCollectionUpgrader.sol:PoolCollectionUpgrader",
        "label": "_initialized",
        "offset": 0,
        "slot": "0",
        "type": "t_bool"
      },
      {
        "astId": 647,
        "contract": "contracts/pools/PoolCollectionUpgrader.sol:PoolCollectionUpgrader",
        "label": "_initializing",
        "offset": 1,
        "slot": "0",
        "type": "t_bool"
      },
      {
        "astId": 1165,
        "contract": "contracts/pools/PoolCollectionUpgrader.sol:PoolCollectionUpgrader",
        "label": "__gap",
        "offset": 0,
        "slot": "1",
        "type": "t_array(t_uint256)50_storage"
      },
      {
        "astId": 1412,
        "contract": "contracts/pools/PoolCollectionUpgrader.sol:PoolCollectionUpgrader",
        "label": "__gap",
        "offset": 0,
        "slot": "51",
        "type": "t_array(t_uint256)50_storage"
      },
      {
        "astId": 250,
        "contract": "contracts/pools/PoolCollectionUpgrader.sol:PoolCollectionUpgrader",
        "label": "_roles",
        "offset": 0,
        "slot": "101",
        "type": "t_mapping(t_bytes32,t_struct(RoleData)245_storage)"
      },
      {
        "astId": 538,
        "contract": "contracts/pools/PoolCollectionUpgrader.sol:PoolCollectionUpgrader",
        "label": "__gap",
        "offset": 0,
        "slot": "102",
        "type": "t_array(t_uint256)49_storage"
      },
      {
        "astId": 99,
        "contract": "contracts/pools/PoolCollectionUpgrader.sol:PoolCollectionUpgrader",
        "label": "_roleMembers",
        "offset": 0,
        "slot": "151",
        "type": "t_mapping(t_bytes32,t_struct(AddressSet)1737_storage)"
      },
      {
        "astId": 209,
        "contract": "contracts/pools/PoolCollectionUpgrader.sol:PoolCollectionUpgrader",
        "label": "__gap",
        "offset": 0,
        "slot": "152",
        "type": "t_array(t_uint256)49_storage"
      },
      {
        "astId": 22238,
        "contract": "contracts/pools/PoolCollectionUpgrader.sol:PoolCollectionUpgrader",
        "label": "__gap",
        "offset": 0,
        "slot": "201",
        "type": "t_array(t_uint256)50_storage"
      }
    ],
    "types": {
      "t_address": {
        "encoding": "inplace",
        "label": "address",
        "numberOfBytes": "20"
      },
      "t_array(t_bytes32)dyn_storage": {
        "base": "t_bytes32",
        "encoding": "dynamic_array",
        "label": "bytes32[]",
        "numberOfBytes": "32"
      },
      "t_array(t_uint256)49_storage": {
        "base": "t_uint256",
        "encoding": "inplace",
        "label": "uint256[49]",
        "numberOfBytes": "1568"
      },
      "t_array(t_uint256)50_storage": {
        "base": "t_uint256",
        "encoding": "inplace",
        "label": "uint256[50]",
        "numberOfBytes": "1600"
      },
      "t_bool": {
        "encoding": "inplace",
        "label": "bool",
        "numberOfBytes": "1"
      },
      "t_bytes32": {
        "encoding": "inplace",
        "label": "bytes32",
        "numberOfBytes": "32"
      },
      "t_mapping(t_address,t_bool)": {
        "encoding": "mapping",
        "key": "t_address",
        "label": "mapping(address => bool)",
        "numberOfBytes": "32",
        "value": "t_bool"
      },
      "t_mapping(t_bytes32,t_struct(AddressSet)1737_storage)": {
        "encoding": "mapping",
        "key": "t_bytes32",
        "label": "mapping(bytes32 => struct EnumerableSetUpgradeable.AddressSet)",
        "numberOfBytes": "32",
        "value": "t_struct(AddressSet)1737_storage"
      },
      "t_mapping(t_bytes32,t_struct(RoleData)245_storage)": {
        "encoding": "mapping",
        "key": "t_bytes32",
        "label": "mapping(bytes32 => struct AccessControlUpgradeable.RoleData)",
        "numberOfBytes": "32",
        "value": "t_struct(RoleData)245_storage"
      },
      "t_mapping(t_bytes32,t_uint256)": {
        "encoding": "mapping",
        "key": "t_bytes32",
        "label": "mapping(bytes32 => uint256)",
        "numberOfBytes": "32",
        "value": "t_uint256"
      },
      "t_struct(AddressSet)1737_storage": {
        "encoding": "inplace",
        "label": "struct EnumerableSetUpgradeable.AddressSet",
        "members": [
          {
            "astId": 1736,
            "contract": "contracts/pools/PoolCollectionUpgrader.sol:PoolCollectionUpgrader",
            "label": "_inner",
            "offset": 0,
            "slot": "0",
            "type": "t_struct(Set)1436_storage"
          }
        ],
        "numberOfBytes": "64"
      },
      "t_struct(RoleData)245_storage": {
        "encoding": "inplace",
        "label": "struct AccessControlUpgradeable.RoleData",
        "members": [
          {
            "astId": 242,
            "contract": "contracts/pools/PoolCollectionUpgrader.sol:PoolCollectionUpgrader",
            "label": "members",
            "offset": 0,
            "slot": "0",
            "type": "t_mapping(t_address,t_bool)"
          },
          {
            "astId": 244,
            "contract": "contracts/pools/PoolCollectionUpgrader.sol:PoolCollectionUpgrader",
            "label": "adminRole",
            "offset": 0,
            "slot": "1",
            "type": "t_bytes32"
          }
        ],
        "numberOfBytes": "64"
      },
      "t_struct(Set)1436_storage": {
        "encoding": "inplace",
        "label": "struct EnumerableSetUpgradeable.Set",
        "members": [
          {
            "astId": 1431,
            "contract": "contracts/pools/PoolCollectionUpgrader.sol:PoolCollectionUpgrader",
            "label": "_values",
            "offset": 0,
            "slot": "0",
            "type": "t_array(t_bytes32)dyn_storage"
          },
          {
            "astId": 1435,
            "contract": "contracts/pools/PoolCollectionUpgrader.sol:PoolCollectionUpgrader",
            "label": "_indexes",
            "offset": 0,
            "slot": "1",
            "type": "t_mapping(t_bytes32,t_uint256)"
          }
        ],
        "numberOfBytes": "64"
      },
      "t_uint256": {
        "encoding": "inplace",
        "label": "uint256",
        "numberOfBytes": "32"
      }
    }
  }
}