{
  "address": "0xf85830D31558553AfbE736682B06A20904aDf40a",
  "abi": [
    {
      "inputs": [
        {
          "internalType": "contract IBancorNetwork",
          "name": "initNetwork",
          "type": "address"
        },
        {
          "internalType": "contract IERC20",
          "name": "initBNT",
          "type": "address"
        },
        {
          "internalType": "contract INetworkSettings",
          "name": "initNetworkSettings",
          "type": "address"
        },
        {
          "internalType": "contract IMasterVault",
          "name": "initMasterVault",
          "type": "address"
        },
        {
          "internalType": "contract IBNTPool",
          "name": "initBNTPool",
          "type": "address"
        },
        {
          "internalType": "contract IExternalProtectionVault",
          "name": "initExternalProtectionVault",
          "type": "address"
        },
        {
          "internalType": "contract IPoolTokenFactory",
          "name": "initPoolTokenFactory",
          "type": "address"
        },
        {
          "internalType": "contract IPoolCollectionUpgrader",
          "name": "initPoolCollectionUpgrader",
          "type": "address"
        }
      ],
      "stateMutability": "nonpayable",
      "type": "constructor"
    },
    {
      "inputs": [],
      "name": "AccessDenied",
      "type": "error"
    },
    {
      "inputs": [],
      "name": "AlreadyEnabled",
      "type": "error"
    },
    {
      "inputs": [],
      "name": "AlreadyExists",
      "type": "error"
    },
    {
      "inputs": [],
      "name": "DepositLimitExceeded",
      "type": "error"
    },
    {
      "inputs": [],
      "name": "DepositingDisabled",
      "type": "error"
    },
    {
      "inputs": [],
      "name": "DoesNotExist",
      "type": "error"
    },
    {
      "inputs": [],
      "name": "InsufficientLiquidity",
      "type": "error"
    },
    {
      "inputs": [],
      "name": "InsufficientSourceAmount",
      "type": "error"
    },
    {
      "inputs": [],
      "name": "InsufficientTargetAmount",
      "type": "error"
    },
    {
      "inputs": [],
      "name": "InvalidAddress",
      "type": "error"
    },
    {
      "inputs": [],
      "name": "InvalidFee",
      "type": "error"
    },
    {
      "inputs": [],
      "name": "InvalidPoolCollection",
      "type": "error"
    },
    {
      "inputs": [],
      "name": "InvalidRate",
      "type": "error"
    },
    {
      "inputs": [],
      "name": "InvalidStakedBalance",
      "type": "error"
    },
    {
      "inputs": [],
      "name": "NotWhitelisted",
      "type": "error"
    },
    {
      "inputs": [],
      "name": "Overflow",
      "type": "error"
    },
    {
      "inputs": [],
      "name": "PoolCollectionWithdrawalInputInvalid",
      "type": "error"
    },
    {
      "inputs": [],
      "name": "RateUnstable",
      "type": "error"
    },
    {
      "inputs": [],
      "name": "SameOwner",
      "type": "error"
    },
    {
      "inputs": [],
      "name": "TradingDisabled",
      "type": "error"
    },
    {
      "inputs": [],
      "name": "ZeroValue",
      "type": "error"
    },
    {
      "anonymous": false,
      "inputs": [
        {
          "indexed": false,
          "internalType": "uint32",
          "name": "prevFeePPM",
          "type": "uint32"
        },
        {
          "indexed": false,
          "internalType": "uint32",
          "name": "newFeePPM",
          "type": "uint32"
        }
      ],
      "name": "DefaultTradingFeePPMUpdated",
      "type": "event"
    },
    {
      "anonymous": false,
      "inputs": [
        {
          "indexed": true,
          "internalType": "contract Token",
          "name": "pool",
          "type": "address"
        },
        {
          "indexed": false,
          "internalType": "uint256",
          "name": "prevDepositLimit",
          "type": "uint256"
        },
        {
          "indexed": false,
          "internalType": "uint256",
          "name": "newDepositLimit",
          "type": "uint256"
        }
      ],
      "name": "DepositLimitUpdated",
      "type": "event"
    },
    {
      "anonymous": false,
      "inputs": [
        {
          "indexed": true,
          "internalType": "contract Token",
          "name": "pool",
          "type": "address"
        },
        {
          "indexed": true,
          "internalType": "bool",
          "name": "newStatus",
          "type": "bool"
        }
      ],
      "name": "DepositingEnabled",
      "type": "event"
    },
    {
      "anonymous": false,
      "inputs": [
        {
          "indexed": true,
          "internalType": "address",
          "name": "prevOwner",
          "type": "address"
        },
        {
          "indexed": true,
          "internalType": "address",
          "name": "newOwner",
          "type": "address"
        }
      ],
      "name": "OwnerUpdate",
      "type": "event"
    },
    {
      "anonymous": false,
      "inputs": [
        {
          "indexed": true,
          "internalType": "contract IPoolToken",
          "name": "poolToken",
          "type": "address"
        },
        {
          "indexed": true,
          "internalType": "contract Token",
          "name": "token",
          "type": "address"
        }
      ],
      "name": "PoolCreated",
      "type": "event"
    },
    {
      "anonymous": false,
      "inputs": [
        {
          "indexed": true,
          "internalType": "contract Token",
          "name": "token",
          "type": "address"
        }
      ],
      "name": "PoolMigratedIn",
      "type": "event"
    },
    {
      "anonymous": false,
      "inputs": [
        {
          "indexed": true,
          "internalType": "contract Token",
          "name": "token",
          "type": "address"
        }
      ],
      "name": "PoolMigratedOut",
      "type": "event"
    },
    {
      "anonymous": false,
      "inputs": [
        {
          "indexed": true,
          "internalType": "bytes32",
          "name": "contextId",
          "type": "bytes32"
        },
        {
          "indexed": true,
          "internalType": "contract Token",
          "name": "token",
          "type": "address"
        },
        {
          "indexed": true,
          "internalType": "address",
          "name": "provider",
          "type": "address"
        },
        {
          "indexed": false,
          "internalType": "uint256",
          "name": "tokenAmount",
          "type": "uint256"
        },
        {
          "indexed": false,
          "internalType": "uint256",
          "name": "poolTokenAmount",
          "type": "uint256"
        }
      ],
      "name": "TokenDeposited",
      "type": "event"
    },
    {
      "anonymous": false,
      "inputs": [
        {
          "indexed": true,
          "internalType": "bytes32",
          "name": "contextId",
          "type": "bytes32"
        },
        {
          "indexed": true,
          "internalType": "contract Token",
          "name": "token",
          "type": "address"
        },
        {
          "indexed": true,
          "internalType": "address",
          "name": "provider",
          "type": "address"
        },
        {
          "indexed": false,
          "internalType": "uint256",
          "name": "tokenAmount",
          "type": "uint256"
        },
        {
          "indexed": false,
          "internalType": "uint256",
          "name": "poolTokenAmount",
          "type": "uint256"
        },
        {
          "indexed": false,
          "internalType": "uint256",
          "name": "externalProtectionBaseTokenAmount",
          "type": "uint256"
        },
        {
          "indexed": false,
          "internalType": "uint256",
          "name": "bntAmount",
          "type": "uint256"
        },
        {
          "indexed": false,
          "internalType": "uint256",
          "name": "withdrawalFeeAmount",
          "type": "uint256"
        }
      ],
      "name": "TokenWithdrawn",
      "type": "event"
    },
    {
      "anonymous": false,
      "inputs": [
        {
          "indexed": true,
          "internalType": "bytes32",
          "name": "contextId",
          "type": "bytes32"
        },
        {
          "indexed": true,
          "internalType": "contract Token",
          "name": "pool",
          "type": "address"
        },
        {
          "indexed": false,
          "internalType": "uint256",
          "name": "stakedBalance",
          "type": "uint256"
        },
        {
          "indexed": false,
          "internalType": "uint256",
          "name": "poolTokenSupply",
          "type": "uint256"
        },
        {
          "indexed": false,
          "internalType": "uint256",
          "name": "actualBalance",
          "type": "uint256"
        }
      ],
      "name": "TotalLiquidityUpdated",
      "type": "event"
    },
    {
      "anonymous": false,
      "inputs": [
        {
          "indexed": true,
          "internalType": "contract Token",
          "name": "pool",
          "type": "address"
        },
        {
          "indexed": true,
          "internalType": "bool",
          "name": "newStatus",
          "type": "bool"
        },
        {
          "indexed": true,
          "internalType": "uint8",
          "name": "reason",
          "type": "uint8"
        }
      ],
      "name": "TradingEnabled",
      "type": "event"
    },
    {
      "anonymous": false,
      "inputs": [
        {
          "indexed": true,
          "internalType": "contract Token",
          "name": "pool",
          "type": "address"
        },
        {
          "indexed": false,
          "internalType": "uint32",
          "name": "prevFeePPM",
          "type": "uint32"
        },
        {
          "indexed": false,
          "internalType": "uint32",
          "name": "newFeePPM",
          "type": "uint32"
        }
      ],
      "name": "TradingFeePPMUpdated",
      "type": "event"
    },
    {
      "anonymous": false,
      "inputs": [
        {
          "indexed": true,
          "internalType": "bytes32",
          "name": "contextId",
          "type": "bytes32"
        },
        {
          "indexed": true,
          "internalType": "contract Token",
          "name": "pool",
          "type": "address"
        },
        {
          "indexed": true,
          "internalType": "contract Token",
          "name": "token",
          "type": "address"
        },
        {
          "indexed": false,
          "internalType": "uint256",
          "name": "prevLiquidity",
          "type": "uint256"
        },
        {
          "indexed": false,
          "internalType": "uint256",
          "name": "newLiquidity",
          "type": "uint256"
        }
      ],
      "name": "TradingLiquidityUpdated",
      "type": "event"
    },
    {
      "inputs": [],
      "name": "acceptOwnership",
      "outputs": [],
      "stateMutability": "nonpayable",
      "type": "function"
    },
    {
      "inputs": [
        {
          "internalType": "contract Token",
          "name": "token",
          "type": "address"
        }
      ],
      "name": "createPool",
      "outputs": [],
      "stateMutability": "nonpayable",
      "type": "function"
    },
    {
      "inputs": [],
      "name": "defaultTradingFeePPM",
      "outputs": [
        {
          "internalType": "uint32",
          "name": "",
          "type": "uint32"
        }
      ],
      "stateMutability": "view",
      "type": "function"
    },
    {
      "inputs": [
        {
          "internalType": "bytes32",
          "name": "contextId",
          "type": "bytes32"
        },
        {
          "internalType": "address",
          "name": "provider",
          "type": "address"
        },
        {
          "internalType": "contract Token",
          "name": "pool",
          "type": "address"
        },
        {
          "internalType": "uint256",
          "name": "tokenAmount",
          "type": "uint256"
        }
      ],
      "name": "depositFor",
      "outputs": [
        {
          "internalType": "uint256",
          "name": "",
          "type": "uint256"
        }
      ],
      "stateMutability": "nonpayable",
      "type": "function"
    },
    {
      "inputs": [
        {
          "internalType": "contract Token",
          "name": "pool",
          "type": "address"
        }
      ],
      "name": "disableTrading",
      "outputs": [],
      "stateMutability": "nonpayable",
      "type": "function"
    },
    {
      "inputs": [
        {
          "internalType": "contract Token",
          "name": "pool",
          "type": "address"
        },
        {
          "internalType": "bool",
          "name": "status",
          "type": "bool"
        }
      ],
      "name": "enableDepositing",
      "outputs": [],
      "stateMutability": "nonpayable",
      "type": "function"
    },
    {
      "inputs": [
        {
          "internalType": "contract Token",
          "name": "pool",
          "type": "address"
        },
        {
          "internalType": "uint256",
          "name": "bntRate",
          "type": "uint256"
        },
        {
          "internalType": "uint256",
          "name": "baseTokenRate",
          "type": "uint256"
        }
      ],
      "name": "enableTrading",
      "outputs": [],
      "stateMutability": "nonpayable",
      "type": "function"
    },
    {
      "inputs": [
        {
          "internalType": "contract Token",
          "name": "pool",
          "type": "address"
        }
      ],
      "name": "isPoolValid",
      "outputs": [
        {
          "internalType": "bool",
          "name": "",
          "type": "bool"
        }
      ],
      "stateMutability": "view",
      "type": "function"
    },
    {
      "inputs": [
        {
          "internalType": "contract Token",
          "name": "pool",
          "type": "address"
        },
        {
          "components": [
            {
              "internalType": "contract IPoolToken",
              "name": "poolToken",
              "type": "address"
            },
            {
              "internalType": "uint32",
              "name": "tradingFeePPM",
              "type": "uint32"
            },
            {
              "internalType": "bool",
              "name": "tradingEnabled",
              "type": "bool"
            },
            {
              "internalType": "bool",
              "name": "depositingEnabled",
              "type": "bool"
            },
            {
              "components": [
                {
                  "internalType": "uint32",
                  "name": "blockNumber",
                  "type": "uint32"
                },
                {
                  "components": [
                    {
                      "internalType": "uint112",
                      "name": "n",
                      "type": "uint112"
                    },
                    {
                      "internalType": "uint112",
                      "name": "d",
                      "type": "uint112"
                    }
                  ],
                  "internalType": "struct Fraction112",
                  "name": "rate",
                  "type": "tuple"
                }
              ],
              "internalType": "struct AverageRate",
              "name": "averageRate",
              "type": "tuple"
            },
            {
              "internalType": "uint256",
              "name": "depositLimit",
              "type": "uint256"
            },
            {
              "components": [
                {
                  "internalType": "uint256",
                  "name": "bntTradingLiquidity",
                  "type": "uint256"
                },
                {
                  "internalType": "uint256",
                  "name": "baseTokenTradingLiquidity",
                  "type": "uint256"
                },
                {
                  "internalType": "uint256",
                  "name": "stakedBalance",
                  "type": "uint256"
                }
              ],
              "internalType": "struct PoolLiquidity",
              "name": "liquidity",
              "type": "tuple"
            }
          ],
          "internalType": "struct Pool",
          "name": "data",
          "type": "tuple"
        }
      ],
      "name": "migratePoolIn",
      "outputs": [],
      "stateMutability": "nonpayable",
      "type": "function"
    },
    {
      "inputs": [
        {
          "internalType": "contract Token",
          "name": "pool",
          "type": "address"
        },
        {
          "internalType": "contract IPoolCollection",
          "name": "targetPoolCollection",
          "type": "address"
        }
      ],
      "name": "migratePoolOut",
      "outputs": [],
      "stateMutability": "nonpayable",
      "type": "function"
    },
    {
      "inputs": [],
      "name": "newOwner",
      "outputs": [
        {
          "internalType": "address",
          "name": "",
          "type": "address"
        }
      ],
      "stateMutability": "view",
      "type": "function"
    },
    {
      "inputs": [
        {
          "internalType": "contract Token",
          "name": "pool",
          "type": "address"
        },
        {
          "internalType": "uint256",
          "name": "feeAmount",
          "type": "uint256"
        }
      ],
      "name": "onFeesCollected",
      "outputs": [],
      "stateMutability": "nonpayable",
      "type": "function"
    },
    {
      "inputs": [],
      "name": "owner",
      "outputs": [
        {
          "internalType": "address",
          "name": "",
          "type": "address"
        }
      ],
      "stateMutability": "view",
      "type": "function"
    },
    {
      "inputs": [],
      "name": "poolCount",
      "outputs": [
        {
          "internalType": "uint256",
          "name": "",
          "type": "uint256"
        }
      ],
      "stateMutability": "view",
      "type": "function"
    },
    {
      "inputs": [
        {
          "internalType": "contract Token",
          "name": "pool",
          "type": "address"
        }
      ],
      "name": "poolData",
      "outputs": [
        {
          "components": [
            {
              "internalType": "contract IPoolToken",
              "name": "poolToken",
              "type": "address"
            },
            {
              "internalType": "uint32",
              "name": "tradingFeePPM",
              "type": "uint32"
            },
            {
              "internalType": "bool",
              "name": "tradingEnabled",
              "type": "bool"
            },
            {
              "internalType": "bool",
              "name": "depositingEnabled",
              "type": "bool"
            },
            {
              "components": [
                {
                  "internalType": "uint32",
                  "name": "blockNumber",
                  "type": "uint32"
                },
                {
                  "components": [
                    {
                      "internalType": "uint112",
                      "name": "n",
                      "type": "uint112"
                    },
                    {
                      "internalType": "uint112",
                      "name": "d",
                      "type": "uint112"
                    }
                  ],
                  "internalType": "struct Fraction112",
                  "name": "rate",
                  "type": "tuple"
                }
              ],
              "internalType": "struct AverageRate",
              "name": "averageRate",
              "type": "tuple"
            },
            {
              "internalType": "uint256",
              "name": "depositLimit",
              "type": "uint256"
            },
            {
              "components": [
                {
                  "internalType": "uint256",
                  "name": "bntTradingLiquidity",
                  "type": "uint256"
                },
                {
                  "internalType": "uint256",
                  "name": "baseTokenTradingLiquidity",
                  "type": "uint256"
                },
                {
                  "internalType": "uint256",
                  "name": "stakedBalance",
                  "type": "uint256"
                }
              ],
              "internalType": "struct PoolLiquidity",
              "name": "liquidity",
              "type": "tuple"
            }
          ],
          "internalType": "struct Pool",
          "name": "",
          "type": "tuple"
        }
      ],
      "stateMutability": "view",
      "type": "function"
    },
    {
      "inputs": [
        {
          "internalType": "contract Token",
          "name": "pool",
          "type": "address"
        }
      ],
      "name": "poolLiquidity",
      "outputs": [
        {
          "components": [
            {
              "internalType": "uint256",
              "name": "bntTradingLiquidity",
              "type": "uint256"
            },
            {
              "internalType": "uint256",
              "name": "baseTokenTradingLiquidity",
              "type": "uint256"
            },
            {
              "internalType": "uint256",
              "name": "stakedBalance",
              "type": "uint256"
            }
          ],
          "internalType": "struct PoolLiquidity",
          "name": "",
          "type": "tuple"
        }
      ],
      "stateMutability": "view",
      "type": "function"
    },
    {
      "inputs": [
        {
          "internalType": "contract Token",
          "name": "pool",
          "type": "address"
        }
      ],
      "name": "poolToken",
      "outputs": [
        {
          "internalType": "contract IPoolToken",
          "name": "",
          "type": "address"
        }
      ],
      "stateMutability": "view",
      "type": "function"
    },
    {
      "inputs": [
        {
          "internalType": "contract Token",
          "name": "pool",
          "type": "address"
        },
        {
          "internalType": "uint256",
          "name": "tokenAmountToDistribute",
          "type": "uint256"
        },
        {
          "internalType": "uint256",
          "name": "protocolPoolTokenAmount",
          "type": "uint256"
        }
      ],
      "name": "poolTokenAmountToBurn",
      "outputs": [
        {
          "internalType": "uint256",
          "name": "",
          "type": "uint256"
        }
      ],
      "stateMutability": "view",
      "type": "function"
    },
    {
      "inputs": [
        {
          "internalType": "contract Token",
          "name": "pool",
          "type": "address"
        },
        {
          "internalType": "uint256",
          "name": "poolTokenAmount",
          "type": "uint256"
        }
      ],
      "name": "poolTokenToUnderlying",
      "outputs": [
        {
          "internalType": "uint256",
          "name": "",
          "type": "uint256"
        }
      ],
      "stateMutability": "view",
      "type": "function"
    },
    {
      "inputs": [],
      "name": "poolType",
      "outputs": [
        {
          "internalType": "uint16",
          "name": "",
          "type": "uint16"
        }
      ],
      "stateMutability": "pure",
      "type": "function"
    },
    {
      "inputs": [],
      "name": "pools",
      "outputs": [
        {
          "internalType": "contract Token[]",
          "name": "",
          "type": "address[]"
        }
      ],
      "stateMutability": "view",
      "type": "function"
    },
    {
      "inputs": [
        {
          "internalType": "uint32",
          "name": "newDefaultTradingFeePPM",
          "type": "uint32"
        }
      ],
      "name": "setDefaultTradingFeePPM",
      "outputs": [],
      "stateMutability": "nonpayable",
      "type": "function"
    },
    {
      "inputs": [
        {
          "internalType": "contract Token",
          "name": "pool",
          "type": "address"
        },
        {
          "internalType": "uint256",
          "name": "newDepositLimit",
          "type": "uint256"
        }
      ],
      "name": "setDepositLimit",
      "outputs": [],
      "stateMutability": "nonpayable",
      "type": "function"
    },
    {
      "inputs": [
        {
          "internalType": "contract Token",
          "name": "pool",
          "type": "address"
        },
        {
          "internalType": "uint32",
          "name": "newTradingFeePPM",
          "type": "uint32"
        }
      ],
      "name": "setTradingFeePPM",
      "outputs": [],
      "stateMutability": "nonpayable",
      "type": "function"
    },
    {
      "inputs": [
        {
          "internalType": "bytes32",
          "name": "contextId",
          "type": "bytes32"
        },
        {
          "internalType": "contract Token",
          "name": "sourceToken",
          "type": "address"
        },
        {
          "internalType": "contract Token",
          "name": "targetToken",
          "type": "address"
        },
        {
          "internalType": "uint256",
          "name": "sourceAmount",
          "type": "uint256"
        },
        {
          "internalType": "uint256",
          "name": "minReturnAmount",
          "type": "uint256"
        }
      ],
      "name": "tradeBySourceAmount",
      "outputs": [
        {
          "components": [
            {
              "internalType": "uint256",
              "name": "amount",
              "type": "uint256"
            },
            {
              "internalType": "uint256",
              "name": "tradingFeeAmount",
              "type": "uint256"
            },
            {
              "internalType": "uint256",
              "name": "networkFeeAmount",
              "type": "uint256"
            }
          ],
          "internalType": "struct TradeAmountAndFee",
          "name": "",
          "type": "tuple"
        }
      ],
      "stateMutability": "nonpayable",
      "type": "function"
    },
    {
      "inputs": [
        {
          "internalType": "bytes32",
          "name": "contextId",
          "type": "bytes32"
        },
        {
          "internalType": "contract Token",
          "name": "sourceToken",
          "type": "address"
        },
        {
          "internalType": "contract Token",
          "name": "targetToken",
          "type": "address"
        },
        {
          "internalType": "uint256",
          "name": "targetAmount",
          "type": "uint256"
        },
        {
          "internalType": "uint256",
          "name": "maxSourceAmount",
          "type": "uint256"
        }
      ],
      "name": "tradeByTargetAmount",
      "outputs": [
        {
          "components": [
            {
              "internalType": "uint256",
              "name": "amount",
              "type": "uint256"
            },
            {
              "internalType": "uint256",
              "name": "tradingFeeAmount",
              "type": "uint256"
            },
            {
              "internalType": "uint256",
              "name": "networkFeeAmount",
              "type": "uint256"
            }
          ],
          "internalType": "struct TradeAmountAndFee",
          "name": "",
          "type": "tuple"
        }
      ],
      "stateMutability": "nonpayable",
      "type": "function"
    },
    {
      "inputs": [
        {
          "internalType": "contract Token",
          "name": "sourceToken",
          "type": "address"
        },
        {
          "internalType": "contract Token",
          "name": "targetToken",
          "type": "address"
        },
        {
          "internalType": "uint256",
          "name": "targetAmount",
          "type": "uint256"
        }
      ],
      "name": "tradeInputAndFeeByTargetAmount",
      "outputs": [
        {
          "components": [
            {
              "internalType": "uint256",
              "name": "amount",
              "type": "uint256"
            },
            {
              "internalType": "uint256",
              "name": "tradingFeeAmount",
              "type": "uint256"
            },
            {
              "internalType": "uint256",
              "name": "networkFeeAmount",
              "type": "uint256"
            }
          ],
          "internalType": "struct TradeAmountAndFee",
          "name": "",
          "type": "tuple"
        }
      ],
      "stateMutability": "view",
      "type": "function"
    },
    {
      "inputs": [
        {
          "internalType": "contract Token",
          "name": "sourceToken",
          "type": "address"
        },
        {
          "internalType": "contract Token",
          "name": "targetToken",
          "type": "address"
        },
        {
          "internalType": "uint256",
          "name": "sourceAmount",
          "type": "uint256"
        }
      ],
      "name": "tradeOutputAndFeeBySourceAmount",
      "outputs": [
        {
          "components": [
            {
              "internalType": "uint256",
              "name": "amount",
              "type": "uint256"
            },
            {
              "internalType": "uint256",
              "name": "tradingFeeAmount",
              "type": "uint256"
            },
            {
              "internalType": "uint256",
              "name": "networkFeeAmount",
              "type": "uint256"
            }
          ],
          "internalType": "struct TradeAmountAndFee",
          "name": "",
          "type": "tuple"
        }
      ],
      "stateMutability": "view",
      "type": "function"
    },
    {
      "inputs": [
        {
          "internalType": "address",
          "name": "ownerCandidate",
          "type": "address"
        }
      ],
      "name": "transferOwnership",
      "outputs": [],
      "stateMutability": "nonpayable",
      "type": "function"
    },
    {
      "inputs": [
        {
          "internalType": "contract Token",
          "name": "pool",
          "type": "address"
        },
        {
          "internalType": "uint256",
          "name": "tokenAmount",
          "type": "uint256"
        }
      ],
      "name": "underlyingToPoolToken",
      "outputs": [
        {
          "internalType": "uint256",
          "name": "",
          "type": "uint256"
        }
      ],
      "stateMutability": "view",
      "type": "function"
    },
    {
      "inputs": [],
      "name": "version",
      "outputs": [
        {
          "internalType": "uint16",
          "name": "",
          "type": "uint16"
        }
      ],
      "stateMutability": "view",
      "type": "function"
    },
    {
      "inputs": [
        {
          "internalType": "bytes32",
          "name": "contextId",
          "type": "bytes32"
        },
        {
          "internalType": "address",
          "name": "provider",
          "type": "address"
        },
        {
          "internalType": "contract Token",
          "name": "pool",
          "type": "address"
        },
        {
          "internalType": "uint256",
          "name": "poolTokenAmount",
          "type": "uint256"
        }
      ],
      "name": "withdraw",
      "outputs": [
        {
          "internalType": "uint256",
          "name": "",
          "type": "uint256"
        }
      ],
      "stateMutability": "nonpayable",
      "type": "function"
    },
    {
      "inputs": [
        {
          "internalType": "contract Token",
          "name": "pool",
          "type": "address"
        },
        {
          "internalType": "uint256",
          "name": "poolTokenAmount",
          "type": "uint256"
        }
      ],
      "name": "withdrawalAmounts",
      "outputs": [
        {
          "components": [
            {
              "internalType": "uint256",
              "name": "totalAmount",
              "type": "uint256"
            },
            {
              "internalType": "uint256",
              "name": "baseTokenAmount",
              "type": "uint256"
            },
            {
              "internalType": "uint256",
              "name": "bntAmount",
              "type": "uint256"
            }
          ],
          "internalType": "struct WithdrawalAmounts",
          "name": "",
          "type": "tuple"
        }
      ],
      "stateMutability": "view",
      "type": "function"
    }
  ],
  "transactionHash": "0x198a46d6aef38abbfc38c95992dbc739c74a0e034c99c7cdeab46b085b009db7",
  "args": [
    "0x093C761bd5B8f71d72cBC74A72cc9c6aEDC8EE49",
    "0x1F573D6Fb3F13d689FF844B4cE37794d79a7FF1C",
    "0x302979c8f478279Ab3F46Ce3Dc96c98d9c28fb0c",
    "0xCc039b94a38Eb7039556De6c95aC7a48AAE86cE0",
    "0x6210cE7207537eE1ec219f4562e6d05bed208852",
    "0xbab75527ccEefC7f7678140a0f932655D050D759",
    "0x3Aed5Af110B1E290f691828697a31E8BdeE3681a",
    "0x7Cd247CF8Df355Bc0C965026d482fB27CdcD7eA6"
  ],
  "numDeployments": 1,
  "solcInputHash": "dcea142469df7f75d330e08f80ea8523",
  "bytecode": "0x6101806040523480156200001257600080fd5b5060405162005c6038038062005c608339810160408190526200003591620002ab565b62000040336200019d565b876200004c81620001f7565b876200005881620001f7565b876200006481620001f7565b876200007081620001f7565b876200007c81620001f7565b876200008881620001f7565b876200009481620001f7565b87620000a081620001f7565b8f6001600160a01b03166080816001600160a01b0316815250508e6001600160a01b031660a0816001600160a01b0316815250508d6001600160a01b031660c0816001600160a01b0316815250508c6001600160a01b031660e0816001600160a01b0316815250508b6001600160a01b0316610100816001600160a01b0316815250508a6001600160a01b0316610120816001600160a01b031681525050896001600160a01b0316610140816001600160a01b031681525050886001600160a01b0316610160816001600160a01b031681525050620001876107d06200022260201b60201c565b505050505050505050505050505050506200036c565b600080546001600160a01b038381166001600160a01b031980841682178555600180549091169055604051919092169283917f343765429aea5a34b3ff6a3785a98a5abb2597aca87bfbb58632c173d585373a9190a35050565b6001600160a01b0381166200021f5760405163e6c4247b60e01b815260040160405180910390fd5b50565b60055463ffffffff9081169082168114156200023c575050565b6005805463ffffffff191663ffffffff84811691821790925560408051928416835260208301919091527fb804b0ec3f0ea43004870df377170ce44cb789adca16d23286e337605558117f910160405180910390a15050565b6001600160a01b03811681146200021f57600080fd5b600080600080600080600080610100898b031215620002c957600080fd5b8851620002d68162000295565b60208a0151909850620002e98162000295565b60408a0151909750620002fc8162000295565b60608a01519096506200030f8162000295565b60808a0151909550620003228162000295565b60a08a0151909450620003358162000295565b60c08a0151909350620003488162000295565b60e08a01519092506200035b8162000295565b809150509295985092959890939650565b60805160a05160c05160e051610100516101205161014051610160516157ca620004966000396000818161093f0152611a1201526000610f5c015260008181612d88015261340a01526000818161218101528181612230015281816122ed01528181613160015281816131f50152818161327b0152818161334d0152613db501526000818161200301528181612cab015281816132a8015281816133da015281816134ba015261386201526000818161066c01528181610eb201528181611716015281816120f501528181612db9015281816135630152613f47015260008181612595015261416c0152600081816105a901528181610b9901528181610e0501528181610e6b01528181611478015281816118d001528181611a5c015261305f01526157ca6000f3fe608060405234801561001057600080fd5b50600436106101fb5760003560e01c80638e0cc1761161011a578063b7fafb7a116100ad578063ee4808fe1161007c578063ee4808fe14610459578063f2fde38b1461046c578063f525cb681461047f578063f6c5786114610487578063fba8cdee146104aa57600080fd5b8063b7fafb7a1461040d578063c5c51dca14610420578063d3df242414610435578063d4ee1d901461044857600080fd5b80639f5c734b116100e95780639f5c734b146103cf5780639fc19231146103e2578063a135ef17146103fa578063b1dd61b6146102f157600080fd5b80638e0cc176146103835780639049f9d2146103965780639181d2e3146103a9578063921a929e146103bc57600080fd5b806352c8f9901161019257806372d960e11161016157806372d960e11461034457806379ba509714610357578063814175851461035f5780638da5cb5b1461037257600080fd5b806352c8f990146102cb578063541868c8146102de57806354fd4d50146102f15780635768adcf1461030057600080fd5b806327910565116101ce578063279105651461026457806334afba2b146102775780634b387b4a146102975780634ceea753146102aa57600080fd5b8063136efb7a146102005780631510748b146102295780631c754cae1461023e578063272d177d14610251575b600080fd5b61021361020e36600461505f565b6104bd565b604051610220919061507c565b60405180910390f35b61023c61023736600461511c565b6105a7565b005b61023c61024c366004615148565b61060b565b61023c61025f36600461511c565b61081f565b61023c61027236600461505f565b61089b565b61028a61028536600461517d565b6108be565b60405161022091906151be565b61023c6102a53660046151df565b610933565b6102bd6102b836600461511c565b610a18565b604051908152602001610220565b61028a6102d9366004615222565b610b73565b61028a6102ec36600461511c565b610c27565b60405160018152602001610220565b61032c61030e36600461505f565b6001600160a01b039081166000908152600260205260409020541690565b6040516001600160a01b039091168152602001610220565b61028a61035236600461517d565b610cbd565b61023c610d39565b61023c61036d366004615292565b610d7b565b6000546001600160a01b031661032c565b6102bd6103913660046152cb565b610e01565b61023c6103a436600461505f565b610e69565b61023c6103b7366004615325565b61122d565b6102bd6103ca366004615148565b6112df565b6102bd6103dd3660046152cb565b611474565b60055460405163ffffffff9091168152602001610220565b61028a61040836600461505f565b611841565b61028a61041b366004615222565b6118aa565b610428611956565b6040516102209190615353565b61023c6104433660046153a0565b611a06565b6001546001600160a01b031661032c565b6102bd61046736600461511c565b611baa565b61023c61047a36600461505f565b611cfb565b6102bd611d54565b61049a61049536600461505f565b611d65565b6040519015158152602001610220565b61023c6104b83660046153ce565b611e4a565b6104c5614e93565b506001600160a01b03908116600090815260026020818152604092839020835160e0810185528154958616815263ffffffff600160a01b870481168285015260ff600160c01b88048116151583880152600160c81b9097049096161515606080830191909152855180870187526001840154909716875285518087018752948301546001600160701b038082168752600160701b9091041685850152868401949094526080810195909552600381015460a08601528351928301845260048101548352600581015491830191909152600601549181019190915260c082015290565b7f00000000000000000000000000000000000000000000000000000000000000006105d181611e65565b816105db57505050565b60006105e684611e91565b9050828160040160020160008282546105ff9190615401565b9091555050505b505050565b610613611fa1565b604080518082019091528281526020810182905261063081611fcc565b600061063b85611e91565b8054909150600160c01b900460ff161561066857604051637952fbad60e11b815260040160405180910390fd5b60007f00000000000000000000000000000000000000000000000000000000000000006001600160a01b03166387ba006a6040518163ffffffff1660e01b8152600401602060405180830381865afa1580156106c8573d6000803e3d6000fd5b505050506040513d601f19601f820116820180604052508101906106ec9190615419565b905061072b6000801b87848560040160405180606001604052908160008201548152602001600182015481526020016002820154815250508786611ff2565b60048201548111156107505760405163bb55fd2760e01b815260040160405180910390fd5b60405180604001604052806107624390565b63ffffffff1681526020016107768561246f565b905280516001808501805463ffffffff90931663ffffffff1990931692909217909155602091820151805160028601805492909401516001600160701b03908116600160701b026001600160e01b031990931691161717909155825460ff60c01b1916600160c01b17835560405181906001600160a01b038916907f162ed187f3ed3879ae360c5df2a0a5dcaac7a208a9d762c2cbbfb1f5fad8b81d90600090a4505050505050565b610827611fa1565b600061083283611e91565b6003810154909150828114156108485750505050565b6003820183905560408051828152602081018590526001600160a01b038616917ff1c2cc08203aa526d8f6835b1bc1a534e2aea3340fd723ce834129285e2e517191015b60405180910390a250505b5050565b6108a3611fa1565b60006108ae82611e91565b90506108976000838360016124cf565b6108e260405180606001604052806000815260200160008152602001600081525090565b816108ec816124e9565b60006108fe8187878760001984612507565b9050610909816127e2565b60408051606080820183528351825283015160208201526080909201519082015295945050505050565b8161093d81612903565b7f000000000000000000000000000000000000000000000000000000000000000061096781611e65565b61097f8461097a36869003860186615571565b61292a565b61098c602084018461505f565b6001600160a01b03166379ba50976040518163ffffffff1660e01b8152600401600060405180830381600087803b1580156109c657600080fd5b505af11580156109da573d6000803e3d6000fd5b50506040516001600160a01b03871692507f103beafb2ef5b83fc389c3fec15c1fb03e276eea3a4b5bcee1fa145242f33c439150600090a250505050565b6001600160a01b038083166000908152600260208181526040808420815160e0810183528154808816825263ffffffff600160a01b820481168387015260ff600160c01b83048116151584870152600160c81b9092049091161515606080840191909152845180860186526001850154909216825284518086018652968401546001600160701b038082168952600160701b9091041687870152818601969096526080820152600382015460a08201528251948501835260048083015486526005830154868601526006909201548584015260c0810194909452835182516318160ddd60e01b8152925195969495610b699591909116936318160ddd9380840193919291908290030181865afa158015610b36573d6000803e3d6000fd5b505050506040513d601f19601f82011682018060405250810190610b5a9190615419565b848360c0015160400151612a51565b9150505b92915050565b610b9760405180606001604052806000815260200160008152602001600081525090565b7f0000000000000000000000000000000000000000000000000000000000000000610bc181611e65565b83610bcb816124e9565b83610bd5816124e9565b6000610be68a8a8a8a8a6001612507565b9050610bf181612a91565b60405180606001604052808260200151815260200182606001518152602001826080015181525094505050505095945050505050565b610c4b60405180606001604052806000815260200160008152602001600081525090565b82610c5581612903565b82610c5f816124e9565b6000610c6b8686612b8b565b905060405180606001604052808260c001518360e00151610c8c9190615632565b815260200182604001518360000151610ca59190615401565b81526020018260200151815250935050505092915050565b610ce160405180606001604052806000815260200160008152602001600081525090565b81610ceb816124e9565b6000610cfc81878787600180612507565b9050610d07816127e2565b604051806060016040528082602001518152602001826060015181526020018260800151815250925050509392505050565b6001546001600160a01b03163314610d6457604051634ca8886760e01b815260040160405180910390fd5b600154610d79906001600160a01b0316612f34565b565b610d83611fa1565b6000610d8e83611e91565b805490915060ff600160c81b9091041615158215151415610dae57505050565b805460ff60c81b1916600160c81b8315159081029190911782556040516001600160a01b038516907fa606e6917bc476eb72d24f486596af7f564fb7b50f73135c81c0e8e0553430cd90600090a3505050565b60007f0000000000000000000000000000000000000000000000000000000000000000610e2d81611e65565b84610e3781612903565b83610e41816124e9565b6000610e4d8787612b8b565b9050610e5c8989898985612f8e565b5198975050505050505050565b7f0000000000000000000000000000000000000000000000000000000000000000610e9381611e65565b60405163b5af090f60e01b81526001600160a01b0383811660048301527f0000000000000000000000000000000000000000000000000000000000000000169063b5af090f90602401602060405180830381865afa158015610ef9573d6000803e3d6000fd5b505050506040513d601f19601f82011682018060405250810190610f1d9190615649565b610f3a57604051630b094f2760e31b815260040160405180910390fd5b604051632b625f2360e01b81526001600160a01b0383811660048301526000917f000000000000000000000000000000000000000000000000000000000000000090911690632b625f23906024016020604051808303816000875af1158015610fa7573d6000803e3d6000fd5b505050506040513d601f19601f82011682018060405250810190610fcb9190615666565b9050806001600160a01b03166379ba50976040518163ffffffff1660e01b8152600401600060405180830381600087803b15801561100857600080fd5b505af115801561101c573d6000803e3d6000fd5b50506040805160e0810182526001600160a01b038516815260055463ffffffff16602080830191909152600082840181905260016060840152835180850190945280845294509092506080830191908101611099604080518082018252600080825260209182018190528251808401909352825260019082015290565b81525081526020016000815260200160405180606001604052806000815260200160008152602001600081525081525090506110d5848261292a565b836001600160a01b0316826001600160a01b03167f4f2ce4e40f623ca765fc0167a25cb7842ceaafb8d82d3dec26ca0d0e0d2d489660405160405180910390a360405160009081906001600160a01b038716907f162ed187f3ed3879ae360c5df2a0a5dcaac7a208a9d762c2cbbfb1f5fad8b81d908390a4836001600160a01b03167fa2d66c1e2cc4b2cc5daaabc06447542e989ed748a9fb22476b6c913dcc1c7f4b6000836020015160405161119f92919063ffffffff92831681529116602082015260400190565b60405180910390a280606001511515846001600160a01b03167fa606e6917bc476eb72d24f486596af7f564fb7b50f73135c81c0e8e0553430cd60405160405180910390a3836001600160a01b03167ff1c2cc08203aa526d8f6835b1bc1a534e2aea3340fd723ce834129285e2e517160008360a0015160405161088c929190918252602082015260400190565b611235611fa1565b8061123f816136ac565b600061124a84611e91565b805490915063ffffffff600160a01b909104811690841681141561126f575050505050565b815463ffffffff60a01b1916600160a01b63ffffffff86811691820292909217845560408051928416835260208301919091526001600160a01b038716917fa2d66c1e2cc4b2cc5daaabc06447542e989ed748a9fb22476b6c913dcc1c7f4b910160405180910390a25050505050565b6000826112ee5750600061146d565b6001600160a01b038085166000908152600260208181526040808420815160e0810183528154808816825263ffffffff600160a01b820481168387015260ff600160c01b83048116151584870152600160c81b9092049091161515606080840191909152845180860186526001850154909216825284518086018652968401546001600160701b038082168952600160701b9091041687870152818601969096526080820152600382015460a08201528251948501835260048083015486526005830154868601526006909201548584015260c0810194909452835182516318160ddd60e01b81529251949616936318160ddd93838301939092908290030181865afa158015611402573d6000803e3d6000fd5b505050506040513d601f19601f820116820180604052508101906114269190615419565b905060006114348287615683565b905061146781836114458882615632565b8660c00151604001516114589190615683565b6114629085615401565b6136d6565b93505050505b9392505050565b60007f00000000000000000000000000000000000000000000000000000000000000006114a081611e65565b846114aa81612903565b836114b4816124e9565b60006114bf87611e91565b8054909150600160c81b900460ff166114eb576040516303a5be3f60e31b815260040160405180910390fd5b60068101548154604080516318160ddd60e01b815290516000926001600160a01b0316916318160ddd9160048281019260209291908290030181865afa158015611539573d6000803e3d6000fd5b505050506040513d601f19601f8201168201806040525081019061155d9190615419565b9050600061156c828a8561379f565b9050600061157a8a85615401565b905084600301548111156115a157604051630d5befc560e31b815260040160405180910390fd5b600085600401604051806060016040529081600082015481526020016001820154815260200160028201548152505090508186600401600201819055508560000160009054906101000a90046001600160a01b03166001600160a01b03166340c10f198e856040518363ffffffff1660e01b81526004016116379291906001600160a01b03929092168252602082015260400190565b600060405180830381600087803b15801561165157600080fd5b505af1158015611665573d6000803e3d6000fd5b5050505061179b8e8d888960040160405180606001604052908160008201548152602001600182015481526020016002820154815250506117148b6001016001016040518060400160405290816000820160009054906101000a90046001600160701b03166001600160701b03166001600160701b0316815260200160008201600e9054906101000a90046001600160701b03166001600160701b03166001600160701b0316815250506137d0565b7f00000000000000000000000000000000000000000000000000000000000000006001600160a01b03166387ba006a6040518163ffffffff1660e01b8152600401602060405180830381865afa158015611772573d6000803e3d6000fd5b505050506040513d601f19601f820116820180604052508101906117969190615419565b611ff2565b8c6001600160a01b03168c6001600160a01b03168f7fde2cfef9dff1a7e9456a713a542ee023d464d4ea83b5a66c77ecc172bde927f18e876040516117ea929190918252602082015260400190565b60405180910390a461182f8e8d6118018688615401565b6040805160608101825260048c0154815260058c0154602082015260068c015491810191909152859061380c565b50909c9b505050505050505050505050565b61186560405180606001604052806000815260200160008152602001600081525090565b506001600160a01b0316600090815260026020908152604091829020825160608101845260048201548152600582015492810192909252600601549181019190915290565b6118ce60405180606001604052806000815260200160008152602001600081525090565b7f00000000000000000000000000000000000000000000000000000000000000006118f881611e65565b83611902816124e9565b8361190c816124e9565b600061191d8a8a8a8a8a6000612507565b905061192881612a91565b6040805160608082018352835182528301516020820152608090920151908201529998505050505050505050565b6060600061196460036138ac565b905060008167ffffffffffffffff81111561198157611981615432565b6040519080825280602002602001820160405280156119aa578160200160208202803683370190505b50905060005b828110156119ff576119c36003826138b6565b8282815181106119d5576119d56156a2565b6001600160a01b0390921660209283029190910190910152806119f7816156b8565b9150506119b0565b5092915050565b80611a1081612903565b7f0000000000000000000000000000000000000000000000000000000000000000611a3a81611e65565b60405163673cea6960e01b8152600160048201526001600160a01b03808516917f00000000000000000000000000000000000000000000000000000000000000009091169063673cea6990602401602060405180830381865afa158015611aa5573d6000803e3d6000fd5b505050506040513d601f19601f82011682018060405250810190611ac99190615666565b6001600160a01b031614611af05760405163386c33d760e11b815260040160405180910390fd5b6001600160a01b0380851660009081526002602052604090205416611b14856138c2565b60405163f2fde38b60e01b81526001600160a01b03858116600483015282169063f2fde38b90602401600060405180830381600087803b158015611b5757600080fd5b505af1158015611b6b573d6000803e3d6000fd5b50506040516001600160a01b03881692507f688560ab9d43331371ccc7bdbd540c51ae643746a1a29696539680e15ace98239150600090a25050505050565b6001600160a01b038083166000908152600260208181526040808420815160e0810183528154808816825263ffffffff600160a01b820481168387015260ff600160c01b83048116151584870152600160c81b9092049091161515606080840191909152845180860186526001850154909216825284518086018652968401546001600160701b038082168952600160701b9091041687870152818601969096526080820152600382015460a08201528251948501835260048083015486526005830154868601526006909201548584015260c0810194909452835182516318160ddd60e01b8152925195969495610b699591909116936318160ddd9380840193919291908290030181865afa158015611cc8573d6000803e3d6000fd5b505050506040513d601f19601f82011682018060405250810190611cec9190615419565b848360c001516040015161379f565b611d03611fa1565b6000546001600160a01b0382811691161415611d3257604051630a98f1f360e21b815260040160405180910390fd5b600180546001600160a01b0319166001600160a01b0392909216919091179055565b6000611d6060036138ac565b905090565b6001600160a01b038181166000908152600260208181526040808420815160e0810183528154808816825263ffffffff600160a01b820481168387015260ff600160c01b83048116151584870152600160c81b9092049091161515606080840191909152845180860186526001850154909216825284518086018652968401546001600160701b038082168952600160701b9091041687870152818601969096526080820152600382015460a08201528251948501835260048201548552600582015493850193909352600601549083015260c0810191909152519091161515610b6d565b611e52611fa1565b80611e5c816136ac565b6108978261394c565b336001600160a01b03821614611e8e57604051634ca8886760e01b815260040160405180910390fd5b50565b6001600160a01b038082166000908152600260208181526040808420815160e0810183528154968716815263ffffffff600160a01b880481168286015260ff600160c01b89048116151583860152600160c81b9098049097161515606080830191909152835180850185526001840154909816885283518085018552958301546001600160701b038082168852600160701b9091041686860152878501959095526080810196909652600381015460a0870152815193840182526004810154845260058101549284019290925260068201549083015260c08401919091529091611f8490516001600160a01b0316151590565b610b6d5760405163b0ce759160e01b815260040160405180910390fd5b6000546001600160a01b03163314610d7957604051634ca8886760e01b815260040160405180910390fd5b611fd5816139be565b611e8e57604051636a43f8d160e01b815260040160405180910390fd5b60006120276001600160a01b0387167f00000000000000000000000000000000000000000000000000000000000000006139db565b9050806120415761203b87878760026124cf565b50612467565b6001604080518082018252600188015463ffffffff168152815180830190925260028801546001600160701b038082168452600160701b90910416602083810191909152810191909152612096908690613a80565b60028111156120a7576120a76156d3565b14156120b35750612467565b6120bc836139be565b6120cd5761203b87878760026124cf565b60405163467e55df60e01b81526001600160a01b0387811660048301526000916121f49184917f00000000000000000000000000000000000000000000000000000000000000009091169063467e55df90602401602060405180830381865afa15801561213e573d6000803e3d6000fd5b505050506040513d601f19601f820116820180604052508101906121629190615419565b604051638d0c782760e01b81526001600160a01b038b811660048301527f00000000000000000000000000000000000000000000000000000000000000001690638d0c782790602401602060405180830381865afa1580156121c8573d6000803e3d6000fd5b505050506040513d601f19601f820116820180604052508101906121ec9190615419565b888888613b1e565b8051909150612204575050612467565b60208101516122215761221a88888860026124cf565b5050612467565b8451602082015111156122de577f00000000000000000000000000000000000000000000000000000000000000006001600160a01b03166371c0feb78989886000015185602001516122739190615632565b6040516001600160e01b031960e086901b16815260048101939093526001600160a01b0390911660248301526044820152606401600060405180830381600087803b1580156122c157600080fd5b505af11580156122d5573d6000803e3d6000fd5b50505050612397565b845160208201511015612397577f00000000000000000000000000000000000000000000000000000000000000006001600160a01b0316631ebda06d8989846020015189600001516123309190615632565b6040516001600160e01b031960e086901b16815260048101939093526001600160a01b0390911660248301526044820152606401600060405180830381600087803b15801561237e57600080fd5b505af1158015612392573d6000803e3d6000fd5b505050505b60006123b08260200151866020015187600001516136d6565b604080516060810182526020808601518083528183018590528a8401518385018190526004808e019290925560058d0186905560068d01558b5484516318160ddd60e01b815294519596509294612462948f948f946001600160a01b03909116936318160ddd93838201939091908290030181865afa158015612437573d6000803e3d6000fd5b505050506040513d601f19601f8201168201806040525081019061245b9190615419565b8a8561380c565b505050505b505050505050565b60408051808201909152600080825260208201526000612496836001600160701b03613c24565b9050604051806040016040528082600001516001600160701b0316815260200182602001516001600160701b0316815250915050919050565b6124e3848484856004016000015485613c91565b50505050565b80611e8e57604051637c946ed760e01b815260040160405180910390fd5b612588604051806101a00160405280600081526020016000815260200160008152602001600081526020016000815260200160008152602001600081526020016000815260200160006001600160a01b03168152602001600015158152602001600015158152602001600063ffffffff168152602001600080191681525090565b6001600160a01b038681167f00000000000000000000000000000000000000000000000000000000000000008216908114918716148180156125c8575080155b156125ea5760016101208401526001600160a01b038716610100840152612630565b811580156125f55750805b156126175760006101208401526001600160a01b038816610100840152612630565b60405163b0ce759160e01b815260040160405180910390fd5b6101008301516001600160a01b03908116600090815260026020818152604092839020835160e0810185528154808716825263ffffffff600160a01b820481168386015260ff600160c01b83048116151584890152600160c81b9092049091161515606080840191909152865180880188526001850154909216825286518088018852958401546001600160701b038082168852600160701b9091041686860152818501959095526080820152600382015460a08201528451938401855260048201548452600582015492840192909252600601549282019290925260c082015280519091166127335760405163b0ce759160e01b815260040160405180910390fd5b80604001516127555760405163bcb8b8fb60e01b815260040160405180910390fd5b61018084018a9052841580156101408601526127735786845261277b565b602084018790525b60408401869052602081015163ffffffff1661016085015260c0810151610120850151156127b957805160a0860152602081015160c08601526127cb565b602081015160a0860152805160c08601525b6040015160e0850152509198975050505050505050565b6040805180820190915260008082526020820152816101400151156128535761281e8260a001518360c001518461016001518560000151613e18565b8051602084018190526040840151919250101561284e5760405163f31ee7a560e01b815260040160405180910390fd5b61289c565b6128708260a001518360c001518461016001518560200151613eaa565b80518084526040840151919250111561289c5760405163681c2ccd60e11b815260040160405180910390fd5b60208101516060830152815160a0830180516128b9908390615401565b905250602082015160c0830180516128d2908390615632565b905250610120820151156128fa5781606001518260e0018181516128f69190615401565b9052505b61089782613f43565b6001600160a01b038116611e8e5760405163e6c4247b60e01b815260040160405180910390fd5b61293560038361408c565b6129525760405163119b4fd360e11b815260040160405180910390fd5b6001600160a01b0391821660009081526002602081815260409283902084518154838701518688015160608901511515600160c81b0260ff60c81b19911515600160c01b029190911661ffff60c01b1963ffffffff938416600160a01b026001600160c01b031990951695909b1694909417929092179890981691909117178155608085015180516001830180549190981663ffffffff19909116179096559481015180519286018054918301516001600160701b03908116600160701b026001600160e01b03199093169416939093171790915560a0830151600385015560c090920151805160048501559182015160058401550151600690910155565b600083612a7e578115612a7757604051636a9c61e160e01b815260040160405180910390fd5b508161146d565b612a898383866136d6565b949350505050565b6101008101516001600160a01b03166000908152600260209081526040918290208251606081018452600482015481526005820154818401908152600683015482860152845180860190955281518552519284019290925291612af59083906140a1565b612afe836127e2565b60006040518060600160405280856101200151612b1f578560c00151612b25565b8560a001515b8152602001856101200151612b3e578560a00151612b44565b8560c001515b81526020018560e001518152509050612b698461018001518561010001518484614161565b8051600484015560208101516005840155604001516006909201919091555050565b612b93614ef8565b6001600160a01b03838116600090815260026020818152604092839020835160e0810185528154808716825263ffffffff600160a01b820481168386015260ff600160c01b83048116151584890152600160c81b9092049091161515606080840191909152865180880188526001850154909216825286518088018852958401546001600160701b038082168852600160701b9091041686860152818501959095526080820152600382015460a08201528451938401855260048201548452600582015492840192909252600601549282019290925260c08201528051909116612c905760405163b0ce759160e01b815260040160405180910390fd5b60c081015160200151600090612ccf6001600160a01b0387167f00000000000000000000000000000000000000000000000000000000000000006139db565b612cd99190615632565b9050600082600001516001600160a01b03166318160ddd6040518163ffffffff1660e01b8152600401602060405180830381865afa158015612d1f573d6000803e3d6000fd5b505050506040513d601f19601f82011682018060405250810190612d439190615419565b90506000612d5a82878660c0015160400151612a51565b60c085015180516020820151604090920151929350600092612e4592908790612dac6001600160a01b038e167f00000000000000000000000000000000000000000000000000000000000000006139db565b8a6020015163ffffffff167f00000000000000000000000000000000000000000000000000000000000000006001600160a01b0316632aac012c6040518163ffffffff1660e01b8152600401602060405180830381865afa158015612e15573d6000803e3d6000fd5b505050506040513d601f19601f82011682018060405250810190612e3991906156e9565b63ffffffff168961424e565b905060405180610160016040528082606001518152602001826080015181526020018260a0015181526020018260400151815260200182600001518152602001826020015181526020018260c001518152602001838152602001848152602001826040015160200151612ed05760408301515160c088015160200151612ecb9190615401565b612ee9565b60408301515160c088015160200151612ee99190615632565b8152602001826000015160200151612f135782515160c088015151612f0e9190615401565b612f26565b82515160c088015151612f269190615632565b905298975050505050505050565b600080546001600160a01b038381166001600160a01b031980841682178555600180549091169055604051919092169283917f343765429aea5a34b3ff6a3785a98a5abb2597aca87bfbb58632c173d585373a9190a35050565b6000612f9984611e91565b60408051606081018252600483018054825260058401546020808401919091526006850154838501528351808501855260018087015463ffffffff168252855180870190965260028701546001600160701b038082168852600160701b909104168684015291810194909452939450929091906130168383613a80565b6002811115613027576130276156d3565b1415613046576040516301a6272960e41b815260040160405180910390fd5b835460405163079cc67960e41b81526001600160a01b037f00000000000000000000000000000000000000000000000000000000000000008116600483015260248201899052909116906379cc679090604401600060405180830381600087803b1580156130b357600080fd5b505af11580156130c7573d6000803e3d6000fd5b505050506000868661010001516130de9190615632565b90506130f48460020154828861010001516136d6565b60028501556101208601516001850155610140860151845560a086015151156131bf578560a001516020015161312c5761312c615706565b60a086015151604051631ebda06d60e01b8152600481018c90526001600160a01b038a8116602483015260448201929092527f000000000000000000000000000000000000000000000000000000000000000090911690631ebda06d90606401600060405180830381600087803b1580156131a657600080fd5b505af11580156131ba573d6000803e3d6000fd5b505050505b60808601515115613317578560800151602001511561325e57608086015151604051631538c64b60e31b815260048101919091527f00000000000000000000000000000000000000000000000000000000000000006001600160a01b03169063a9c6325890602401600060405180830381600087803b15801561324157600080fd5b505af1158015613255573d6000803e3d6000fd5b50505050613317565b6080860151516040516340c10f1960e01b81526001600160a01b037f000000000000000000000000000000000000000000000000000000000000000016916340c10f19916132e4917f0000000000000000000000000000000000000000000000000000000000000000916004016001600160a01b03929092168252602082015260400190565b600060405180830381600087803b1580156132fe57600080fd5b505af1158015613312573d6000803e3d6000fd5b505050505b6020860151156133ac5760208601516040516340c10f1960e01b81526001600160a01b038b8116600483015260248201929092527f0000000000000000000000000000000000000000000000000000000000000000909116906340c10f1990604401600060405180830381600087803b15801561339357600080fd5b505af11580156133a7573d6000803e3d6000fd5b505050505b604086015115613482576040868101519051631c20fadd60e01b81526001600160a01b038a811660048301527f00000000000000000000000000000000000000000000000000000000000000008116602483015260448201929092527f000000000000000000000000000000000000000000000000000000000000000090911690631c20fadd90606401600060405180830381600087803b15801561345057600080fd5b505af1158015613464573d6000803e3d6000fd5b5050505085604001518660000181815161347e9190615401565b9052505b855115613519578551604051631c20fadd60e01b81526001600160a01b038a811660048301528b8116602483015260448201929092527f000000000000000000000000000000000000000000000000000000000000000090911690631c20fadd90606401600060405180830381600087803b15801561350057600080fd5b505af1158015613514573d6000803e3d6000fd5b505050505b61012086015161356157604080518082018252600080825260209182018190528251808401909352825260019101526002850180546001600160e01b031916600160701b1790555b7f00000000000000000000000000000000000000000000000000000000000000006001600160a01b03166387ba006a6040518163ffffffff1660e01b8152600401602060405180830381865afa1580156135bf573d6000803e3d6000fd5b505050506040513d601f19601f820116820180604052508101906135e39190615419565b8661014001511015613602576136028a89878961014001516002613c91565b85516040808801516020808a015160c08b015184519586529185018c905292840191909152606083019190915260808201526001600160a01b03808b1691908a16908c907f860632b46c52c7409b75ebea6aa0e9e71f59a294dd17fd63f25904c631f30bf09060a00160405180910390a46124628a89838689600401604051806060016040529081600082015481526020016001820154815260200160028201548152505061380c565b620f424063ffffffff82161115611e8e576040516358d620b360e01b815260040160405180910390fd5b6000806136e385856144c9565b8051909150613704578281602001516136fc9190615732565b91505061146d565b8051831161372557604051631a93c68960e11b815260040160405180910390fd5b6000613732868686614550565b90506000613740838361456b565b8051909150613763578481602001516137599190615732565b935050505061146d565b600085810386169061377583836145f0565b9050600061378b613786848a615732565b614627565b90508181025b9a9950505050505050505050565b6000836137c5578115612a7757604051636a9c61e160e01b815260040160405180910390fd5b612a898385846136d6565b6040805180820182526000808252602091820152815180830190925282516001600160701b039081168352928101519092169181019190915290565b61381885858484614161565b81604001518160400151146138a55760408101516001600160a01b0385169086907f67c4863f17da9847c57c9fa043e63a0ddf4f5a86fd63a6f71ea69057a11c411a9086613886857f00000000000000000000000000000000000000000000000000000000000000006139db565b6040805193845260208401929092529082015260600160405180910390a35b5050505050565b6000610b6d825490565b600061146d8383614652565b6138cd60038261467c565b6138ea5760405163b0ce759160e01b815260040160405180910390fd5b6001600160a01b03166000908152600260208190526040822080546001600160d01b031916815560018101805463ffffffff1916905590810180546001600160e01b031916905560038101829055600481018290556005810182905560060155565b60055463ffffffff908116908216811415613965575050565b6005805463ffffffff191663ffffffff84811691821790925560408051928416835260208301919091527fb804b0ec3f0ea43004870df377170ce44cb789adca16d23286e337605558117f910160405180910390a15050565b60006139cd8260200151151590565b8015610b6d57505051151590565b600073eeeeeeeeeeeeeeeeeeeeeeeeeeeeeeeeeeeeeeee6001600160a01b0384161415613a1357506001600160a01b03811631610b6d565b826040516370a0823160e01b81526001600160a01b03848116600483015291909116906370a0823190602401602060405180830381865afa158015613a5c573d6000803e3d6000fd5b505050506040513d601f19601f8201168201806040525081019061146d9190615419565b60408051808201909152825181526020808401518183015282015160009190613aa8826139be565b1580613aba5750613ab881614691565b155b15613aca57600092505050610b6d565b4363ffffffff16846000015163ffffffff1614613aee57613aeb81836146c0565b90505b613b03613afa826137d0565b836127106146f2565b15613b1357600292505050610b6d565b506001949350505050565b60408051808201909152600080825260208201526000613b60613b5388613b4e8b886000015189602001516136d6565b614794565b8651613b4e908990615401565b905082811015613b86575050604080518082019091526001815260006020820152613c1a565b8451613bc7576000613b99600285615683565b905081811115613bc057505060408051808201909152600080825260208201529050613c1a565b9050613c01565b84518110613be457613bc08160028760000151613b4e9190615683565b613bfe8160028760000151613bf99190615732565b6147aa565b90505b6040805180820190915260018152602081019190915290505b9695505050505050565b60408051808201909152600080825260208201526000613c55613c4f856000015186602001516147aa565b846147ba565b90506040518060400160405280828660000151613c729190615732565b8152602001828660200151613c879190615732565b9052949350505050565b60006004840181905560058401819055604080518082018252828152815180830183528381526020908101849052825180840190935292825260018284015291820152805160018501805463ffffffff90921663ffffffff19909216919091179055602090810151805160028601805492909301516001600160701b03908116600160701b026001600160e01b0319909316911617179055825460ff600160c01b9091041615613d8257825460ff60c01b1916835560405160ff8216906000906001600160a01b038716907f162ed187f3ed3879ae360c5df2a0a5dcaac7a208a9d762c2cbbfb1f5fad8b81d908390a45b81156138a557604051631ebda06d60e01b8152600481018690526001600160a01b038581166024830152604482018490527f00000000000000000000000000000000000000000000000000000000000000001690631ebda06d90606401600060405180830381600087803b158015613df957600080fd5b505af1158015613e0d573d6000803e3d6000fd5b505050505050505050565b6040805180820190915260008082526020820152841580613e37575083155b15613e555760405163bb55fd2760e01b815260040160405180910390fd5b6000613e668584611462818a615401565b90506000613e7e8263ffffffff8716620f42406136d6565b905060405180604001604052808284613e979190615632565b8152602001919091529695505050505050565b604080518082019091526000808252602082015284613edc5760405163bb55fd2760e01b815260040160405180910390fd5b6000613f018363ffffffff8616613ef687620f4240615746565b63ffffffff166136d6565b90506000613f0f8285615401565b90506000613f228883611462818b615632565b60408051808201909152908152602081019390935250909695505050505050565b60007f00000000000000000000000000000000000000000000000000000000000000006001600160a01b0316636161b6266040518163ffffffff1660e01b8152600401602060405180830381865afa158015613fa3573d6000803e3d6000fd5b505050506040513d601f19601f82011682018060405250810190613fc791906156e9565b905063ffffffff8116613fd8575050565b6000613ff883606001518363ffffffff16620f424063ffffffff166136d6565b9050808360600181815161400c9190615632565b9052506101208301516140255760809092019190915250565b61403a8360c001518460a00151600084613e18565b51608084015260c083018051829190614054908390615401565b905250608083015160a08401805161406d908390615632565b90525060e083018051829190614084908390615632565b905250505050565b600061146d836001600160a01b0384166147ec565b6001820154439063ffffffff8083169116146106065760408051808201825263ffffffff83168152815180830190925260028501546001600160701b038082168452600160701b9091041660208381019190915290919082019061410590856146c0565b9052805160018501805463ffffffff90921663ffffffff19909216919091179055602090810151805160028601805492909301516001600160701b03908116600160701b026001600160e01b0319909316911617179055505050565b81518151146141ea577f00000000000000000000000000000000000000000000000000000000000000006001600160a01b0316836001600160a01b0316857f6e96dc5343d067ec486a9920e0304c3610ed05c65e45cc029d9b9fe7ecfa7620856000015185600001516040516141e1929190918252602082015260400190565b60405180910390a45b81602001518160200151146124e3576020808301518282015160408051928352928201526001600160a01b03851691829187917f6e96dc5343d067ec486a9920e0304c3610ed05c65e45cc029d9b9fe7ecfa7620910160405180910390a450505050565b614256614fa9565b6142696001600160801b038a111561483b565b61427c6001600160801b0389111561483b565b61428f6001600160801b0388111561483b565b6142a26001600160801b0387111561483b565b6142b56001600160801b0386111561483b565b6142c4620f424085111561483b565b6142d3620f424084111561483b565b6142df8683111561483b565b6000620f42406142ef8582615632565b6142f99085615683565b6143039190615732565b905061430f888a615401565b620f424061431d8682615632565b614327908a615683565b6143319190615732565b1115614432576000614343898b615401565b620f42406143518782615632565b61435b908b615683565b6143659190615732565b61436f9190615632565b9050600061437d8a8c615401565b614387908a615632565b90506143958b8b8b88614859565b80156143ab57506143ab8b8a84848b8b8b614883565b156143c6576143bf8c8c8b858b8a896148e5565b935061442b565b8b156143f8576143d98c8c8c8c876149be565b93506143e98c8c8b84878d614a3f565b60a0860152608085015261442b565b886144038b85615683565b61440d9190615732565b60608501526144208c8c8b84878d614a3f565b60a086015260808501525b50506144ad565b60006144476144418a8c615401565b89614ab4565b905060008111801561446057506144608a8a8a87614859565b801561447557506144758a8983898989614ace565b156144915761448a8b8b8a848a8a8a89614b58565b92506144ab565b8a156144a35761448a8b8b8b85614c06565b606083018290525b505b6144b78184615632565b60c08301525098975050505050505050565b604080518082019091526000808252602082015260006144e98484614c77565b905083830280821061451e576040518060400160405280828461450c9190615632565b81526020018281525092505050610b6d565b604051806040016040528060016145358585900390565b61453f9190615632565b815260200191909152949350505050565b600081806145605761456061571c565b838509949350505050565b6040805180820190915260008082526020820152818360200151106145b8576040518060400160405280846000015181526020018385602001516145af9190615632565b90529050610b6d565b6040518060400160405280600185600001516145d49190615632565b81526020016145e7856020015185900390565b90529392505050565b60008061460861460284808403615732565b60010190565b905082846020015161461a9190615732565b8451820217949350505050565b60006001815b60088110156119ff57838202600203820291508061464a816156b8565b91505061462d565b6000826000018281548110614669576146696156a2565b9060005260206000200154905092915050565b600061146d836001600160a01b038416614c86565b60006146a982602001516001600160701b0316151590565b8015610b6d575050516001600160701b0316151590565b604080518082019091526000808252602082015261146d6146ed6146e3856137d0565b8460046001614d79565b61246f565b825160009081906147249061470a85620f4240615746565b63ffffffff16866020015161471f9190615683565b6144c9565b905060006147498660200151620f424063ffffffff16876000015161471f9190615683565b86519091506000906147779061476287620f424061576b565b63ffffffff16886020015161471f9190615683565b90506147838383614e15565b801561146757506114678282614e15565b60008183106147a3578161146d565b5090919050565b6000818310156147a3578161146d565b60006147c68284615793565b156147d25760016147d5565b60005b60ff166147e28385615732565b61146d9190615401565b600081815260018301602052604081205461483357508154600181810184556000848152602080822090930184905584548482528286019093526040902091909155610b6d565b506000610b6d565b80611e8e576040516318b103bd60e21b815260040160405180910390fd5b60006148658284615632565b61486f9085615683565b6148798387615683565b1095945050505050565b6000806148b1614893898b615683565b61489d868b615683565b6148a7888b615683565b61471f9190615401565b905060006148d96148c2858a615683565b6148cf88620f4240615632565b61471f908a615683565b90506137918282614e29565b6148ed614fa9565b60006148fc85620f4240615632565b6149069087615683565b905060006149248961491b620f42408b615683565b87856001614e51565b905061496961493d614936878d615683565b84846136d6565b604080518082019091526000808252602082015250604080518082019091529081526000602082015290565b83526149a561497986898b6136d6565b604080518082019091526000808252602082015250604080518082019091529081526001602082015290565b6040840152505060608101919091529695505050505050565b6149c6614fa9565b60006149ee6149d58785615683565b6149df8587615632565b6149e99088615683565b614ab4565b9050614a026149798883611462888b615683565b8083526020830152614a176149798583615732565b6040830152614a3083614a2a8789615401565b866136d6565b60608301525095945050505050565b60008080614a4d8686615683565b90506000614a5b8886615683565b905080821115614a965760008a11614a74576000614a8c565b614a8c8a614a828385615632565b6114628b8d615683565b9350849250614aa7565b60009350614aa48883615732565b92505b5050965096945050505050565b6000818311614ac457600061146d565b61146d8284615632565b600080614b0a614ade888a615683565b620f4240614aec878b615683565b614af6898b615683565b614b009190615401565b61471f9190615683565b90506000614b3f614b1b8589615683565b614b2888620f4240615632565b614b32888c615683565b614af6620f42408c615683565b9050614b4b8282614e29565b9998505050505050505050565b614b60614fa9565b6000614b6c8589615683565b614b79620f424089615683565b614b839190615401565b90506000614bc38a614b9889620f4240615632565b614ba2908c615683565b87614bb08b620f4240615632565b614bba9087615683565b620f4240614e72565b9050614bd5614979614936878e615683565b8352614bec61493d8684611462620f42408e615683565b604084015250506060810191909152979650505050505050565b614c0e614fa9565b6000614c1a8385614ab4565b9050614c2a6149798783886136d6565b8083526020830152614c6281604080518082019091526000808252602082015250604080518082019091529081526001602082015290565b60408301525060608101919091529392505050565b60006000198284099392505050565b60008181526001830160205260408120548015614d6f576000614caa600183615632565b8554909150600090614cbe90600190615632565b9050818114614d23576000866000018281548110614cde57614cde6156a2565b9060005260206000200154905080876000018481548110614d0157614d016156a2565b6000918252602080832090910192909255918252600188019052604090208390555b8554869080614d3457614d346157a7565b600190038181906000526020600020016000905590558560010160008681526020019081526020016000206000905560019350505050610b6d565b6000915050610b6d565b604080518082019091526000808252602082015260405180604001604052808386600001518860200151614dad9190615683565b614db79190615683565b602087015188518791614dc991615683565b614dd39190615683565b614ddd9190615401565b8152602001614dec8486615401565b86602001518860200151614e009190615683565b614e0a9190615683565b905295945050505050565b6000614e218383614e29565b159392505050565b80518251600091108061146d57508151835114801561146d5750506020908101519101511190565b6000614e5e8484846136d6565b614e688688615683565b613c1a9190615632565b6000614e7f8484846136d6565b614e898688615683565b613c1a9190615401565b6040805160e081018252600080825260208201819052918101829052606081019190915260808101614ec3615018565b815260200160008152602001614ef360405180606001604052806000815260200160008152602001600081525090565b905290565b604051806101600160405280600081526020016000815260200160008152602001614f386040518060400160405280600081526020016000151581525090565b8152602001614f5c6040518060400160405280600081526020016000151581525090565b8152602001614f806040518060400160405280600081526020016000151581525090565b815260200160008152602001600081526020016000815260200160008152602001600081525090565b6040805161012081018252600060e082018181526101008301829052825282518084018452818152602080820183905280840191909152835180850185528281529081019190915290918201908152602001600081526020016000815260200160008152602001600081525090565b6040518060400160405280600063ffffffff168152602001614ef3604080518082019091526000808252602082015290565b6001600160a01b0381168114611e8e57600080fd5b60006020828403121561507157600080fd5b813561146d8161504a565b81516001600160a01b0316815260208083015163ffffffff908116828401526040808501511515818501526060808601511515908501526080808601518051909316908501529082015180516001600160701b0390811660a080870191909152918401511660c0808601919091529085015160e08501528401518051610100850152918201516101208401528101516101408301526101608201906119ff565b6000806040838503121561512f57600080fd5b823561513a8161504a565b946020939093013593505050565b60008060006060848603121561515d57600080fd5b83356151688161504a565b95602085013595506040909401359392505050565b60008060006060848603121561519257600080fd5b833561519d8161504a565b925060208401356151ad8161504a565b929592945050506040919091013590565b81518152602080830151908201526040808301519082015260608101610b6d565b6000808284036101808112156151f457600080fd5b83356151ff8161504a565b9250610160601f198201121561521457600080fd5b506020830190509250929050565b600080600080600060a0868803121561523a57600080fd5b85359450602086013561524c8161504a565b9350604086013561525c8161504a565b94979396509394606081013594506080013592915050565b8015158114611e8e57600080fd5b803561528d81615274565b919050565b600080604083850312156152a557600080fd5b82356152b08161504a565b915060208301356152c081615274565b809150509250929050565b600080600080608085870312156152e157600080fd5b8435935060208501356152f38161504a565b925060408501356153038161504a565b9396929550929360600135925050565b63ffffffff81168114611e8e57600080fd5b6000806040838503121561533857600080fd5b82356153438161504a565b915060208301356152c081615313565b6020808252825182820181905260009190848201906040850190845b818110156153945783516001600160a01b03168352928401929184019160010161536f565b50909695505050505050565b600080604083850312156153b357600080fd5b82356153be8161504a565b915060208301356152c08161504a565b6000602082840312156153e057600080fd5b813561146d81615313565b634e487b7160e01b600052601160045260246000fd5b60008219821115615414576154146153eb565b500190565b60006020828403121561542b57600080fd5b5051919050565b634e487b7160e01b600052604160045260246000fd5b6040805190810167ffffffffffffffff8111828210171561547957634e487b7160e01b600052604160045260246000fd5b60405290565b80356001600160701b038116811461528d57600080fd5b600081830360608112156154a957600080fd5b6154b1615448565b915082356154be81615313565b82526040601f19820112156154d257600080fd5b506154db615448565b6154e76020840161547f565b81526154f56040840161547f565b60208201528060208301525092915050565b60006060828403121561551957600080fd5b6040516060810181811067ffffffffffffffff8211171561554a57634e487b7160e01b600052604160045260246000fd5b80604052508091508235815260208301356020820152604083013560408201525092915050565b6000610160828403121561558457600080fd5b60405160e0810181811067ffffffffffffffff821117156155b557634e487b7160e01b600052604160045260246000fd5b60405282356155c38161504a565b815260208301356155d381615313565b602082015260408301356155e681615274565b60408201526155f760608401615282565b60608201526156098460808501615496565b608082015260e083013560a0820152615626846101008501615507565b60c08201529392505050565b600082821015615644576156446153eb565b500390565b60006020828403121561565b57600080fd5b815161146d81615274565b60006020828403121561567857600080fd5b815161146d8161504a565b600081600019048311821515161561569d5761569d6153eb565b500290565b634e487b7160e01b600052603260045260246000fd5b60006000198214156156cc576156cc6153eb565b5060010190565b634e487b7160e01b600052602160045260246000fd5b6000602082840312156156fb57600080fd5b815161146d81615313565b634e487b7160e01b600052600160045260246000fd5b634e487b7160e01b600052601260045260246000fd5b6000826157415761574161571c565b500490565b600063ffffffff83811690831681811015615763576157636153eb565b039392505050565b600063ffffffff80831681851680830382111561578a5761578a6153eb565b01949350505050565b6000826157a2576157a261571c565b500690565b634e487b7160e01b600052603160045260246000fdfea164736f6c634300080c000a",
  "devdoc": {
    "details": "Pool Collection contract notes: - the address of reserve token serves as the pool unique ID in both contract functions and events",
    "events": {
      "DefaultTradingFeePPMUpdated(uint32,uint32)": {
        "details": "triggered when the default trading fee is updated"
      },
      "DepositLimitUpdated(address,uint256,uint256)": {
        "details": "triggered when a pool's deposit limit is updated"
      },
      "DepositingEnabled(address,bool)": {
        "details": "triggered when depositing into a specific pool is enabled/disabled"
      },
      "PoolCreated(address,address)": {
        "details": "triggered when a pool is created"
      },
      "PoolMigratedIn(address)": {
        "details": "triggered when a pool is migrated into this pool collection"
      },
      "PoolMigratedOut(address)": {
        "details": "triggered when a pool is migrated out of this pool collection"
      },
      "TokenDeposited(bytes32,address,address,uint256,uint256)": {
        "details": "triggered when new liquidity is deposited into a pool"
      },
      "TokenWithdrawn(bytes32,address,address,uint256,uint256,uint256,uint256,uint256)": {
        "details": "triggered when existing liquidity is withdrawn from a pool"
      },
      "TotalLiquidityUpdated(bytes32,address,uint256,uint256,uint256)": {
        "details": "triggered when the total liquidity in a pool is updated"
      },
      "TradingEnabled(address,bool,uint8)": {
        "details": "triggered when trading in a specific pool is enabled/disabled"
      },
      "TradingFeePPMUpdated(address,uint32,uint32)": {
        "details": "triggered when a specific pool's trading fee is updated"
      },
      "TradingLiquidityUpdated(bytes32,address,address,uint256,uint256)": {
        "details": "triggered when the trading liquidity in a pool is updated"
      }
    },
    "kind": "dev",
    "methods": {
      "acceptOwnership()": {
        "details": "used by a new owner to accept an ownership transfer"
      },
      "constructor": {
        "details": "initializes a new PoolCollection contract"
      },
      "createPool(address)": {
        "details": "creates a new pool requirements: - the caller must be the network contract - the pool should have been whitelisted - the pool isn't already defined in the collection"
      },
      "defaultTradingFeePPM()": {
        "details": "returns the default trading fee (in units of PPM)"
      },
      "depositFor(bytes32,address,address,uint256)": {
        "details": "deposits base token liquidity on behalf of a specific provider and returns the respective pool token amount requirements: - the caller must be the network contract - assumes that the base token has been already deposited in the vault"
      },
      "disableTrading(address)": {
        "details": "disables trading in a given pool requirements: - the caller must be the owner of the contract"
      },
      "enableDepositing(address,bool)": {
        "details": "enables/disables depositing into a given pool requirements: - the caller must be the owner of the contract"
      },
      "enableTrading(address,uint256,uint256)": {
        "details": "enables trading in a given pool, by providing the funding rate as two virtual balances, and updates its trading liquidity requirements: - the caller must be the owner of the contract"
      },
      "isPoolValid(address)": {
        "details": "returns whether a pool is valid"
      },
      "migratePoolIn(address,(address,uint32,bool,bool,(uint32,(uint112,uint112)),uint256,(uint256,uint256,uint256)))": {
        "details": "migrates a pool to this pool collection requirements: - the caller must be the pool collection upgrader contract"
      },
      "migratePoolOut(address,address)": {
        "details": "migrates a pool from this pool collection requirements: - the caller must be the pool collection upgrader contract"
      },
      "newOwner()": {
        "details": "returns the address of the new owner candidate"
      },
      "onFeesCollected(address,uint256)": {
        "details": "notifies the pool of accrued fees requirements: - the caller must be the network contract"
      },
      "owner()": {
        "details": "returns the address of the current owner"
      },
      "poolCount()": {
        "details": "returns the number of all the pools which are managed by this pool collection"
      },
      "poolData(address)": {
        "details": "returns specific pool's data"
      },
      "poolLiquidity(address)": {
        "details": "returns the overall liquidity in the pool"
      },
      "poolToken(address)": {
        "details": "returns the pool token of the pool"
      },
      "poolTokenAmountToBurn(address,uint256,uint256)": {
        "details": "returns the number of pool token to burn in order to increase everyone's underlying value by the specified amount"
      },
      "poolTokenToUnderlying(address,uint256)": {
        "details": "converts the specified pool token amount to the underlying base token amount"
      },
      "poolType()": {
        "details": "returns the type of the pool"
      },
      "pools()": {
        "details": "returns all the pools which are managed by this pool collection"
      },
      "setDefaultTradingFeePPM(uint32)": {
        "details": "sets the default trading fee (in units of PPM) requirements: - the caller must be the owner of the contract"
      },
      "setDepositLimit(address,uint256)": {
        "details": "sets the deposit limit of a given pool requirements: - the caller must be the owner of the contract"
      },
      "setTradingFeePPM(address,uint32)": {
        "details": "sets the trading fee of a given pool requirements: - the caller must be the owner of the contract"
      },
      "tradeBySourceAmount(bytes32,address,address,uint256,uint256)": {
        "details": "performs a trade by providing the source amount and returns the target amount and the associated fee requirements: - the caller must be the network contract"
      },
      "tradeByTargetAmount(bytes32,address,address,uint256,uint256)": {
        "details": "performs a trade by providing the target amount and returns the required source amount and the associated fee requirements: - the caller must be the network contract"
      },
      "tradeInputAndFeeByTargetAmount(address,address,uint256)": {
        "details": "returns the input amount and fee when trading by providing the target amount"
      },
      "tradeOutputAndFeeBySourceAmount(address,address,uint256)": {
        "details": "returns the output amount and fee when trading by providing the source amount"
      },
      "transferOwnership(address)": {
        "details": "allows transferring the contract ownership requirements: - the caller must be the owner of the contract - the new owner still needs to accept the transfer"
      },
      "underlyingToPoolToken(address,uint256)": {
        "details": "converts the specified underlying base token amount to pool token amount"
      },
      "withdraw(bytes32,address,address,uint256)": {
        "details": "handles some of the withdrawal-related actions and returns the withdrawn base token amount requirements: - the caller must be the network contract - the caller must have approved the collection to transfer/burn the pool token amount on its behalf"
      },
      "withdrawalAmounts(address,uint256)": {
        "details": "returns the amounts that would be returned if the position is currently withdrawn, along with the breakdown of the base token and the BNT compensation"
      }
    },
    "version": 1
  },
  "userdoc": {
    "kind": "user",
    "methods": {},
    "version": 1
  },
  "storageLayout": {
    "storage": [
      {
        "astId": 30138,
        "contract": "contracts/pools/PoolCollection.sol:PoolCollection",
        "label": "_owner",
        "offset": 0,
        "slot": "0",
        "type": "t_address"
      },
      {
        "astId": 30140,
        "contract": "contracts/pools/PoolCollection.sol:PoolCollection",
        "label": "_newOwner",
        "offset": 0,
        "slot": "1",
        "type": "t_address"
      },
      {
        "astId": 18836,
        "contract": "contracts/pools/PoolCollection.sol:PoolCollection",
        "label": "_poolData",
        "offset": 0,
        "slot": "2",
        "type": "t_mapping(t_contract(Token)28365,t_struct(Pool)24048_storage)"
      },
      {
        "astId": 18839,
        "contract": "contracts/pools/PoolCollection.sol:PoolCollection",
        "label": "_pools",
        "offset": 0,
        "slot": "3",
        "type": "t_struct(AddressSet)6215_storage"
      },
      {
        "astId": 18841,
        "contract": "contracts/pools/PoolCollection.sol:PoolCollection",
        "label": "_defaultTradingFeePPM",
        "offset": 0,
        "slot": "5",
        "type": "t_uint32"
      }
    ],
    "types": {
      "t_address": {
        "encoding": "inplace",
        "label": "address",
        "numberOfBytes": "20"
      },
      "t_array(t_bytes32)dyn_storage": {
        "base": "t_bytes32",
        "encoding": "dynamic_array",
        "label": "bytes32[]",
        "numberOfBytes": "32"
      },
      "t_bool": {
        "encoding": "inplace",
        "label": "bool",
        "numberOfBytes": "1"
      },
      "t_bytes32": {
        "encoding": "inplace",
        "label": "bytes32",
        "numberOfBytes": "32"
      },
      "t_contract(IPoolToken)24386": {
        "encoding": "inplace",
        "label": "contract IPoolToken",
        "numberOfBytes": "20"
      },
      "t_contract(Token)28365": {
        "encoding": "inplace",
        "label": "contract Token",
        "numberOfBytes": "20"
      },
      "t_mapping(t_bytes32,t_uint256)": {
        "encoding": "mapping",
        "key": "t_bytes32",
        "label": "mapping(bytes32 => uint256)",
        "numberOfBytes": "32",
        "value": "t_uint256"
      },
      "t_mapping(t_contract(Token)28365,t_struct(Pool)24048_storage)": {
        "encoding": "mapping",
        "key": "t_contract(Token)28365",
        "label": "mapping(contract Token => struct Pool)",
        "numberOfBytes": "32",
        "value": "t_struct(Pool)24048_storage"
      },
      "t_struct(AddressSet)6215_storage": {
        "encoding": "inplace",
        "label": "struct EnumerableSet.AddressSet",
        "members": [
          {
            "astId": 6214,
            "contract": "contracts/pools/PoolCollection.sol:PoolCollection",
            "label": "_inner",
            "offset": 0,
            "slot": "0",
            "type": "t_struct(Set)5914_storage"
          }
        ],
        "numberOfBytes": "64"
      },
      "t_struct(AverageRate)24030_storage": {
        "encoding": "inplace",
        "label": "struct AverageRate",
        "members": [
          {
            "astId": 24026,
            "contract": "contracts/pools/PoolCollection.sol:PoolCollection",
            "label": "blockNumber",
            "offset": 0,
            "slot": "0",
            "type": "t_uint32"
          },
          {
            "astId": 24029,
            "contract": "contracts/pools/PoolCollection.sol:PoolCollection",
            "label": "rate",
            "offset": 0,
            "slot": "1",
            "type": "t_struct(Fraction112)30424_storage"
          }
        ],
        "numberOfBytes": "64"
      },
      "t_struct(Fraction112)30424_storage": {
        "encoding": "inplace",
        "label": "struct Fraction112",
        "members": [
          {
            "astId": 30421,
            "contract": "contracts/pools/PoolCollection.sol:PoolCollection",
            "label": "n",
            "offset": 0,
            "slot": "0",
            "type": "t_uint112"
          },
          {
            "astId": 30423,
            "contract": "contracts/pools/PoolCollection.sol:PoolCollection",
            "label": "d",
            "offset": 14,
            "slot": "0",
            "type": "t_uint112"
          }
        ],
        "numberOfBytes": "32"
      },
      "t_struct(Pool)24048_storage": {
        "encoding": "inplace",
        "label": "struct Pool",
        "members": [
          {
            "astId": 24033,
            "contract": "contracts/pools/PoolCollection.sol:PoolCollection",
            "label": "poolToken",
            "offset": 0,
            "slot": "0",
            "type": "t_contract(IPoolToken)24386"
          },
          {
            "astId": 24035,
            "contract": "contracts/pools/PoolCollection.sol:PoolCollection",
            "label": "tradingFeePPM",
            "offset": 20,
            "slot": "0",
            "type": "t_uint32"
          },
          {
            "astId": 24037,
            "contract": "contracts/pools/PoolCollection.sol:PoolCollection",
            "label": "tradingEnabled",
            "offset": 24,
            "slot": "0",
            "type": "t_bool"
          },
          {
            "astId": 24039,
            "contract": "contracts/pools/PoolCollection.sol:PoolCollection",
            "label": "depositingEnabled",
            "offset": 25,
            "slot": "0",
            "type": "t_bool"
          },
          {
            "astId": 24042,
            "contract": "contracts/pools/PoolCollection.sol:PoolCollection",
            "label": "averageRate",
            "offset": 0,
            "slot": "1",
            "type": "t_struct(AverageRate)24030_storage"
          },
          {
            "astId": 24044,
            "contract": "contracts/pools/PoolCollection.sol:PoolCollection",
            "label": "depositLimit",
            "offset": 0,
            "slot": "3",
            "type": "t_uint256"
          },
          {
            "astId": 24047,
            "contract": "contracts/pools/PoolCollection.sol:PoolCollection",
            "label": "liquidity",
            "offset": 0,
            "slot": "4",
            "type": "t_struct(PoolLiquidity)24024_storage"
          }
        ],
        "numberOfBytes": "224"
      },
      "t_struct(PoolLiquidity)24024_storage": {
        "encoding": "inplace",
        "label": "struct PoolLiquidity",
        "members": [
          {
            "astId": 24019,
            "contract": "contracts/pools/PoolCollection.sol:PoolCollection",
            "label": "bntTradingLiquidity",
            "offset": 0,
            "slot": "0",
            "type": "t_uint256"
          },
          {
            "astId": 24021,
            "contract": "contracts/pools/PoolCollection.sol:PoolCollection",
            "label": "baseTokenTradingLiquidity",
            "offset": 0,
            "slot": "1",
            "type": "t_uint256"
          },
          {
            "astId": 24023,
            "contract": "contracts/pools/PoolCollection.sol:PoolCollection",
            "label": "stakedBalance",
            "offset": 0,
            "slot": "2",
            "type": "t_uint256"
          }
        ],
        "numberOfBytes": "96"
      },
      "t_struct(Set)5914_storage": {
        "encoding": "inplace",
        "label": "struct EnumerableSet.Set",
        "members": [
          {
            "astId": 5909,
            "contract": "contracts/pools/PoolCollection.sol:PoolCollection",
            "label": "_values",
            "offset": 0,
            "slot": "0",
            "type": "t_array(t_bytes32)dyn_storage"
          },
          {
            "astId": 5913,
            "contract": "contracts/pools/PoolCollection.sol:PoolCollection",
            "label": "_indexes",
            "offset": 0,
            "slot": "1",
            "type": "t_mapping(t_bytes32,t_uint256)"
          }
        ],
        "numberOfBytes": "64"
      },
      "t_uint112": {
        "encoding": "inplace",
        "label": "uint112",
        "numberOfBytes": "14"
      },
      "t_uint256": {
        "encoding": "inplace",
        "label": "uint256",
        "numberOfBytes": "32"
      },
      "t_uint32": {
        "encoding": "inplace",
        "label": "uint32",
        "numberOfBytes": "4"
      }
    }
  }
}