{
  "address": "0x3c497b7086d91927a6EbaB57dDbE70dD54b30EA9",
  "abi": [
    {
      "inputs": [
        {
          "internalType": "contract IBancorNetwork",
          "name": "initNetwork",
          "type": "address"
        },
        {
          "internalType": "contract INetworkSettings",
          "name": "initNetworkSettings",
          "type": "address"
        },
        {
          "internalType": "contract ITokenGovernance",
          "name": "initBNTGovernance",
          "type": "address"
        },
        {
          "internalType": "contract IBNTPool",
          "name": "initBNTPool",
          "type": "address"
        },
        {
          "internalType": "contract IExternalRewardsVault",
          "name": "initExternalRewardsVault",
          "type": "address"
        }
      ],
      "stateMutability": "nonpayable",
      "type": "constructor"
    },
    {
      "inputs": [],
      "name": "AccessDenied",
      "type": "error"
    },
    {
      "inputs": [],
      "name": "ArrayNotUnique",
      "type": "error"
    },
    {
      "inputs": [],
      "name": "EthAmountMismatch",
      "type": "error"
    },
    {
      "inputs": [],
      "name": "InsufficientFunds",
      "type": "error"
    },
    {
      "inputs": [],
      "name": "InvalidAddress",
      "type": "error"
    },
    {
      "inputs": [],
      "name": "InvalidParam",
      "type": "error"
    },
    {
      "inputs": [],
      "name": "NotWhitelisted",
      "type": "error"
    },
    {
      "inputs": [],
      "name": "PermitUnsupported",
      "type": "error"
    },
    {
      "inputs": [],
      "name": "PoolMismatch",
      "type": "error"
    },
    {
      "inputs": [],
      "name": "ProgramAlreadyExists",
      "type": "error"
    },
    {
      "inputs": [],
      "name": "ProgramDisabled",
      "type": "error"
    },
    {
      "inputs": [],
      "name": "ProgramDoesNotExist",
      "type": "error"
    },
    {
      "inputs": [],
      "name": "ProgramInactive",
      "type": "error"
    },
    {
      "inputs": [],
      "name": "RewardsTokenMismatch",
      "type": "error"
    },
    {
      "inputs": [],
      "name": "ZeroValue",
      "type": "error"
    },
    {
      "anonymous": false,
      "inputs": [
        {
          "indexed": true,
          "internalType": "contract Token",
          "name": "pool",
          "type": "address"
        },
        {
          "indexed": true,
          "internalType": "uint256",
          "name": "programId",
          "type": "uint256"
        },
        {
          "indexed": true,
          "internalType": "contract Token",
          "name": "rewardsToken",
          "type": "address"
        },
        {
          "indexed": false,
          "internalType": "uint256",
          "name": "totalRewards",
          "type": "uint256"
        },
        {
          "indexed": false,
          "internalType": "uint32",
          "name": "startTime",
          "type": "uint32"
        },
        {
          "indexed": false,
          "internalType": "uint32",
          "name": "endTime",
          "type": "uint32"
        }
      ],
      "name": "ProgramCreated",
      "type": "event"
    },
    {
      "anonymous": false,
      "inputs": [
        {
          "indexed": true,
          "internalType": "contract Token",
          "name": "pool",
          "type": "address"
        },
        {
          "indexed": true,
          "internalType": "uint256",
          "name": "programId",
          "type": "uint256"
        },
        {
          "indexed": false,
          "internalType": "bool",
          "name": "status",
          "type": "bool"
        },
        {
          "indexed": false,
          "internalType": "uint256",
          "name": "remainingRewards",
          "type": "uint256"
        }
      ],
      "name": "ProgramEnabled",
      "type": "event"
    },
    {
      "anonymous": false,
      "inputs": [
        {
          "indexed": true,
          "internalType": "contract Token",
          "name": "pool",
          "type": "address"
        },
        {
          "indexed": true,
          "internalType": "uint256",
          "name": "programId",
          "type": "uint256"
        },
        {
          "indexed": false,
          "internalType": "uint32",
          "name": "endTime",
          "type": "uint32"
        },
        {
          "indexed": false,
          "internalType": "uint256",
          "name": "remainingRewards",
          "type": "uint256"
        }
      ],
      "name": "ProgramTerminated",
      "type": "event"
    },
    {
      "anonymous": false,
      "inputs": [
        {
          "indexed": true,
          "internalType": "contract Token",
          "name": "pool",
          "type": "address"
        },
        {
          "indexed": true,
          "internalType": "uint256",
          "name": "programId",
          "type": "uint256"
        },
        {
          "indexed": true,
          "internalType": "address",
          "name": "provider",
          "type": "address"
        },
        {
          "indexed": false,
          "internalType": "uint256",
          "name": "poolTokenAmount",
          "type": "uint256"
        },
        {
          "indexed": false,
          "internalType": "uint256",
          "name": "prevStake",
          "type": "uint256"
        }
      ],
      "name": "ProviderJoined",
      "type": "event"
    },
    {
      "anonymous": false,
      "inputs": [
        {
          "indexed": true,
          "internalType": "contract Token",
          "name": "pool",
          "type": "address"
        },
        {
          "indexed": true,
          "internalType": "uint256",
          "name": "programId",
          "type": "uint256"
        },
        {
          "indexed": true,
          "internalType": "address",
          "name": "provider",
          "type": "address"
        },
        {
          "indexed": false,
          "internalType": "uint256",
          "name": "poolTokenAmount",
          "type": "uint256"
        },
        {
          "indexed": false,
          "internalType": "uint256",
          "name": "remainingStake",
          "type": "uint256"
        }
      ],
      "name": "ProviderLeft",
      "type": "event"
    },
    {
      "anonymous": false,
      "inputs": [
        {
          "indexed": true,
          "internalType": "contract Token",
          "name": "pool",
          "type": "address"
        },
        {
          "indexed": true,
          "internalType": "uint256",
          "name": "programId",
          "type": "uint256"
        },
        {
          "indexed": true,
          "internalType": "address",
          "name": "provider",
          "type": "address"
        },
        {
          "indexed": false,
          "internalType": "uint256",
          "name": "amount",
          "type": "uint256"
        }
      ],
      "name": "RewardsClaimed",
      "type": "event"
    },
    {
      "anonymous": false,
      "inputs": [
        {
          "indexed": true,
          "internalType": "contract Token",
          "name": "pool",
          "type": "address"
        },
        {
          "indexed": true,
          "internalType": "uint256",
          "name": "programId",
          "type": "uint256"
        },
        {
          "indexed": true,
          "internalType": "address",
          "name": "provider",
          "type": "address"
        },
        {
          "indexed": false,
          "internalType": "uint256",
          "name": "amount",
          "type": "uint256"
        }
      ],
      "name": "RewardsStaked",
      "type": "event"
    },
    {
      "anonymous": false,
      "inputs": [
        {
          "indexed": true,
          "internalType": "bytes32",
          "name": "role",
          "type": "bytes32"
        },
        {
          "indexed": true,
          "internalType": "bytes32",
          "name": "previousAdminRole",
          "type": "bytes32"
        },
        {
          "indexed": true,
          "internalType": "bytes32",
          "name": "newAdminRole",
          "type": "bytes32"
        }
      ],
      "name": "RoleAdminChanged",
      "type": "event"
    },
    {
      "anonymous": false,
      "inputs": [
        {
          "indexed": true,
          "internalType": "bytes32",
          "name": "role",
          "type": "bytes32"
        },
        {
          "indexed": true,
          "internalType": "address",
          "name": "account",
          "type": "address"
        },
        {
          "indexed": true,
          "internalType": "address",
          "name": "sender",
          "type": "address"
        }
      ],
      "name": "RoleGranted",
      "type": "event"
    },
    {
      "anonymous": false,
      "inputs": [
        {
          "indexed": true,
          "internalType": "bytes32",
          "name": "role",
          "type": "bytes32"
        },
        {
          "indexed": true,
          "internalType": "address",
          "name": "account",
          "type": "address"
        },
        {
          "indexed": true,
          "internalType": "address",
          "name": "sender",
          "type": "address"
        }
      ],
      "name": "RoleRevoked",
      "type": "event"
    },
    {
      "inputs": [],
      "name": "DEFAULT_ADMIN_ROLE",
      "outputs": [
        {
          "internalType": "bytes32",
          "name": "",
          "type": "bytes32"
        }
      ],
      "stateMutability": "view",
      "type": "function"
    },
    {
      "inputs": [
        {
          "internalType": "contract Token",
          "name": "pool",
          "type": "address"
        }
      ],
      "name": "activeProgramId",
      "outputs": [
        {
          "internalType": "uint256",
          "name": "",
          "type": "uint256"
        }
      ],
      "stateMutability": "view",
      "type": "function"
    },
    {
      "inputs": [
        {
          "internalType": "uint256[]",
          "name": "ids",
          "type": "uint256[]"
        },
        {
          "internalType": "uint256",
          "name": "maxAmount",
          "type": "uint256"
        }
      ],
      "name": "claimRewards",
      "outputs": [
        {
          "internalType": "uint256",
          "name": "",
          "type": "uint256"
        }
      ],
      "stateMutability": "nonpayable",
      "type": "function"
    },
    {
      "inputs": [
        {
          "internalType": "contract Token",
          "name": "pool",
          "type": "address"
        },
        {
          "internalType": "contract Token",
          "name": "rewardsToken",
          "type": "address"
        },
        {
          "internalType": "uint256",
          "name": "totalRewards",
          "type": "uint256"
        },
        {
          "internalType": "uint32",
          "name": "startTime",
          "type": "uint32"
        },
        {
          "internalType": "uint32",
          "name": "endTime",
          "type": "uint32"
        }
      ],
      "name": "createProgram",
      "outputs": [
        {
          "internalType": "uint256",
          "name": "",
          "type": "uint256"
        }
      ],
      "stateMutability": "nonpayable",
      "type": "function"
    },
    {
      "inputs": [
        {
          "internalType": "uint256",
          "name": "id",
          "type": "uint256"
        },
        {
          "internalType": "uint256",
          "name": "tokenAmount",
          "type": "uint256"
        }
      ],
      "name": "depositAndJoin",
      "outputs": [],
      "stateMutability": "payable",
      "type": "function"
    },
    {
      "inputs": [
        {
          "internalType": "uint256",
          "name": "id",
          "type": "uint256"
        },
        {
          "internalType": "uint256",
          "name": "tokenAmount",
          "type": "uint256"
        },
        {
          "internalType": "uint256",
          "name": "deadline",
          "type": "uint256"
        },
        {
          "internalType": "uint8",
          "name": "v",
          "type": "uint8"
        },
        {
          "internalType": "bytes32",
          "name": "r",
          "type": "bytes32"
        },
        {
          "internalType": "bytes32",
          "name": "s",
          "type": "bytes32"
        }
      ],
      "name": "depositAndJoinPermitted",
      "outputs": [],
      "stateMutability": "nonpayable",
      "type": "function"
    },
    {
      "inputs": [
        {
          "internalType": "uint256",
          "name": "id",
          "type": "uint256"
        },
        {
          "internalType": "bool",
          "name": "status",
          "type": "bool"
        }
      ],
      "name": "enableProgram",
      "outputs": [],
      "stateMutability": "nonpayable",
      "type": "function"
    },
    {
      "inputs": [
        {
          "internalType": "bytes32",
          "name": "role",
          "type": "bytes32"
        }
      ],
      "name": "getRoleAdmin",
      "outputs": [
        {
          "internalType": "bytes32",
          "name": "",
          "type": "bytes32"
        }
      ],
      "stateMutability": "view",
      "type": "function"
    },
    {
      "inputs": [
        {
          "internalType": "bytes32",
          "name": "role",
          "type": "bytes32"
        },
        {
          "internalType": "uint256",
          "name": "index",
          "type": "uint256"
        }
      ],
      "name": "getRoleMember",
      "outputs": [
        {
          "internalType": "address",
          "name": "",
          "type": "address"
        }
      ],
      "stateMutability": "view",
      "type": "function"
    },
    {
      "inputs": [
        {
          "internalType": "bytes32",
          "name": "role",
          "type": "bytes32"
        }
      ],
      "name": "getRoleMemberCount",
      "outputs": [
        {
          "internalType": "uint256",
          "name": "",
          "type": "uint256"
        }
      ],
      "stateMutability": "view",
      "type": "function"
    },
    {
      "inputs": [
        {
          "internalType": "bytes32",
          "name": "role",
          "type": "bytes32"
        },
        {
          "internalType": "address",
          "name": "account",
          "type": "address"
        }
      ],
      "name": "grantRole",
      "outputs": [],
      "stateMutability": "nonpayable",
      "type": "function"
    },
    {
      "inputs": [
        {
          "internalType": "bytes32",
          "name": "role",
          "type": "bytes32"
        },
        {
          "internalType": "address",
          "name": "account",
          "type": "address"
        }
      ],
      "name": "hasRole",
      "outputs": [
        {
          "internalType": "bool",
          "name": "",
          "type": "bool"
        }
      ],
      "stateMutability": "view",
      "type": "function"
    },
    {
      "inputs": [],
      "name": "initialize",
      "outputs": [],
      "stateMutability": "nonpayable",
      "type": "function"
    },
    {
      "inputs": [
        {
          "internalType": "uint256",
          "name": "id",
          "type": "uint256"
        }
      ],
      "name": "isProgramActive",
      "outputs": [
        {
          "internalType": "bool",
          "name": "",
          "type": "bool"
        }
      ],
      "stateMutability": "view",
      "type": "function"
    },
    {
      "inputs": [
        {
          "internalType": "uint256",
          "name": "id",
          "type": "uint256"
        }
      ],
      "name": "isProgramEnabled",
      "outputs": [
        {
          "internalType": "bool",
          "name": "",
          "type": "bool"
        }
      ],
      "stateMutability": "view",
      "type": "function"
    },
    {
      "inputs": [
        {
          "internalType": "uint256",
          "name": "id",
          "type": "uint256"
        },
        {
          "internalType": "uint256",
          "name": "poolTokenAmount",
          "type": "uint256"
        }
      ],
      "name": "join",
      "outputs": [],
      "stateMutability": "nonpayable",
      "type": "function"
    },
    {
      "inputs": [
        {
          "internalType": "uint256",
          "name": "id",
          "type": "uint256"
        },
        {
          "internalType": "uint256",
          "name": "poolTokenAmount",
          "type": "uint256"
        },
        {
          "internalType": "uint256",
          "name": "deadline",
          "type": "uint256"
        },
        {
          "internalType": "uint8",
          "name": "v",
          "type": "uint8"
        },
        {
          "internalType": "bytes32",
          "name": "r",
          "type": "bytes32"
        },
        {
          "internalType": "bytes32",
          "name": "s",
          "type": "bytes32"
        }
      ],
      "name": "joinPermitted",
      "outputs": [],
      "stateMutability": "nonpayable",
      "type": "function"
    },
    {
      "inputs": [
        {
          "internalType": "uint256",
          "name": "id",
          "type": "uint256"
        },
        {
          "internalType": "uint256",
          "name": "poolTokenAmount",
          "type": "uint256"
        }
      ],
      "name": "leave",
      "outputs": [],
      "stateMutability": "nonpayable",
      "type": "function"
    },
    {
      "inputs": [
        {
          "internalType": "address",
          "name": "provider",
          "type": "address"
        },
        {
          "internalType": "uint256[]",
          "name": "ids",
          "type": "uint256[]"
        }
      ],
      "name": "pendingRewards",
      "outputs": [
        {
          "internalType": "uint256",
          "name": "",
          "type": "uint256"
        }
      ],
      "stateMutability": "view",
      "type": "function"
    },
    {
      "inputs": [
        {
          "internalType": "uint256",
          "name": "id",
          "type": "uint256"
        }
      ],
      "name": "programStake",
      "outputs": [
        {
          "internalType": "uint256",
          "name": "",
          "type": "uint256"
        }
      ],
      "stateMutability": "view",
      "type": "function"
    },
    {
      "inputs": [
        {
          "internalType": "uint256[]",
          "name": "ids",
          "type": "uint256[]"
        }
      ],
      "name": "programs",
      "outputs": [
        {
          "components": [
            {
              "internalType": "uint256",
              "name": "id",
              "type": "uint256"
            },
            {
              "internalType": "contract Token",
              "name": "pool",
              "type": "address"
            },
            {
              "internalType": "contract IPoolToken",
              "name": "poolToken",
              "type": "address"
            },
            {
              "internalType": "contract Token",
              "name": "rewardsToken",
              "type": "address"
            },
            {
              "internalType": "bool",
              "name": "isEnabled",
              "type": "bool"
            },
            {
              "internalType": "uint32",
              "name": "startTime",
              "type": "uint32"
            },
            {
              "internalType": "uint32",
              "name": "endTime",
              "type": "uint32"
            },
            {
              "internalType": "uint256",
              "name": "rewardRate",
              "type": "uint256"
            }
          ],
          "internalType": "struct ProgramData[]",
          "name": "",
          "type": "tuple[]"
        }
      ],
      "stateMutability": "view",
      "type": "function"
    },
    {
      "inputs": [],
      "name": "programsIds",
      "outputs": [
        {
          "internalType": "uint256[]",
          "name": "",
          "type": "uint256[]"
        }
      ],
      "stateMutability": "view",
      "type": "function"
    },
    {
      "inputs": [
        {
          "internalType": "address",
          "name": "provider",
          "type": "address"
        }
      ],
      "name": "providerProgramIds",
      "outputs": [
        {
          "internalType": "uint256[]",
          "name": "",
          "type": "uint256[]"
        }
      ],
      "stateMutability": "view",
      "type": "function"
    },
    {
      "inputs": [
        {
          "internalType": "address",
          "name": "provider",
          "type": "address"
        },
        {
          "internalType": "uint256",
          "name": "id",
          "type": "uint256"
        }
      ],
      "name": "providerStake",
      "outputs": [
        {
          "internalType": "uint256",
          "name": "",
          "type": "uint256"
        }
      ],
      "stateMutability": "view",
      "type": "function"
    },
    {
      "inputs": [
        {
          "internalType": "bytes32",
          "name": "role",
          "type": "bytes32"
        },
        {
          "internalType": "address",
          "name": "account",
          "type": "address"
        }
      ],
      "name": "renounceRole",
      "outputs": [],
      "stateMutability": "nonpayable",
      "type": "function"
    },
    {
      "inputs": [
        {
          "internalType": "bytes32",
          "name": "role",
          "type": "bytes32"
        },
        {
          "internalType": "address",
          "name": "account",
          "type": "address"
        }
      ],
      "name": "revokeRole",
      "outputs": [],
      "stateMutability": "nonpayable",
      "type": "function"
    },
    {
      "inputs": [],
      "name": "roleAdmin",
      "outputs": [
        {
          "internalType": "bytes32",
          "name": "",
          "type": "bytes32"
        }
      ],
      "stateMutability": "pure",
      "type": "function"
    },
    {
      "inputs": [
        {
          "internalType": "uint256[]",
          "name": "ids",
          "type": "uint256[]"
        },
        {
          "internalType": "uint256",
          "name": "maxAmount",
          "type": "uint256"
        }
      ],
      "name": "stakeRewards",
      "outputs": [
        {
          "components": [
            {
              "internalType": "uint256",
              "name": "stakedRewardAmount",
              "type": "uint256"
            },
            {
              "internalType": "uint256",
              "name": "poolTokenAmount",
              "type": "uint256"
            }
          ],
          "internalType": "struct StakeAmounts",
          "name": "",
          "type": "tuple"
        }
      ],
      "stateMutability": "nonpayable",
      "type": "function"
    },
    {
      "inputs": [
        {
          "internalType": "bytes4",
          "name": "interfaceId",
          "type": "bytes4"
        }
      ],
      "name": "supportsInterface",
      "outputs": [
        {
          "internalType": "bool",
          "name": "",
          "type": "bool"
        }
      ],
      "stateMutability": "view",
      "type": "function"
    },
    {
      "inputs": [
        {
          "internalType": "uint256",
          "name": "id",
          "type": "uint256"
        }
      ],
      "name": "terminateProgram",
      "outputs": [],
      "stateMutability": "nonpayable",
      "type": "function"
    },
    {
      "inputs": [],
      "name": "version",
      "outputs": [
        {
          "internalType": "uint16",
          "name": "",
          "type": "uint16"
        }
      ],
      "stateMutability": "pure",
      "type": "function"
    },
    {
      "stateMutability": "payable",
      "type": "receive"
    }
  ],
  "transactionHash": "0xe9366135a1f6b27bbf07fcd673b3576c5b29e05749c859ed703ad43c5b687a0d",
  "args": [
    "0x093C761bd5B8f71d72cBC74A72cc9c6aEDC8EE49",
    "0x302979c8f478279Ab3F46Ce3Dc96c98d9c28fb0c",
    "0xa489C2b5b36835A327851Ab917A80562B5AFC244",
    "0x6210cE7207537eE1ec219f4562e6d05bed208852",
    "0xE5dC04B5A9f86477Fcc886FeC9fA76498D02AF90"
  ],
  "numDeployments": 1,
  "solcInputHash": "dcea142469df7f75d330e08f80ea8523",
  "bytecode": "0x6101406040523480156200001257600080fd5b50604051620045bd380380620045bd8339810160408190526200003591620001d4565b84620000418162000193565b846200004d8162000193565b84620000598162000193565b84620000658162000193565b84620000718162000193565b6001600160a01b03808b1660805289811660a052881660c081905260408051637e062a3560e11b8152905163fc0c546a916004808201926020929091908290030181865afa158015620000c8573d6000803e3d6000fd5b505050506040513d601f19601f82011682018060405250810190620000ee919062000254565b6001600160a01b031660e0816001600160a01b031681525050866001600160a01b031663cbdf382c6040518163ffffffff1660e01b8152600401602060405180830381865afa15801562000146573d6000803e3d6000fd5b505050506040513d601f19601f820116820180604052508101906200016c919062000254565b6001600160a01b03908116610100529590951661012052506200027b975050505050505050565b6001600160a01b038116620001bb5760405163e6c4247b60e01b815260040160405180910390fd5b50565b6001600160a01b0381168114620001bb57600080fd5b600080600080600060a08688031215620001ed57600080fd5b8551620001fa81620001be565b60208701519095506200020d81620001be565b60408701519094506200022081620001be565b60608701519093506200023381620001be565b60808701519092506200024681620001be565b809150509295509295909350565b6000602082840312156200026757600080fd5b81516200027481620001be565b9392505050565b60805160a05160c05160e05161010051610120516142d6620002e76000396000818161176101526124460152600061155d01526000612ac0015260006123c2015260006115a0015260008181611647015281816127dc015281816128d8015261291401526142d66000f3fe6080604052600436106101da5760003560e01c80638ea2b2eb11610102578063c990f0a411610095578063dffe92c711610064578063dffe92c7146105cc578063e02ae075146105ec578063ec9fce801461060c578063f8996cda1461061f57600080fd5b8063c990f0a41461054c578063ca15c8731461056c578063cb49042a1461058c578063d547741f146105ac57600080fd5b80639833d052116100d15780639833d052146104ca5780639aa51eb1146104f7578063a217fddf14610517578063c1297aee1461052c57600080fd5b80638ea2b2eb146104235780639010d07c1461045157806391d148541461048957806393867fb5146104a957600080fd5b806336568abe1161017a57806379e66b461161014957806379e66b46146103935780638129fc1c146103b357806387a7433b146103c85780638b2e5e87146103e857600080fd5b806336568abe1461031757806345b564501461033757806354fd4d50146103575780636b80baf71461037357600080fd5b80630f1d1e31116101b65780630f1d1e3114610263578063156508f214610291578063248a9ca3146102c75780632f2ff15d146102f757600080fd5b80621badfb146101e6578062f62f371461021157806301ffc9a71461023357600080fd5b366101e157005b600080fd5b3480156101f257600080fd5b506101fb610666565b6040516102089190613b46565b60405180910390f35b34801561021d57600080fd5b5061023161022c366004613b8a565b61070e565b005b34801561023f57600080fd5b5061025361024e366004613be3565b610868565b6040519015158152602001610208565b34801561026f57600080fd5b5061028361027e366004613c59565b610893565b604051908152602001610208565b34801561029d57600080fd5b506102836102ac366004613cba565b6001600160a01b0316600090815260fe602052604090205490565b3480156102d357600080fd5b506102836102e2366004613cd7565b60009081526097602052604090206001015490565b34801561030357600080fd5b50610231610312366004613cf0565b61092d565b34801561032357600080fd5b50610231610332366004613cf0565b610958565b34801561034357600080fd5b506101fb610352366004613cba565b6109d6565b34801561036357600080fd5b5060405160018152602001610208565b34801561037f57600080fd5b5061023161038e366004613b8a565b6109fa565b34801561039f57600080fd5b506102316103ae366004613d20565b610b12565b3480156103bf57600080fd5b50610231610bf1565b3480156103d457600080fd5b506102836103e3366004613d42565b610cb2565b3480156103f457600080fd5b50610408610403366004613c59565b610eb3565b60408051825181526020928301519281019290925201610208565b34801561042f57600080fd5b5061028361043e366004613cd7565b6000908152610101602052604090205490565b34801561045d57600080fd5b5061047161046c366004613d20565b610f99565b6040516001600160a01b039091168152602001610208565b34801561049557600080fd5b506102536104a4366004613cf0565b610fb8565b3480156104b557600080fd5b506000805160206142aa833981519152610283565b3480156104d657600080fd5b506104ea6104e5366004613d97565b610fe3565b6040516102089190613dd9565b34801561050357600080fd5b50610253610512366004613cd7565b611194565b34801561052357600080fd5b50610283600081565b34801561053857600080fd5b50610231610547366004613e94565b61122c565b34801561055857600080fd5b50610283610567366004613ed2565b6113e7565b34801561057857600080fd5b50610283610587366004613cd7565b611a35565b34801561059857600080fd5b506102316105a7366004613cd7565b611a4c565b3480156105b857600080fd5b506102316105c7366004613cf0565b611bbf565b3480156105d857600080fd5b506102536105e7366004613cd7565b611be5565b3480156105f857600080fd5b50610231610607366004613d20565b611c7a565b61023161061a366004613d20565b611d4d565b34801561062b57600080fd5b5061028361063a366004613f34565b6001600160a01b0391909116600090815261010060209081526040808320938352929052206003015490565b60606000600160fb546106799190613f76565b905060008167ffffffffffffffff81111561069657610696613f8d565b6040519080825280602002602001820160405280156106bf578160200160208202803683370190505b50905060005b82811015610707576106d8600182613fa3565b8282815181106106ea576106ea613fbb565b6020908102919091010152806106ff81613fd1565b9150506106c5565b5092915050565b8461071881611e20565b600260335414156107445760405162461bcd60e51b815260040161073b90613fec565b60405180910390fd5b60026033819055600088815260fd60209081526040918290208251610100810184528154815260018201546001600160a01b0390811693820193909352938101548216928401929092526003820154908116606084015260ff600160a01b8204161515608084015263ffffffff600160a81b8204811660a0850152600160c81b9091041660c08301526004015460e08201526107df81611e3e565b80604001516001600160a01b031663d505accf33308a8a8a8a8a6040518863ffffffff1660e01b815260040161081b9796959493929190614023565b600060405180830381600087803b15801561083557600080fd5b505af1158015610849573d6000803e3d6000fd5b5050505061085933828933611e50565b50506001603355505050505050565b60006001600160e01b03198216635a05180f60e01b148061088d575061088d82611faf565b92915050565b600083836108a18282611fe4565b6108be57604051638b4f6a5d60e01b815260040160405180910390fd5b600260335414156108e15760405162461bcd60e51b815260040161073b90613fec565b600260335560006108f5338888888561207a565b905080604001516000141561090e57600093505061091f565b6109183382612384565b6040015192505b505060016033559392505050565b600082815260976020526040902060010154610949813361247c565b61095383836124e0565b505050565b6001600160a01b03811633146109c85760405162461bcd60e51b815260206004820152602f60248201527f416363657373436f6e74726f6c3a2063616e206f6e6c792072656e6f756e636560448201526e103937b632b9903337b91039b2b63360891b606482015260840161073b565b6109d28282612502565b5050565b6001600160a01b038116600090815260fc6020526040902060609061088d90612524565b84610a0481611e20565b60026033541415610a275760405162461bcd60e51b815260040161073b90613fec565b60026033819055600088815260fd60209081526040918290208251610100810184528154815260018201546001600160a01b0390811693820193909352938101548216928401929092526003820154908116606084015260ff600160a01b8204161515608084015263ffffffff600160a81b8204811660a0850152600160c81b9091041660c08301526004015460e0820152610ac281611e3e565b610b073330898960405180606001604052808b60ff1681526020018a81526020018981525086602001516001600160a01b03166125319095949392919063ffffffff16565b6108593382896125d5565b80610b1c81611e20565b60026033541415610b3f5760405162461bcd60e51b815260040161073b90613fec565b60026033819055600084815260fd60209081526040918290208251610100810184528154815260018201546001600160a01b0390811693820193909352938101548216928401929092526003820154908116606084015260ff600160a01b8204161515608084015263ffffffff600160a81b8204811660a0850152600160c81b9091041660c08301526004015460e0820152610bda81611e3e565b610be633828533611e50565b505060016033555050565b600054610100900460ff16610c0c5760005460ff1615610c10565b303b155b610c735760405162461bcd60e51b815260206004820152602e60248201527f496e697469616c697a61626c653a20636f6e747261637420697320616c72656160448201526d191e481a5b9a5d1a585b1a5e995960921b606482015260840161073b565b600054610100900460ff16158015610c95576000805461ffff19166101011790555b610c9d6125fb565b8015610caf576000805461ff00191690555b50565b60008282610cc08282611fe4565b610cdd57604051638b4f6a5d60e01b815260040160405180910390fd5b600080805b86811015610ea6576000888883818110610cfe57610cfe613fbb565b60209081029290920135600081815260fd84526040908190208151610100810183528154815260018201546001600160a01b039081169682019690965260028201548616928101929092526003810154948516606083015260ff600160a01b8604161515608083015263ffffffff600160a81b8604811660a0840152600160c81b90950490941660c082015260049093015460e08401529250610da290508161263c565b82610db35780606001519350610de9565b836001600160a01b031681606001516001600160a01b031614610de957604051634a3f5fbf60e01b815260040160405180910390fd5b600082815260ff602090815260408083208151808301909252805463ffffffff1682526001015491810191909152610e22908390612667565b6001600160a01b038d166000908152610100602090815260408083208784528252918290208251608081018452815481526001820154928101929092526002810154928201929092526003909101546060820152909150610e83828261273b565b610e8d9088613fa3565b9650505050508080610e9e90613fd1565b915050610ce2565b5090979650505050505050565b60408051808201909152600080825260208201528383610ed38282611fe4565b610ef057604051638b4f6a5d60e01b815260040160405180910390fd5b60026033541415610f135760405162461bcd60e51b815260040161073b90613fec565b60026033556000610f2833888888600161207a565b9050806040015160001415610f5657604051806040016040528060008152602001600081525093505061091f565b610f603082612384565b6000610f7633836020015184604001513061277c565b604080518082018252930151835260208301525060016033559695505050505050565b600082815260c960205260408120610fb1908361299d565b9392505050565b60009182526097602090815260408084206001600160a01b0393909316845291905290205460ff1690565b60608282610ff18282611fe4565b61100e57604051638b4f6a5d60e01b815260040160405180910390fd5b8360008167ffffffffffffffff81111561102a5761102a613f8d565b60405190808252806020026020018201604052801561109957816020015b604080516101008101825260008082526020808301829052928201819052606082018190526080820181905260a0820181905260c0820181905260e082015282526000199092019101816110485790505b50905060005b828110156111895760fd60008989848181106110bd576110bd613fbb565b602090810292909201358352508181019290925260409081016000208151610100810183528154815260018201546001600160a01b039081169482019490945260028201548416928101929092526003810154928316606083015260ff600160a01b8404161515608083015263ffffffff600160a81b8404811660a0840152600160c81b90930490921660c082015260049091015460e0820152825183908390811061116b5761116b613fbb565b6020026020010181905250808061118190613fd1565b91505061109f565b509695505050505050565b600081815260fd602090815260408083208151610100810183528154815260018201546001600160a01b039081169482019490945260028201548416928101929092526003810154928316606083015260ff600160a01b8404161515608083015263ffffffff600160a81b8404811660a0840152600160c81b90930490921660c082015260049091015460e082015261088d906129a9565b6112446000805160206142aa83398151915233612a25565b600082815260fd60209081526040918290208251610100810184528154815260018201546001600160a01b039081169382019390935260028201548316938101939093526003810154918216606084015260ff600160a01b8304161515608084015263ffffffff600160a81b8304811660a0850152600160c81b90920490911660c0830152600481015460e0830152906112dd9061263c565b6003810154600160a01b900460ff1682151581151514156112fe5750505050565b600382018054841515600160a01b90810260ff60a01b19831681179384905560018601546040805161010081018252885481526001600160a01b039283166020820181905260028a01548416928201929092529282169190941617606082015290830460ff161515608082015263ffffffff600160a81b8404811660a0830152600160c81b90930490921660c0830152600484015460e083015285917fa8e0079af69ab6020099ac2d50d87831295908eb7e73e6cac444c17022786bb89086906113c790612a4c565b60408051921515835260208301919091520160405180910390a350505050565b6000856113f381612a95565b856113fd81612a95565b8561140781611e20565b61141f6000805160206142aa83398151915233612a25565b600260335414156114425760405162461bcd60e51b815260040161073b90613fec565b60026033554263ffffffff8088169082161180159061146c57508563ffffffff168763ffffffff16105b61148957604051633494a40d60e21b815260040160405180910390fd5b6001600160a01b03808b16600090815260fe6020908152604080832054835260fd82529182902082516101008101845281548152600182015485169281019290925260028101548416928201929092526003820154928316606082015260ff600160a01b8404161515608082015263ffffffff600160a81b8404811660a0830152600160c81b90930490921660c08301526004015460e082015261152c906129a9565b1561154a576040516340dee4af60e11b815260040160405180910390fd5b60006115558b612abc565b1561158157507f0000000000000000000000000000000000000000000000000000000000000000611721565b60405163b5af090f60e01b81526001600160a01b038c811660048301527f0000000000000000000000000000000000000000000000000000000000000000169063b5af090f90602401602060405180830381865afa1580156115e7573d6000803e3d6000fd5b505050506040513d601f19601f8201168201806040525081019061160b9190614064565b61162857604051630b094f2760e31b815260040160405180910390fd5b6040516309bca0e760e41b81526001600160a01b038c811660048301527f00000000000000000000000000000000000000000000000000000000000000001690639bca0e7090602401602060405180830381865afa15801561168e573d6000803e3d6000fd5b505050506040513d601f19601f820116820180604052508101906116b29190614081565b604051635768adcf60e01b81526001600160a01b038d811660048301529190911690635768adcf90602401602060405180830381865afa1580156116fa573d6000803e3d6000fd5b505050506040513d601f19601f8201168201806040525081019061171e9190614081565b90505b6001600160a01b038a16600090815261010260205260409020546117448b612abc565b6117a4576117528a82613fa3565b6117856001600160a01b038d167f0000000000000000000000000000000000000000000000000000000000000000612af3565b10156117a45760405163356680b760e01b815260040160405180910390fd5b60fb8054600091826117b583613fd1565b9190505590506040518061010001604052808281526020018e6001600160a01b03168152602001846001600160a01b031681526020018d6001600160a01b031681526020016001151581526020018b63ffffffff1681526020018a63ffffffff1681526020018b8b611827919061409e565b6118379063ffffffff168e6140c3565b81525060fd60008381526020019081526020016000206000820151816000015560208201518160010160006101000a8154816001600160a01b0302191690836001600160a01b0316021790555060408201518160020160006101000a8154816001600160a01b0302191690836001600160a01b0316021790555060608201518160030160006101000a8154816001600160a01b0302191690836001600160a01b0316021790555060808201518160030160146101000a81548160ff02191690831515021790555060a08201518160030160156101000a81548163ffffffff021916908363ffffffff16021790555060c08201518160030160196101000a81548163ffffffff021916908363ffffffff16021790555060e082015181600401559050508060fe60008f6001600160a01b03166001600160a01b03168152602001908152602001600020819055508a8261198f9190613fa3565b61010260008e6001600160a01b03166001600160a01b03168152602001908152602001600020819055508b6001600160a01b0316818e6001600160a01b03167f70204e3426c19a2e5d89ede43650413e05c4bff5c407a138ae4056220dfee5848e8e8e604051611a189392919092835263ffffffff918216602084015216604082015260600190565b60405180910390a460016033559c9b505050505050505050505050565b600081815260c96020526040812061088d90612b81565b611a646000805160206142aa83398151915233612a25565b600081815260fd60209081526040918290208251610100810184528154815260018201546001600160a01b039081169382019390935260028201548316938101939093526003810154918216606084015260ff600160a01b8304161515608084015263ffffffff600160a81b8304811660a0850152600160c81b90920490911660c08301526004015460e0820152611afb81612b8b565b6020808201516001600160a01b0316600090815260fe90915260408120819055611b2482612a4c565b60608301516001600160a01b031660009081526101026020526040812080549293508392909190611b56908490613f76565b925050819055508282602001516001600160a01b03167f1bcaa5a2a609438f78f993bf71a0e4533a65192c98418a5b7eb8e492561db74e8460c0015184604051611bb292919063ffffffff929092168252602082015260400190565b60405180910390a3505050565b600082815260976020526040902060010154611bdb813361247c565b6109538383612502565b600081815260fd602090815260408083208151610100810183528154815260018201546001600160a01b039081169482019490945260028201548416928101929092526003810154928316606083015260ff600160a01b84041615156080830181905263ffffffff600160a81b8504811660a0850152600160c81b90940490931660c08301526004015460e09091015261088d565b80611c8481611e20565b60026033541415611ca75760405162461bcd60e51b815260040161073b90613fec565b60026033819055600084815260fd60209081526040918290208251610100810184528154815260018201546001600160a01b0390811693820193909352938101548216928401929092526003820154908116606084015260ff600160a01b8204161515608084015263ffffffff600160a81b8204811660a0850152600160c81b9091041660c08301526004015460e0820152611d428161263c565b610be6338285612bba565b80611d5781611e20565b60026033541415611d7a5760405162461bcd60e51b815260040161073b90613fec565b60026033819055600084815260fd60209081526040918290208251610100810184528154815260018201546001600160a01b0390811693820193909352938101548216928401929092526003820154908116606084015260ff600160a01b8204161515608084015263ffffffff600160a81b8204811660a0850152600160c81b9091041660c08301526004015460e0820152611e1581611e3e565b610be63382856125d5565b80610caf57604051637c946ed760e01b815260040160405180910390fd5b611e4781612b8b565b610caf81612d27565b6000611e5c8486612d52565b845160009081526101016020526040812080549293508592909190611e82908490613fa3565b90915550506003810154611e968482613fa3565b60038301556001600160a01b0383163014611f245784604001516001600160a01b03166323b872dd8430876040518463ffffffff1660e01b8152600401611edf939291906140e5565b6020604051808303816000875af1158015611efe573d6000803e3d6000fd5b505050506040513d601f19601f82011682018060405250810190611f229190614064565b505b84516001600160a01b038716600090815260fc60205260409020611f4791612e66565b50856001600160a01b0316856000015186602001516001600160a01b03167fb384d273de683d05b3d588d7a878620076988341c706ac72ec4f0129ab766b4f8785604051611f9f929190918252602082015260400190565b60405180910390a4505050505050565b60006001600160e01b03198216637965db0b60e01b148061088d57506301ffc9a760e01b6001600160e01b031983161461088d565b6000805b82811015612070576000611ffd826001613fa3565b90505b8381101561205d5784848281811061201a5761201a613fbb565b9050602002013585858481811061203357612033613fbb565b90506020020135141561204b5760009250505061088d565b8061205581613fd1565b915050612000565b508061206881613fd1565b915050611fe8565b5060019392505050565b60408051606080820183526000808352602080840182905283850182905284519283018552818352820181905292810183905290915b85811080156120bf5750600085115b1561233557600060fd60008989858181106120dc576120dc613fbb565b602090810292909201358352508181019290925260409081016000208151610100810183528154815260018201546001600160a01b039081169482019490945260028201548416928101929092526003810154928316606083015260ff600160a01b8404161515608083015263ffffffff600160a81b8404811660a0840152600160c81b90930490921660c082015260049091015460e0820152905061218181612d27565b816121a4576020808201516001600160a01b039081168552606083015116908401525b82602001516001600160a01b031681606001516001600160a01b0316146121de57604051634a3f5fbf60e01b815260040160405180910390fd5b60006121eb8a8389612e72565b90508060000151846040018181516122039190613fa3565b905250600019871461221e57805161221b9088613f76565b96505b612227826129a9565b15801561223657506020810151155b156122605781516001600160a01b038b16600090815260fc6020526040902061225e91612f06565b505b85156122c557896001600160a01b0316826000015183602001516001600160a01b03167f3ff5725427623025e4ed0428d535b925785efd453edae6d008f98d194b91951184600001516040516122b891815260200190565b60405180910390a4612320565b896001600160a01b0316826000015183602001516001600160a01b03167fdbfc25ed048cf0d97618bb0b4f8014b0042d668c4ae0c0b6c1ff4cd976de4d28846000015160405161231791815260200190565b60405180910390a45b5050808061232d90613fd1565b9150506120b0565b508060400151610102600083602001516001600160a01b03166001600160a01b0316815260200190815260200160002060008282546123749190613f76565b9091555090979650505050505050565b6123918160200151612abc565b156124255760408181015190516340c10f1960e01b81526001600160a01b03848116600483015260248201929092527f0000000000000000000000000000000000000000000000000000000000000000909116906340c10f19906044015b600060405180830381600087803b15801561240957600080fd5b505af115801561241d573d6000803e3d6000fd5b505050505050565b60208101516040808301519051631c20fadd60e01b81526001600160a01b037f00000000000000000000000000000000000000000000000000000000000000001692631c20fadd926123ef928791906004016140e5565b6124868282610fb8565b6109d25761249e816001600160a01b03166014612f12565b6124a9836020612f12565b6040516020016124ba929190614135565b60408051601f198184030181529082905262461bcd60e51b825261073b916004016141aa565b6124ea82826130ae565b600082815260c9602052604090206109539082613134565b61250c8282613149565b600082815260c96020526040902061095390826131b0565b60606000610fb1836131c5565b61253a86613221565b1561255857604051631a4ecdbb60e11b815260040160405180910390fd5b80516020820151604080840151905163d505accf60e01b81526001600160a01b038a169363d505accf9361259b938b938b938b938b939192909190600401614023565b600060405180830381600087803b1580156125b557600080fd5b505af11580156125c9573d6000803e3d6000fd5b50505050505050505050565b60006125e7308460200151848761277c565b90506125f584848330611e50565b50505050565b600054610100900460ff166126225760405162461bcd60e51b815260040161073b906141dd565b61262a613243565b612632613272565b61263a6132a9565b565b60208101516001600160a01b0316610caf5760405163129005b760e21b815260040160405180910390fd5b60a082015160009063ffffffff428116911681101561268a57600091505061088d565b835160009081526101016020526040902054806126ae57505050602081015161088d565b60006126c4838760c0015163ffffffff166132d7565b905060006126e68760a0015163ffffffff16876000015163ffffffff166132ed565b905082670de0b6b3a76400008860e0015183856127039190613f76565b61270d9190614228565b6127179190614228565b61272191906140c3565b86602001516127309190613fa3565b979650505050505050565b8051600090670de0b6b3a7640000906127549085613f76565b83606001516127639190614228565b61276d91906140c3565b8260200151610fb19190613fa3565b6000806001600160a01b0383811630141590612799908716613221565b1561288f5780156127c557843410156127c557604051630768122960e11b815260040160405180910390fd5b60405163b3db428b60e01b81526001600160a01b037f0000000000000000000000000000000000000000000000000000000000000000169063b3db428b908790612817908b908b9084906004016140e5565b60206040518083038185885af1158015612835573d6000803e3d6000fd5b50505050506040513d601f19601f8201168201806040525081019061285a9190614247565b915080801561286857508434115b1561288a5761288a61287a8634613f76565b6001600160a01b038616906132fd565b612993565b34156128ae57604051630768122960e11b815260040160405180910390fd5b80156128c9576128c96001600160a01b038716853088613416565b6128fd6001600160a01b0387167f000000000000000000000000000000000000000000000000000000000000000087613446565b60405163b3db428b60e01b81526001600160a01b037f0000000000000000000000000000000000000000000000000000000000000000169063b3db428b9061294d908a908a908a906004016140e5565b6020604051808303816000875af115801561296c573d6000803e3d6000fd5b505050506040513d601f19601f820116820180604052508101906129909190614247565b91505b5095945050505050565b6000610fb1838361346d565b602081015160009042906001600160a01b0316151580156129da57508063ffffffff168360a0015163ffffffff1611155b80156129f657508260c0015163ffffffff168163ffffffff1611155b8015610fb1575082516020808501516001600160a01b0316600090815260fe9091526040902054149392505050565b612a2f8282610fb8565b6109d257604051634ca8886760e01b815260040160405180910390fd5b6000804290508063ffffffff168360c0015163ffffffff1611612a70576000610fb1565b808360c00151612a80919061409e565b63ffffffff168360e00151610fb19190614228565b6001600160a01b038116610caf5760405163e6c4247b60e01b815260040160405180910390fd5b60007f00000000000000000000000000000000000000000000000000000000000000006001600160a01b039081169083161461088d565b6000612afe83613221565b15612b1457506001600160a01b0381163161088d565b826040516370a0823160e01b81526001600160a01b03848116600483015291909116906370a0823190602401602060405180830381865afa158015612b5d573d6000803e3d6000fd5b505050506040513d601f19601f82011682018060405250810190610fb19190614247565b600061088d825490565b612b948161263c565b612b9d816129a9565b610caf57604051632f96a58b60e11b815260040160405180910390fd5b6000612bc68385612d52565b835160009081526101016020526040812080549293508492909190612bec908490613f76565b90915550506003810154600090612c04908490613f76565b60038301819055604085810151905163a9059cbb60e01b81526001600160a01b0388811660048301526024820187905292935091169063a9059cbb906044016020604051808303816000875af1158015612c62573d6000803e3d6000fd5b505050506040513d601f19601f82011682018060405250810190612c869190614064565b5080158015612c9757506001820154155b15612cc15783516001600160a01b038616600090815260fc60205260409020612cbf91612f06565b505b846001600160a01b0316846000015185602001516001600160a01b03167ff7b6a7abba49a8b2bc59e9bd80920efac54edc9ef14350a01a9e103344d877a08685604051612d18929190918252602082015260400190565b60405180910390a45050505050565b612d308161263c565b8060800151610caf5760405163545e7d3360e01b815260040160405180910390fd5b8151600090815260ff602090815260408083208151808301909252805463ffffffff1682526001810154928201929092528290612d90908690612667565b905081600101548114612da557600182018190555b6000612dc14263ffffffff168760c0015163ffffffff166132d7565b835490915063ffffffff80831691161015612dea57825463ffffffff191663ffffffff82161783555b6001600160a01b038516600090815261010060209081526040808320895184528252808320815160808101835281548152600182015493810193909352600281015491830191909152600381015460608301529190612e4a90859061273b565b9050801561118957928155600181019290925550949350505050565b6000610fb18383613497565b60408051808201909152600080825260208201526000612e928486612d52565b60018101549091506000198414801590612eab57508381115b15612edf57612eba8482613f76565b6001909201829055506040805180820190915283815260208101919091529050610fb1565b60006001909201829055604080518082019091529081526020810191909152949350505050565b6000610fb183836134e6565b60606000612f21836002614228565b612f2c906002613fa3565b67ffffffffffffffff811115612f4457612f44613f8d565b6040519080825280601f01601f191660200182016040528015612f6e576020820181803683370190505b509050600360fc1b81600081518110612f8957612f89613fbb565b60200101906001600160f81b031916908160001a905350600f60fb1b81600181518110612fb857612fb8613fbb565b60200101906001600160f81b031916908160001a9053506000612fdc846002614228565b612fe7906001613fa3565b90505b600181111561305f576f181899199a1a9b1b9c1cb0b131b232b360811b85600f166010811061301b5761301b613fbb565b1a60f81b82828151811061303157613031613fbb565b60200101906001600160f81b031916908160001a90535060049490941c9361305881614260565b9050612fea565b508315610fb15760405162461bcd60e51b815260206004820181905260248201527f537472696e67733a20686578206c656e67746820696e73756666696369656e74604482015260640161073b565b6130b88282610fb8565b6109d25760008281526097602090815260408083206001600160a01b03851684529091529020805460ff191660011790556130f03390565b6001600160a01b0316816001600160a01b0316837f2f8788117e7eff1d82e926ec794901d17c78024a50270940304540a733656f0d60405160405180910390a45050565b6000610fb1836001600160a01b038416613497565b6131538282610fb8565b156109d25760008281526097602090815260408083206001600160a01b0385168085529252808320805460ff1916905551339285917ff6391f5c32d9c69d2a47ea670b442974b53935d1edc7fd64eb21e047a839171b9190a45050565b6000610fb1836001600160a01b0384166134e6565b60608160000180548060200260200160405190810160405280929190818152602001828054801561321557602002820191906000526020600020905b815481526020019060010190808311613201575b50505050509050919050565b6001600160a01b031673eeeeeeeeeeeeeeeeeeeeeeeeeeeeeeeeeeeeeeee1490565b600054610100900460ff1661326a5760405162461bcd60e51b815260040161073b906141dd565b61263a6135d9565b600054610100900460ff166132995760405162461bcd60e51b815260040161073b906141dd565b6132a1613607565b61263a61362e565b600054610100900460ff166132d05760405162461bcd60e51b815260040161073b906141dd565b600160fb55565b60008183106132e65781610fb1565b5090919050565b6000818310156132e65781610fb1565b8047101561334d5760405162461bcd60e51b815260206004820152601d60248201527f416464726573733a20696e73756666696369656e742062616c616e6365000000604482015260640161073b565b6000826001600160a01b03168260405160006040518083038185875af1925050503d806000811461339a576040519150601f19603f3d011682016040523d82523d6000602084013e61339f565b606091505b50509050806109535760405162461bcd60e51b815260206004820152603a60248201527f416464726573733a20756e61626c6520746f2073656e642076616c75652c207260448201527f6563697069656e74206d61792068617665207265766572746564000000000000606482015260840161073b565b801580613427575061342784613221565b15613431576125f5565b6125f56001600160a01b038516848484613685565b61344f83613221565b1561345957505050565b6109536001600160a01b03841683836136dd565b600082600001828154811061348457613484613fbb565b9060005260206000200154905092915050565b60008181526001830160205260408120546134de5750815460018181018455600084815260208082209093018490558454848252828601909352604090209190915561088d565b50600061088d565b600081815260018301602052604081205480156135cf57600061350a600183613f76565b855490915060009061351e90600190613f76565b905081811461358357600086600001828154811061353e5761353e613fbb565b906000526020600020015490508087600001848154811061356157613561613fbb565b6000918252602080832090910192909255918252600188019052604090208390555b855486908061359457613594614277565b60019003818190600052602060002001600090559055856001016000868152602001908152602001600020600090556001935050505061088d565b600091505061088d565b600054610100900460ff166136005760405162461bcd60e51b815260040161073b906141dd565b6001603355565b600054610100900460ff1661263a5760405162461bcd60e51b815260040161073b906141dd565b600054610100900460ff166136555760405162461bcd60e51b815260040161073b906141dd565b61366d6000805160206142aa83398151915280613799565b61263a6000805160206142aa833981519152336137e4565b6125f5846323b872dd60e01b8585856040516024016136a6939291906140e5565b60408051601f198184030181529190526020810180516001600160e01b03166001600160e01b0319909316929092179091526137ee565b806136e757505050565b604051636eb1769f60e11b81523060048201526001600160a01b0383811660248301526000919085169063dd62ed3e90604401602060405180830381865afa158015613737573d6000803e3d6000fd5b505050506040513d601f19601f8201168201806040525081019061375b9190614247565b905081811061376a5750505050565b8015613785576137856001600160a01b0385168460006138c0565b6125f56001600160a01b03851684846138c0565b600082815260976020526040808220600101805490849055905190918391839186917fbd79b86ffe0ab8e8776151514217cd7cacd52c909f66475c3af44e129f0b00ff9190a4505050565b6109d282826124e0565b6000613843826040518060400160405280602081526020017f5361666545524332303a206c6f772d6c6576656c2063616c6c206661696c6564815250856001600160a01b03166139d59092919063ffffffff16565b80519091501561095357808060200190518101906138619190614064565b6109535760405162461bcd60e51b815260206004820152602a60248201527f5361666545524332303a204552433230206f7065726174696f6e20646964206e6044820152691bdd081cdd58d8d9595960b21b606482015260840161073b565b80158061393a5750604051636eb1769f60e11b81523060048201526001600160a01b03838116602483015284169063dd62ed3e90604401602060405180830381865afa158015613914573d6000803e3d6000fd5b505050506040513d601f19601f820116820180604052508101906139389190614247565b155b6139a55760405162461bcd60e51b815260206004820152603660248201527f5361666545524332303a20617070726f76652066726f6d206e6f6e2d7a65726f60448201527520746f206e6f6e2d7a65726f20616c6c6f77616e636560501b606482015260840161073b565b6040516001600160a01b03831660248201526044810182905261095390849063095ea7b360e01b906064016136a6565b60606139e484846000856139ec565b949350505050565b606082471015613a4d5760405162461bcd60e51b815260206004820152602660248201527f416464726573733a20696e73756666696369656e742062616c616e636520666f6044820152651c8818d85b1b60d21b606482015260840161073b565b6001600160a01b0385163b613aa45760405162461bcd60e51b815260206004820152601d60248201527f416464726573733a2063616c6c20746f206e6f6e2d636f6e7472616374000000604482015260640161073b565b600080866001600160a01b03168587604051613ac0919061428d565b60006040518083038185875af1925050503d8060008114613afd576040519150601f19603f3d011682016040523d82523d6000602084013e613b02565b606091505b509150915061273082828660608315613b1c575081610fb1565b825115613b2c5782518084602001fd5b8160405162461bcd60e51b815260040161073b91906141aa565b6020808252825182820181905260009190848201906040850190845b81811015613b7e57835183529284019291840191600101613b62565b50909695505050505050565b60008060008060008060c08789031215613ba357600080fd5b863595506020870135945060408701359350606087013560ff81168114613bc957600080fd5b9598949750929560808101359460a0909101359350915050565b600060208284031215613bf557600080fd5b81356001600160e01b031981168114610fb157600080fd5b60008083601f840112613c1f57600080fd5b50813567ffffffffffffffff811115613c3757600080fd5b6020830191508360208260051b8501011115613c5257600080fd5b9250929050565b600080600060408486031215613c6e57600080fd5b833567ffffffffffffffff811115613c8557600080fd5b613c9186828701613c0d565b909790965060209590950135949350505050565b6001600160a01b0381168114610caf57600080fd5b600060208284031215613ccc57600080fd5b8135610fb181613ca5565b600060208284031215613ce957600080fd5b5035919050565b60008060408385031215613d0357600080fd5b823591506020830135613d1581613ca5565b809150509250929050565b60008060408385031215613d3357600080fd5b50508035926020909101359150565b600080600060408486031215613d5757600080fd5b8335613d6281613ca5565b9250602084013567ffffffffffffffff811115613d7e57600080fd5b613d8a86828701613c0d565b9497909650939450505050565b60008060208385031215613daa57600080fd5b823567ffffffffffffffff811115613dc157600080fd5b613dcd85828601613c0d565b90969095509350505050565b602080825282518282018190526000919060409081850190868401855b82811015613e7957815180518552868101516001600160a01b0390811688870152868201518116878701526060808301519091169086015260808082015115159086015260a08082015163ffffffff9081169187019190915260c0808301519091169086015260e090810151908501526101009093019290850190600101613df6565b5091979650505050505050565b8015158114610caf57600080fd5b60008060408385031215613ea757600080fd5b823591506020830135613d1581613e86565b803563ffffffff81168114613ecd57600080fd5b919050565b600080600080600060a08688031215613eea57600080fd5b8535613ef581613ca5565b94506020860135613f0581613ca5565b935060408601359250613f1a60608701613eb9565b9150613f2860808701613eb9565b90509295509295909350565b60008060408385031215613f4757600080fd5b8235613f5281613ca5565b946020939093013593505050565b634e487b7160e01b600052601160045260246000fd5b600082821015613f8857613f88613f60565b500390565b634e487b7160e01b600052604160045260246000fd5b60008219821115613fb657613fb6613f60565b500190565b634e487b7160e01b600052603260045260246000fd5b6000600019821415613fe557613fe5613f60565b5060010190565b6020808252601f908201527f5265656e7472616e637947756172643a207265656e7472616e742063616c6c00604082015260600190565b6001600160a01b0397881681529590961660208601526040850193909352606084019190915260ff16608083015260a082015260c081019190915260e00190565b60006020828403121561407657600080fd5b8151610fb181613e86565b60006020828403121561409357600080fd5b8151610fb181613ca5565b600063ffffffff838116908316818110156140bb576140bb613f60565b039392505050565b6000826140e057634e487b7160e01b600052601260045260246000fd5b500490565b6001600160a01b039384168152919092166020820152604081019190915260600190565b60005b8381101561412457818101518382015260200161410c565b838111156125f55750506000910152565b7f416363657373436f6e74726f6c3a206163636f756e742000000000000000000081526000835161416d816017850160208801614109565b7001034b99036b4b9b9b4b733903937b6329607d1b601791840191820152835161419e816028840160208801614109565b01602801949350505050565b60208152600082518060208401526141c9816040850160208701614109565b601f01601f19169190910160400192915050565b6020808252602b908201527f496e697469616c697a61626c653a20636f6e7472616374206973206e6f74206960408201526a6e697469616c697a696e6760a81b606082015260800190565b600081600019048311821515161561424257614242613f60565b500290565b60006020828403121561425957600080fd5b5051919050565b60008161426f5761426f613f60565b506000190190565b634e487b7160e01b600052603160045260246000fd5b6000825161429f818460208701614109565b919091019291505056fe2172861495e7b85edac73e3cd5fbb42dd675baadf627720e687bcfdaca025096a164736f6c634300080c000a",
  "devdoc": {
    "details": "Standard Staking Rewards contract",
    "events": {
      "ProgramCreated(address,uint256,address,uint256,uint32,uint32)": {
        "details": "triggered when a program is created"
      },
      "ProgramEnabled(address,uint256,bool,uint256)": {
        "details": "triggered when a program is enabled/disabled"
      },
      "ProgramTerminated(address,uint256,uint32,uint256)": {
        "details": "triggered when a program is terminated prematurely"
      },
      "ProviderJoined(address,uint256,address,uint256,uint256)": {
        "details": "triggered when a provider joins a program"
      },
      "ProviderLeft(address,uint256,address,uint256,uint256)": {
        "details": "triggered when a provider leaves a program (even if partially)"
      },
      "RewardsClaimed(address,uint256,address,uint256)": {
        "details": "triggered when pending rewards are being claimed"
      },
      "RewardsStaked(address,uint256,address,uint256)": {
        "details": "triggered when pending rewards are being staked"
      }
    },
    "kind": "dev",
    "methods": {
      "activeProgramId(address)": {
        "details": "returns the ID of the currently active program of a given pool returns 0 if no program is currently active for the given pool"
      },
      "claimRewards(uint256[],uint256)": {
        "details": "claims rewards and returns the claimed reward amount"
      },
      "constructor": {
        "details": "a \"virtual\" constructor that is only used to set immutable state variables"
      },
      "createProgram(address,address,uint256,uint32,uint32)": {
        "details": "creates a program for a pool and returns its ID requirements: - the caller must be the admin of the contract - the pool must not have an active program - if the rewards token isn't the BNT token, then the rewards must have been deposited to the rewards vault"
      },
      "depositAndJoin(uint256,uint256)": {
        "details": "deposits and adds provider's stake to the program requirements: - the caller must have approved the network contract to transfer the tokens its behalf (ETH is handled separately)"
      },
      "depositAndJoinPermitted(uint256,uint256,uint256,uint8,bytes32,bytes32)": {
        "details": "deposits and adds provider's stake to the program by providing an EIP712 typed signature for an EIP2612 permit request requirements: - the caller must have specified a valid and unused EIP712 typed signature"
      },
      "enableProgram(uint256,bool)": {
        "details": "enables or disables a program requirements: - the caller must be the admin of the contract"
      },
      "getRoleAdmin(bytes32)": {
        "details": "Returns the admin role that controls `role`. See {grantRole} and {revokeRole}. To change a role's admin, use {_setRoleAdmin}."
      },
      "getRoleMember(bytes32,uint256)": {
        "details": "Returns one of the accounts that have `role`. `index` must be a value between 0 and {getRoleMemberCount}, non-inclusive. Role bearers are not sorted in any particular way, and their ordering may change at any point. WARNING: When using {getRoleMember} and {getRoleMemberCount}, make sure you perform all queries on the same block. See the following https://forum.openzeppelin.com/t/iterating-over-elements-on-enumerableset-in-openzeppelin-contracts/2296[forum post] for more information."
      },
      "getRoleMemberCount(bytes32)": {
        "details": "Returns the number of accounts that have `role`. Can be used together with {getRoleMember} to enumerate all bearers of a role."
      },
      "grantRole(bytes32,address)": {
        "details": "Grants `role` to `account`. If `account` had not been already granted `role`, emits a {RoleGranted} event. Requirements: - the caller must have ``role``'s admin role."
      },
      "hasRole(bytes32,address)": {
        "details": "Returns `true` if `account` has been granted `role`."
      },
      "initialize()": {
        "details": "fully initializes the contract and its parents"
      },
      "isProgramActive(uint256)": {
        "details": "returns whether the specified program is active"
      },
      "isProgramEnabled(uint256)": {
        "details": "returns whether the specified program is enabled"
      },
      "join(uint256,uint256)": {
        "details": "adds a provider to the program requirements: - the caller must have approved the contract to transfer pool tokens on its behalf"
      },
      "joinPermitted(uint256,uint256,uint256,uint8,bytes32,bytes32)": {
        "details": "adds provider's stake to the program by providing an EIP712 typed signature for an EIP2612 permit request requirements: - the caller must have specified a valid and unused EIP712 typed signature"
      },
      "leave(uint256,uint256)": {
        "details": "removes (some of) provider's stake from the program requirements: - the caller must have specified a valid and unused EIP712 typed signature"
      },
      "pendingRewards(address,uint256[])": {
        "details": "returns provider's pending rewards requirements: - the specified program ids array needs to consist from unique and existing program ids with the same reward   token"
      },
      "programStake(uint256)": {
        "details": "returns the total staked amount in a specific program"
      },
      "programs(uint256[])": {
        "details": "returns program data for each specified program id"
      },
      "programsIds()": {
        "details": "returns all program ids"
      },
      "providerProgramIds(address)": {
        "details": "returns all the program ids that the provider participates in"
      },
      "providerStake(address,uint256)": {
        "details": "returns the total staked amount of a specific provider in a specific program"
      },
      "renounceRole(bytes32,address)": {
        "details": "Revokes `role` from the calling account. Roles are often managed via {grantRole} and {revokeRole}: this function's purpose is to provide a mechanism for accounts to lose their privileges if they are compromised (such as when a trusted device is misplaced). If the calling account had been revoked `role`, emits a {RoleRevoked} event. Requirements: - the caller must be `account`."
      },
      "revokeRole(bytes32,address)": {
        "details": "Revokes `role` from `account`. If `account` had been granted `role`, emits a {RoleRevoked} event. Requirements: - the caller must have ``role``'s admin role."
      },
      "roleAdmin()": {
        "details": "returns the admin role"
      },
      "stakeRewards(uint256[],uint256)": {
        "details": "claims and stake rewards and returns the claimed reward amount and the received pool token amount requirements: - the specified program ids array needs to consist from unique and existing program ids with the same reward   token - the rewards token must have been whitelisted with an existing pool"
      },
      "supportsInterface(bytes4)": {
        "details": "See {IERC165-supportsInterface}."
      },
      "terminateProgram(uint256)": {
        "details": "terminates a rewards program requirements: - the caller must be the admin of the contract - the program must exist and be the active program for its pool"
      }
    },
    "version": 1
  },
  "userdoc": {
    "kind": "user",
    "methods": {},
    "version": 1
  },
  "storageLayout": {
    "storage": [
      {
        "astId": 644,
        "contract": "contracts/staking-rewards/StandardStakingRewards.sol:StandardStakingRewards",
        "label": "_initialized",
        "offset": 0,
        "slot": "0",
        "type": "t_bool"
      },
      {
        "astId": 647,
        "contract": "contracts/staking-rewards/StandardStakingRewards.sol:StandardStakingRewards",
        "label": "_initializing",
        "offset": 1,
        "slot": "0",
        "type": "t_bool"
      },
      {
        "astId": 1165,
        "contract": "contracts/staking-rewards/StandardStakingRewards.sol:StandardStakingRewards",
        "label": "__gap",
        "offset": 0,
        "slot": "1",
        "type": "t_array(t_uint256)50_storage"
      },
      {
        "astId": 836,
        "contract": "contracts/staking-rewards/StandardStakingRewards.sol:StandardStakingRewards",
        "label": "_status",
        "offset": 0,
        "slot": "51",
        "type": "t_uint256"
      },
      {
        "astId": 880,
        "contract": "contracts/staking-rewards/StandardStakingRewards.sol:StandardStakingRewards",
        "label": "__gap",
        "offset": 0,
        "slot": "52",
        "type": "t_array(t_uint256)49_storage"
      },
      {
        "astId": 1412,
        "contract": "contracts/staking-rewards/StandardStakingRewards.sol:StandardStakingRewards",
        "label": "__gap",
        "offset": 0,
        "slot": "101",
        "type": "t_array(t_uint256)50_storage"
      },
      {
        "astId": 250,
        "contract": "contracts/staking-rewards/StandardStakingRewards.sol:StandardStakingRewards",
        "label": "_roles",
        "offset": 0,
        "slot": "151",
        "type": "t_mapping(t_bytes32,t_struct(RoleData)245_storage)"
      },
      {
        "astId": 538,
        "contract": "contracts/staking-rewards/StandardStakingRewards.sol:StandardStakingRewards",
        "label": "__gap",
        "offset": 0,
        "slot": "152",
        "type": "t_array(t_uint256)49_storage"
      },
      {
        "astId": 99,
        "contract": "contracts/staking-rewards/StandardStakingRewards.sol:StandardStakingRewards",
        "label": "_roleMembers",
        "offset": 0,
        "slot": "201",
        "type": "t_mapping(t_bytes32,t_struct(AddressSet)1737_storage)"
      },
      {
        "astId": 209,
        "contract": "contracts/staking-rewards/StandardStakingRewards.sol:StandardStakingRewards",
        "label": "__gap",
        "offset": 0,
        "slot": "202",
        "type": "t_array(t_uint256)49_storage"
      },
      {
        "astId": 25671,
        "contract": "contracts/staking-rewards/StandardStakingRewards.sol:StandardStakingRewards",
        "label": "_nextProgramId",
        "offset": 0,
        "slot": "251",
        "type": "t_uint256"
      },
      {
        "astId": 25676,
        "contract": "contracts/staking-rewards/StandardStakingRewards.sol:StandardStakingRewards",
        "label": "_programIdsByProvider",
        "offset": 0,
        "slot": "252",
        "type": "t_mapping(t_address,t_struct(UintSet)1894_storage)"
      },
      {
        "astId": 25681,
        "contract": "contracts/staking-rewards/StandardStakingRewards.sol:StandardStakingRewards",
        "label": "_programs",
        "offset": 0,
        "slot": "253",
        "type": "t_mapping(t_uint256,t_struct(ProgramData)28043_storage)"
      },
      {
        "astId": 25686,
        "contract": "contracts/staking-rewards/StandardStakingRewards.sol:StandardStakingRewards",
        "label": "_activeProgramIdByPool",
        "offset": 0,
        "slot": "254",
        "type": "t_mapping(t_contract(Token)28365,t_uint256)"
      },
      {
        "astId": 25691,
        "contract": "contracts/staking-rewards/StandardStakingRewards.sol:StandardStakingRewards",
        "label": "_programRewards",
        "offset": 0,
        "slot": "255",
        "type": "t_mapping(t_uint256,t_struct(Rewards)25602_storage)"
      },
      {
        "astId": 25698,
        "contract": "contracts/staking-rewards/StandardStakingRewards.sol:StandardStakingRewards",
        "label": "_providerRewards",
        "offset": 0,
        "slot": "256",
        "type": "t_mapping(t_address,t_mapping(t_uint256,t_struct(ProviderRewards)25611_storage))"
      },
      {
        "astId": 25702,
        "contract": "contracts/staking-rewards/StandardStakingRewards.sol:StandardStakingRewards",
        "label": "_programStakes",
        "offset": 0,
        "slot": "257",
        "type": "t_mapping(t_uint256,t_uint256)"
      },
      {
        "astId": 25707,
        "contract": "contracts/staking-rewards/StandardStakingRewards.sol:StandardStakingRewards",
        "label": "_unclaimedRewards",
        "offset": 0,
        "slot": "258",
        "type": "t_mapping(t_contract(Token)28365,t_uint256)"
      },
      {
        "astId": 25713,
        "contract": "contracts/staking-rewards/StandardStakingRewards.sol:StandardStakingRewards",
        "label": "__gap",
        "offset": 0,
        "slot": "259",
        "type": "t_array(t_uint256)42_storage"
      }
    ],
    "types": {
      "t_address": {
        "encoding": "inplace",
        "label": "address",
        "numberOfBytes": "20"
      },
      "t_array(t_bytes32)dyn_storage": {
        "base": "t_bytes32",
        "encoding": "dynamic_array",
        "label": "bytes32[]",
        "numberOfBytes": "32"
      },
      "t_array(t_uint256)42_storage": {
        "base": "t_uint256",
        "encoding": "inplace",
        "label": "uint256[42]",
        "numberOfBytes": "1344"
      },
      "t_array(t_uint256)49_storage": {
        "base": "t_uint256",
        "encoding": "inplace",
        "label": "uint256[49]",
        "numberOfBytes": "1568"
      },
      "t_array(t_uint256)50_storage": {
        "base": "t_uint256",
        "encoding": "inplace",
        "label": "uint256[50]",
        "numberOfBytes": "1600"
      },
      "t_bool": {
        "encoding": "inplace",
        "label": "bool",
        "numberOfBytes": "1"
      },
      "t_bytes32": {
        "encoding": "inplace",
        "label": "bytes32",
        "numberOfBytes": "32"
      },
      "t_contract(IPoolToken)24386": {
        "encoding": "inplace",
        "label": "contract IPoolToken",
        "numberOfBytes": "20"
      },
      "t_contract(Token)28365": {
        "encoding": "inplace",
        "label": "contract Token",
        "numberOfBytes": "20"
      },
      "t_mapping(t_address,t_bool)": {
        "encoding": "mapping",
        "key": "t_address",
        "label": "mapping(address => bool)",
        "numberOfBytes": "32",
        "value": "t_bool"
      },
      "t_mapping(t_address,t_mapping(t_uint256,t_struct(ProviderRewards)25611_storage))": {
        "encoding": "mapping",
        "key": "t_address",
        "label": "mapping(address => mapping(uint256 => struct StandardStakingRewards.ProviderRewards))",
        "numberOfBytes": "32",
        "value": "t_mapping(t_uint256,t_struct(ProviderRewards)25611_storage)"
      },
      "t_mapping(t_address,t_struct(UintSet)1894_storage)": {
        "encoding": "mapping",
        "key": "t_address",
        "label": "mapping(address => struct EnumerableSetUpgradeable.UintSet)",
        "numberOfBytes": "32",
        "value": "t_struct(UintSet)1894_storage"
      },
      "t_mapping(t_bytes32,t_struct(AddressSet)1737_storage)": {
        "encoding": "mapping",
        "key": "t_bytes32",
        "label": "mapping(bytes32 => struct EnumerableSetUpgradeable.AddressSet)",
        "numberOfBytes": "32",
        "value": "t_struct(AddressSet)1737_storage"
      },
      "t_mapping(t_bytes32,t_struct(RoleData)245_storage)": {
        "encoding": "mapping",
        "key": "t_bytes32",
        "label": "mapping(bytes32 => struct AccessControlUpgradeable.RoleData)",
        "numberOfBytes": "32",
        "value": "t_struct(RoleData)245_storage"
      },
      "t_mapping(t_bytes32,t_uint256)": {
        "encoding": "mapping",
        "key": "t_bytes32",
        "label": "mapping(bytes32 => uint256)",
        "numberOfBytes": "32",
        "value": "t_uint256"
      },
      "t_mapping(t_contract(Token)28365,t_uint256)": {
        "encoding": "mapping",
        "key": "t_contract(Token)28365",
        "label": "mapping(contract Token => uint256)",
        "numberOfBytes": "32",
        "value": "t_uint256"
      },
      "t_mapping(t_uint256,t_struct(ProgramData)28043_storage)": {
        "encoding": "mapping",
        "key": "t_uint256",
        "label": "mapping(uint256 => struct ProgramData)",
        "numberOfBytes": "32",
        "value": "t_struct(ProgramData)28043_storage"
      },
      "t_mapping(t_uint256,t_struct(ProviderRewards)25611_storage)": {
        "encoding": "mapping",
        "key": "t_uint256",
        "label": "mapping(uint256 => struct StandardStakingRewards.ProviderRewards)",
        "numberOfBytes": "32",
        "value": "t_struct(ProviderRewards)25611_storage"
      },
      "t_mapping(t_uint256,t_struct(Rewards)25602_storage)": {
        "encoding": "mapping",
        "key": "t_uint256",
        "label": "mapping(uint256 => struct StandardStakingRewards.Rewards)",
        "numberOfBytes": "32",
        "value": "t_struct(Rewards)25602_storage"
      },
      "t_mapping(t_uint256,t_uint256)": {
        "encoding": "mapping",
        "key": "t_uint256",
        "label": "mapping(uint256 => uint256)",
        "numberOfBytes": "32",
        "value": "t_uint256"
      },
      "t_struct(AddressSet)1737_storage": {
        "encoding": "inplace",
        "label": "struct EnumerableSetUpgradeable.AddressSet",
        "members": [
          {
            "astId": 1736,
            "contract": "contracts/staking-rewards/StandardStakingRewards.sol:StandardStakingRewards",
            "label": "_inner",
            "offset": 0,
            "slot": "0",
            "type": "t_struct(Set)1436_storage"
          }
        ],
        "numberOfBytes": "64"
      },
      "t_struct(ProgramData)28043_storage": {
        "encoding": "inplace",
        "label": "struct ProgramData",
        "members": [
          {
            "astId": 28025,
            "contract": "contracts/staking-rewards/StandardStakingRewards.sol:StandardStakingRewards",
            "label": "id",
            "offset": 0,
            "slot": "0",
            "type": "t_uint256"
          },
          {
            "astId": 28028,
            "contract": "contracts/staking-rewards/StandardStakingRewards.sol:StandardStakingRewards",
            "label": "pool",
            "offset": 0,
            "slot": "1",
            "type": "t_contract(Token)28365"
          },
          {
            "astId": 28031,
            "contract": "contracts/staking-rewards/StandardStakingRewards.sol:StandardStakingRewards",
            "label": "poolToken",
            "offset": 0,
            "slot": "2",
            "type": "t_contract(IPoolToken)24386"
          },
          {
            "astId": 28034,
            "contract": "contracts/staking-rewards/StandardStakingRewards.sol:StandardStakingRewards",
            "label": "rewardsToken",
            "offset": 0,
            "slot": "3",
            "type": "t_contract(Token)28365"
          },
          {
            "astId": 28036,
            "contract": "contracts/staking-rewards/StandardStakingRewards.sol:StandardStakingRewards",
            "label": "isEnabled",
            "offset": 20,
            "slot": "3",
            "type": "t_bool"
          },
          {
            "astId": 28038,
            "contract": "contracts/staking-rewards/StandardStakingRewards.sol:StandardStakingRewards",
            "label": "startTime",
            "offset": 21,
            "slot": "3",
            "type": "t_uint32"
          },
          {
            "astId": 28040,
            "contract": "contracts/staking-rewards/StandardStakingRewards.sol:StandardStakingRewards",
            "label": "endTime",
            "offset": 25,
            "slot": "3",
            "type": "t_uint32"
          },
          {
            "astId": 28042,
            "contract": "contracts/staking-rewards/StandardStakingRewards.sol:StandardStakingRewards",
            "label": "rewardRate",
            "offset": 0,
            "slot": "4",
            "type": "t_uint256"
          }
        ],
        "numberOfBytes": "160"
      },
      "t_struct(ProviderRewards)25611_storage": {
        "encoding": "inplace",
        "label": "struct StandardStakingRewards.ProviderRewards",
        "members": [
          {
            "astId": 25604,
            "contract": "contracts/staking-rewards/StandardStakingRewards.sol:StandardStakingRewards",
            "label": "rewardPerTokenPaid",
            "offset": 0,
            "slot": "0",
            "type": "t_uint256"
          },
          {
            "astId": 25606,
            "contract": "contracts/staking-rewards/StandardStakingRewards.sol:StandardStakingRewards",
            "label": "pendingRewards",
            "offset": 0,
            "slot": "1",
            "type": "t_uint256"
          },
          {
            "astId": 25608,
            "contract": "contracts/staking-rewards/StandardStakingRewards.sol:StandardStakingRewards",
            "label": "claimedRewards",
            "offset": 0,
            "slot": "2",
            "type": "t_uint256"
          },
          {
            "astId": 25610,
            "contract": "contracts/staking-rewards/StandardStakingRewards.sol:StandardStakingRewards",
            "label": "stakedAmount",
            "offset": 0,
            "slot": "3",
            "type": "t_uint256"
          }
        ],
        "numberOfBytes": "128"
      },
      "t_struct(Rewards)25602_storage": {
        "encoding": "inplace",
        "label": "struct StandardStakingRewards.Rewards",
        "members": [
          {
            "astId": 25599,
            "contract": "contracts/staking-rewards/StandardStakingRewards.sol:StandardStakingRewards",
            "label": "lastUpdateTime",
            "offset": 0,
            "slot": "0",
            "type": "t_uint32"
          },
          {
            "astId": 25601,
            "contract": "contracts/staking-rewards/StandardStakingRewards.sol:StandardStakingRewards",
            "label": "rewardPerToken",
            "offset": 0,
            "slot": "1",
            "type": "t_uint256"
          }
        ],
        "numberOfBytes": "64"
      },
      "t_struct(RoleData)245_storage": {
        "encoding": "inplace",
        "label": "struct AccessControlUpgradeable.RoleData",
        "members": [
          {
            "astId": 242,
            "contract": "contracts/staking-rewards/StandardStakingRewards.sol:StandardStakingRewards",
            "label": "members",
            "offset": 0,
            "slot": "0",
            "type": "t_mapping(t_address,t_bool)"
          },
          {
            "astId": 244,
            "contract": "contracts/staking-rewards/StandardStakingRewards.sol:StandardStakingRewards",
            "label": "adminRole",
            "offset": 0,
            "slot": "1",
            "type": "t_bytes32"
          }
        ],
        "numberOfBytes": "64"
      },
      "t_struct(Set)1436_storage": {
        "encoding": "inplace",
        "label": "struct EnumerableSetUpgradeable.Set",
        "members": [
          {
            "astId": 1431,
            "contract": "contracts/staking-rewards/StandardStakingRewards.sol:StandardStakingRewards",
            "label": "_values",
            "offset": 0,
            "slot": "0",
            "type": "t_array(t_bytes32)dyn_storage"
          },
          {
            "astId": 1435,
            "contract": "contracts/staking-rewards/StandardStakingRewards.sol:StandardStakingRewards",
            "label": "_indexes",
            "offset": 0,
            "slot": "1",
            "type": "t_mapping(t_bytes32,t_uint256)"
          }
        ],
        "numberOfBytes": "64"
      },
      "t_struct(UintSet)1894_storage": {
        "encoding": "inplace",
        "label": "struct EnumerableSetUpgradeable.UintSet",
        "members": [
          {
            "astId": 1893,
            "contract": "contracts/staking-rewards/StandardStakingRewards.sol:StandardStakingRewards",
            "label": "_inner",
            "offset": 0,
            "slot": "0",
            "type": "t_struct(Set)1436_storage"
          }
        ],
        "numberOfBytes": "64"
      },
      "t_uint256": {
        "encoding": "inplace",
        "label": "uint256",
        "numberOfBytes": "32"
      },
      "t_uint32": {
        "encoding": "inplace",
        "label": "uint32",
        "numberOfBytes": "4"
      }
    }
  }
}